{"abi":[{"inputs":[{"internalType":"string","name":"_id","type":"string"},{"internalType":"string","name":"_titre","type":"string"},{"internalType":"string","name":"_adr1","type":"string"},{"internalType":"string","name":"_adrs_codepostal","type":"string"}],"name":"addAssociation","outputs":[],"stateMutability":"nonpayable","type":"function"},{"inputs":[{"internalType":"string","name":"","type":"string"}],"name":"associations","outputs":[{"internalType":"string","name":"id","type":"string"},{"internalType":"string","name":"titre","type":"string"},{"internalType":"string","name":"adr1","type":"string"},{"internalType":"string","name":"adrs_codepostal","type":"string"}],"stateMutability":"view","type":"function"},{"inputs":[],"name":"getAllAssociations","outputs":[{"components":[{"internalType":"string","name":"id","type":"string"},{"internalType":"string","name":"titre","type":"string"},{"internalType":"string","name":"adr1","type":"string"},{"internalType":"string","name":"adrs_codepostal","type":"string"}],"internalType":"struct AssociationVerifier.Association[]","name":"","type":"tuple[]"}],"stateMutability":"view","type":"function"},{"inputs":[{"internalType":"string","name":"_id","type":"string"}],"name":"getAssociation","outputs":[{"components":[{"internalType":"string","name":"id","type":"string"},{"internalType":"string","name":"titre","type":"string"},{"internalType":"string","name":"adr1","type":"string"},{"internalType":"string","name":"adrs_codepostal","type":"string"}],"internalType":"struct AssociationVerifier.Association","name":"","type":"tuple"}],"stateMutability":"view","type":"function"}],"devdoc":{"kind":"dev","methods":{},"version":1},"evm":{"assembly":"    /* \"AssociationVerifier.sol\":60:1854  contract AssociationVerifier {... */\n  mstore(0x40, 0x80)\n  callvalue\n  dup1\n  iszero\n  tag_1\n  jumpi\n  0x00\n  dup1\n  revert\ntag_1:\n  pop\n  dataSize(sub_0)\n  dup1\n  dataOffset(sub_0)\n  0x00\n  codecopy\n  0x00\n  return\nstop\n\nsub_0: assembly {\n        /* \"AssociationVerifier.sol\":60:1854  contract AssociationVerifier {... */\n      mstore(0x40, 0x80)\n      callvalue\n      dup1\n      iszero\n      tag_1\n      jumpi\n      0x00\n      dup1\n      revert\n    tag_1:\n      pop\n      jumpi(tag_2, lt(calldatasize, 0x04))\n      shr(0xe0, calldataload(0x00))\n      dup1\n      0x46492563\n      eq\n      tag_3\n      jumpi\n      dup1\n      0x6aec2c7d\n      eq\n      tag_4\n      jumpi\n      dup1\n      0x6dcef697\n      eq\n      tag_5\n      jumpi\n      dup1\n      0x8bf18321\n      eq\n      tag_6\n      jumpi\n    tag_2:\n      0x00\n      dup1\n      revert\n        /* \"AssociationVerifier.sol\":493:1135  function addAssociation(... */\n    tag_3:\n      tag_7\n      0x04\n      dup1\n      calldatasize\n      sub\n      dup2\n      add\n      swap1\n      tag_8\n      swap2\n      swap1\n      tag_9\n      jump\t// in\n    tag_8:\n      tag_10\n      jump\t// in\n    tag_7:\n      stop\n        /* \"AssociationVerifier.sol\":291:341  mapping(string => Association) public associations */\n    tag_4:\n      tag_11\n      0x04\n      dup1\n      calldatasize\n      sub\n      dup2\n      add\n      swap1\n      tag_12\n      swap2\n      swap1\n      tag_13\n      jump\t// in\n    tag_12:\n      tag_14\n      jump\t// in\n    tag_11:\n      mload(0x40)\n      tag_15\n      swap5\n      swap4\n      swap3\n      swap2\n      swap1\n      tag_16\n      jump\t// in\n    tag_15:\n      mload(0x40)\n      dup1\n      swap2\n      sub\n      swap1\n      return\n        /* \"AssociationVerifier.sol\":1378:1851  function getAllAssociations() public view returns (Association[] memory) {... */\n    tag_5:\n      tag_17\n      tag_18\n      jump\t// in\n    tag_17:\n      mload(0x40)\n      tag_19\n      swap2\n      swap1\n      tag_20\n      jump\t// in\n    tag_19:\n      mload(0x40)\n      dup1\n      swap2\n      sub\n      swap1\n      return\n        /* \"AssociationVerifier.sol\":1193:1320  function getAssociation(string memory _id) public view returns (Association memory) {... */\n    tag_6:\n      tag_21\n      0x04\n      dup1\n      calldatasize\n      sub\n      dup2\n      add\n      swap1\n      tag_22\n      swap2\n      swap1\n      tag_13\n      jump\t// in\n    tag_22:\n      tag_23\n      jump\t// in\n    tag_21:\n      mload(0x40)\n      tag_24\n      swap2\n      swap1\n      tag_25\n      jump\t// in\n    tag_24:\n      mload(0x40)\n      dup1\n      swap2\n      sub\n      swap1\n      return\n        /* \"AssociationVerifier.sol\":493:1135  function addAssociation(... */\n    tag_10:\n        /* \"AssociationVerifier.sol\":776:777  0 */\n      0x00\n        /* \"AssociationVerifier.sol\":744:756  associations */\n      dup1\n        /* \"AssociationVerifier.sol\":757:760  _id */\n      dup6\n        /* \"AssociationVerifier.sol\":744:761  associations[_id] */\n      mload(0x40)\n      tag_27\n      swap2\n      swap1\n      tag_28\n      jump\t// in\n    tag_27:\n      swap1\n      dup2\n      mstore\n      0x20\n      add\n      mload(0x40)\n      dup1\n      swap2\n      sub\n      swap1\n      keccak256\n        /* \"AssociationVerifier.sol\":744:764  associations[_id].id */\n      0x00\n      add\n        /* \"AssociationVerifier.sol\":738:772  bytes(associations[_id].id).length */\n      dup1\n      sload\n      tag_29\n      swap1\n      tag_30\n      jump\t// in\n    tag_29:\n      swap1\n      pop\n        /* \"AssociationVerifier.sol\":738:777  bytes(associations[_id].id).length == 0 */\n      eq\n        /* \"AssociationVerifier.sol\":730:808  require(bytes(associations[_id].id).length == 0, \"Association already exists\") */\n      tag_31\n      jumpi\n      mload(0x40)\n      0x08c379a000000000000000000000000000000000000000000000000000000000\n      dup2\n      mstore\n      0x04\n      add\n      tag_32\n      swap1\n      tag_33\n      jump\t// in\n    tag_32:\n      mload(0x40)\n      dup1\n      swap2\n      sub\n      swap1\n      revert\n    tag_31:\n        /* \"AssociationVerifier.sol\":888:1036  Association({... */\n      mload(0x40)\n      dup1\n      0x80\n      add\n      0x40\n      mstore\n      dup1\n        /* \"AssociationVerifier.sol\":919:922  _id */\n      dup6\n        /* \"AssociationVerifier.sol\":888:1036  Association({... */\n      dup2\n      mstore\n      0x20\n      add\n        /* \"AssociationVerifier.sol\":944:950  _titre */\n      dup5\n        /* \"AssociationVerifier.sol\":888:1036  Association({... */\n      dup2\n      mstore\n      0x20\n      add\n        /* \"AssociationVerifier.sol\":971:976  _adr1 */\n      dup4\n        /* \"AssociationVerifier.sol\":888:1036  Association({... */\n      dup2\n      mstore\n      0x20\n      add\n        /* \"AssociationVerifier.sol\":1008:1024  _adrs_codepostal */\n      dup3\n        /* \"AssociationVerifier.sol\":888:1036  Association({... */\n      dup2\n      mstore\n      pop\n        /* \"AssociationVerifier.sol\":868:880  associations */\n      0x00\n        /* \"AssociationVerifier.sol\":881:884  _id */\n      dup6\n        /* \"AssociationVerifier.sol\":868:885  associations[_id] */\n      mload(0x40)\n      tag_34\n      swap2\n      swap1\n      tag_28\n      jump\t// in\n    tag_34:\n      swap1\n      dup2\n      mstore\n      0x20\n      add\n      mload(0x40)\n      dup1\n      swap2\n      sub\n      swap1\n      keccak256\n        /* \"AssociationVerifier.sol\":868:1036  associations[_id] = Association({... */\n      0x00\n      dup3\n      add\n      mload\n      dup2\n      0x00\n      add\n      swap1\n      dup2\n      tag_35\n      swap2\n      swap1\n      tag_36\n      jump\t// in\n    tag_35:\n      pop\n      0x20\n      dup3\n      add\n      mload\n      dup2\n      0x01\n      add\n      swap1\n      dup2\n      tag_37\n      swap2\n      swap1\n      tag_36\n      jump\t// in\n    tag_37:\n      pop\n      0x40\n      dup3\n      add\n      mload\n      dup2\n      0x02\n      add\n      swap1\n      dup2\n      tag_38\n      swap2\n      swap1\n      tag_36\n      jump\t// in\n    tag_38:\n      pop\n      0x60\n      dup3\n      add\n      mload\n      dup2\n      0x03\n      add\n      swap1\n      dup2\n      tag_39\n      swap2\n      swap1\n      tag_36\n      jump\t// in\n    tag_39:\n      pop\n      swap1\n      pop\n      pop\n        /* \"AssociationVerifier.sol\":1103:1117  associationIds */\n      0x01\n        /* \"AssociationVerifier.sol\":1123:1126  _id */\n      dup5\n        /* \"AssociationVerifier.sol\":1103:1127  associationIds.push(_id) */\n      swap1\n      dup1\n      0x01\n      dup2\n      sload\n      add\n      dup1\n      dup3\n      sstore\n      dup1\n      swap2\n      pop\n      pop\n      0x01\n      swap1\n      sub\n      swap1\n      0x00\n      mstore\n      keccak256(0x00, 0x20)\n      add\n      0x00\n      swap1\n      swap2\n      swap1\n      swap2\n      swap1\n      swap2\n      pop\n      swap1\n      dup2\n      tag_41\n      swap2\n      swap1\n      tag_36\n      jump\t// in\n    tag_41:\n      pop\n        /* \"AssociationVerifier.sol\":493:1135  function addAssociation(... */\n      pop\n      pop\n      pop\n      pop\n      jump\t// out\n        /* \"AssociationVerifier.sol\":291:341  mapping(string => Association) public associations */\n    tag_14:\n      0x00\n      dup2\n      dup1\n      mload\n      0x20\n      dup2\n      add\n      dup3\n      add\n      dup1\n      mload\n      dup5\n      dup3\n      mstore\n      0x20\n      dup4\n      add\n      0x20\n      dup6\n      add\n      keccak256\n      dup2\n      dup4\n      mstore\n      dup1\n      swap6\n      pop\n      pop\n      pop\n      pop\n      pop\n      pop\n      0x00\n      swap2\n      pop\n      swap1\n      pop\n      dup1\n      0x00\n      add\n      dup1\n      sload\n      tag_42\n      swap1\n      tag_30\n      jump\t// in\n    tag_42:\n      dup1\n      0x1f\n      add\n      0x20\n      dup1\n      swap2\n      div\n      mul\n      0x20\n      add\n      mload(0x40)\n      swap1\n      dup2\n      add\n      0x40\n      mstore\n      dup1\n      swap3\n      swap2\n      swap1\n      dup2\n      dup2\n      mstore\n      0x20\n      add\n      dup3\n      dup1\n      sload\n      tag_43\n      swap1\n      tag_30\n      jump\t// in\n    tag_43:\n      dup1\n      iszero\n      tag_44\n      jumpi\n      dup1\n      0x1f\n      lt\n      tag_45\n      jumpi\n      0x0100\n      dup1\n      dup4\n      sload\n      div\n      mul\n      dup4\n      mstore\n      swap2\n      0x20\n      add\n      swap2\n      jump(tag_44)\n    tag_45:\n      dup3\n      add\n      swap2\n      swap1\n      0x00\n      mstore\n      keccak256(0x00, 0x20)\n      swap1\n    tag_46:\n      dup2\n      sload\n      dup2\n      mstore\n      swap1\n      0x01\n      add\n      swap1\n      0x20\n      add\n      dup1\n      dup4\n      gt\n      tag_46\n      jumpi\n      dup3\n      swap1\n      sub\n      0x1f\n      and\n      dup3\n      add\n      swap2\n    tag_44:\n      pop\n      pop\n      pop\n      pop\n      pop\n      swap1\n      dup1\n      0x01\n      add\n      dup1\n      sload\n      tag_47\n      swap1\n      tag_30\n      jump\t// in\n    tag_47:\n      dup1\n      0x1f\n      add\n      0x20\n      dup1\n      swap2\n      div\n      mul\n      0x20\n      add\n      mload(0x40)\n      swap1\n      dup2\n      add\n      0x40\n      mstore\n      dup1\n      swap3\n      swap2\n      swap1\n      dup2\n      dup2\n      mstore\n      0x20\n      add\n      dup3\n      dup1\n      sload\n      tag_48\n      swap1\n      tag_30\n      jump\t// in\n    tag_48:\n      dup1\n      iszero\n      tag_49\n      jumpi\n      dup1\n      0x1f\n      lt\n      tag_50\n      jumpi\n      0x0100\n      dup1\n      dup4\n      sload\n      div\n      mul\n      dup4\n      mstore\n      swap2\n      0x20\n      add\n      swap2\n      jump(tag_49)\n    tag_50:\n      dup3\n      add\n      swap2\n      swap1\n      0x00\n      mstore\n      keccak256(0x00, 0x20)\n      swap1\n    tag_51:\n      dup2\n      sload\n      dup2\n      mstore\n      swap1\n      0x01\n      add\n      swap1\n      0x20\n      add\n      dup1\n      dup4\n      gt\n      tag_51\n      jumpi\n      dup3\n      swap1\n      sub\n      0x1f\n      and\n      dup3\n      add\n      swap2\n    tag_49:\n      pop\n      pop\n      pop\n      pop\n      pop\n      swap1\n      dup1\n      0x02\n      add\n      dup1\n      sload\n      tag_52\n      swap1\n      tag_30\n      jump\t// in\n    tag_52:\n      dup1\n      0x1f\n      add\n      0x20\n      dup1\n      swap2\n      div\n      mul\n      0x20\n      add\n      mload(0x40)\n      swap1\n      dup2\n      add\n      0x40\n      mstore\n      dup1\n      swap3\n      swap2\n      swap1\n      dup2\n      dup2\n      mstore\n      0x20\n      add\n      dup3\n      dup1\n      sload\n      tag_53\n      swap1\n      tag_30\n      jump\t// in\n    tag_53:\n      dup1\n      iszero\n      tag_54\n      jumpi\n      dup1\n      0x1f\n      lt\n      tag_55\n      jumpi\n      0x0100\n      dup1\n      dup4\n      sload\n      div\n      mul\n      dup4\n      mstore\n      swap2\n      0x20\n      add\n      swap2\n      jump(tag_54)\n    tag_55:\n      dup3\n      add\n      swap2\n      swap1\n      0x00\n      mstore\n      keccak256(0x00, 0x20)\n      swap1\n    tag_56:\n      dup2\n      sload\n      dup2\n      mstore\n      swap1\n      0x01\n      add\n      swap1\n      0x20\n      add\n      dup1\n      dup4\n      gt\n      tag_56\n      jumpi\n      dup3\n      swap1\n      sub\n      0x1f\n      and\n      dup3\n      add\n      swap2\n    tag_54:\n      pop\n      pop\n      pop\n      pop\n      pop\n      swap1\n      dup1\n      0x03\n      add\n      dup1\n      sload\n      tag_57\n      swap1\n      tag_30\n      jump\t// in\n    tag_57:\n      dup1\n      0x1f\n      add\n      0x20\n      dup1\n      swap2\n      div\n      mul\n      0x20\n      add\n      mload(0x40)\n      swap1\n      dup2\n      add\n      0x40\n      mstore\n      dup1\n      swap3\n      swap2\n      swap1\n      dup2\n      dup2\n      mstore\n      0x20\n      add\n      dup3\n      dup1\n      sload\n      tag_58\n      swap1\n      tag_30\n      jump\t// in\n    tag_58:\n      dup1\n      iszero\n      tag_59\n      jumpi\n      dup1\n      0x1f\n      lt\n      tag_60\n      jumpi\n      0x0100\n      dup1\n      dup4\n      sload\n      div\n      mul\n      dup4\n      mstore\n      swap2\n      0x20\n      add\n      swap2\n      jump(tag_59)\n    tag_60:\n      dup3\n      add\n      swap2\n      swap1\n      0x00\n      mstore\n      keccak256(0x00, 0x20)\n      swap1\n    tag_61:\n      dup2\n      sload\n      dup2\n      mstore\n      swap1\n      0x01\n      add\n      swap1\n      0x20\n      add\n      dup1\n      dup4\n      gt\n      tag_61\n      jumpi\n      dup3\n      swap1\n      sub\n      0x1f\n      and\n      dup3\n      add\n      swap2\n    tag_59:\n      pop\n      pop\n      pop\n      pop\n      pop\n      swap1\n      pop\n      dup5\n      jump\t// out\n        /* \"AssociationVerifier.sol\":1378:1851  function getAllAssociations() public view returns (Association[] memory) {... */\n    tag_18:\n        /* \"AssociationVerifier.sol\":1429:1449  Association[] memory */\n      0x60\n        /* \"AssociationVerifier.sol\":1533:1569  Association[] memory allAssociations */\n      0x00\n        /* \"AssociationVerifier.sol\":1590:1604  associationIds */\n      0x01\n        /* \"AssociationVerifier.sol\":1590:1611  associationIds.length */\n      dup1\n      sload\n      swap1\n      pop\n        /* \"AssociationVerifier.sol\":1572:1612  new Association[](associationIds.length) */\n      0xffffffffffffffff\n      dup2\n      gt\n      iszero\n      tag_63\n      jumpi\n      tag_64\n      tag_65\n      jump\t// in\n    tag_64:\n    tag_63:\n      mload(0x40)\n      swap1\n      dup1\n      dup3\n      mstore\n      dup1\n      0x20\n      mul\n      0x20\n      add\n      dup3\n      add\n      0x40\n      mstore\n      dup1\n      iszero\n      tag_66\n      jumpi\n      dup2\n      0x20\n      add\n    tag_67:\n      tag_68\n      tag_69\n      jump\t// in\n    tag_68:\n      dup2\n      mstore\n      0x20\n      add\n      swap1\n      0x01\n      swap1\n      sub\n      swap1\n      dup2\n      tag_67\n      jumpi\n      swap1\n      pop\n    tag_66:\n      pop\n        /* \"AssociationVerifier.sol\":1533:1612  Association[] memory allAssociations = new Association[](associationIds.length) */\n      swap1\n      pop\n        /* \"AssociationVerifier.sol\":1683:1692  uint256 i */\n      0x00\n        /* \"AssociationVerifier.sol\":1678:1809  for (uint256 i = 0; i < associationIds.length; i++) {... */\n    tag_70:\n        /* \"AssociationVerifier.sol\":1702:1716  associationIds */\n      0x01\n        /* \"AssociationVerifier.sol\":1702:1723  associationIds.length */\n      dup1\n      sload\n      swap1\n      pop\n        /* \"AssociationVerifier.sol\":1698:1699  i */\n      dup2\n        /* \"AssociationVerifier.sol\":1698:1723  i < associationIds.length */\n      lt\n        /* \"AssociationVerifier.sol\":1678:1809  for (uint256 i = 0; i < associationIds.length; i++) {... */\n      iszero\n      tag_71\n      jumpi\n        /* \"AssociationVerifier.sol\":1766:1778  associations */\n      0x00\n        /* \"AssociationVerifier.sol\":1779:1793  associationIds */\n      0x01\n        /* \"AssociationVerifier.sol\":1794:1795  i */\n      dup3\n        /* \"AssociationVerifier.sol\":1779:1796  associationIds[i] */\n      dup2\n      sload\n      dup2\n      lt\n      tag_73\n      jumpi\n      tag_74\n      tag_75\n      jump\t// in\n    tag_74:\n    tag_73:\n      swap1\n      0x00\n      mstore\n      keccak256(0x00, 0x20)\n      add\n        /* \"AssociationVerifier.sol\":1766:1797  associations[associationIds[i]] */\n      mload(0x40)\n      tag_77\n      swap2\n      swap1\n      tag_78\n      jump\t// in\n    tag_77:\n      swap1\n      dup2\n      mstore\n      0x20\n      add\n      mload(0x40)\n      dup1\n      swap2\n      sub\n      swap1\n      keccak256\n        /* \"AssociationVerifier.sol\":1745:1797  allAssociations[i] = associations[associationIds[i]] */\n      mload(0x40)\n      dup1\n      0x80\n      add\n      0x40\n      mstore\n      swap1\n      dup2\n      0x00\n      dup3\n      add\n      dup1\n      sload\n      tag_79\n      swap1\n      tag_30\n      jump\t// in\n    tag_79:\n      dup1\n      0x1f\n      add\n      0x20\n      dup1\n      swap2\n      div\n      mul\n      0x20\n      add\n      mload(0x40)\n      swap1\n      dup2\n      add\n      0x40\n      mstore\n      dup1\n      swap3\n      swap2\n      swap1\n      dup2\n      dup2\n      mstore\n      0x20\n      add\n      dup3\n      dup1\n      sload\n      tag_80\n      swap1\n      tag_30\n      jump\t// in\n    tag_80:\n      dup1\n      iszero\n      tag_81\n      jumpi\n      dup1\n      0x1f\n      lt\n      tag_82\n      jumpi\n      0x0100\n      dup1\n      dup4\n      sload\n      div\n      mul\n      dup4\n      mstore\n      swap2\n      0x20\n      add\n      swap2\n      jump(tag_81)\n    tag_82:\n      dup3\n      add\n      swap2\n      swap1\n      0x00\n      mstore\n      keccak256(0x00, 0x20)\n      swap1\n    tag_83:\n      dup2\n      sload\n      dup2\n      mstore\n      swap1\n      0x01\n      add\n      swap1\n      0x20\n      add\n      dup1\n      dup4\n      gt\n      tag_83\n      jumpi\n      dup3\n      swap1\n      sub\n      0x1f\n      and\n      dup3\n      add\n      swap2\n    tag_81:\n      pop\n      pop\n      pop\n      pop\n      pop\n      dup2\n      mstore\n      0x20\n      add\n      0x01\n      dup3\n      add\n      dup1\n      sload\n      tag_84\n      swap1\n      tag_30\n      jump\t// in\n    tag_84:\n      dup1\n      0x1f\n      add\n      0x20\n      dup1\n      swap2\n      div\n      mul\n      0x20\n      add\n      mload(0x40)\n      swap1\n      dup2\n      add\n      0x40\n      mstore\n      dup1\n      swap3\n      swap2\n      swap1\n      dup2\n      dup2\n      mstore\n      0x20\n      add\n      dup3\n      dup1\n      sload\n      tag_85\n      swap1\n      tag_30\n      jump\t// in\n    tag_85:\n      dup1\n      iszero\n      tag_86\n      jumpi\n      dup1\n      0x1f\n      lt\n      tag_87\n      jumpi\n      0x0100\n      dup1\n      dup4\n      sload\n      div\n      mul\n      dup4\n      mstore\n      swap2\n      0x20\n      add\n      swap2\n      jump(tag_86)\n    tag_87:\n      dup3\n      add\n      swap2\n      swap1\n      0x00\n      mstore\n      keccak256(0x00, 0x20)\n      swap1\n    tag_88:\n      dup2\n      sload\n      dup2\n      mstore\n      swap1\n      0x01\n      add\n      swap1\n      0x20\n      add\n      dup1\n      dup4\n      gt\n      tag_88\n      jumpi\n      dup3\n      swap1\n      sub\n      0x1f\n      and\n      dup3\n      add\n      swap2\n    tag_86:\n      pop\n      pop\n      pop\n      pop\n      pop\n      dup2\n      mstore\n      0x20\n      add\n      0x02\n      dup3\n      add\n      dup1\n      sload\n      tag_89\n      swap1\n      tag_30\n      jump\t// in\n    tag_89:\n      dup1\n      0x1f\n      add\n      0x20\n      dup1\n      swap2\n      div\n      mul\n      0x20\n      add\n      mload(0x40)\n      swap1\n      dup2\n      add\n      0x40\n      mstore\n      dup1\n      swap3\n      swap2\n      swap1\n      dup2\n      dup2\n      mstore\n      0x20\n      add\n      dup3\n      dup1\n      sload\n      tag_90\n      swap1\n      tag_30\n      jump\t// in\n    tag_90:\n      dup1\n      iszero\n      tag_91\n      jumpi\n      dup1\n      0x1f\n      lt\n      tag_92\n      jumpi\n      0x0100\n      dup1\n      dup4\n      sload\n      div\n      mul\n      dup4\n      mstore\n      swap2\n      0x20\n      add\n      swap2\n      jump(tag_91)\n    tag_92:\n      dup3\n      add\n      swap2\n      swap1\n      0x00\n      mstore\n      keccak256(0x00, 0x20)\n      swap1\n    tag_93:\n      dup2\n      sload\n      dup2\n      mstore\n      swap1\n      0x01\n      add\n      swap1\n      0x20\n      add\n      dup1\n      dup4\n      gt\n      tag_93\n      jumpi\n      dup3\n      swap1\n      sub\n      0x1f\n      and\n      dup3\n      add\n      swap2\n    tag_91:\n      pop\n      pop\n      pop\n      pop\n      pop\n      dup2\n      mstore\n      0x20\n      add\n      0x03\n      dup3\n      add\n      dup1\n      sload\n      tag_94\n      swap1\n      tag_30\n      jump\t// in\n    tag_94:\n      dup1\n      0x1f\n      add\n      0x20\n      dup1\n      swap2\n      div\n      mul\n      0x20\n      add\n      mload(0x40)\n      swap1\n      dup2\n      add\n      0x40\n      mstore\n      dup1\n      swap3\n      swap2\n      swap1\n      dup2\n      dup2\n      mstore\n      0x20\n      add\n      dup3\n      dup1\n      sload\n      tag_95\n      swap1\n      tag_30\n      jump\t// in\n    tag_95:\n      dup1\n      iszero\n      tag_96\n      jumpi\n      dup1\n      0x1f\n      lt\n      tag_97\n      jumpi\n      0x0100\n      dup1\n      dup4\n      sload\n      div\n      mul\n      dup4\n      mstore\n      swap2\n      0x20\n      add\n      swap2\n      jump(tag_96)\n    tag_97:\n      dup3\n      add\n      swap2\n      swap1\n      0x00\n      mstore\n      keccak256(0x00, 0x20)\n      swap1\n    tag_98:\n      dup2\n      sload\n      dup2\n      mstore\n      swap1\n      0x01\n      add\n      swap1\n      0x20\n      add\n      dup1\n      dup4\n      gt\n      tag_98\n      jumpi\n      dup3\n      swap1\n      sub\n      0x1f\n      and\n      dup3\n      add\n      swap2\n    tag_96:\n      pop\n      pop\n      pop\n      pop\n      pop\n      dup2\n      mstore\n      pop\n      pop\n        /* \"AssociationVerifier.sol\":1745:1760  allAssociations */\n      dup3\n        /* \"AssociationVerifier.sol\":1761:1762  i */\n      dup3\n        /* \"AssociationVerifier.sol\":1745:1763  allAssociations[i] */\n      dup2\n      mload\n      dup2\n      lt\n      tag_99\n      jumpi\n      tag_100\n      tag_75\n      jump\t// in\n    tag_100:\n    tag_99:\n      0x20\n      mul\n      0x20\n      add\n      add\n        /* \"AssociationVerifier.sol\":1745:1797  allAssociations[i] = associations[associationIds[i]] */\n      dup2\n      swap1\n      mstore\n      pop\n        /* \"AssociationVerifier.sol\":1725:1728  i++ */\n      dup1\n      dup1\n      tag_101\n      swap1\n      tag_102\n      jump\t// in\n    tag_101:\n      swap2\n      pop\n      pop\n        /* \"AssociationVerifier.sol\":1678:1809  for (uint256 i = 0; i < associationIds.length; i++) {... */\n      jump(tag_70)\n    tag_71:\n      pop\n        /* \"AssociationVerifier.sol\":1828:1843  allAssociations */\n      dup1\n        /* \"AssociationVerifier.sol\":1821:1843  return allAssociations */\n      swap2\n      pop\n      pop\n        /* \"AssociationVerifier.sol\":1378:1851  function getAllAssociations() public view returns (Association[] memory) {... */\n      swap1\n      jump\t// out\n        /* \"AssociationVerifier.sol\":1193:1320  function getAssociation(string memory _id) public view returns (Association memory) {... */\n    tag_23:\n        /* \"AssociationVerifier.sol\":1257:1275  Association memory */\n      tag_103\n      tag_69\n      jump\t// in\n    tag_103:\n        /* \"AssociationVerifier.sol\":1295:1307  associations */\n      0x00\n        /* \"AssociationVerifier.sol\":1308:1311  _id */\n      dup3\n        /* \"AssociationVerifier.sol\":1295:1312  associations[_id] */\n      mload(0x40)\n      tag_105\n      swap2\n      swap1\n      tag_28\n      jump\t// in\n    tag_105:\n      swap1\n      dup2\n      mstore\n      0x20\n      add\n      mload(0x40)\n      dup1\n      swap2\n      sub\n      swap1\n      keccak256\n        /* \"AssociationVerifier.sol\":1288:1312  return associations[_id] */\n      mload(0x40)\n      dup1\n      0x80\n      add\n      0x40\n      mstore\n      swap1\n      dup2\n      0x00\n      dup3\n      add\n      dup1\n      sload\n      tag_106\n      swap1\n      tag_30\n      jump\t// in\n    tag_106:\n      dup1\n      0x1f\n      add\n      0x20\n      dup1\n      swap2\n      div\n      mul\n      0x20\n      add\n      mload(0x40)\n      swap1\n      dup2\n      add\n      0x40\n      mstore\n      dup1\n      swap3\n      swap2\n      swap1\n      dup2\n      dup2\n      mstore\n      0x20\n      add\n      dup3\n      dup1\n      sload\n      tag_107\n      swap1\n      tag_30\n      jump\t// in\n    tag_107:\n      dup1\n      iszero\n      tag_108\n      jumpi\n      dup1\n      0x1f\n      lt\n      tag_109\n      jumpi\n      0x0100\n      dup1\n      dup4\n      sload\n      div\n      mul\n      dup4\n      mstore\n      swap2\n      0x20\n      add\n      swap2\n      jump(tag_108)\n    tag_109:\n      dup3\n      add\n      swap2\n      swap1\n      0x00\n      mstore\n      keccak256(0x00, 0x20)\n      swap1\n    tag_110:\n      dup2\n      sload\n      dup2\n      mstore\n      swap1\n      0x01\n      add\n      swap1\n      0x20\n      add\n      dup1\n      dup4\n      gt\n      tag_110\n      jumpi\n      dup3\n      swap1\n      sub\n      0x1f\n      and\n      dup3\n      add\n      swap2\n    tag_108:\n      pop\n      pop\n      pop\n      pop\n      pop\n      dup2\n      mstore\n      0x20\n      add\n      0x01\n      dup3\n      add\n      dup1\n      sload\n      tag_111\n      swap1\n      tag_30\n      jump\t// in\n    tag_111:\n      dup1\n      0x1f\n      add\n      0x20\n      dup1\n      swap2\n      div\n      mul\n      0x20\n      add\n      mload(0x40)\n      swap1\n      dup2\n      add\n      0x40\n      mstore\n      dup1\n      swap3\n      swap2\n      swap1\n      dup2\n      dup2\n      mstore\n      0x20\n      add\n      dup3\n      dup1\n      sload\n      tag_112\n      swap1\n      tag_30\n      jump\t// in\n    tag_112:\n      dup1\n      iszero\n      tag_113\n      jumpi\n      dup1\n      0x1f\n      lt\n      tag_114\n      jumpi\n      0x0100\n      dup1\n      dup4\n      sload\n      div\n      mul\n      dup4\n      mstore\n      swap2\n      0x20\n      add\n      swap2\n      jump(tag_113)\n    tag_114:\n      dup3\n      add\n      swap2\n      swap1\n      0x00\n      mstore\n      keccak256(0x00, 0x20)\n      swap1\n    tag_115:\n      dup2\n      sload\n      dup2\n      mstore\n      swap1\n      0x01\n      add\n      swap1\n      0x20\n      add\n      dup1\n      dup4\n      gt\n      tag_115\n      jumpi\n      dup3\n      swap1\n      sub\n      0x1f\n      and\n      dup3\n      add\n      swap2\n    tag_113:\n      pop\n      pop\n      pop\n      pop\n      pop\n      dup2\n      mstore\n      0x20\n      add\n      0x02\n      dup3\n      add\n      dup1\n      sload\n      tag_116\n      swap1\n      tag_30\n      jump\t// in\n    tag_116:\n      dup1\n      0x1f\n      add\n      0x20\n      dup1\n      swap2\n      div\n      mul\n      0x20\n      add\n      mload(0x40)\n      swap1\n      dup2\n      add\n      0x40\n      mstore\n      dup1\n      swap3\n      swap2\n      swap1\n      dup2\n      dup2\n      mstore\n      0x20\n      add\n      dup3\n      dup1\n      sload\n      tag_117\n      swap1\n      tag_30\n      jump\t// in\n    tag_117:\n      dup1\n      iszero\n      tag_118\n      jumpi\n      dup1\n      0x1f\n      lt\n      tag_119\n      jumpi\n      0x0100\n      dup1\n      dup4\n      sload\n      div\n      mul\n      dup4\n      mstore\n      swap2\n      0x20\n      add\n      swap2\n      jump(tag_118)\n    tag_119:\n      dup3\n      add\n      swap2\n      swap1\n      0x00\n      mstore\n      keccak256(0x00, 0x20)\n      swap1\n    tag_120:\n      dup2\n      sload\n      dup2\n      mstore\n      swap1\n      0x01\n      add\n      swap1\n      0x20\n      add\n      dup1\n      dup4\n      gt\n      tag_120\n      jumpi\n      dup3\n      swap1\n      sub\n      0x1f\n      and\n      dup3\n      add\n      swap2\n    tag_118:\n      pop\n      pop\n      pop\n      pop\n      pop\n      dup2\n      mstore\n      0x20\n      add\n      0x03\n      dup3\n      add\n      dup1\n      sload\n      tag_121\n      swap1\n      tag_30\n      jump\t// in\n    tag_121:\n      dup1\n      0x1f\n      add\n      0x20\n      dup1\n      swap2\n      div\n      mul\n      0x20\n      add\n      mload(0x40)\n      swap1\n      dup2\n      add\n      0x40\n      mstore\n      dup1\n      swap3\n      swap2\n      swap1\n      dup2\n      dup2\n      mstore\n      0x20\n      add\n      dup3\n      dup1\n      sload\n      tag_122\n      swap1\n      tag_30\n      jump\t// in\n    tag_122:\n      dup1\n      iszero\n      tag_123\n      jumpi\n      dup1\n      0x1f\n      lt\n      tag_124\n      jumpi\n      0x0100\n      dup1\n      dup4\n      sload\n      div\n      mul\n      dup4\n      mstore\n      swap2\n      0x20\n      add\n      swap2\n      jump(tag_123)\n    tag_124:\n      dup3\n      add\n      swap2\n      swap1\n      0x00\n      mstore\n      keccak256(0x00, 0x20)\n      swap1\n    tag_125:\n      dup2\n      sload\n      dup2\n      mstore\n      swap1\n      0x01\n      add\n      swap1\n      0x20\n      add\n      dup1\n      dup4\n      gt\n      tag_125\n      jumpi\n      dup3\n      swap1\n      sub\n      0x1f\n      and\n      dup3\n      add\n      swap2\n    tag_123:\n      pop\n      pop\n      pop\n      pop\n      pop\n      dup2\n      mstore\n      pop\n      pop\n      swap1\n      pop\n        /* \"AssociationVerifier.sol\":1193:1320  function getAssociation(string memory _id) public view returns (Association memory) {... */\n      swap2\n      swap1\n      pop\n      jump\t// out\n    tag_69:\n      mload(0x40)\n      dup1\n      0x80\n      add\n      0x40\n      mstore\n      dup1\n      0x60\n      dup2\n      mstore\n      0x20\n      add\n      0x60\n      dup2\n      mstore\n      0x20\n      add\n      0x60\n      dup2\n      mstore\n      0x20\n      add\n      0x60\n      dup2\n      mstore\n      pop\n      swap1\n      jump\t// out\n        /* \"#utility.yul\":7:82   */\n    tag_126:\n        /* \"#utility.yul\":40:46   */\n      0x00\n        /* \"#utility.yul\":73:75   */\n      0x40\n        /* \"#utility.yul\":67:76   */\n      mload\n        /* \"#utility.yul\":57:76   */\n      swap1\n      pop\n        /* \"#utility.yul\":7:82   */\n      swap1\n      jump\t// out\n        /* \"#utility.yul\":88:205   */\n    tag_127:\n        /* \"#utility.yul\":197:198   */\n      0x00\n        /* \"#utility.yul\":194:195   */\n      dup1\n        /* \"#utility.yul\":187:199   */\n      revert\n        /* \"#utility.yul\":211:328   */\n    tag_128:\n        /* \"#utility.yul\":320:321   */\n      0x00\n        /* \"#utility.yul\":317:318   */\n      dup1\n        /* \"#utility.yul\":310:322   */\n      revert\n        /* \"#utility.yul\":334:451   */\n    tag_129:\n        /* \"#utility.yul\":443:444   */\n      0x00\n        /* \"#utility.yul\":440:441   */\n      dup1\n        /* \"#utility.yul\":433:445   */\n      revert\n        /* \"#utility.yul\":457:574   */\n    tag_130:\n        /* \"#utility.yul\":566:567   */\n      0x00\n        /* \"#utility.yul\":563:564   */\n      dup1\n        /* \"#utility.yul\":556:568   */\n      revert\n        /* \"#utility.yul\":580:682   */\n    tag_131:\n        /* \"#utility.yul\":621:627   */\n      0x00\n        /* \"#utility.yul\":672:674   */\n      0x1f\n        /* \"#utility.yul\":668:675   */\n      not\n        /* \"#utility.yul\":663:665   */\n      0x1f\n        /* \"#utility.yul\":656:661   */\n      dup4\n        /* \"#utility.yul\":652:666   */\n      add\n        /* \"#utility.yul\":648:676   */\n      and\n        /* \"#utility.yul\":638:676   */\n      swap1\n      pop\n        /* \"#utility.yul\":580:682   */\n      swap2\n      swap1\n      pop\n      jump\t// out\n        /* \"#utility.yul\":688:868   */\n    tag_65:\n        /* \"#utility.yul\":736:813   */\n      0x4e487b7100000000000000000000000000000000000000000000000000000000\n        /* \"#utility.yul\":733:734   */\n      0x00\n        /* \"#utility.yul\":726:814   */\n      mstore\n        /* \"#utility.yul\":833:837   */\n      0x41\n        /* \"#utility.yul\":830:831   */\n      0x04\n        /* \"#utility.yul\":823:838   */\n      mstore\n        /* \"#utility.yul\":857:861   */\n      0x24\n        /* \"#utility.yul\":854:855   */\n      0x00\n        /* \"#utility.yul\":847:862   */\n      revert\n        /* \"#utility.yul\":874:1155   */\n    tag_132:\n        /* \"#utility.yul\":957:984   */\n      tag_184\n        /* \"#utility.yul\":979:983   */\n      dup3\n        /* \"#utility.yul\":957:984   */\n      tag_131\n      jump\t// in\n    tag_184:\n        /* \"#utility.yul\":949:955   */\n      dup2\n        /* \"#utility.yul\":945:985   */\n      add\n        /* \"#utility.yul\":1087:1093   */\n      dup2\n        /* \"#utility.yul\":1075:1085   */\n      dup2\n        /* \"#utility.yul\":1072:1094   */\n      lt\n        /* \"#utility.yul\":1051:1069   */\n      0xffffffffffffffff\n        /* \"#utility.yul\":1039:1049   */\n      dup3\n        /* \"#utility.yul\":1036:1070   */\n      gt\n        /* \"#utility.yul\":1033:1095   */\n      or\n        /* \"#utility.yul\":1030:1118   */\n      iszero\n      tag_185\n      jumpi\n        /* \"#utility.yul\":1098:1116   */\n      tag_186\n      tag_65\n      jump\t// in\n    tag_186:\n        /* \"#utility.yul\":1030:1118   */\n    tag_185:\n        /* \"#utility.yul\":1138:1148   */\n      dup1\n        /* \"#utility.yul\":1134:1136   */\n      0x40\n        /* \"#utility.yul\":1127:1149   */\n      mstore\n        /* \"#utility.yul\":917:1155   */\n      pop\n        /* \"#utility.yul\":874:1155   */\n      pop\n      pop\n      jump\t// out\n        /* \"#utility.yul\":1161:1290   */\n    tag_133:\n        /* \"#utility.yul\":1195:1201   */\n      0x00\n        /* \"#utility.yul\":1222:1242   */\n      tag_188\n      tag_126\n      jump\t// in\n    tag_188:\n        /* \"#utility.yul\":1212:1242   */\n      swap1\n      pop\n        /* \"#utility.yul\":1251:1284   */\n      tag_189\n        /* \"#utility.yul\":1279:1283   */\n      dup3\n        /* \"#utility.yul\":1271:1277   */\n      dup3\n        /* \"#utility.yul\":1251:1284   */\n      tag_132\n      jump\t// in\n    tag_189:\n        /* \"#utility.yul\":1161:1290   */\n      swap2\n      swap1\n      pop\n      jump\t// out\n        /* \"#utility.yul\":1296:1604   */\n    tag_134:\n        /* \"#utility.yul\":1358:1362   */\n      0x00\n        /* \"#utility.yul\":1448:1466   */\n      0xffffffffffffffff\n        /* \"#utility.yul\":1440:1446   */\n      dup3\n        /* \"#utility.yul\":1437:1467   */\n      gt\n        /* \"#utility.yul\":1434:1490   */\n      iszero\n      tag_191\n      jumpi\n        /* \"#utility.yul\":1470:1488   */\n      tag_192\n      tag_65\n      jump\t// in\n    tag_192:\n        /* \"#utility.yul\":1434:1490   */\n    tag_191:\n        /* \"#utility.yul\":1508:1537   */\n      tag_193\n        /* \"#utility.yul\":1530:1536   */\n      dup3\n        /* \"#utility.yul\":1508:1537   */\n      tag_131\n      jump\t// in\n    tag_193:\n        /* \"#utility.yul\":1500:1537   */\n      swap1\n      pop\n        /* \"#utility.yul\":1592:1596   */\n      0x20\n        /* \"#utility.yul\":1586:1590   */\n      dup2\n        /* \"#utility.yul\":1582:1597   */\n      add\n        /* \"#utility.yul\":1574:1597   */\n      swap1\n      pop\n        /* \"#utility.yul\":1296:1604   */\n      swap2\n      swap1\n      pop\n      jump\t// out\n        /* \"#utility.yul\":1610:1756   */\n    tag_135:\n        /* \"#utility.yul\":1707:1713   */\n      dup3\n        /* \"#utility.yul\":1702:1705   */\n      dup2\n        /* \"#utility.yul\":1697:1700   */\n      dup4\n        /* \"#utility.yul\":1684:1714   */\n      calldatacopy\n        /* \"#utility.yul\":1748:1749   */\n      0x00\n        /* \"#utility.yul\":1739:1745   */\n      dup4\n        /* \"#utility.yul\":1734:1737   */\n      dup4\n        /* \"#utility.yul\":1730:1746   */\n      add\n        /* \"#utility.yul\":1723:1750   */\n      mstore\n        /* \"#utility.yul\":1610:1756   */\n      pop\n      pop\n      pop\n      jump\t// out\n        /* \"#utility.yul\":1762:2187   */\n    tag_136:\n        /* \"#utility.yul\":1840:1845   */\n      0x00\n        /* \"#utility.yul\":1865:1931   */\n      tag_196\n        /* \"#utility.yul\":1881:1930   */\n      tag_197\n        /* \"#utility.yul\":1923:1929   */\n      dup5\n        /* \"#utility.yul\":1881:1930   */\n      tag_134\n      jump\t// in\n    tag_197:\n        /* \"#utility.yul\":1865:1931   */\n      tag_133\n      jump\t// in\n    tag_196:\n        /* \"#utility.yul\":1856:1931   */\n      swap1\n      pop\n        /* \"#utility.yul\":1954:1960   */\n      dup3\n        /* \"#utility.yul\":1947:1952   */\n      dup2\n        /* \"#utility.yul\":1940:1961   */\n      mstore\n        /* \"#utility.yul\":1992:1996   */\n      0x20\n        /* \"#utility.yul\":1985:1990   */\n      dup2\n        /* \"#utility.yul\":1981:1997   */\n      add\n        /* \"#utility.yul\":2030:2033   */\n      dup5\n        /* \"#utility.yul\":2021:2027   */\n      dup5\n        /* \"#utility.yul\":2016:2019   */\n      dup5\n        /* \"#utility.yul\":2012:2028   */\n      add\n        /* \"#utility.yul\":2009:2034   */\n      gt\n        /* \"#utility.yul\":2006:2118   */\n      iszero\n      tag_198\n      jumpi\n        /* \"#utility.yul\":2037:2116   */\n      tag_199\n      tag_130\n      jump\t// in\n    tag_199:\n        /* \"#utility.yul\":2006:2118   */\n    tag_198:\n        /* \"#utility.yul\":2127:2181   */\n      tag_200\n        /* \"#utility.yul\":2174:2180   */\n      dup5\n        /* \"#utility.yul\":2169:2172   */\n      dup3\n        /* \"#utility.yul\":2164:2167   */\n      dup6\n        /* \"#utility.yul\":2127:2181   */\n      tag_135\n      jump\t// in\n    tag_200:\n        /* \"#utility.yul\":1846:2187   */\n      pop\n        /* \"#utility.yul\":1762:2187   */\n      swap4\n      swap3\n      pop\n      pop\n      pop\n      jump\t// out\n        /* \"#utility.yul\":2207:2547   */\n    tag_137:\n        /* \"#utility.yul\":2263:2268   */\n      0x00\n        /* \"#utility.yul\":2312:2315   */\n      dup3\n        /* \"#utility.yul\":2305:2309   */\n      0x1f\n        /* \"#utility.yul\":2297:2303   */\n      dup4\n        /* \"#utility.yul\":2293:2310   */\n      add\n        /* \"#utility.yul\":2289:2316   */\n      slt\n        /* \"#utility.yul\":2279:2401   */\n      tag_202\n      jumpi\n        /* \"#utility.yul\":2320:2399   */\n      tag_203\n      tag_129\n      jump\t// in\n    tag_203:\n        /* \"#utility.yul\":2279:2401   */\n    tag_202:\n        /* \"#utility.yul\":2437:2443   */\n      dup2\n        /* \"#utility.yul\":2424:2444   */\n      calldataload\n        /* \"#utility.yul\":2462:2541   */\n      tag_204\n        /* \"#utility.yul\":2537:2540   */\n      dup5\n        /* \"#utility.yul\":2529:2535   */\n      dup3\n        /* \"#utility.yul\":2522:2526   */\n      0x20\n        /* \"#utility.yul\":2514:2520   */\n      dup7\n        /* \"#utility.yul\":2510:2527   */\n      add\n        /* \"#utility.yul\":2462:2541   */\n      tag_136\n      jump\t// in\n    tag_204:\n        /* \"#utility.yul\":2453:2541   */\n      swap2\n      pop\n        /* \"#utility.yul\":2269:2547   */\n      pop\n        /* \"#utility.yul\":2207:2547   */\n      swap3\n      swap2\n      pop\n      pop\n      jump\t// out\n        /* \"#utility.yul\":2553:4038   */\n    tag_9:\n        /* \"#utility.yul\":2679:2685   */\n      0x00\n        /* \"#utility.yul\":2687:2693   */\n      dup1\n        /* \"#utility.yul\":2695:2701   */\n      0x00\n        /* \"#utility.yul\":2703:2709   */\n      dup1\n        /* \"#utility.yul\":2752:2755   */\n      0x80\n        /* \"#utility.yul\":2740:2749   */\n      dup6\n        /* \"#utility.yul\":2731:2738   */\n      dup8\n        /* \"#utility.yul\":2727:2750   */\n      sub\n        /* \"#utility.yul\":2723:2756   */\n      slt\n        /* \"#utility.yul\":2720:2840   */\n      iszero\n      tag_206\n      jumpi\n        /* \"#utility.yul\":2759:2838   */\n      tag_207\n      tag_127\n      jump\t// in\n    tag_207:\n        /* \"#utility.yul\":2720:2840   */\n    tag_206:\n        /* \"#utility.yul\":2907:2908   */\n      0x00\n        /* \"#utility.yul\":2896:2905   */\n      dup6\n        /* \"#utility.yul\":2892:2909   */\n      add\n        /* \"#utility.yul\":2879:2910   */\n      calldataload\n        /* \"#utility.yul\":2937:2955   */\n      0xffffffffffffffff\n        /* \"#utility.yul\":2929:2935   */\n      dup2\n        /* \"#utility.yul\":2926:2956   */\n      gt\n        /* \"#utility.yul\":2923:3040   */\n      iszero\n      tag_208\n      jumpi\n        /* \"#utility.yul\":2959:3038   */\n      tag_209\n      tag_128\n      jump\t// in\n    tag_209:\n        /* \"#utility.yul\":2923:3040   */\n    tag_208:\n        /* \"#utility.yul\":3064:3127   */\n      tag_210\n        /* \"#utility.yul\":3119:3126   */\n      dup8\n        /* \"#utility.yul\":3110:3116   */\n      dup3\n        /* \"#utility.yul\":3099:3108   */\n      dup9\n        /* \"#utility.yul\":3095:3117   */\n      add\n        /* \"#utility.yul\":3064:3127   */\n      tag_137\n      jump\t// in\n    tag_210:\n        /* \"#utility.yul\":3054:3127   */\n      swap5\n      pop\n        /* \"#utility.yul\":2850:3137   */\n      pop\n        /* \"#utility.yul\":3204:3206   */\n      0x20\n        /* \"#utility.yul\":3193:3202   */\n      dup6\n        /* \"#utility.yul\":3189:3207   */\n      add\n        /* \"#utility.yul\":3176:3208   */\n      calldataload\n        /* \"#utility.yul\":3235:3253   */\n      0xffffffffffffffff\n        /* \"#utility.yul\":3227:3233   */\n      dup2\n        /* \"#utility.yul\":3224:3254   */\n      gt\n        /* \"#utility.yul\":3221:3338   */\n      iszero\n      tag_211\n      jumpi\n        /* \"#utility.yul\":3257:3336   */\n      tag_212\n      tag_128\n      jump\t// in\n    tag_212:\n        /* \"#utility.yul\":3221:3338   */\n    tag_211:\n        /* \"#utility.yul\":3362:3425   */\n      tag_213\n        /* \"#utility.yul\":3417:3424   */\n      dup8\n        /* \"#utility.yul\":3408:3414   */\n      dup3\n        /* \"#utility.yul\":3397:3406   */\n      dup9\n        /* \"#utility.yul\":3393:3415   */\n      add\n        /* \"#utility.yul\":3362:3425   */\n      tag_137\n      jump\t// in\n    tag_213:\n        /* \"#utility.yul\":3352:3425   */\n      swap4\n      pop\n        /* \"#utility.yul\":3147:3435   */\n      pop\n        /* \"#utility.yul\":3502:3504   */\n      0x40\n        /* \"#utility.yul\":3491:3500   */\n      dup6\n        /* \"#utility.yul\":3487:3505   */\n      add\n        /* \"#utility.yul\":3474:3506   */\n      calldataload\n        /* \"#utility.yul\":3533:3551   */\n      0xffffffffffffffff\n        /* \"#utility.yul\":3525:3531   */\n      dup2\n        /* \"#utility.yul\":3522:3552   */\n      gt\n        /* \"#utility.yul\":3519:3636   */\n      iszero\n      tag_214\n      jumpi\n        /* \"#utility.yul\":3555:3634   */\n      tag_215\n      tag_128\n      jump\t// in\n    tag_215:\n        /* \"#utility.yul\":3519:3636   */\n    tag_214:\n        /* \"#utility.yul\":3660:3723   */\n      tag_216\n        /* \"#utility.yul\":3715:3722   */\n      dup8\n        /* \"#utility.yul\":3706:3712   */\n      dup3\n        /* \"#utility.yul\":3695:3704   */\n      dup9\n        /* \"#utility.yul\":3691:3713   */\n      add\n        /* \"#utility.yul\":3660:3723   */\n      tag_137\n      jump\t// in\n    tag_216:\n        /* \"#utility.yul\":3650:3723   */\n      swap3\n      pop\n        /* \"#utility.yul\":3445:3733   */\n      pop\n        /* \"#utility.yul\":3800:3802   */\n      0x60\n        /* \"#utility.yul\":3789:3798   */\n      dup6\n        /* \"#utility.yul\":3785:3803   */\n      add\n        /* \"#utility.yul\":3772:3804   */\n      calldataload\n        /* \"#utility.yul\":3831:3849   */\n      0xffffffffffffffff\n        /* \"#utility.yul\":3823:3829   */\n      dup2\n        /* \"#utility.yul\":3820:3850   */\n      gt\n        /* \"#utility.yul\":3817:3934   */\n      iszero\n      tag_217\n      jumpi\n        /* \"#utility.yul\":3853:3932   */\n      tag_218\n      tag_128\n      jump\t// in\n    tag_218:\n        /* \"#utility.yul\":3817:3934   */\n    tag_217:\n        /* \"#utility.yul\":3958:4021   */\n      tag_219\n        /* \"#utility.yul\":4013:4020   */\n      dup8\n        /* \"#utility.yul\":4004:4010   */\n      dup3\n        /* \"#utility.yul\":3993:4002   */\n      dup9\n        /* \"#utility.yul\":3989:4011   */\n      add\n        /* \"#utility.yul\":3958:4021   */\n      tag_137\n      jump\t// in\n    tag_219:\n        /* \"#utility.yul\":3948:4021   */\n      swap2\n      pop\n        /* \"#utility.yul\":3743:4031   */\n      pop\n        /* \"#utility.yul\":2553:4038   */\n      swap3\n      swap6\n      swap2\n      swap5\n      pop\n      swap3\n      pop\n      jump\t// out\n        /* \"#utility.yul\":4044:4553   */\n    tag_13:\n        /* \"#utility.yul\":4113:4119   */\n      0x00\n        /* \"#utility.yul\":4162:4164   */\n      0x20\n        /* \"#utility.yul\":4150:4159   */\n      dup3\n        /* \"#utility.yul\":4141:4148   */\n      dup5\n        /* \"#utility.yul\":4137:4160   */\n      sub\n        /* \"#utility.yul\":4133:4165   */\n      slt\n        /* \"#utility.yul\":4130:4249   */\n      iszero\n      tag_221\n      jumpi\n        /* \"#utility.yul\":4168:4247   */\n      tag_222\n      tag_127\n      jump\t// in\n    tag_222:\n        /* \"#utility.yul\":4130:4249   */\n    tag_221:\n        /* \"#utility.yul\":4316:4317   */\n      0x00\n        /* \"#utility.yul\":4305:4314   */\n      dup3\n        /* \"#utility.yul\":4301:4318   */\n      add\n        /* \"#utility.yul\":4288:4319   */\n      calldataload\n        /* \"#utility.yul\":4346:4364   */\n      0xffffffffffffffff\n        /* \"#utility.yul\":4338:4344   */\n      dup2\n        /* \"#utility.yul\":4335:4365   */\n      gt\n        /* \"#utility.yul\":4332:4449   */\n      iszero\n      tag_223\n      jumpi\n        /* \"#utility.yul\":4368:4447   */\n      tag_224\n      tag_128\n      jump\t// in\n    tag_224:\n        /* \"#utility.yul\":4332:4449   */\n    tag_223:\n        /* \"#utility.yul\":4473:4536   */\n      tag_225\n        /* \"#utility.yul\":4528:4535   */\n      dup5\n        /* \"#utility.yul\":4519:4525   */\n      dup3\n        /* \"#utility.yul\":4508:4517   */\n      dup6\n        /* \"#utility.yul\":4504:4526   */\n      add\n        /* \"#utility.yul\":4473:4536   */\n      tag_137\n      jump\t// in\n    tag_225:\n        /* \"#utility.yul\":4463:4536   */\n      swap2\n      pop\n        /* \"#utility.yul\":4259:4546   */\n      pop\n        /* \"#utility.yul\":4044:4553   */\n      swap3\n      swap2\n      pop\n      pop\n      jump\t// out\n        /* \"#utility.yul\":4559:4658   */\n    tag_138:\n        /* \"#utility.yul\":4611:4617   */\n      0x00\n        /* \"#utility.yul\":4645:4650   */\n      dup2\n        /* \"#utility.yul\":4639:4651   */\n      mload\n        /* \"#utility.yul\":4629:4651   */\n      swap1\n      pop\n        /* \"#utility.yul\":4559:4658   */\n      swap2\n      swap1\n      pop\n      jump\t// out\n        /* \"#utility.yul\":4664:4833   */\n    tag_139:\n        /* \"#utility.yul\":4748:4759   */\n      0x00\n        /* \"#utility.yul\":4782:4788   */\n      dup3\n        /* \"#utility.yul\":4777:4780   */\n      dup3\n        /* \"#utility.yul\":4770:4789   */\n      mstore\n        /* \"#utility.yul\":4822:4826   */\n      0x20\n        /* \"#utility.yul\":4817:4820   */\n      dup3\n        /* \"#utility.yul\":4813:4827   */\n      add\n        /* \"#utility.yul\":4798:4827   */\n      swap1\n      pop\n        /* \"#utility.yul\":4664:4833   */\n      swap3\n      swap2\n      pop\n      pop\n      jump\t// out\n        /* \"#utility.yul\":4839:5085   */\n    tag_140:\n        /* \"#utility.yul\":4920:4921   */\n      0x00\n        /* \"#utility.yul\":4930:5043   */\n    tag_229:\n        /* \"#utility.yul\":4944:4950   */\n      dup4\n        /* \"#utility.yul\":4941:4942   */\n      dup2\n        /* \"#utility.yul\":4938:4951   */\n      lt\n        /* \"#utility.yul\":4930:5043   */\n      iszero\n      tag_231\n      jumpi\n        /* \"#utility.yul\":5029:5030   */\n      dup1\n        /* \"#utility.yul\":5024:5027   */\n      dup3\n        /* \"#utility.yul\":5020:5031   */\n      add\n        /* \"#utility.yul\":5014:5032   */\n      mload\n        /* \"#utility.yul\":5010:5011   */\n      dup2\n        /* \"#utility.yul\":5005:5008   */\n      dup5\n        /* \"#utility.yul\":5001:5012   */\n      add\n        /* \"#utility.yul\":4994:5033   */\n      mstore\n        /* \"#utility.yul\":4966:4968   */\n      0x20\n        /* \"#utility.yul\":4963:4964   */\n      dup2\n        /* \"#utility.yul\":4959:4969   */\n      add\n        /* \"#utility.yul\":4954:4969   */\n      swap1\n      pop\n        /* \"#utility.yul\":4930:5043   */\n      jump(tag_229)\n    tag_231:\n        /* \"#utility.yul\":5077:5078   */\n      0x00\n        /* \"#utility.yul\":5068:5074   */\n      dup5\n        /* \"#utility.yul\":5063:5066   */\n      dup5\n        /* \"#utility.yul\":5059:5075   */\n      add\n        /* \"#utility.yul\":5052:5079   */\n      mstore\n        /* \"#utility.yul\":4901:5085   */\n      pop\n        /* \"#utility.yul\":4839:5085   */\n      pop\n      pop\n      pop\n      jump\t// out\n        /* \"#utility.yul\":5091:5468   */\n    tag_141:\n        /* \"#utility.yul\":5179:5182   */\n      0x00\n        /* \"#utility.yul\":5207:5246   */\n      tag_233\n        /* \"#utility.yul\":5240:5245   */\n      dup3\n        /* \"#utility.yul\":5207:5246   */\n      tag_138\n      jump\t// in\n    tag_233:\n        /* \"#utility.yul\":5262:5333   */\n      tag_234\n        /* \"#utility.yul\":5326:5332   */\n      dup2\n        /* \"#utility.yul\":5321:5324   */\n      dup6\n        /* \"#utility.yul\":5262:5333   */\n      tag_139\n      jump\t// in\n    tag_234:\n        /* \"#utility.yul\":5255:5333   */\n      swap4\n      pop\n        /* \"#utility.yul\":5342:5407   */\n      tag_235\n        /* \"#utility.yul\":5400:5406   */\n      dup2\n        /* \"#utility.yul\":5395:5398   */\n      dup6\n        /* \"#utility.yul\":5388:5392   */\n      0x20\n        /* \"#utility.yul\":5381:5386   */\n      dup7\n        /* \"#utility.yul\":5377:5393   */\n      add\n        /* \"#utility.yul\":5342:5407   */\n      tag_140\n      jump\t// in\n    tag_235:\n        /* \"#utility.yul\":5432:5461   */\n      tag_236\n        /* \"#utility.yul\":5454:5460   */\n      dup2\n        /* \"#utility.yul\":5432:5461   */\n      tag_131\n      jump\t// in\n    tag_236:\n        /* \"#utility.yul\":5427:5430   */\n      dup5\n        /* \"#utility.yul\":5423:5462   */\n      add\n        /* \"#utility.yul\":5416:5462   */\n      swap2\n      pop\n        /* \"#utility.yul\":5183:5468   */\n      pop\n        /* \"#utility.yul\":5091:5468   */\n      swap3\n      swap2\n      pop\n      pop\n      jump\t// out\n        /* \"#utility.yul\":5474:6391   */\n    tag_16:\n        /* \"#utility.yul\":5731:5735   */\n      0x00\n        /* \"#utility.yul\":5769:5772   */\n      0x80\n        /* \"#utility.yul\":5758:5767   */\n      dup3\n        /* \"#utility.yul\":5754:5773   */\n      add\n        /* \"#utility.yul\":5746:5773   */\n      swap1\n      pop\n        /* \"#utility.yul\":5819:5828   */\n      dup2\n        /* \"#utility.yul\":5813:5817   */\n      dup2\n        /* \"#utility.yul\":5809:5829   */\n      sub\n        /* \"#utility.yul\":5805:5806   */\n      0x00\n        /* \"#utility.yul\":5794:5803   */\n      dup4\n        /* \"#utility.yul\":5790:5807   */\n      add\n        /* \"#utility.yul\":5783:5830   */\n      mstore\n        /* \"#utility.yul\":5847:5925   */\n      tag_238\n        /* \"#utility.yul\":5920:5924   */\n      dup2\n        /* \"#utility.yul\":5911:5917   */\n      dup8\n        /* \"#utility.yul\":5847:5925   */\n      tag_141\n      jump\t// in\n    tag_238:\n        /* \"#utility.yul\":5839:5925   */\n      swap1\n      pop\n        /* \"#utility.yul\":5972:5981   */\n      dup2\n        /* \"#utility.yul\":5966:5970   */\n      dup2\n        /* \"#utility.yul\":5962:5982   */\n      sub\n        /* \"#utility.yul\":5957:5959   */\n      0x20\n        /* \"#utility.yul\":5946:5955   */\n      dup4\n        /* \"#utility.yul\":5942:5960   */\n      add\n        /* \"#utility.yul\":5935:5983   */\n      mstore\n        /* \"#utility.yul\":6000:6078   */\n      tag_239\n        /* \"#utility.yul\":6073:6077   */\n      dup2\n        /* \"#utility.yul\":6064:6070   */\n      dup7\n        /* \"#utility.yul\":6000:6078   */\n      tag_141\n      jump\t// in\n    tag_239:\n        /* \"#utility.yul\":5992:6078   */\n      swap1\n      pop\n        /* \"#utility.yul\":6125:6134   */\n      dup2\n        /* \"#utility.yul\":6119:6123   */\n      dup2\n        /* \"#utility.yul\":6115:6135   */\n      sub\n        /* \"#utility.yul\":6110:6112   */\n      0x40\n        /* \"#utility.yul\":6099:6108   */\n      dup4\n        /* \"#utility.yul\":6095:6113   */\n      add\n        /* \"#utility.yul\":6088:6136   */\n      mstore\n        /* \"#utility.yul\":6153:6231   */\n      tag_240\n        /* \"#utility.yul\":6226:6230   */\n      dup2\n        /* \"#utility.yul\":6217:6223   */\n      dup6\n        /* \"#utility.yul\":6153:6231   */\n      tag_141\n      jump\t// in\n    tag_240:\n        /* \"#utility.yul\":6145:6231   */\n      swap1\n      pop\n        /* \"#utility.yul\":6278:6287   */\n      dup2\n        /* \"#utility.yul\":6272:6276   */\n      dup2\n        /* \"#utility.yul\":6268:6288   */\n      sub\n        /* \"#utility.yul\":6263:6265   */\n      0x60\n        /* \"#utility.yul\":6252:6261   */\n      dup4\n        /* \"#utility.yul\":6248:6266   */\n      add\n        /* \"#utility.yul\":6241:6289   */\n      mstore\n        /* \"#utility.yul\":6306:6384   */\n      tag_241\n        /* \"#utility.yul\":6379:6383   */\n      dup2\n        /* \"#utility.yul\":6370:6376   */\n      dup5\n        /* \"#utility.yul\":6306:6384   */\n      tag_141\n      jump\t// in\n    tag_241:\n        /* \"#utility.yul\":6298:6384   */\n      swap1\n      pop\n        /* \"#utility.yul\":5474:6391   */\n      swap6\n      swap5\n      pop\n      pop\n      pop\n      pop\n      pop\n      jump\t// out\n        /* \"#utility.yul\":6397:6538   */\n    tag_142:\n        /* \"#utility.yul\":6491:6497   */\n      0x00\n        /* \"#utility.yul\":6525:6530   */\n      dup2\n        /* \"#utility.yul\":6519:6531   */\n      mload\n        /* \"#utility.yul\":6509:6531   */\n      swap1\n      pop\n        /* \"#utility.yul\":6397:6538   */\n      swap2\n      swap1\n      pop\n      jump\t// out\n        /* \"#utility.yul\":6544:6755   */\n    tag_143:\n        /* \"#utility.yul\":6670:6681   */\n      0x00\n        /* \"#utility.yul\":6704:6710   */\n      dup3\n        /* \"#utility.yul\":6699:6702   */\n      dup3\n        /* \"#utility.yul\":6692:6711   */\n      mstore\n        /* \"#utility.yul\":6744:6748   */\n      0x20\n        /* \"#utility.yul\":6739:6742   */\n      dup3\n        /* \"#utility.yul\":6735:6749   */\n      add\n        /* \"#utility.yul\":6720:6749   */\n      swap1\n      pop\n        /* \"#utility.yul\":6544:6755   */\n      swap3\n      swap2\n      pop\n      pop\n      jump\t// out\n        /* \"#utility.yul\":6761:6920   */\n    tag_144:\n        /* \"#utility.yul\":6855:6859   */\n      0x00\n        /* \"#utility.yul\":6878:6881   */\n      dup2\n        /* \"#utility.yul\":6870:6881   */\n      swap1\n      pop\n        /* \"#utility.yul\":6908:6912   */\n      0x20\n        /* \"#utility.yul\":6903:6906   */\n      dup3\n        /* \"#utility.yul\":6899:6913   */\n      add\n        /* \"#utility.yul\":6891:6913   */\n      swap1\n      pop\n        /* \"#utility.yul\":6761:6920   */\n      swap2\n      swap1\n      pop\n      jump\t// out\n        /* \"#utility.yul\":6926:7085   */\n    tag_145:\n        /* \"#utility.yul\":7000:7011   */\n      0x00\n        /* \"#utility.yul\":7034:7040   */\n      dup3\n        /* \"#utility.yul\":7029:7032   */\n      dup3\n        /* \"#utility.yul\":7022:7041   */\n      mstore\n        /* \"#utility.yul\":7074:7078   */\n      0x20\n        /* \"#utility.yul\":7069:7072   */\n      dup3\n        /* \"#utility.yul\":7065:7079   */\n      add\n        /* \"#utility.yul\":7050:7079   */\n      swap1\n      pop\n        /* \"#utility.yul\":6926:7085   */\n      swap3\n      swap2\n      pop\n      pop\n      jump\t// out\n        /* \"#utility.yul\":7091:7448   */\n    tag_146:\n        /* \"#utility.yul\":7169:7172   */\n      0x00\n        /* \"#utility.yul\":7197:7236   */\n      tag_247\n        /* \"#utility.yul\":7230:7235   */\n      dup3\n        /* \"#utility.yul\":7197:7236   */\n      tag_138\n      jump\t// in\n    tag_247:\n        /* \"#utility.yul\":7252:7313   */\n      tag_248\n        /* \"#utility.yul\":7306:7312   */\n      dup2\n        /* \"#utility.yul\":7301:7304   */\n      dup6\n        /* \"#utility.yul\":7252:7313   */\n      tag_145\n      jump\t// in\n    tag_248:\n        /* \"#utility.yul\":7245:7313   */\n      swap4\n      pop\n        /* \"#utility.yul\":7322:7387   */\n      tag_249\n        /* \"#utility.yul\":7380:7386   */\n      dup2\n        /* \"#utility.yul\":7375:7378   */\n      dup6\n        /* \"#utility.yul\":7368:7372   */\n      0x20\n        /* \"#utility.yul\":7361:7366   */\n      dup7\n        /* \"#utility.yul\":7357:7373   */\n      add\n        /* \"#utility.yul\":7322:7387   */\n      tag_140\n      jump\t// in\n    tag_249:\n        /* \"#utility.yul\":7412:7441   */\n      tag_250\n        /* \"#utility.yul\":7434:7440   */\n      dup2\n        /* \"#utility.yul\":7412:7441   */\n      tag_131\n      jump\t// in\n    tag_250:\n        /* \"#utility.yul\":7407:7410   */\n      dup5\n        /* \"#utility.yul\":7403:7442   */\n      add\n        /* \"#utility.yul\":7396:7442   */\n      swap2\n      pop\n        /* \"#utility.yul\":7173:7448   */\n      pop\n        /* \"#utility.yul\":7091:7448   */\n      swap3\n      swap2\n      pop\n      pop\n      jump\t// out\n        /* \"#utility.yul\":7542:8713   */\n    tag_147:\n        /* \"#utility.yul\":7655:7658   */\n      0x00\n        /* \"#utility.yul\":7691:7695   */\n      0x80\n        /* \"#utility.yul\":7686:7689   */\n      dup4\n        /* \"#utility.yul\":7682:7696   */\n      add\n        /* \"#utility.yul\":7776:7780   */\n      0x00\n        /* \"#utility.yul\":7769:7774   */\n      dup4\n        /* \"#utility.yul\":7765:7781   */\n      add\n        /* \"#utility.yul\":7759:7782   */\n      mload\n        /* \"#utility.yul\":7829:7832   */\n      dup5\n        /* \"#utility.yul\":7823:7827   */\n      dup3\n        /* \"#utility.yul\":7819:7833   */\n      sub\n        /* \"#utility.yul\":7812:7816   */\n      0x00\n        /* \"#utility.yul\":7807:7810   */\n      dup7\n        /* \"#utility.yul\":7803:7817   */\n      add\n        /* \"#utility.yul\":7796:7834   */\n      mstore\n        /* \"#utility.yul\":7855:7928   */\n      tag_252\n        /* \"#utility.yul\":7923:7927   */\n      dup3\n        /* \"#utility.yul\":7909:7921   */\n      dup3\n        /* \"#utility.yul\":7855:7928   */\n      tag_146\n      jump\t// in\n    tag_252:\n        /* \"#utility.yul\":7847:7928   */\n      swap2\n      pop\n        /* \"#utility.yul\":7706:7939   */\n      pop\n        /* \"#utility.yul\":8022:8026   */\n      0x20\n        /* \"#utility.yul\":8015:8020   */\n      dup4\n        /* \"#utility.yul\":8011:8027   */\n      add\n        /* \"#utility.yul\":8005:8028   */\n      mload\n        /* \"#utility.yul\":8075:8078   */\n      dup5\n        /* \"#utility.yul\":8069:8073   */\n      dup3\n        /* \"#utility.yul\":8065:8079   */\n      sub\n        /* \"#utility.yul\":8058:8062   */\n      0x20\n        /* \"#utility.yul\":8053:8056   */\n      dup7\n        /* \"#utility.yul\":8049:8063   */\n      add\n        /* \"#utility.yul\":8042:8080   */\n      mstore\n        /* \"#utility.yul\":8101:8174   */\n      tag_253\n        /* \"#utility.yul\":8169:8173   */\n      dup3\n        /* \"#utility.yul\":8155:8167   */\n      dup3\n        /* \"#utility.yul\":8101:8174   */\n      tag_146\n      jump\t// in\n    tag_253:\n        /* \"#utility.yul\":8093:8174   */\n      swap2\n      pop\n        /* \"#utility.yul\":7949:8185   */\n      pop\n        /* \"#utility.yul\":8267:8271   */\n      0x40\n        /* \"#utility.yul\":8260:8265   */\n      dup4\n        /* \"#utility.yul\":8256:8272   */\n      add\n        /* \"#utility.yul\":8250:8273   */\n      mload\n        /* \"#utility.yul\":8320:8323   */\n      dup5\n        /* \"#utility.yul\":8314:8318   */\n      dup3\n        /* \"#utility.yul\":8310:8324   */\n      sub\n        /* \"#utility.yul\":8303:8307   */\n      0x40\n        /* \"#utility.yul\":8298:8301   */\n      dup7\n        /* \"#utility.yul\":8294:8308   */\n      add\n        /* \"#utility.yul\":8287:8325   */\n      mstore\n        /* \"#utility.yul\":8346:8419   */\n      tag_254\n        /* \"#utility.yul\":8414:8418   */\n      dup3\n        /* \"#utility.yul\":8400:8412   */\n      dup3\n        /* \"#utility.yul\":8346:8419   */\n      tag_146\n      jump\t// in\n    tag_254:\n        /* \"#utility.yul\":8338:8419   */\n      swap2\n      pop\n        /* \"#utility.yul\":8195:8430   */\n      pop\n        /* \"#utility.yul\":8523:8527   */\n      0x60\n        /* \"#utility.yul\":8516:8521   */\n      dup4\n        /* \"#utility.yul\":8512:8528   */\n      add\n        /* \"#utility.yul\":8506:8529   */\n      mload\n        /* \"#utility.yul\":8576:8579   */\n      dup5\n        /* \"#utility.yul\":8570:8574   */\n      dup3\n        /* \"#utility.yul\":8566:8580   */\n      sub\n        /* \"#utility.yul\":8559:8563   */\n      0x60\n        /* \"#utility.yul\":8554:8557   */\n      dup7\n        /* \"#utility.yul\":8550:8564   */\n      add\n        /* \"#utility.yul\":8543:8581   */\n      mstore\n        /* \"#utility.yul\":8602:8675   */\n      tag_255\n        /* \"#utility.yul\":8670:8674   */\n      dup3\n        /* \"#utility.yul\":8656:8668   */\n      dup3\n        /* \"#utility.yul\":8602:8675   */\n      tag_146\n      jump\t// in\n    tag_255:\n        /* \"#utility.yul\":8594:8675   */\n      swap2\n      pop\n        /* \"#utility.yul\":8440:8686   */\n      pop\n        /* \"#utility.yul\":8703:8707   */\n      dup1\n        /* \"#utility.yul\":8696:8707   */\n      swap2\n      pop\n        /* \"#utility.yul\":7660:8713   */\n      pop\n        /* \"#utility.yul\":7542:8713   */\n      swap3\n      swap2\n      pop\n      pop\n      jump\t// out\n        /* \"#utility.yul\":8719:8983   */\n    tag_148:\n        /* \"#utility.yul\":8842:8852   */\n      0x00\n        /* \"#utility.yul\":8877:8977   */\n      tag_257\n        /* \"#utility.yul\":8973:8976   */\n      dup4\n        /* \"#utility.yul\":8965:8971   */\n      dup4\n        /* \"#utility.yul\":8877:8977   */\n      tag_147\n      jump\t// in\n    tag_257:\n        /* \"#utility.yul\":8863:8977   */\n      swap1\n      pop\n        /* \"#utility.yul\":8719:8983   */\n      swap3\n      swap2\n      pop\n      pop\n      jump\t// out\n        /* \"#utility.yul\":8989:9129   */\n    tag_149:\n        /* \"#utility.yul\":9086:9090   */\n      0x00\n        /* \"#utility.yul\":9118:9122   */\n      0x20\n        /* \"#utility.yul\":9113:9116   */\n      dup3\n        /* \"#utility.yul\":9109:9123   */\n      add\n        /* \"#utility.yul\":9101:9123   */\n      swap1\n      pop\n        /* \"#utility.yul\":8989:9129   */\n      swap2\n      swap1\n      pop\n      jump\t// out\n        /* \"#utility.yul\":9227:10354   */\n    tag_150:\n        /* \"#utility.yul\":9400:9403   */\n      0x00\n        /* \"#utility.yul\":9429:9510   */\n      tag_260\n        /* \"#utility.yul\":9504:9509   */\n      dup3\n        /* \"#utility.yul\":9429:9510   */\n      tag_142\n      jump\t// in\n    tag_260:\n        /* \"#utility.yul\":9526:9639   */\n      tag_261\n        /* \"#utility.yul\":9632:9638   */\n      dup2\n        /* \"#utility.yul\":9627:9630   */\n      dup6\n        /* \"#utility.yul\":9526:9639   */\n      tag_143\n      jump\t// in\n    tag_261:\n        /* \"#utility.yul\":9519:9639   */\n      swap4\n      pop\n        /* \"#utility.yul\":9665:9668   */\n      dup4\n        /* \"#utility.yul\":9710:9714   */\n      0x20\n        /* \"#utility.yul\":9702:9708   */\n      dup3\n        /* \"#utility.yul\":9698:9715   */\n      mul\n        /* \"#utility.yul\":9693:9696   */\n      dup6\n        /* \"#utility.yul\":9689:9716   */\n      add\n        /* \"#utility.yul\":9740:9823   */\n      tag_262\n        /* \"#utility.yul\":9817:9822   */\n      dup6\n        /* \"#utility.yul\":9740:9823   */\n      tag_144\n      jump\t// in\n    tag_262:\n        /* \"#utility.yul\":9846:9853   */\n      dup1\n        /* \"#utility.yul\":9877:9878   */\n      0x00\n        /* \"#utility.yul\":9862:10309   */\n    tag_263:\n        /* \"#utility.yul\":9887:9893   */\n      dup6\n        /* \"#utility.yul\":9884:9885   */\n      dup2\n        /* \"#utility.yul\":9881:9894   */\n      lt\n        /* \"#utility.yul\":9862:10309   */\n      iszero\n      tag_265\n      jumpi\n        /* \"#utility.yul\":9958:9967   */\n      dup5\n        /* \"#utility.yul\":9952:9956   */\n      dup5\n        /* \"#utility.yul\":9948:9968   */\n      sub\n        /* \"#utility.yul\":9943:9946   */\n      dup10\n        /* \"#utility.yul\":9936:9969   */\n      mstore\n        /* \"#utility.yul\":10009:10015   */\n      dup2\n        /* \"#utility.yul\":10003:10016   */\n      mload\n        /* \"#utility.yul\":10037:10155   */\n      tag_266\n        /* \"#utility.yul\":10150:10154   */\n      dup6\n        /* \"#utility.yul\":10135:10148   */\n      dup3\n        /* \"#utility.yul\":10037:10155   */\n      tag_148\n      jump\t// in\n    tag_266:\n        /* \"#utility.yul\":10029:10155   */\n      swap5\n      pop\n        /* \"#utility.yul\":10178:10265   */\n      tag_267\n        /* \"#utility.yul\":10258:10264   */\n      dup4\n        /* \"#utility.yul\":10178:10265   */\n      tag_149\n      jump\t// in\n    tag_267:\n        /* \"#utility.yul\":10168:10265   */\n      swap3\n      pop\n        /* \"#utility.yul\":10294:10298   */\n      0x20\n        /* \"#utility.yul\":10289:10292   */\n      dup11\n        /* \"#utility.yul\":10285:10299   */\n      add\n        /* \"#utility.yul\":10278:10299   */\n      swap10\n      pop\n        /* \"#utility.yul\":9922:10309   */\n      pop\n        /* \"#utility.yul\":9909:9910   */\n      0x01\n        /* \"#utility.yul\":9906:9907   */\n      dup2\n        /* \"#utility.yul\":9902:9911   */\n      add\n        /* \"#utility.yul\":9897:9911   */\n      swap1\n      pop\n        /* \"#utility.yul\":9862:10309   */\n      jump(tag_263)\n    tag_265:\n        /* \"#utility.yul\":9866:9880   */\n      pop\n        /* \"#utility.yul\":10325:10329   */\n      dup3\n        /* \"#utility.yul\":10318:10329   */\n      swap8\n      pop\n        /* \"#utility.yul\":10345:10348   */\n      dup8\n        /* \"#utility.yul\":10338:10348   */\n      swap6\n      pop\n        /* \"#utility.yul\":9405:10354   */\n      pop\n      pop\n      pop\n      pop\n      pop\n        /* \"#utility.yul\":9227:10354   */\n      swap3\n      swap2\n      pop\n      pop\n      jump\t// out\n        /* \"#utility.yul\":10360:10841   */\n    tag_20:\n        /* \"#utility.yul\":10557:10561   */\n      0x00\n        /* \"#utility.yul\":10595:10597   */\n      0x20\n        /* \"#utility.yul\":10584:10593   */\n      dup3\n        /* \"#utility.yul\":10580:10598   */\n      add\n        /* \"#utility.yul\":10572:10598   */\n      swap1\n      pop\n        /* \"#utility.yul\":10644:10653   */\n      dup2\n        /* \"#utility.yul\":10638:10642   */\n      dup2\n        /* \"#utility.yul\":10634:10654   */\n      sub\n        /* \"#utility.yul\":10630:10631   */\n      0x00\n        /* \"#utility.yul\":10619:10628   */\n      dup4\n        /* \"#utility.yul\":10615:10632   */\n      add\n        /* \"#utility.yul\":10608:10655   */\n      mstore\n        /* \"#utility.yul\":10672:10834   */\n      tag_269\n        /* \"#utility.yul\":10829:10833   */\n      dup2\n        /* \"#utility.yul\":10820:10826   */\n      dup5\n        /* \"#utility.yul\":10672:10834   */\n      tag_150\n      jump\t// in\n    tag_269:\n        /* \"#utility.yul\":10664:10834   */\n      swap1\n      pop\n        /* \"#utility.yul\":10360:10841   */\n      swap3\n      swap2\n      pop\n      pop\n      jump\t// out\n        /* \"#utility.yul\":10935:12116   */\n    tag_151:\n        /* \"#utility.yul\":11058:11061   */\n      0x00\n        /* \"#utility.yul\":11094:11098   */\n      0x80\n        /* \"#utility.yul\":11089:11092   */\n      dup4\n        /* \"#utility.yul\":11085:11099   */\n      add\n        /* \"#utility.yul\":11179:11183   */\n      0x00\n        /* \"#utility.yul\":11172:11177   */\n      dup4\n        /* \"#utility.yul\":11168:11184   */\n      add\n        /* \"#utility.yul\":11162:11185   */\n      mload\n        /* \"#utility.yul\":11232:11235   */\n      dup5\n        /* \"#utility.yul\":11226:11230   */\n      dup3\n        /* \"#utility.yul\":11222:11236   */\n      sub\n        /* \"#utility.yul\":11215:11219   */\n      0x00\n        /* \"#utility.yul\":11210:11213   */\n      dup7\n        /* \"#utility.yul\":11206:11220   */\n      add\n        /* \"#utility.yul\":11199:11237   */\n      mstore\n        /* \"#utility.yul\":11258:11331   */\n      tag_271\n        /* \"#utility.yul\":11326:11330   */\n      dup3\n        /* \"#utility.yul\":11312:11324   */\n      dup3\n        /* \"#utility.yul\":11258:11331   */\n      tag_146\n      jump\t// in\n    tag_271:\n        /* \"#utility.yul\":11250:11331   */\n      swap2\n      pop\n        /* \"#utility.yul\":11109:11342   */\n      pop\n        /* \"#utility.yul\":11425:11429   */\n      0x20\n        /* \"#utility.yul\":11418:11423   */\n      dup4\n        /* \"#utility.yul\":11414:11430   */\n      add\n        /* \"#utility.yul\":11408:11431   */\n      mload\n        /* \"#utility.yul\":11478:11481   */\n      dup5\n        /* \"#utility.yul\":11472:11476   */\n      dup3\n        /* \"#utility.yul\":11468:11482   */\n      sub\n        /* \"#utility.yul\":11461:11465   */\n      0x20\n        /* \"#utility.yul\":11456:11459   */\n      dup7\n        /* \"#utility.yul\":11452:11466   */\n      add\n        /* \"#utility.yul\":11445:11483   */\n      mstore\n        /* \"#utility.yul\":11504:11577   */\n      tag_272\n        /* \"#utility.yul\":11572:11576   */\n      dup3\n        /* \"#utility.yul\":11558:11570   */\n      dup3\n        /* \"#utility.yul\":11504:11577   */\n      tag_146\n      jump\t// in\n    tag_272:\n        /* \"#utility.yul\":11496:11577   */\n      swap2\n      pop\n        /* \"#utility.yul\":11352:11588   */\n      pop\n        /* \"#utility.yul\":11670:11674   */\n      0x40\n        /* \"#utility.yul\":11663:11668   */\n      dup4\n        /* \"#utility.yul\":11659:11675   */\n      add\n        /* \"#utility.yul\":11653:11676   */\n      mload\n        /* \"#utility.yul\":11723:11726   */\n      dup5\n        /* \"#utility.yul\":11717:11721   */\n      dup3\n        /* \"#utility.yul\":11713:11727   */\n      sub\n        /* \"#utility.yul\":11706:11710   */\n      0x40\n        /* \"#utility.yul\":11701:11704   */\n      dup7\n        /* \"#utility.yul\":11697:11711   */\n      add\n        /* \"#utility.yul\":11690:11728   */\n      mstore\n        /* \"#utility.yul\":11749:11822   */\n      tag_273\n        /* \"#utility.yul\":11817:11821   */\n      dup3\n        /* \"#utility.yul\":11803:11815   */\n      dup3\n        /* \"#utility.yul\":11749:11822   */\n      tag_146\n      jump\t// in\n    tag_273:\n        /* \"#utility.yul\":11741:11822   */\n      swap2\n      pop\n        /* \"#utility.yul\":11598:11833   */\n      pop\n        /* \"#utility.yul\":11926:11930   */\n      0x60\n        /* \"#utility.yul\":11919:11924   */\n      dup4\n        /* \"#utility.yul\":11915:11931   */\n      add\n        /* \"#utility.yul\":11909:11932   */\n      mload\n        /* \"#utility.yul\":11979:11982   */\n      dup5\n        /* \"#utility.yul\":11973:11977   */\n      dup3\n        /* \"#utility.yul\":11969:11983   */\n      sub\n        /* \"#utility.yul\":11962:11966   */\n      0x60\n        /* \"#utility.yul\":11957:11960   */\n      dup7\n        /* \"#utility.yul\":11953:11967   */\n      add\n        /* \"#utility.yul\":11946:11984   */\n      mstore\n        /* \"#utility.yul\":12005:12078   */\n      tag_274\n        /* \"#utility.yul\":12073:12077   */\n      dup3\n        /* \"#utility.yul\":12059:12071   */\n      dup3\n        /* \"#utility.yul\":12005:12078   */\n      tag_146\n      jump\t// in\n    tag_274:\n        /* \"#utility.yul\":11997:12078   */\n      swap2\n      pop\n        /* \"#utility.yul\":11843:12089   */\n      pop\n        /* \"#utility.yul\":12106:12110   */\n      dup1\n        /* \"#utility.yul\":12099:12110   */\n      swap2\n      pop\n        /* \"#utility.yul\":11063:12116   */\n      pop\n        /* \"#utility.yul\":10935:12116   */\n      swap3\n      swap2\n      pop\n      pop\n      jump\t// out\n        /* \"#utility.yul\":12122:12503   */\n    tag_25:\n        /* \"#utility.yul\":12269:12273   */\n      0x00\n        /* \"#utility.yul\":12307:12309   */\n      0x20\n        /* \"#utility.yul\":12296:12305   */\n      dup3\n        /* \"#utility.yul\":12292:12310   */\n      add\n        /* \"#utility.yul\":12284:12310   */\n      swap1\n      pop\n        /* \"#utility.yul\":12356:12365   */\n      dup2\n        /* \"#utility.yul\":12350:12354   */\n      dup2\n        /* \"#utility.yul\":12346:12366   */\n      sub\n        /* \"#utility.yul\":12342:12343   */\n      0x00\n        /* \"#utility.yul\":12331:12340   */\n      dup4\n        /* \"#utility.yul\":12327:12344   */\n      add\n        /* \"#utility.yul\":12320:12367   */\n      mstore\n        /* \"#utility.yul\":12384:12496   */\n      tag_276\n        /* \"#utility.yul\":12491:12495   */\n      dup2\n        /* \"#utility.yul\":12482:12488   */\n      dup5\n        /* \"#utility.yul\":12384:12496   */\n      tag_151\n      jump\t// in\n    tag_276:\n        /* \"#utility.yul\":12376:12496   */\n      swap1\n      pop\n        /* \"#utility.yul\":12122:12503   */\n      swap3\n      swap2\n      pop\n      pop\n      jump\t// out\n        /* \"#utility.yul\":12509:12657   */\n    tag_152:\n        /* \"#utility.yul\":12611:12622   */\n      0x00\n        /* \"#utility.yul\":12648:12651   */\n      dup2\n        /* \"#utility.yul\":12633:12651   */\n      swap1\n      pop\n        /* \"#utility.yul\":12509:12657   */\n      swap3\n      swap2\n      pop\n      pop\n      jump\t// out\n        /* \"#utility.yul\":12663:13053   */\n    tag_153:\n        /* \"#utility.yul\":12769:12772   */\n      0x00\n        /* \"#utility.yul\":12797:12836   */\n      tag_279\n        /* \"#utility.yul\":12830:12835   */\n      dup3\n        /* \"#utility.yul\":12797:12836   */\n      tag_138\n      jump\t// in\n    tag_279:\n        /* \"#utility.yul\":12852:12941   */\n      tag_280\n        /* \"#utility.yul\":12934:12940   */\n      dup2\n        /* \"#utility.yul\":12929:12932   */\n      dup6\n        /* \"#utility.yul\":12852:12941   */\n      tag_152\n      jump\t// in\n    tag_280:\n        /* \"#utility.yul\":12845:12941   */\n      swap4\n      pop\n        /* \"#utility.yul\":12950:13015   */\n      tag_281\n        /* \"#utility.yul\":13008:13014   */\n      dup2\n        /* \"#utility.yul\":13003:13006   */\n      dup6\n        /* \"#utility.yul\":12996:13000   */\n      0x20\n        /* \"#utility.yul\":12989:12994   */\n      dup7\n        /* \"#utility.yul\":12985:13001   */\n      add\n        /* \"#utility.yul\":12950:13015   */\n      tag_140\n      jump\t// in\n    tag_281:\n        /* \"#utility.yul\":13040:13046   */\n      dup1\n        /* \"#utility.yul\":13035:13038   */\n      dup5\n        /* \"#utility.yul\":13031:13047   */\n      add\n        /* \"#utility.yul\":13024:13047   */\n      swap2\n      pop\n        /* \"#utility.yul\":12773:13053   */\n      pop\n        /* \"#utility.yul\":12663:13053   */\n      swap3\n      swap2\n      pop\n      pop\n      jump\t// out\n        /* \"#utility.yul\":13059:13334   */\n    tag_28:\n        /* \"#utility.yul\":13191:13194   */\n      0x00\n        /* \"#utility.yul\":13213:13308   */\n      tag_283\n        /* \"#utility.yul\":13304:13307   */\n      dup3\n        /* \"#utility.yul\":13295:13301   */\n      dup5\n        /* \"#utility.yul\":13213:13308   */\n      tag_153\n      jump\t// in\n    tag_283:\n        /* \"#utility.yul\":13206:13308   */\n      swap2\n      pop\n        /* \"#utility.yul\":13325:13328   */\n      dup2\n        /* \"#utility.yul\":13318:13328   */\n      swap1\n      pop\n        /* \"#utility.yul\":13059:13334   */\n      swap3\n      swap2\n      pop\n      pop\n      jump\t// out\n        /* \"#utility.yul\":13340:13520   */\n    tag_154:\n        /* \"#utility.yul\":13388:13465   */\n      0x4e487b7100000000000000000000000000000000000000000000000000000000\n        /* \"#utility.yul\":13385:13386   */\n      0x00\n        /* \"#utility.yul\":13378:13466   */\n      mstore\n        /* \"#utility.yul\":13485:13489   */\n      0x22\n        /* \"#utility.yul\":13482:13483   */\n      0x04\n        /* \"#utility.yul\":13475:13490   */\n      mstore\n        /* \"#utility.yul\":13509:13513   */\n      0x24\n        /* \"#utility.yul\":13506:13507   */\n      0x00\n        /* \"#utility.yul\":13499:13514   */\n      revert\n        /* \"#utility.yul\":13526:13846   */\n    tag_30:\n        /* \"#utility.yul\":13570:13576   */\n      0x00\n        /* \"#utility.yul\":13607:13608   */\n      0x02\n        /* \"#utility.yul\":13601:13605   */\n      dup3\n        /* \"#utility.yul\":13597:13609   */\n      div\n        /* \"#utility.yul\":13587:13609   */\n      swap1\n      pop\n        /* \"#utility.yul\":13654:13655   */\n      0x01\n        /* \"#utility.yul\":13648:13652   */\n      dup3\n        /* \"#utility.yul\":13644:13656   */\n      and\n        /* \"#utility.yul\":13675:13693   */\n      dup1\n        /* \"#utility.yul\":13665:13746   */\n      tag_286\n      jumpi\n        /* \"#utility.yul\":13731:13735   */\n      0x7f\n        /* \"#utility.yul\":13723:13729   */\n      dup3\n        /* \"#utility.yul\":13719:13736   */\n      and\n        /* \"#utility.yul\":13709:13736   */\n      swap2\n      pop\n        /* \"#utility.yul\":13665:13746   */\n    tag_286:\n        /* \"#utility.yul\":13793:13795   */\n      0x20\n        /* \"#utility.yul\":13785:13791   */\n      dup3\n        /* \"#utility.yul\":13782:13796   */\n      lt\n        /* \"#utility.yul\":13762:13780   */\n      dup2\n        /* \"#utility.yul\":13759:13797   */\n      sub\n        /* \"#utility.yul\":13756:13840   */\n      tag_287\n      jumpi\n        /* \"#utility.yul\":13812:13830   */\n      tag_288\n      tag_154\n      jump\t// in\n    tag_288:\n        /* \"#utility.yul\":13756:13840   */\n    tag_287:\n        /* \"#utility.yul\":13577:13846   */\n      pop\n        /* \"#utility.yul\":13526:13846   */\n      swap2\n      swap1\n      pop\n      jump\t// out\n        /* \"#utility.yul\":13852:14028   */\n    tag_155:\n        /* \"#utility.yul\":13992:14020   */\n      0x4173736f63696174696f6e20616c726561647920657869737473000000000000\n        /* \"#utility.yul\":13988:13989   */\n      0x00\n        /* \"#utility.yul\":13980:13986   */\n      dup3\n        /* \"#utility.yul\":13976:13990   */\n      add\n        /* \"#utility.yul\":13969:14021   */\n      mstore\n        /* \"#utility.yul\":13852:14028   */\n      pop\n      jump\t// out\n        /* \"#utility.yul\":14034:14400   */\n    tag_156:\n        /* \"#utility.yul\":14176:14179   */\n      0x00\n        /* \"#utility.yul\":14197:14264   */\n      tag_291\n        /* \"#utility.yul\":14261:14263   */\n      0x1a\n        /* \"#utility.yul\":14256:14259   */\n      dup4\n        /* \"#utility.yul\":14197:14264   */\n      tag_139\n      jump\t// in\n    tag_291:\n        /* \"#utility.yul\":14190:14264   */\n      swap2\n      pop\n        /* \"#utility.yul\":14273:14366   */\n      tag_292\n        /* \"#utility.yul\":14362:14365   */\n      dup3\n        /* \"#utility.yul\":14273:14366   */\n      tag_155\n      jump\t// in\n    tag_292:\n        /* \"#utility.yul\":14391:14393   */\n      0x20\n        /* \"#utility.yul\":14386:14389   */\n      dup3\n        /* \"#utility.yul\":14382:14394   */\n      add\n        /* \"#utility.yul\":14375:14394   */\n      swap1\n      pop\n        /* \"#utility.yul\":14034:14400   */\n      swap2\n      swap1\n      pop\n      jump\t// out\n        /* \"#utility.yul\":14406:14825   */\n    tag_33:\n        /* \"#utility.yul\":14572:14576   */\n      0x00\n        /* \"#utility.yul\":14610:14612   */\n      0x20\n        /* \"#utility.yul\":14599:14608   */\n      dup3\n        /* \"#utility.yul\":14595:14613   */\n      add\n        /* \"#utility.yul\":14587:14613   */\n      swap1\n      pop\n        /* \"#utility.yul\":14659:14668   */\n      dup2\n        /* \"#utility.yul\":14653:14657   */\n      dup2\n        /* \"#utility.yul\":14649:14669   */\n      sub\n        /* \"#utility.yul\":14645:14646   */\n      0x00\n        /* \"#utility.yul\":14634:14643   */\n      dup4\n        /* \"#utility.yul\":14630:14647   */\n      add\n        /* \"#utility.yul\":14623:14670   */\n      mstore\n        /* \"#utility.yul\":14687:14818   */\n      tag_294\n        /* \"#utility.yul\":14813:14817   */\n      dup2\n        /* \"#utility.yul\":14687:14818   */\n      tag_156\n      jump\t// in\n    tag_294:\n        /* \"#utility.yul\":14679:14818   */\n      swap1\n      pop\n        /* \"#utility.yul\":14406:14825   */\n      swap2\n      swap1\n      pop\n      jump\t// out\n        /* \"#utility.yul\":14831:14972   */\n    tag_157:\n        /* \"#utility.yul\":14880:14884   */\n      0x00\n        /* \"#utility.yul\":14903:14906   */\n      dup2\n        /* \"#utility.yul\":14895:14906   */\n      swap1\n      pop\n        /* \"#utility.yul\":14926:14929   */\n      dup2\n        /* \"#utility.yul\":14923:14924   */\n      0x00\n        /* \"#utility.yul\":14916:14930   */\n      mstore\n        /* \"#utility.yul\":14960:14964   */\n      0x20\n        /* \"#utility.yul\":14957:14958   */\n      0x00\n        /* \"#utility.yul\":14947:14965   */\n      keccak256\n        /* \"#utility.yul\":14939:14965   */\n      swap1\n      pop\n        /* \"#utility.yul\":14831:14972   */\n      swap2\n      swap1\n      pop\n      jump\t// out\n        /* \"#utility.yul\":14978:15071   */\n    tag_158:\n        /* \"#utility.yul\":15015:15021   */\n      0x00\n        /* \"#utility.yul\":15062:15064   */\n      0x20\n        /* \"#utility.yul\":15057:15059   */\n      0x1f\n        /* \"#utility.yul\":15050:15055   */\n      dup4\n        /* \"#utility.yul\":15046:15060   */\n      add\n        /* \"#utility.yul\":15042:15065   */\n      div\n        /* \"#utility.yul\":15032:15065   */\n      swap1\n      pop\n        /* \"#utility.yul\":14978:15071   */\n      swap2\n      swap1\n      pop\n      jump\t// out\n        /* \"#utility.yul\":15077:15184   */\n    tag_159:\n        /* \"#utility.yul\":15121:15129   */\n      0x00\n        /* \"#utility.yul\":15171:15176   */\n      dup3\n        /* \"#utility.yul\":15165:15169   */\n      dup3\n        /* \"#utility.yul\":15161:15177   */\n      shl\n        /* \"#utility.yul\":15140:15177   */\n      swap1\n      pop\n        /* \"#utility.yul\":15077:15184   */\n      swap3\n      swap2\n      pop\n      pop\n      jump\t// out\n        /* \"#utility.yul\":15190:15583   */\n    tag_160:\n        /* \"#utility.yul\":15259:15265   */\n      0x00\n        /* \"#utility.yul\":15309:15310   */\n      0x08\n        /* \"#utility.yul\":15297:15307   */\n      dup4\n        /* \"#utility.yul\":15293:15311   */\n      mul\n        /* \"#utility.yul\":15332:15429   */\n      tag_299\n        /* \"#utility.yul\":15362:15428   */\n      0xffffffffffffffffffffffffffffffffffffffffffffffffffffffffffffffff\n        /* \"#utility.yul\":15351:15360   */\n      dup3\n        /* \"#utility.yul\":15332:15429   */\n      tag_159\n      jump\t// in\n    tag_299:\n        /* \"#utility.yul\":15450:15489   */\n      tag_300\n        /* \"#utility.yul\":15480:15488   */\n      dup7\n        /* \"#utility.yul\":15469:15478   */\n      dup4\n        /* \"#utility.yul\":15450:15489   */\n      tag_159\n      jump\t// in\n    tag_300:\n        /* \"#utility.yul\":15438:15489   */\n      swap6\n      pop\n        /* \"#utility.yul\":15522:15526   */\n      dup1\n        /* \"#utility.yul\":15518:15527   */\n      not\n        /* \"#utility.yul\":15511:15516   */\n      dup5\n        /* \"#utility.yul\":15507:15528   */\n      and\n        /* \"#utility.yul\":15498:15528   */\n      swap4\n      pop\n        /* \"#utility.yul\":15571:15575   */\n      dup1\n        /* \"#utility.yul\":15561:15569   */\n      dup7\n        /* \"#utility.yul\":15557:15576   */\n      and\n        /* \"#utility.yul\":15550:15555   */\n      dup5\n        /* \"#utility.yul\":15547:15577   */\n      or\n        /* \"#utility.yul\":15537:15577   */\n      swap3\n      pop\n        /* \"#utility.yul\":15266:15583   */\n      pop\n      pop\n        /* \"#utility.yul\":15190:15583   */\n      swap4\n      swap3\n      pop\n      pop\n      pop\n      jump\t// out\n        /* \"#utility.yul\":15589:15666   */\n    tag_161:\n        /* \"#utility.yul\":15626:15633   */\n      0x00\n        /* \"#utility.yul\":15655:15660   */\n      dup2\n        /* \"#utility.yul\":15644:15660   */\n      swap1\n      pop\n        /* \"#utility.yul\":15589:15666   */\n      swap2\n      swap1\n      pop\n      jump\t// out\n        /* \"#utility.yul\":15672:15732   */\n    tag_162:\n        /* \"#utility.yul\":15700:15703   */\n      0x00\n        /* \"#utility.yul\":15721:15726   */\n      dup2\n        /* \"#utility.yul\":15714:15726   */\n      swap1\n      pop\n        /* \"#utility.yul\":15672:15732   */\n      swap2\n      swap1\n      pop\n      jump\t// out\n        /* \"#utility.yul\":15738:15880   */\n    tag_163:\n        /* \"#utility.yul\":15788:15797   */\n      0x00\n        /* \"#utility.yul\":15821:15874   */\n      tag_304\n        /* \"#utility.yul\":15839:15873   */\n      tag_305\n        /* \"#utility.yul\":15848:15872   */\n      tag_306\n        /* \"#utility.yul\":15866:15871   */\n      dup5\n        /* \"#utility.yul\":15848:15872   */\n      tag_161\n      jump\t// in\n    tag_306:\n        /* \"#utility.yul\":15839:15873   */\n      tag_162\n      jump\t// in\n    tag_305:\n        /* \"#utility.yul\":15821:15874   */\n      tag_161\n      jump\t// in\n    tag_304:\n        /* \"#utility.yul\":15808:15874   */\n      swap1\n      pop\n        /* \"#utility.yul\":15738:15880   */\n      swap2\n      swap1\n      pop\n      jump\t// out\n        /* \"#utility.yul\":15886:15961   */\n    tag_164:\n        /* \"#utility.yul\":15929:15932   */\n      0x00\n        /* \"#utility.yul\":15950:15955   */\n      dup2\n        /* \"#utility.yul\":15943:15955   */\n      swap1\n      pop\n        /* \"#utility.yul\":15886:15961   */\n      swap2\n      swap1\n      pop\n      jump\t// out\n        /* \"#utility.yul\":15967:16236   */\n    tag_165:\n        /* \"#utility.yul\":16077:16116   */\n      tag_309\n        /* \"#utility.yul\":16108:16115   */\n      dup4\n        /* \"#utility.yul\":16077:16116   */\n      tag_163\n      jump\t// in\n    tag_309:\n        /* \"#utility.yul\":16138:16229   */\n      tag_310\n        /* \"#utility.yul\":16187:16228   */\n      tag_311\n        /* \"#utility.yul\":16211:16227   */\n      dup3\n        /* \"#utility.yul\":16187:16228   */\n      tag_164\n      jump\t// in\n    tag_311:\n        /* \"#utility.yul\":16179:16185   */\n      dup5\n        /* \"#utility.yul\":16172:16176   */\n      dup5\n        /* \"#utility.yul\":16166:16177   */\n      sload\n        /* \"#utility.yul\":16138:16229   */\n      tag_160\n      jump\t// in\n    tag_310:\n        /* \"#utility.yul\":16132:16136   */\n      dup3\n        /* \"#utility.yul\":16125:16230   */\n      sstore\n        /* \"#utility.yul\":16043:16236   */\n      pop\n        /* \"#utility.yul\":15967:16236   */\n      pop\n      pop\n      pop\n      jump\t// out\n        /* \"#utility.yul\":16242:16315   */\n    tag_166:\n        /* \"#utility.yul\":16287:16290   */\n      0x00\n        /* \"#utility.yul\":16242:16315   */\n      swap1\n      jump\t// out\n        /* \"#utility.yul\":16321:16510   */\n    tag_167:\n        /* \"#utility.yul\":16398:16430   */\n      tag_314\n      tag_166\n      jump\t// in\n    tag_314:\n        /* \"#utility.yul\":16439:16504   */\n      tag_315\n        /* \"#utility.yul\":16497:16503   */\n      dup2\n        /* \"#utility.yul\":16489:16495   */\n      dup5\n        /* \"#utility.yul\":16483:16487   */\n      dup5\n        /* \"#utility.yul\":16439:16504   */\n      tag_165\n      jump\t// in\n    tag_315:\n        /* \"#utility.yul\":16374:16510   */\n      pop\n        /* \"#utility.yul\":16321:16510   */\n      pop\n      pop\n      jump\t// out\n        /* \"#utility.yul\":16516:16702   */\n    tag_168:\n        /* \"#utility.yul\":16576:16696   */\n    tag_317:\n        /* \"#utility.yul\":16593:16596   */\n      dup2\n        /* \"#utility.yul\":16586:16591   */\n      dup2\n        /* \"#utility.yul\":16583:16597   */\n      lt\n        /* \"#utility.yul\":16576:16696   */\n      iszero\n      tag_319\n      jumpi\n        /* \"#utility.yul\":16647:16686   */\n      tag_320\n        /* \"#utility.yul\":16684:16685   */\n      0x00\n        /* \"#utility.yul\":16677:16682   */\n      dup3\n        /* \"#utility.yul\":16647:16686   */\n      tag_167\n      jump\t// in\n    tag_320:\n        /* \"#utility.yul\":16620:16621   */\n      0x01\n        /* \"#utility.yul\":16613:16618   */\n      dup2\n        /* \"#utility.yul\":16609:16622   */\n      add\n        /* \"#utility.yul\":16600:16622   */\n      swap1\n      pop\n        /* \"#utility.yul\":16576:16696   */\n      jump(tag_317)\n    tag_319:\n        /* \"#utility.yul\":16516:16702   */\n      pop\n      pop\n      jump\t// out\n        /* \"#utility.yul\":16708:17251   */\n    tag_169:\n        /* \"#utility.yul\":16809:16811   */\n      0x1f\n        /* \"#utility.yul\":16804:16807   */\n      dup3\n        /* \"#utility.yul\":16801:16812   */\n      gt\n        /* \"#utility.yul\":16798:17244   */\n      iszero\n      tag_322\n      jumpi\n        /* \"#utility.yul\":16843:16881   */\n      tag_323\n        /* \"#utility.yul\":16875:16880   */\n      dup2\n        /* \"#utility.yul\":16843:16881   */\n      tag_157\n      jump\t// in\n    tag_323:\n        /* \"#utility.yul\":16927:16956   */\n      tag_324\n        /* \"#utility.yul\":16945:16955   */\n      dup5\n        /* \"#utility.yul\":16927:16956   */\n      tag_158\n      jump\t// in\n    tag_324:\n        /* \"#utility.yul\":16917:16925   */\n      dup2\n        /* \"#utility.yul\":16913:16957   */\n      add\n        /* \"#utility.yul\":17110:17112   */\n      0x20\n        /* \"#utility.yul\":17098:17108   */\n      dup6\n        /* \"#utility.yul\":17095:17113   */\n      lt\n        /* \"#utility.yul\":17092:17141   */\n      iszero\n      tag_325\n      jumpi\n        /* \"#utility.yul\":17131:17139   */\n      dup2\n        /* \"#utility.yul\":17116:17139   */\n      swap1\n      pop\n        /* \"#utility.yul\":17092:17141   */\n    tag_325:\n        /* \"#utility.yul\":17154:17234   */\n      tag_326\n        /* \"#utility.yul\":17210:17232   */\n      tag_327\n        /* \"#utility.yul\":17228:17231   */\n      dup6\n        /* \"#utility.yul\":17210:17232   */\n      tag_158\n      jump\t// in\n    tag_327:\n        /* \"#utility.yul\":17200:17208   */\n      dup4\n        /* \"#utility.yul\":17196:17233   */\n      add\n        /* \"#utility.yul\":17183:17194   */\n      dup3\n        /* \"#utility.yul\":17154:17234   */\n      tag_168\n      jump\t// in\n    tag_326:\n        /* \"#utility.yul\":16813:17244   */\n      pop\n      pop\n        /* \"#utility.yul\":16798:17244   */\n    tag_322:\n        /* \"#utility.yul\":16708:17251   */\n      pop\n      pop\n      pop\n      jump\t// out\n        /* \"#utility.yul\":17257:17374   */\n    tag_170:\n        /* \"#utility.yul\":17311:17319   */\n      0x00\n        /* \"#utility.yul\":17361:17366   */\n      dup3\n        /* \"#utility.yul\":17355:17359   */\n      dup3\n        /* \"#utility.yul\":17351:17367   */\n      shr\n        /* \"#utility.yul\":17330:17367   */\n      swap1\n      pop\n        /* \"#utility.yul\":17257:17374   */\n      swap3\n      swap2\n      pop\n      pop\n      jump\t// out\n        /* \"#utility.yul\":17380:17549   */\n    tag_171:\n        /* \"#utility.yul\":17424:17430   */\n      0x00\n        /* \"#utility.yul\":17457:17508   */\n      tag_330\n        /* \"#utility.yul\":17505:17506   */\n      0x00\n        /* \"#utility.yul\":17501:17507   */\n      not\n        /* \"#utility.yul\":17493:17498   */\n      dup5\n        /* \"#utility.yul\":17490:17491   */\n      0x08\n        /* \"#utility.yul\":17486:17499   */\n      mul\n        /* \"#utility.yul\":17457:17508   */\n      tag_170\n      jump\t// in\n    tag_330:\n        /* \"#utility.yul\":17453:17509   */\n      not\n        /* \"#utility.yul\":17538:17542   */\n      dup1\n        /* \"#utility.yul\":17532:17536   */\n      dup4\n        /* \"#utility.yul\":17528:17543   */\n      and\n        /* \"#utility.yul\":17518:17543   */\n      swap2\n      pop\n        /* \"#utility.yul\":17431:17549   */\n      pop\n        /* \"#utility.yul\":17380:17549   */\n      swap3\n      swap2\n      pop\n      pop\n      jump\t// out\n        /* \"#utility.yul\":17554:17849   */\n    tag_172:\n        /* \"#utility.yul\":17630:17634   */\n      0x00\n        /* \"#utility.yul\":17776:17805   */\n      tag_332\n        /* \"#utility.yul\":17801:17804   */\n      dup4\n        /* \"#utility.yul\":17795:17799   */\n      dup4\n        /* \"#utility.yul\":17776:17805   */\n      tag_171\n      jump\t// in\n    tag_332:\n        /* \"#utility.yul\":17768:17805   */\n      swap2\n      pop\n        /* \"#utility.yul\":17838:17841   */\n      dup3\n        /* \"#utility.yul\":17835:17836   */\n      0x02\n        /* \"#utility.yul\":17831:17842   */\n      mul\n        /* \"#utility.yul\":17825:17829   */\n      dup3\n        /* \"#utility.yul\":17822:17843   */\n      or\n        /* \"#utility.yul\":17814:17843   */\n      swap1\n      pop\n        /* \"#utility.yul\":17554:17849   */\n      swap3\n      swap2\n      pop\n      pop\n      jump\t// out\n        /* \"#utility.yul\":17854:19249   */\n    tag_36:\n        /* \"#utility.yul\":17971:18008   */\n      tag_334\n        /* \"#utility.yul\":18004:18007   */\n      dup3\n        /* \"#utility.yul\":17971:18008   */\n      tag_138\n      jump\t// in\n    tag_334:\n        /* \"#utility.yul\":18073:18091   */\n      0xffffffffffffffff\n        /* \"#utility.yul\":18065:18071   */\n      dup2\n        /* \"#utility.yul\":18062:18092   */\n      gt\n        /* \"#utility.yul\":18059:18115   */\n      iszero\n      tag_335\n      jumpi\n        /* \"#utility.yul\":18095:18113   */\n      tag_336\n      tag_65\n      jump\t// in\n    tag_336:\n        /* \"#utility.yul\":18059:18115   */\n    tag_335:\n        /* \"#utility.yul\":18139:18177   */\n      tag_337\n        /* \"#utility.yul\":18171:18175   */\n      dup3\n        /* \"#utility.yul\":18165:18176   */\n      sload\n        /* \"#utility.yul\":18139:18177   */\n      tag_30\n      jump\t// in\n    tag_337:\n        /* \"#utility.yul\":18224:18291   */\n      tag_338\n        /* \"#utility.yul\":18284:18290   */\n      dup3\n        /* \"#utility.yul\":18276:18282   */\n      dup3\n        /* \"#utility.yul\":18270:18274   */\n      dup6\n        /* \"#utility.yul\":18224:18291   */\n      tag_169\n      jump\t// in\n    tag_338:\n        /* \"#utility.yul\":18318:18319   */\n      0x00\n        /* \"#utility.yul\":18342:18346   */\n      0x20\n        /* \"#utility.yul\":18329:18346   */\n      swap1\n      pop\n        /* \"#utility.yul\":18374:18376   */\n      0x1f\n        /* \"#utility.yul\":18366:18372   */\n      dup4\n        /* \"#utility.yul\":18363:18377   */\n      gt\n        /* \"#utility.yul\":18391:18392   */\n      0x01\n        /* \"#utility.yul\":18386:19004   */\n      dup2\n      eq\n      tag_340\n      jumpi\n        /* \"#utility.yul\":19048:19049   */\n      0x00\n        /* \"#utility.yul\":19065:19071   */\n      dup5\n        /* \"#utility.yul\":19062:19139   */\n      iszero\n      tag_341\n      jumpi\n        /* \"#utility.yul\":19114:19123   */\n      dup3\n        /* \"#utility.yul\":19109:19112   */\n      dup8\n        /* \"#utility.yul\":19105:19124   */\n      add\n        /* \"#utility.yul\":19099:19125   */\n      mload\n        /* \"#utility.yul\":19090:19125   */\n      swap1\n      pop\n        /* \"#utility.yul\":19062:19139   */\n    tag_341:\n        /* \"#utility.yul\":19165:19232   */\n      tag_342\n        /* \"#utility.yul\":19225:19231   */\n      dup6\n        /* \"#utility.yul\":19218:19223   */\n      dup3\n        /* \"#utility.yul\":19165:19232   */\n      tag_172\n      jump\t// in\n    tag_342:\n        /* \"#utility.yul\":19159:19163   */\n      dup7\n        /* \"#utility.yul\":19152:19233   */\n      sstore\n        /* \"#utility.yul\":19021:19243   */\n      pop\n        /* \"#utility.yul\":18356:19243   */\n      jump(tag_339)\n        /* \"#utility.yul\":18386:19004   */\n    tag_340:\n        /* \"#utility.yul\":18438:18442   */\n      0x1f\n        /* \"#utility.yul\":18434:18443   */\n      not\n        /* \"#utility.yul\":18426:18432   */\n      dup5\n        /* \"#utility.yul\":18422:18444   */\n      and\n        /* \"#utility.yul\":18472:18509   */\n      tag_343\n        /* \"#utility.yul\":18504:18508   */\n      dup7\n        /* \"#utility.yul\":18472:18509   */\n      tag_157\n      jump\t// in\n    tag_343:\n        /* \"#utility.yul\":18531:18532   */\n      0x00\n        /* \"#utility.yul\":18545:18753   */\n    tag_344:\n        /* \"#utility.yul\":18559:18566   */\n      dup3\n        /* \"#utility.yul\":18556:18557   */\n      dup2\n        /* \"#utility.yul\":18553:18567   */\n      lt\n        /* \"#utility.yul\":18545:18753   */\n      iszero\n      tag_346\n      jumpi\n        /* \"#utility.yul\":18638:18647   */\n      dup5\n        /* \"#utility.yul\":18633:18636   */\n      dup10\n        /* \"#utility.yul\":18629:18648   */\n      add\n        /* \"#utility.yul\":18623:18649   */\n      mload\n        /* \"#utility.yul\":18615:18621   */\n      dup3\n        /* \"#utility.yul\":18608:18650   */\n      sstore\n        /* \"#utility.yul\":18689:18690   */\n      0x01\n        /* \"#utility.yul\":18681:18687   */\n      dup3\n        /* \"#utility.yul\":18677:18691   */\n      add\n        /* \"#utility.yul\":18667:18691   */\n      swap2\n      pop\n        /* \"#utility.yul\":18736:18738   */\n      0x20\n        /* \"#utility.yul\":18725:18734   */\n      dup6\n        /* \"#utility.yul\":18721:18739   */\n      add\n        /* \"#utility.yul\":18708:18739   */\n      swap5\n      pop\n        /* \"#utility.yul\":18582:18586   */\n      0x20\n        /* \"#utility.yul\":18579:18580   */\n      dup2\n        /* \"#utility.yul\":18575:18587   */\n      add\n        /* \"#utility.yul\":18570:18587   */\n      swap1\n      pop\n        /* \"#utility.yul\":18545:18753   */\n      jump(tag_344)\n    tag_346:\n        /* \"#utility.yul\":18781:18787   */\n      dup7\n        /* \"#utility.yul\":18772:18779   */\n      dup4\n        /* \"#utility.yul\":18769:18788   */\n      lt\n        /* \"#utility.yul\":18766:18945   */\n      iszero\n      tag_347\n      jumpi\n        /* \"#utility.yul\":18839:18848   */\n      dup5\n        /* \"#utility.yul\":18834:18837   */\n      dup10\n        /* \"#utility.yul\":18830:18849   */\n      add\n        /* \"#utility.yul\":18824:18850   */\n      mload\n        /* \"#utility.yul\":18882:18930   */\n      tag_348\n        /* \"#utility.yul\":18924:18928   */\n      0x1f\n        /* \"#utility.yul\":18916:18922   */\n      dup10\n        /* \"#utility.yul\":18912:18929   */\n      and\n        /* \"#utility.yul\":18901:18910   */\n      dup3\n        /* \"#utility.yul\":18882:18930   */\n      tag_171\n      jump\t// in\n    tag_348:\n        /* \"#utility.yul\":18874:18880   */\n      dup4\n        /* \"#utility.yul\":18867:18931   */\n      sstore\n        /* \"#utility.yul\":18789:18945   */\n      pop\n        /* \"#utility.yul\":18766:18945   */\n    tag_347:\n        /* \"#utility.yul\":18991:18992   */\n      0x01\n        /* \"#utility.yul\":18987:18988   */\n      0x02\n        /* \"#utility.yul\":18979:18985   */\n      dup9\n        /* \"#utility.yul\":18975:18989   */\n      mul\n        /* \"#utility.yul\":18971:18993   */\n      add\n        /* \"#utility.yul\":18965:18969   */\n      dup9\n        /* \"#utility.yul\":18958:18994   */\n      sstore\n        /* \"#utility.yul\":18393:19004   */\n      pop\n      pop\n      pop\n        /* \"#utility.yul\":18356:19243   */\n    tag_339:\n      pop\n        /* \"#utility.yul\":17946:19249   */\n      pop\n      pop\n      pop\n        /* \"#utility.yul\":17854:19249   */\n      pop\n      pop\n      jump\t// out\n        /* \"#utility.yul\":19255:19435   */\n    tag_75:\n        /* \"#utility.yul\":19303:19380   */\n      0x4e487b7100000000000000000000000000000000000000000000000000000000\n        /* \"#utility.yul\":19300:19301   */\n      0x00\n        /* \"#utility.yul\":19293:19381   */\n      mstore\n        /* \"#utility.yul\":19400:19404   */\n      0x32\n        /* \"#utility.yul\":19397:19398   */\n      0x04\n        /* \"#utility.yul\":19390:19405   */\n      mstore\n        /* \"#utility.yul\":19424:19428   */\n      0x24\n        /* \"#utility.yul\":19421:19422   */\n      0x00\n        /* \"#utility.yul\":19414:19429   */\n      revert\n        /* \"#utility.yul\":19465:20339   */\n    tag_173:\n        /* \"#utility.yul\":19568:19571   */\n      0x00\n        /* \"#utility.yul\":19605:19610   */\n      dup2\n        /* \"#utility.yul\":19599:19611   */\n      sload\n        /* \"#utility.yul\":19634:19670   */\n      tag_351\n        /* \"#utility.yul\":19660:19669   */\n      dup2\n        /* \"#utility.yul\":19634:19670   */\n      tag_30\n      jump\t// in\n    tag_351:\n        /* \"#utility.yul\":19686:19775   */\n      tag_352\n        /* \"#utility.yul\":19768:19774   */\n      dup2\n        /* \"#utility.yul\":19763:19766   */\n      dup7\n        /* \"#utility.yul\":19686:19775   */\n      tag_152\n      jump\t// in\n    tag_352:\n        /* \"#utility.yul\":19679:19775   */\n      swap5\n      pop\n        /* \"#utility.yul\":19806:19807   */\n      0x01\n        /* \"#utility.yul\":19795:19804   */\n      dup3\n        /* \"#utility.yul\":19791:19808   */\n      and\n        /* \"#utility.yul\":19822:19823   */\n      0x00\n        /* \"#utility.yul\":19817:19983   */\n      dup2\n      eq\n      tag_354\n      jumpi\n        /* \"#utility.yul\":19997:19998   */\n      0x01\n        /* \"#utility.yul\":19992:20333   */\n      dup2\n      eq\n      tag_355\n      jumpi\n        /* \"#utility.yul\":19784:20333   */\n      jump(tag_353)\n        /* \"#utility.yul\":19817:19983   */\n    tag_354:\n        /* \"#utility.yul\":19901:19905   */\n      0xff\n        /* \"#utility.yul\":19897:19906   */\n      not\n        /* \"#utility.yul\":19886:19895   */\n      dup4\n        /* \"#utility.yul\":19882:19907   */\n      and\n        /* \"#utility.yul\":19877:19880   */\n      dup7\n        /* \"#utility.yul\":19870:19908   */\n      mstore\n        /* \"#utility.yul\":19963:19969   */\n      dup2\n        /* \"#utility.yul\":19956:19970   */\n      iszero\n        /* \"#utility.yul\":19949:19971   */\n      iszero\n        /* \"#utility.yul\":19941:19947   */\n      dup3\n        /* \"#utility.yul\":19937:19972   */\n      mul\n        /* \"#utility.yul\":19932:19935   */\n      dup7\n        /* \"#utility.yul\":19928:19973   */\n      add\n        /* \"#utility.yul\":19921:19973   */\n      swap4\n      pop\n        /* \"#utility.yul\":19817:19983   */\n      jump(tag_353)\n        /* \"#utility.yul\":19992:20333   */\n    tag_355:\n        /* \"#utility.yul\":20059:20097   */\n      tag_356\n        /* \"#utility.yul\":20091:20096   */\n      dup6\n        /* \"#utility.yul\":20059:20097   */\n      tag_157\n      jump\t// in\n    tag_356:\n        /* \"#utility.yul\":20119:20120   */\n      0x00\n        /* \"#utility.yul\":20133:20287   */\n    tag_357:\n        /* \"#utility.yul\":20147:20153   */\n      dup4\n        /* \"#utility.yul\":20144:20145   */\n      dup2\n        /* \"#utility.yul\":20141:20154   */\n      lt\n        /* \"#utility.yul\":20133:20287   */\n      iszero\n      tag_359\n      jumpi\n        /* \"#utility.yul\":20221:20228   */\n      dup2\n        /* \"#utility.yul\":20215:20229   */\n      sload\n        /* \"#utility.yul\":20211:20212   */\n      dup2\n        /* \"#utility.yul\":20206:20209   */\n      dup10\n        /* \"#utility.yul\":20202:20213   */\n      add\n        /* \"#utility.yul\":20195:20230   */\n      mstore\n        /* \"#utility.yul\":20271:20272   */\n      0x01\n        /* \"#utility.yul\":20262:20269   */\n      dup3\n        /* \"#utility.yul\":20258:20273   */\n      add\n        /* \"#utility.yul\":20247:20273   */\n      swap2\n      pop\n        /* \"#utility.yul\":20169:20173   */\n      0x20\n        /* \"#utility.yul\":20166:20167   */\n      dup2\n        /* \"#utility.yul\":20162:20174   */\n      add\n        /* \"#utility.yul\":20157:20174   */\n      swap1\n      pop\n        /* \"#utility.yul\":20133:20287   */\n      jump(tag_357)\n    tag_359:\n        /* \"#utility.yul\":20316:20322   */\n      dup4\n        /* \"#utility.yul\":20311:20314   */\n      dup9\n        /* \"#utility.yul\":20307:20323   */\n      add\n        /* \"#utility.yul\":20300:20323   */\n      swap6\n      pop\n        /* \"#utility.yul\":19999:20333   */\n      pop\n      pop\n        /* \"#utility.yul\":19784:20333   */\n    tag_353:\n      pop\n        /* \"#utility.yul\":19572:20339   */\n      pop\n      pop\n        /* \"#utility.yul\":19465:20339   */\n      swap3\n      swap2\n      pop\n      pop\n      jump\t// out\n        /* \"#utility.yul\":20345:20614   */\n    tag_78:\n        /* \"#utility.yul\":20474:20477   */\n      0x00\n        /* \"#utility.yul\":20496:20588   */\n      tag_361\n        /* \"#utility.yul\":20584:20587   */\n      dup3\n        /* \"#utility.yul\":20575:20581   */\n      dup5\n        /* \"#utility.yul\":20496:20588   */\n      tag_173\n      jump\t// in\n    tag_361:\n        /* \"#utility.yul\":20489:20588   */\n      swap2\n      pop\n        /* \"#utility.yul\":20605:20608   */\n      dup2\n        /* \"#utility.yul\":20598:20608   */\n      swap1\n      pop\n        /* \"#utility.yul\":20345:20614   */\n      swap3\n      swap2\n      pop\n      pop\n      jump\t// out\n        /* \"#utility.yul\":20620:20800   */\n    tag_174:\n        /* \"#utility.yul\":20668:20745   */\n      0x4e487b7100000000000000000000000000000000000000000000000000000000\n        /* \"#utility.yul\":20665:20666   */\n      0x00\n        /* \"#utility.yul\":20658:20746   */\n      mstore\n        /* \"#utility.yul\":20765:20769   */\n      0x11\n        /* \"#utility.yul\":20762:20763   */\n      0x04\n        /* \"#utility.yul\":20755:20770   */\n      mstore\n        /* \"#utility.yul\":20789:20793   */\n      0x24\n        /* \"#utility.yul\":20786:20787   */\n      0x00\n        /* \"#utility.yul\":20779:20794   */\n      revert\n        /* \"#utility.yul\":20806:21039   */\n    tag_102:\n        /* \"#utility.yul\":20845:20848   */\n      0x00\n        /* \"#utility.yul\":20868:20892   */\n      tag_364\n        /* \"#utility.yul\":20886:20891   */\n      dup3\n        /* \"#utility.yul\":20868:20892   */\n      tag_161\n      jump\t// in\n    tag_364:\n        /* \"#utility.yul\":20859:20892   */\n      swap2\n      pop\n        /* \"#utility.yul\":20914:20980   */\n      0xffffffffffffffffffffffffffffffffffffffffffffffffffffffffffffffff\n        /* \"#utility.yul\":20907:20912   */\n      dup3\n        /* \"#utility.yul\":20904:20981   */\n      sub\n        /* \"#utility.yul\":20901:21004   */\n      tag_365\n      jumpi\n        /* \"#utility.yul\":20984:21002   */\n      tag_366\n      tag_174\n      jump\t// in\n    tag_366:\n        /* \"#utility.yul\":20901:21004   */\n    tag_365:\n        /* \"#utility.yul\":21031:21032   */\n      0x01\n        /* \"#utility.yul\":21024:21029   */\n      dup3\n        /* \"#utility.yul\":21020:21033   */\n      add\n        /* \"#utility.yul\":21013:21033   */\n      swap1\n      pop\n        /* \"#utility.yul\":20806:21039   */\n      swap2\n      swap1\n      pop\n      jump\t// out\n\n    auxdata: 0xa26469706673582212205df4afd144708e37d0fa156047465843e6be390853cc9f26d38c8a4d96b28c4764736f6c63430008140033\n}\n","bytecode":{"linkReferences":{},"object":"608060405234801561000f575f80fd5b506114ad8061001d5f395ff3fe608060405234801561000f575f80fd5b506004361061004a575f3560e01c8063464925631461004e5780636aec2c7d1461006a5780636dcef6971461009d5780638bf18321146100bb575b5f80fd5b61006860048036038101906100639190610b95565b6100eb565b005b610084600480360381019061007f9190610c69565b610227565b6040516100949493929190610d2a565b60405180910390f35b6100a5610482565b6040516100b29190610f01565b60405180910390f35b6100d560048036038101906100d09190610c69565b6107aa565b6040516100e29190610f96565b60405180910390f35b5f80856040516100fb9190610ff0565b90815260200160405180910390205f01805461011690611033565b905014610158576040517f08c379a000000000000000000000000000000000000000000000000000000000815260040161014f906110ad565b60405180910390fd5b6040518060800160405280858152602001848152602001838152602001828152505f856040516101889190610ff0565b90815260200160405180910390205f820151815f0190816101a99190611271565b5060208201518160010190816101bf9190611271565b5060408201518160020190816101d59190611271565b5060608201518160030190816101eb9190611271565b50905050600184908060018154018082558091505060019003905f5260205f20015f9091909190915090816102209190611271565b5050505050565b5f818051602081018201805184825260208301602085012081835280955050505050505f91509050805f01805461025d90611033565b80601f016020809104026020016040519081016040528092919081815260200182805461028990611033565b80156102d45780601f106102ab576101008083540402835291602001916102d4565b820191905f5260205f20905b8154815290600101906020018083116102b757829003601f168201915b5050505050908060010180546102e990611033565b80601f016020809104026020016040519081016040528092919081815260200182805461031590611033565b80156103605780601f1061033757610100808354040283529160200191610360565b820191905f5260205f20905b81548152906001019060200180831161034357829003601f168201915b50505050509080600201805461037590611033565b80601f01602080910402602001604051908101604052809291908181526020018280546103a190611033565b80156103ec5780601f106103c3576101008083540402835291602001916103ec565b820191905f5260205f20905b8154815290600101906020018083116103cf57829003601f168201915b50505050509080600301805461040190611033565b80601f016020809104026020016040519081016040528092919081815260200182805461042d90611033565b80156104785780601f1061044f57610100808354040283529160200191610478565b820191905f5260205f20905b81548152906001019060200180831161045b57829003601f168201915b5050505050905084565b60605f60018054905067ffffffffffffffff8111156104a4576104a3610a71565b5b6040519080825280602002602001820160405280156104dd57816020015b6104ca610a20565b8152602001906001900390816104c25790505b5090505f5b6001805490508110156107a2575f6001828154811061050457610503611340565b5b905f5260205f200160405161051991906113ed565b90815260200160405180910390206040518060800160405290815f8201805461054190611033565b80601f016020809104026020016040519081016040528092919081815260200182805461056d90611033565b80156105b85780601f1061058f576101008083540402835291602001916105b8565b820191905f5260205f20905b81548152906001019060200180831161059b57829003601f168201915b505050505081526020016001820180546105d190611033565b80601f01602080910402602001604051908101604052809291908181526020018280546105fd90611033565b80156106485780601f1061061f57610100808354040283529160200191610648565b820191905f5260205f20905b81548152906001019060200180831161062b57829003601f168201915b5050505050815260200160028201805461066190611033565b80601f016020809104026020016040519081016040528092919081815260200182805461068d90611033565b80156106d85780601f106106af576101008083540402835291602001916106d8565b820191905f5260205f20905b8154815290600101906020018083116106bb57829003601f168201915b505050505081526020016003820180546106f190611033565b80601f016020809104026020016040519081016040528092919081815260200182805461071d90611033565b80156107685780601f1061073f57610100808354040283529160200191610768565b820191905f5260205f20905b81548152906001019060200180831161074b57829003601f168201915b50505050508152505082828151811061078457610783611340565b5b6020026020010181905250808061079a90611430565b9150506104e2565b508091505090565b6107b2610a20565b5f826040516107c19190610ff0565b90815260200160405180910390206040518060800160405290815f820180546107e990611033565b80601f016020809104026020016040519081016040528092919081815260200182805461081590611033565b80156108605780601f1061083757610100808354040283529160200191610860565b820191905f5260205f20905b81548152906001019060200180831161084357829003601f168201915b5050505050815260200160018201805461087990611033565b80601f01602080910402602001604051908101604052809291908181526020018280546108a590611033565b80156108f05780601f106108c7576101008083540402835291602001916108f0565b820191905f5260205f20905b8154815290600101906020018083116108d357829003601f168201915b5050505050815260200160028201805461090990611033565b80601f016020809104026020016040519081016040528092919081815260200182805461093590611033565b80156109805780601f1061095757610100808354040283529160200191610980565b820191905f5260205f20905b81548152906001019060200180831161096357829003601f168201915b5050505050815260200160038201805461099990611033565b80601f01602080910402602001604051908101604052809291908181526020018280546109c590611033565b8015610a105780601f106109e757610100808354040283529160200191610a10565b820191905f5260205f20905b8154815290600101906020018083116109f357829003601f168201915b5050505050815250509050919050565b6040518060800160405280606081526020016060815260200160608152602001606081525090565b5f604051905090565b5f80fd5b5f80fd5b5f80fd5b5f80fd5b5f601f19601f8301169050919050565b7f4e487b71000000000000000000000000000000000000000000000000000000005f52604160045260245ffd5b610aa782610a61565b810181811067ffffffffffffffff82111715610ac657610ac5610a71565b5b80604052505050565b5f610ad8610a48565b9050610ae48282610a9e565b919050565b5f67ffffffffffffffff821115610b0357610b02610a71565b5b610b0c82610a61565b9050602081019050919050565b828183375f83830152505050565b5f610b39610b3484610ae9565b610acf565b905082815260208101848484011115610b5557610b54610a5d565b5b610b60848285610b19565b509392505050565b5f82601f830112610b7c57610b7b610a59565b5b8135610b8c848260208601610b27565b91505092915050565b5f805f8060808587031215610bad57610bac610a51565b5b5f85013567ffffffffffffffff811115610bca57610bc9610a55565b5b610bd687828801610b68565b945050602085013567ffffffffffffffff811115610bf757610bf6610a55565b5b610c0387828801610b68565b935050604085013567ffffffffffffffff811115610c2457610c23610a55565b5b610c3087828801610b68565b925050606085013567ffffffffffffffff811115610c5157610c50610a55565b5b610c5d87828801610b68565b91505092959194509250565b5f60208284031215610c7e57610c7d610a51565b5b5f82013567ffffffffffffffff811115610c9b57610c9a610a55565b5b610ca784828501610b68565b91505092915050565b5f81519050919050565b5f82825260208201905092915050565b5f5b83811015610ce7578082015181840152602081019050610ccc565b5f8484015250505050565b5f610cfc82610cb0565b610d068185610cba565b9350610d16818560208601610cca565b610d1f81610a61565b840191505092915050565b5f6080820190508181035f830152610d428187610cf2565b90508181036020830152610d568186610cf2565b90508181036040830152610d6a8185610cf2565b90508181036060830152610d7e8184610cf2565b905095945050505050565b5f81519050919050565b5f82825260208201905092915050565b5f819050602082019050919050565b5f82825260208201905092915050565b5f610dcc82610cb0565b610dd68185610db2565b9350610de6818560208601610cca565b610def81610a61565b840191505092915050565b5f608083015f8301518482035f860152610e148282610dc2565b91505060208301518482036020860152610e2e8282610dc2565b91505060408301518482036040860152610e488282610dc2565b91505060608301518482036060860152610e628282610dc2565b9150508091505092915050565b5f610e7a8383610dfa565b905092915050565b5f602082019050919050565b5f610e9882610d89565b610ea28185610d93565b935083602082028501610eb485610da3565b805f5b85811015610eef5784840389528151610ed08582610e6f565b9450610edb83610e82565b925060208a01995050600181019050610eb7565b50829750879550505050505092915050565b5f6020820190508181035f830152610f198184610e8e565b905092915050565b5f608083015f8301518482035f860152610f3b8282610dc2565b91505060208301518482036020860152610f558282610dc2565b91505060408301518482036040860152610f6f8282610dc2565b91505060608301518482036060860152610f898282610dc2565b9150508091505092915050565b5f6020820190508181035f830152610fae8184610f21565b905092915050565b5f81905092915050565b5f610fca82610cb0565b610fd48185610fb6565b9350610fe4818560208601610cca565b80840191505092915050565b5f610ffb8284610fc0565b915081905092915050565b7f4e487b71000000000000000000000000000000000000000000000000000000005f52602260045260245ffd5b5f600282049050600182168061104a57607f821691505b60208210810361105d5761105c611006565b5b50919050565b7f4173736f63696174696f6e20616c7265616479206578697374730000000000005f82015250565b5f611097601a83610cba565b91506110a282611063565b602082019050919050565b5f6020820190508181035f8301526110c48161108b565b9050919050565b5f819050815f5260205f209050919050565b5f6020601f8301049050919050565b5f82821b905092915050565b5f600883026111277fffffffffffffffffffffffffffffffffffffffffffffffffffffffffffffffff826110ec565b61113186836110ec565b95508019841693508086168417925050509392505050565b5f819050919050565b5f819050919050565b5f61117561117061116b84611149565b611152565b611149565b9050919050565b5f819050919050565b61118e8361115b565b6111a261119a8261117c565b8484546110f8565b825550505050565b5f90565b6111b66111aa565b6111c1818484611185565b505050565b5b818110156111e4576111d95f826111ae565b6001810190506111c7565b5050565b601f821115611229576111fa816110cb565b611203846110dd565b81016020851015611212578190505b61122661121e856110dd565b8301826111c6565b50505b505050565b5f82821c905092915050565b5f6112495f198460080261122e565b1980831691505092915050565b5f611261838361123a565b9150826002028217905092915050565b61127a82610cb0565b67ffffffffffffffff81111561129357611292610a71565b5b61129d8254611033565b6112a88282856111e8565b5f60209050601f8311600181146112d9575f84156112c7578287015190505b6112d18582611256565b865550611338565b601f1984166112e7866110cb565b5f5b8281101561130e578489015182556001820191506020850194506020810190506112e9565b8683101561132b5784890151611327601f89168261123a565b8355505b6001600288020188555050505b505050505050565b7f4e487b71000000000000000000000000000000000000000000000000000000005f52603260045260245ffd5b5f815461137981611033565b6113838186610fb6565b9450600182165f811461139d57600181146113b2576113e4565b60ff19831686528115158202860193506113e4565b6113bb856110cb565b5f5b838110156113dc578154818901526001820191506020810190506113bd565b838801955050505b50505092915050565b5f6113f8828461136d565b915081905092915050565b7f4e487b71000000000000000000000000000000000000000000000000000000005f52601160045260245ffd5b5f61143a82611149565b91507fffffffffffffffffffffffffffffffffffffffffffffffffffffffffffffffff820361146c5761146b611403565b5b60018201905091905056fea26469706673582212205df4afd144708e37d0fa156047465843e6be390853cc9f26d38c8a4d96b28c4764736f6c63430008140033","opcodes":"PUSH1 0x80 PUSH1 0x40 MSTORE CALLVALUE DUP1 ISZERO PUSH2 0xF JUMPI PUSH0 DUP1 REVERT JUMPDEST POP PUSH2 0x14AD DUP1 PUSH2 0x1D PUSH0 CODECOPY PUSH0 RETURN INVALID PUSH1 0x80 PUSH1 0x40 MSTORE CALLVALUE DUP1 ISZERO PUSH2 0xF JUMPI PUSH0 DUP1 REVERT JUMPDEST POP PUSH1 0x4 CALLDATASIZE LT PUSH2 0x4A JUMPI PUSH0 CALLDATALOAD PUSH1 0xE0 SHR DUP1 PUSH4 0x46492563 EQ PUSH2 0x4E JUMPI DUP1 PUSH4 0x6AEC2C7D EQ PUSH2 0x6A JUMPI DUP1 PUSH4 0x6DCEF697 EQ PUSH2 0x9D JUMPI DUP1 PUSH4 0x8BF18321 EQ PUSH2 0xBB JUMPI JUMPDEST PUSH0 DUP1 REVERT JUMPDEST PUSH2 0x68 PUSH1 0x4 DUP1 CALLDATASIZE SUB DUP2 ADD SWAP1 PUSH2 0x63 SWAP2 SWAP1 PUSH2 0xB95 JUMP JUMPDEST PUSH2 0xEB JUMP JUMPDEST STOP JUMPDEST PUSH2 0x84 PUSH1 0x4 DUP1 CALLDATASIZE SUB DUP2 ADD SWAP1 PUSH2 0x7F SWAP2 SWAP1 PUSH2 0xC69 JUMP JUMPDEST PUSH2 0x227 JUMP JUMPDEST PUSH1 0x40 MLOAD PUSH2 0x94 SWAP5 SWAP4 SWAP3 SWAP2 SWAP1 PUSH2 0xD2A JUMP JUMPDEST PUSH1 0x40 MLOAD DUP1 SWAP2 SUB SWAP1 RETURN JUMPDEST PUSH2 0xA5 PUSH2 0x482 JUMP JUMPDEST PUSH1 0x40 MLOAD PUSH2 0xB2 SWAP2 SWAP1 PUSH2 0xF01 JUMP JUMPDEST PUSH1 0x40 MLOAD DUP1 SWAP2 SUB SWAP1 RETURN JUMPDEST PUSH2 0xD5 PUSH1 0x4 DUP1 CALLDATASIZE SUB DUP2 ADD SWAP1 PUSH2 0xD0 SWAP2 SWAP1 PUSH2 0xC69 JUMP JUMPDEST PUSH2 0x7AA JUMP JUMPDEST PUSH1 0x40 MLOAD PUSH2 0xE2 SWAP2 SWAP1 PUSH2 0xF96 JUMP JUMPDEST PUSH1 0x40 MLOAD DUP1 SWAP2 SUB SWAP1 RETURN JUMPDEST PUSH0 DUP1 DUP6 PUSH1 0x40 MLOAD PUSH2 0xFB SWAP2 SWAP1 PUSH2 0xFF0 JUMP JUMPDEST SWAP1 DUP2 MSTORE PUSH1 0x20 ADD PUSH1 0x40 MLOAD DUP1 SWAP2 SUB SWAP1 KECCAK256 PUSH0 ADD DUP1 SLOAD PUSH2 0x116 SWAP1 PUSH2 0x1033 JUMP JUMPDEST SWAP1 POP EQ PUSH2 0x158 JUMPI PUSH1 0x40 MLOAD PUSH32 0x8C379A000000000000000000000000000000000000000000000000000000000 DUP2 MSTORE PUSH1 0x4 ADD PUSH2 0x14F SWAP1 PUSH2 0x10AD JUMP JUMPDEST PUSH1 0x40 MLOAD DUP1 SWAP2 SUB SWAP1 REVERT JUMPDEST PUSH1 0x40 MLOAD DUP1 PUSH1 0x80 ADD PUSH1 0x40 MSTORE DUP1 DUP6 DUP2 MSTORE PUSH1 0x20 ADD DUP5 DUP2 MSTORE PUSH1 0x20 ADD DUP4 DUP2 MSTORE PUSH1 0x20 ADD DUP3 DUP2 MSTORE POP PUSH0 DUP6 PUSH1 0x40 MLOAD PUSH2 0x188 SWAP2 SWAP1 PUSH2 0xFF0 JUMP JUMPDEST SWAP1 DUP2 MSTORE PUSH1 0x20 ADD PUSH1 0x40 MLOAD DUP1 SWAP2 SUB SWAP1 KECCAK256 PUSH0 DUP3 ADD MLOAD DUP2 PUSH0 ADD SWAP1 DUP2 PUSH2 0x1A9 SWAP2 SWAP1 PUSH2 0x1271 JUMP JUMPDEST POP PUSH1 0x20 DUP3 ADD MLOAD DUP2 PUSH1 0x1 ADD SWAP1 DUP2 PUSH2 0x1BF SWAP2 SWAP1 PUSH2 0x1271 JUMP JUMPDEST POP PUSH1 0x40 DUP3 ADD MLOAD DUP2 PUSH1 0x2 ADD SWAP1 DUP2 PUSH2 0x1D5 SWAP2 SWAP1 PUSH2 0x1271 JUMP JUMPDEST POP PUSH1 0x60 DUP3 ADD MLOAD DUP2 PUSH1 0x3 ADD SWAP1 DUP2 PUSH2 0x1EB SWAP2 SWAP1 PUSH2 0x1271 JUMP JUMPDEST POP SWAP1 POP POP PUSH1 0x1 DUP5 SWAP1 DUP1 PUSH1 0x1 DUP2 SLOAD ADD DUP1 DUP3 SSTORE DUP1 SWAP2 POP POP PUSH1 0x1 SWAP1 SUB SWAP1 PUSH0 MSTORE PUSH1 0x20 PUSH0 KECCAK256 ADD PUSH0 SWAP1 SWAP2 SWAP1 SWAP2 SWAP1 SWAP2 POP SWAP1 DUP2 PUSH2 0x220 SWAP2 SWAP1 PUSH2 0x1271 JUMP JUMPDEST POP POP POP POP POP JUMP JUMPDEST PUSH0 DUP2 DUP1 MLOAD PUSH1 0x20 DUP2 ADD DUP3 ADD DUP1 MLOAD DUP5 DUP3 MSTORE PUSH1 0x20 DUP4 ADD PUSH1 0x20 DUP6 ADD KECCAK256 DUP2 DUP4 MSTORE DUP1 SWAP6 POP POP POP POP POP POP PUSH0 SWAP2 POP SWAP1 POP DUP1 PUSH0 ADD DUP1 SLOAD PUSH2 0x25D SWAP1 PUSH2 0x1033 JUMP JUMPDEST DUP1 PUSH1 0x1F ADD PUSH1 0x20 DUP1 SWAP2 DIV MUL PUSH1 0x20 ADD PUSH1 0x40 MLOAD SWAP1 DUP2 ADD PUSH1 0x40 MSTORE DUP1 SWAP3 SWAP2 SWAP1 DUP2 DUP2 MSTORE PUSH1 0x20 ADD DUP3 DUP1 SLOAD PUSH2 0x289 SWAP1 PUSH2 0x1033 JUMP JUMPDEST DUP1 ISZERO PUSH2 0x2D4 JUMPI DUP1 PUSH1 0x1F LT PUSH2 0x2AB JUMPI PUSH2 0x100 DUP1 DUP4 SLOAD DIV MUL DUP4 MSTORE SWAP2 PUSH1 0x20 ADD SWAP2 PUSH2 0x2D4 JUMP JUMPDEST DUP3 ADD SWAP2 SWAP1 PUSH0 MSTORE PUSH1 0x20 PUSH0 KECCAK256 SWAP1 JUMPDEST DUP2 SLOAD DUP2 MSTORE SWAP1 PUSH1 0x1 ADD SWAP1 PUSH1 0x20 ADD DUP1 DUP4 GT PUSH2 0x2B7 JUMPI DUP3 SWAP1 SUB PUSH1 0x1F AND DUP3 ADD SWAP2 JUMPDEST POP POP POP POP POP SWAP1 DUP1 PUSH1 0x1 ADD DUP1 SLOAD PUSH2 0x2E9 SWAP1 PUSH2 0x1033 JUMP JUMPDEST DUP1 PUSH1 0x1F ADD PUSH1 0x20 DUP1 SWAP2 DIV MUL PUSH1 0x20 ADD PUSH1 0x40 MLOAD SWAP1 DUP2 ADD PUSH1 0x40 MSTORE DUP1 SWAP3 SWAP2 SWAP1 DUP2 DUP2 MSTORE PUSH1 0x20 ADD DUP3 DUP1 SLOAD PUSH2 0x315 SWAP1 PUSH2 0x1033 JUMP JUMPDEST DUP1 ISZERO PUSH2 0x360 JUMPI DUP1 PUSH1 0x1F LT PUSH2 0x337 JUMPI PUSH2 0x100 DUP1 DUP4 SLOAD DIV MUL DUP4 MSTORE SWAP2 PUSH1 0x20 ADD SWAP2 PUSH2 0x360 JUMP JUMPDEST DUP3 ADD SWAP2 SWAP1 PUSH0 MSTORE PUSH1 0x20 PUSH0 KECCAK256 SWAP1 JUMPDEST DUP2 SLOAD DUP2 MSTORE SWAP1 PUSH1 0x1 ADD SWAP1 PUSH1 0x20 ADD DUP1 DUP4 GT PUSH2 0x343 JUMPI DUP3 SWAP1 SUB PUSH1 0x1F AND DUP3 ADD SWAP2 JUMPDEST POP POP POP POP POP SWAP1 DUP1 PUSH1 0x2 ADD DUP1 SLOAD PUSH2 0x375 SWAP1 PUSH2 0x1033 JUMP JUMPDEST DUP1 PUSH1 0x1F ADD PUSH1 0x20 DUP1 SWAP2 DIV MUL PUSH1 0x20 ADD PUSH1 0x40 MLOAD SWAP1 DUP2 ADD PUSH1 0x40 MSTORE DUP1 SWAP3 SWAP2 SWAP1 DUP2 DUP2 MSTORE PUSH1 0x20 ADD DUP3 DUP1 SLOAD PUSH2 0x3A1 SWAP1 PUSH2 0x1033 JUMP JUMPDEST DUP1 ISZERO PUSH2 0x3EC JUMPI DUP1 PUSH1 0x1F LT PUSH2 0x3C3 JUMPI PUSH2 0x100 DUP1 DUP4 SLOAD DIV MUL DUP4 MSTORE SWAP2 PUSH1 0x20 ADD SWAP2 PUSH2 0x3EC JUMP JUMPDEST DUP3 ADD SWAP2 SWAP1 PUSH0 MSTORE PUSH1 0x20 PUSH0 KECCAK256 SWAP1 JUMPDEST DUP2 SLOAD DUP2 MSTORE SWAP1 PUSH1 0x1 ADD SWAP1 PUSH1 0x20 ADD DUP1 DUP4 GT PUSH2 0x3CF JUMPI DUP3 SWAP1 SUB PUSH1 0x1F AND DUP3 ADD SWAP2 JUMPDEST POP POP POP POP POP SWAP1 DUP1 PUSH1 0x3 ADD DUP1 SLOAD PUSH2 0x401 SWAP1 PUSH2 0x1033 JUMP JUMPDEST DUP1 PUSH1 0x1F ADD PUSH1 0x20 DUP1 SWAP2 DIV MUL PUSH1 0x20 ADD PUSH1 0x40 MLOAD SWAP1 DUP2 ADD PUSH1 0x40 MSTORE DUP1 SWAP3 SWAP2 SWAP1 DUP2 DUP2 MSTORE PUSH1 0x20 ADD DUP3 DUP1 SLOAD PUSH2 0x42D SWAP1 PUSH2 0x1033 JUMP JUMPDEST DUP1 ISZERO PUSH2 0x478 JUMPI DUP1 PUSH1 0x1F LT PUSH2 0x44F JUMPI PUSH2 0x100 DUP1 DUP4 SLOAD DIV MUL DUP4 MSTORE SWAP2 PUSH1 0x20 ADD SWAP2 PUSH2 0x478 JUMP JUMPDEST DUP3 ADD SWAP2 SWAP1 PUSH0 MSTORE PUSH1 0x20 PUSH0 KECCAK256 SWAP1 JUMPDEST DUP2 SLOAD DUP2 MSTORE SWAP1 PUSH1 0x1 ADD SWAP1 PUSH1 0x20 ADD DUP1 DUP4 GT PUSH2 0x45B JUMPI DUP3 SWAP1 SUB PUSH1 0x1F AND DUP3 ADD SWAP2 JUMPDEST POP POP POP POP POP SWAP1 POP DUP5 JUMP JUMPDEST PUSH1 0x60 PUSH0 PUSH1 0x1 DUP1 SLOAD SWAP1 POP PUSH8 0xFFFFFFFFFFFFFFFF DUP2 GT ISZERO PUSH2 0x4A4 JUMPI PUSH2 0x4A3 PUSH2 0xA71 JUMP JUMPDEST JUMPDEST PUSH1 0x40 MLOAD SWAP1 DUP1 DUP3 MSTORE DUP1 PUSH1 0x20 MUL PUSH1 0x20 ADD DUP3 ADD PUSH1 0x40 MSTORE DUP1 ISZERO PUSH2 0x4DD JUMPI DUP2 PUSH1 0x20 ADD JUMPDEST PUSH2 0x4CA PUSH2 0xA20 JUMP JUMPDEST DUP2 MSTORE PUSH1 0x20 ADD SWAP1 PUSH1 0x1 SWAP1 SUB SWAP1 DUP2 PUSH2 0x4C2 JUMPI SWAP1 POP JUMPDEST POP SWAP1 POP PUSH0 JUMPDEST PUSH1 0x1 DUP1 SLOAD SWAP1 POP DUP2 LT ISZERO PUSH2 0x7A2 JUMPI PUSH0 PUSH1 0x1 DUP3 DUP2 SLOAD DUP2 LT PUSH2 0x504 JUMPI PUSH2 0x503 PUSH2 0x1340 JUMP JUMPDEST JUMPDEST SWAP1 PUSH0 MSTORE PUSH1 0x20 PUSH0 KECCAK256 ADD PUSH1 0x40 MLOAD PUSH2 0x519 SWAP2 SWAP1 PUSH2 0x13ED JUMP JUMPDEST SWAP1 DUP2 MSTORE PUSH1 0x20 ADD PUSH1 0x40 MLOAD DUP1 SWAP2 SUB SWAP1 KECCAK256 PUSH1 0x40 MLOAD DUP1 PUSH1 0x80 ADD PUSH1 0x40 MSTORE SWAP1 DUP2 PUSH0 DUP3 ADD DUP1 SLOAD PUSH2 0x541 SWAP1 PUSH2 0x1033 JUMP JUMPDEST DUP1 PUSH1 0x1F ADD PUSH1 0x20 DUP1 SWAP2 DIV MUL PUSH1 0x20 ADD PUSH1 0x40 MLOAD SWAP1 DUP2 ADD PUSH1 0x40 MSTORE DUP1 SWAP3 SWAP2 SWAP1 DUP2 DUP2 MSTORE PUSH1 0x20 ADD DUP3 DUP1 SLOAD PUSH2 0x56D SWAP1 PUSH2 0x1033 JUMP JUMPDEST DUP1 ISZERO PUSH2 0x5B8 JUMPI DUP1 PUSH1 0x1F LT PUSH2 0x58F JUMPI PUSH2 0x100 DUP1 DUP4 SLOAD DIV MUL DUP4 MSTORE SWAP2 PUSH1 0x20 ADD SWAP2 PUSH2 0x5B8 JUMP JUMPDEST DUP3 ADD SWAP2 SWAP1 PUSH0 MSTORE PUSH1 0x20 PUSH0 KECCAK256 SWAP1 JUMPDEST DUP2 SLOAD DUP2 MSTORE SWAP1 PUSH1 0x1 ADD SWAP1 PUSH1 0x20 ADD DUP1 DUP4 GT PUSH2 0x59B JUMPI DUP3 SWAP1 SUB PUSH1 0x1F AND DUP3 ADD SWAP2 JUMPDEST POP POP POP POP POP DUP2 MSTORE PUSH1 0x20 ADD PUSH1 0x1 DUP3 ADD DUP1 SLOAD PUSH2 0x5D1 SWAP1 PUSH2 0x1033 JUMP JUMPDEST DUP1 PUSH1 0x1F ADD PUSH1 0x20 DUP1 SWAP2 DIV MUL PUSH1 0x20 ADD PUSH1 0x40 MLOAD SWAP1 DUP2 ADD PUSH1 0x40 MSTORE DUP1 SWAP3 SWAP2 SWAP1 DUP2 DUP2 MSTORE PUSH1 0x20 ADD DUP3 DUP1 SLOAD PUSH2 0x5FD SWAP1 PUSH2 0x1033 JUMP JUMPDEST DUP1 ISZERO PUSH2 0x648 JUMPI DUP1 PUSH1 0x1F LT PUSH2 0x61F JUMPI PUSH2 0x100 DUP1 DUP4 SLOAD DIV MUL DUP4 MSTORE SWAP2 PUSH1 0x20 ADD SWAP2 PUSH2 0x648 JUMP JUMPDEST DUP3 ADD SWAP2 SWAP1 PUSH0 MSTORE PUSH1 0x20 PUSH0 KECCAK256 SWAP1 JUMPDEST DUP2 SLOAD DUP2 MSTORE SWAP1 PUSH1 0x1 ADD SWAP1 PUSH1 0x20 ADD DUP1 DUP4 GT PUSH2 0x62B JUMPI DUP3 SWAP1 SUB PUSH1 0x1F AND DUP3 ADD SWAP2 JUMPDEST POP POP POP POP POP DUP2 MSTORE PUSH1 0x20 ADD PUSH1 0x2 DUP3 ADD DUP1 SLOAD PUSH2 0x661 SWAP1 PUSH2 0x1033 JUMP JUMPDEST DUP1 PUSH1 0x1F ADD PUSH1 0x20 DUP1 SWAP2 DIV MUL PUSH1 0x20 ADD PUSH1 0x40 MLOAD SWAP1 DUP2 ADD PUSH1 0x40 MSTORE DUP1 SWAP3 SWAP2 SWAP1 DUP2 DUP2 MSTORE PUSH1 0x20 ADD DUP3 DUP1 SLOAD PUSH2 0x68D SWAP1 PUSH2 0x1033 JUMP JUMPDEST DUP1 ISZERO PUSH2 0x6D8 JUMPI DUP1 PUSH1 0x1F LT PUSH2 0x6AF JUMPI PUSH2 0x100 DUP1 DUP4 SLOAD DIV MUL DUP4 MSTORE SWAP2 PUSH1 0x20 ADD SWAP2 PUSH2 0x6D8 JUMP JUMPDEST DUP3 ADD SWAP2 SWAP1 PUSH0 MSTORE PUSH1 0x20 PUSH0 KECCAK256 SWAP1 JUMPDEST DUP2 SLOAD DUP2 MSTORE SWAP1 PUSH1 0x1 ADD SWAP1 PUSH1 0x20 ADD DUP1 DUP4 GT PUSH2 0x6BB JUMPI DUP3 SWAP1 SUB PUSH1 0x1F AND DUP3 ADD SWAP2 JUMPDEST POP POP POP POP POP DUP2 MSTORE PUSH1 0x20 ADD PUSH1 0x3 DUP3 ADD DUP1 SLOAD PUSH2 0x6F1 SWAP1 PUSH2 0x1033 JUMP JUMPDEST DUP1 PUSH1 0x1F ADD PUSH1 0x20 DUP1 SWAP2 DIV MUL PUSH1 0x20 ADD PUSH1 0x40 MLOAD SWAP1 DUP2 ADD PUSH1 0x40 MSTORE DUP1 SWAP3 SWAP2 SWAP1 DUP2 DUP2 MSTORE PUSH1 0x20 ADD DUP3 DUP1 SLOAD PUSH2 0x71D SWAP1 PUSH2 0x1033 JUMP JUMPDEST DUP1 ISZERO PUSH2 0x768 JUMPI DUP1 PUSH1 0x1F LT PUSH2 0x73F JUMPI PUSH2 0x100 DUP1 DUP4 SLOAD DIV MUL DUP4 MSTORE SWAP2 PUSH1 0x20 ADD SWAP2 PUSH2 0x768 JUMP JUMPDEST DUP3 ADD SWAP2 SWAP1 PUSH0 MSTORE PUSH1 0x20 PUSH0 KECCAK256 SWAP1 JUMPDEST DUP2 SLOAD DUP2 MSTORE SWAP1 PUSH1 0x1 ADD SWAP1 PUSH1 0x20 ADD DUP1 DUP4 GT PUSH2 0x74B JUMPI DUP3 SWAP1 SUB PUSH1 0x1F AND DUP3 ADD SWAP2 JUMPDEST POP POP POP POP POP DUP2 MSTORE POP POP DUP3 DUP3 DUP2 MLOAD DUP2 LT PUSH2 0x784 JUMPI PUSH2 0x783 PUSH2 0x1340 JUMP JUMPDEST JUMPDEST PUSH1 0x20 MUL PUSH1 0x20 ADD ADD DUP2 SWAP1 MSTORE POP DUP1 DUP1 PUSH2 0x79A SWAP1 PUSH2 0x1430 JUMP JUMPDEST SWAP2 POP POP PUSH2 0x4E2 JUMP JUMPDEST POP DUP1 SWAP2 POP POP SWAP1 JUMP JUMPDEST PUSH2 0x7B2 PUSH2 0xA20 JUMP JUMPDEST PUSH0 DUP3 PUSH1 0x40 MLOAD PUSH2 0x7C1 SWAP2 SWAP1 PUSH2 0xFF0 JUMP JUMPDEST SWAP1 DUP2 MSTORE PUSH1 0x20 ADD PUSH1 0x40 MLOAD DUP1 SWAP2 SUB SWAP1 KECCAK256 PUSH1 0x40 MLOAD DUP1 PUSH1 0x80 ADD PUSH1 0x40 MSTORE SWAP1 DUP2 PUSH0 DUP3 ADD DUP1 SLOAD PUSH2 0x7E9 SWAP1 PUSH2 0x1033 JUMP JUMPDEST DUP1 PUSH1 0x1F ADD PUSH1 0x20 DUP1 SWAP2 DIV MUL PUSH1 0x20 ADD PUSH1 0x40 MLOAD SWAP1 DUP2 ADD PUSH1 0x40 MSTORE DUP1 SWAP3 SWAP2 SWAP1 DUP2 DUP2 MSTORE PUSH1 0x20 ADD DUP3 DUP1 SLOAD PUSH2 0x815 SWAP1 PUSH2 0x1033 JUMP JUMPDEST DUP1 ISZERO PUSH2 0x860 JUMPI DUP1 PUSH1 0x1F LT PUSH2 0x837 JUMPI PUSH2 0x100 DUP1 DUP4 SLOAD DIV MUL DUP4 MSTORE SWAP2 PUSH1 0x20 ADD SWAP2 PUSH2 0x860 JUMP JUMPDEST DUP3 ADD SWAP2 SWAP1 PUSH0 MSTORE PUSH1 0x20 PUSH0 KECCAK256 SWAP1 JUMPDEST DUP2 SLOAD DUP2 MSTORE SWAP1 PUSH1 0x1 ADD SWAP1 PUSH1 0x20 ADD DUP1 DUP4 GT PUSH2 0x843 JUMPI DUP3 SWAP1 SUB PUSH1 0x1F AND DUP3 ADD SWAP2 JUMPDEST POP POP POP POP POP DUP2 MSTORE PUSH1 0x20 ADD PUSH1 0x1 DUP3 ADD DUP1 SLOAD PUSH2 0x879 SWAP1 PUSH2 0x1033 JUMP JUMPDEST DUP1 PUSH1 0x1F ADD PUSH1 0x20 DUP1 SWAP2 DIV MUL PUSH1 0x20 ADD PUSH1 0x40 MLOAD SWAP1 DUP2 ADD PUSH1 0x40 MSTORE DUP1 SWAP3 SWAP2 SWAP1 DUP2 DUP2 MSTORE PUSH1 0x20 ADD DUP3 DUP1 SLOAD PUSH2 0x8A5 SWAP1 PUSH2 0x1033 JUMP JUMPDEST DUP1 ISZERO PUSH2 0x8F0 JUMPI DUP1 PUSH1 0x1F LT PUSH2 0x8C7 JUMPI PUSH2 0x100 DUP1 DUP4 SLOAD DIV MUL DUP4 MSTORE SWAP2 PUSH1 0x20 ADD SWAP2 PUSH2 0x8F0 JUMP JUMPDEST DUP3 ADD SWAP2 SWAP1 PUSH0 MSTORE PUSH1 0x20 PUSH0 KECCAK256 SWAP1 JUMPDEST DUP2 SLOAD DUP2 MSTORE SWAP1 PUSH1 0x1 ADD SWAP1 PUSH1 0x20 ADD DUP1 DUP4 GT PUSH2 0x8D3 JUMPI DUP3 SWAP1 SUB PUSH1 0x1F AND DUP3 ADD SWAP2 JUMPDEST POP POP POP POP POP DUP2 MSTORE PUSH1 0x20 ADD PUSH1 0x2 DUP3 ADD DUP1 SLOAD PUSH2 0x909 SWAP1 PUSH2 0x1033 JUMP JUMPDEST DUP1 PUSH1 0x1F ADD PUSH1 0x20 DUP1 SWAP2 DIV MUL PUSH1 0x20 ADD PUSH1 0x40 MLOAD SWAP1 DUP2 ADD PUSH1 0x40 MSTORE DUP1 SWAP3 SWAP2 SWAP1 DUP2 DUP2 MSTORE PUSH1 0x20 ADD DUP3 DUP1 SLOAD PUSH2 0x935 SWAP1 PUSH2 0x1033 JUMP JUMPDEST DUP1 ISZERO PUSH2 0x980 JUMPI DUP1 PUSH1 0x1F LT PUSH2 0x957 JUMPI PUSH2 0x100 DUP1 DUP4 SLOAD DIV MUL DUP4 MSTORE SWAP2 PUSH1 0x20 ADD SWAP2 PUSH2 0x980 JUMP JUMPDEST DUP3 ADD SWAP2 SWAP1 PUSH0 MSTORE PUSH1 0x20 PUSH0 KECCAK256 SWAP1 JUMPDEST DUP2 SLOAD DUP2 MSTORE SWAP1 PUSH1 0x1 ADD SWAP1 PUSH1 0x20 ADD DUP1 DUP4 GT PUSH2 0x963 JUMPI DUP3 SWAP1 SUB PUSH1 0x1F AND DUP3 ADD SWAP2 JUMPDEST POP POP POP POP POP DUP2 MSTORE PUSH1 0x20 ADD PUSH1 0x3 DUP3 ADD DUP1 SLOAD PUSH2 0x999 SWAP1 PUSH2 0x1033 JUMP JUMPDEST DUP1 PUSH1 0x1F ADD PUSH1 0x20 DUP1 SWAP2 DIV MUL PUSH1 0x20 ADD PUSH1 0x40 MLOAD SWAP1 DUP2 ADD PUSH1 0x40 MSTORE DUP1 SWAP3 SWAP2 SWAP1 DUP2 DUP2 MSTORE PUSH1 0x20 ADD DUP3 DUP1 SLOAD PUSH2 0x9C5 SWAP1 PUSH2 0x1033 JUMP JUMPDEST DUP1 ISZERO PUSH2 0xA10 JUMPI DUP1 PUSH1 0x1F LT PUSH2 0x9E7 JUMPI PUSH2 0x100 DUP1 DUP4 SLOAD DIV MUL DUP4 MSTORE SWAP2 PUSH1 0x20 ADD SWAP2 PUSH2 0xA10 JUMP JUMPDEST DUP3 ADD SWAP2 SWAP1 PUSH0 MSTORE PUSH1 0x20 PUSH0 KECCAK256 SWAP1 JUMPDEST DUP2 SLOAD DUP2 MSTORE SWAP1 PUSH1 0x1 ADD SWAP1 PUSH1 0x20 ADD DUP1 DUP4 GT PUSH2 0x9F3 JUMPI DUP3 SWAP1 SUB PUSH1 0x1F AND DUP3 ADD SWAP2 JUMPDEST POP POP POP POP POP DUP2 MSTORE POP POP SWAP1 POP SWAP2 SWAP1 POP JUMP JUMPDEST PUSH1 0x40 MLOAD DUP1 PUSH1 0x80 ADD PUSH1 0x40 MSTORE DUP1 PUSH1 0x60 DUP2 MSTORE PUSH1 0x20 ADD PUSH1 0x60 DUP2 MSTORE PUSH1 0x20 ADD PUSH1 0x60 DUP2 MSTORE PUSH1 0x20 ADD PUSH1 0x60 DUP2 MSTORE POP SWAP1 JUMP JUMPDEST PUSH0 PUSH1 0x40 MLOAD SWAP1 POP SWAP1 JUMP JUMPDEST PUSH0 DUP1 REVERT JUMPDEST PUSH0 DUP1 REVERT JUMPDEST PUSH0 DUP1 REVERT JUMPDEST PUSH0 DUP1 REVERT JUMPDEST PUSH0 PUSH1 0x1F NOT PUSH1 0x1F DUP4 ADD AND SWAP1 POP SWAP2 SWAP1 POP JUMP JUMPDEST PUSH32 0x4E487B7100000000000000000000000000000000000000000000000000000000 PUSH0 MSTORE PUSH1 0x41 PUSH1 0x4 MSTORE PUSH1 0x24 PUSH0 REVERT JUMPDEST PUSH2 0xAA7 DUP3 PUSH2 0xA61 JUMP JUMPDEST DUP2 ADD DUP2 DUP2 LT PUSH8 0xFFFFFFFFFFFFFFFF DUP3 GT OR ISZERO PUSH2 0xAC6 JUMPI PUSH2 0xAC5 PUSH2 0xA71 JUMP JUMPDEST JUMPDEST DUP1 PUSH1 0x40 MSTORE POP POP POP JUMP JUMPDEST PUSH0 PUSH2 0xAD8 PUSH2 0xA48 JUMP JUMPDEST SWAP1 POP PUSH2 0xAE4 DUP3 DUP3 PUSH2 0xA9E JUMP JUMPDEST SWAP2 SWAP1 POP JUMP JUMPDEST PUSH0 PUSH8 0xFFFFFFFFFFFFFFFF DUP3 GT ISZERO PUSH2 0xB03 JUMPI PUSH2 0xB02 PUSH2 0xA71 JUMP JUMPDEST JUMPDEST PUSH2 0xB0C DUP3 PUSH2 0xA61 JUMP JUMPDEST SWAP1 POP PUSH1 0x20 DUP2 ADD SWAP1 POP SWAP2 SWAP1 POP JUMP JUMPDEST DUP3 DUP2 DUP4 CALLDATACOPY PUSH0 DUP4 DUP4 ADD MSTORE POP POP POP JUMP JUMPDEST PUSH0 PUSH2 0xB39 PUSH2 0xB34 DUP5 PUSH2 0xAE9 JUMP JUMPDEST PUSH2 0xACF JUMP JUMPDEST SWAP1 POP DUP3 DUP2 MSTORE PUSH1 0x20 DUP2 ADD DUP5 DUP5 DUP5 ADD GT ISZERO PUSH2 0xB55 JUMPI PUSH2 0xB54 PUSH2 0xA5D JUMP JUMPDEST JUMPDEST PUSH2 0xB60 DUP5 DUP3 DUP6 PUSH2 0xB19 JUMP JUMPDEST POP SWAP4 SWAP3 POP POP POP JUMP JUMPDEST PUSH0 DUP3 PUSH1 0x1F DUP4 ADD SLT PUSH2 0xB7C JUMPI PUSH2 0xB7B PUSH2 0xA59 JUMP JUMPDEST JUMPDEST DUP2 CALLDATALOAD PUSH2 0xB8C DUP5 DUP3 PUSH1 0x20 DUP7 ADD PUSH2 0xB27 JUMP JUMPDEST SWAP2 POP POP SWAP3 SWAP2 POP POP JUMP JUMPDEST PUSH0 DUP1 PUSH0 DUP1 PUSH1 0x80 DUP6 DUP8 SUB SLT ISZERO PUSH2 0xBAD JUMPI PUSH2 0xBAC PUSH2 0xA51 JUMP JUMPDEST JUMPDEST PUSH0 DUP6 ADD CALLDATALOAD PUSH8 0xFFFFFFFFFFFFFFFF DUP2 GT ISZERO PUSH2 0xBCA JUMPI PUSH2 0xBC9 PUSH2 0xA55 JUMP JUMPDEST JUMPDEST PUSH2 0xBD6 DUP8 DUP3 DUP9 ADD PUSH2 0xB68 JUMP JUMPDEST SWAP5 POP POP PUSH1 0x20 DUP6 ADD CALLDATALOAD PUSH8 0xFFFFFFFFFFFFFFFF DUP2 GT ISZERO PUSH2 0xBF7 JUMPI PUSH2 0xBF6 PUSH2 0xA55 JUMP JUMPDEST JUMPDEST PUSH2 0xC03 DUP8 DUP3 DUP9 ADD PUSH2 0xB68 JUMP JUMPDEST SWAP4 POP POP PUSH1 0x40 DUP6 ADD CALLDATALOAD PUSH8 0xFFFFFFFFFFFFFFFF DUP2 GT ISZERO PUSH2 0xC24 JUMPI PUSH2 0xC23 PUSH2 0xA55 JUMP JUMPDEST JUMPDEST PUSH2 0xC30 DUP8 DUP3 DUP9 ADD PUSH2 0xB68 JUMP JUMPDEST SWAP3 POP POP PUSH1 0x60 DUP6 ADD CALLDATALOAD PUSH8 0xFFFFFFFFFFFFFFFF DUP2 GT ISZERO PUSH2 0xC51 JUMPI PUSH2 0xC50 PUSH2 0xA55 JUMP JUMPDEST JUMPDEST PUSH2 0xC5D DUP8 DUP3 DUP9 ADD PUSH2 0xB68 JUMP JUMPDEST SWAP2 POP POP SWAP3 SWAP6 SWAP2 SWAP5 POP SWAP3 POP JUMP JUMPDEST PUSH0 PUSH1 0x20 DUP3 DUP5 SUB SLT ISZERO PUSH2 0xC7E JUMPI PUSH2 0xC7D PUSH2 0xA51 JUMP JUMPDEST JUMPDEST PUSH0 DUP3 ADD CALLDATALOAD PUSH8 0xFFFFFFFFFFFFFFFF DUP2 GT ISZERO PUSH2 0xC9B JUMPI PUSH2 0xC9A PUSH2 0xA55 JUMP JUMPDEST JUMPDEST PUSH2 0xCA7 DUP5 DUP3 DUP6 ADD PUSH2 0xB68 JUMP JUMPDEST SWAP2 POP POP SWAP3 SWAP2 POP POP JUMP JUMPDEST PUSH0 DUP2 MLOAD SWAP1 POP SWAP2 SWAP1 POP JUMP JUMPDEST PUSH0 DUP3 DUP3 MSTORE PUSH1 0x20 DUP3 ADD SWAP1 POP SWAP3 SWAP2 POP POP JUMP JUMPDEST PUSH0 JUMPDEST DUP4 DUP2 LT ISZERO PUSH2 0xCE7 JUMPI DUP1 DUP3 ADD MLOAD DUP2 DUP5 ADD MSTORE PUSH1 0x20 DUP2 ADD SWAP1 POP PUSH2 0xCCC JUMP JUMPDEST PUSH0 DUP5 DUP5 ADD MSTORE POP POP POP POP JUMP JUMPDEST PUSH0 PUSH2 0xCFC DUP3 PUSH2 0xCB0 JUMP JUMPDEST PUSH2 0xD06 DUP2 DUP6 PUSH2 0xCBA JUMP JUMPDEST SWAP4 POP PUSH2 0xD16 DUP2 DUP6 PUSH1 0x20 DUP7 ADD PUSH2 0xCCA JUMP JUMPDEST PUSH2 0xD1F DUP2 PUSH2 0xA61 JUMP JUMPDEST DUP5 ADD SWAP2 POP POP SWAP3 SWAP2 POP POP JUMP JUMPDEST PUSH0 PUSH1 0x80 DUP3 ADD SWAP1 POP DUP2 DUP2 SUB PUSH0 DUP4 ADD MSTORE PUSH2 0xD42 DUP2 DUP8 PUSH2 0xCF2 JUMP JUMPDEST SWAP1 POP DUP2 DUP2 SUB PUSH1 0x20 DUP4 ADD MSTORE PUSH2 0xD56 DUP2 DUP7 PUSH2 0xCF2 JUMP JUMPDEST SWAP1 POP DUP2 DUP2 SUB PUSH1 0x40 DUP4 ADD MSTORE PUSH2 0xD6A DUP2 DUP6 PUSH2 0xCF2 JUMP JUMPDEST SWAP1 POP DUP2 DUP2 SUB PUSH1 0x60 DUP4 ADD MSTORE PUSH2 0xD7E DUP2 DUP5 PUSH2 0xCF2 JUMP JUMPDEST SWAP1 POP SWAP6 SWAP5 POP POP POP POP POP JUMP JUMPDEST PUSH0 DUP2 MLOAD SWAP1 POP SWAP2 SWAP1 POP JUMP JUMPDEST PUSH0 DUP3 DUP3 MSTORE PUSH1 0x20 DUP3 ADD SWAP1 POP SWAP3 SWAP2 POP POP JUMP JUMPDEST PUSH0 DUP2 SWAP1 POP PUSH1 0x20 DUP3 ADD SWAP1 POP SWAP2 SWAP1 POP JUMP JUMPDEST PUSH0 DUP3 DUP3 MSTORE PUSH1 0x20 DUP3 ADD SWAP1 POP SWAP3 SWAP2 POP POP JUMP JUMPDEST PUSH0 PUSH2 0xDCC DUP3 PUSH2 0xCB0 JUMP JUMPDEST PUSH2 0xDD6 DUP2 DUP6 PUSH2 0xDB2 JUMP JUMPDEST SWAP4 POP PUSH2 0xDE6 DUP2 DUP6 PUSH1 0x20 DUP7 ADD PUSH2 0xCCA JUMP JUMPDEST PUSH2 0xDEF DUP2 PUSH2 0xA61 JUMP JUMPDEST DUP5 ADD SWAP2 POP POP SWAP3 SWAP2 POP POP JUMP JUMPDEST PUSH0 PUSH1 0x80 DUP4 ADD PUSH0 DUP4 ADD MLOAD DUP5 DUP3 SUB PUSH0 DUP7 ADD MSTORE PUSH2 0xE14 DUP3 DUP3 PUSH2 0xDC2 JUMP JUMPDEST SWAP2 POP POP PUSH1 0x20 DUP4 ADD MLOAD DUP5 DUP3 SUB PUSH1 0x20 DUP7 ADD MSTORE PUSH2 0xE2E DUP3 DUP3 PUSH2 0xDC2 JUMP JUMPDEST SWAP2 POP POP PUSH1 0x40 DUP4 ADD MLOAD DUP5 DUP3 SUB PUSH1 0x40 DUP7 ADD MSTORE PUSH2 0xE48 DUP3 DUP3 PUSH2 0xDC2 JUMP JUMPDEST SWAP2 POP POP PUSH1 0x60 DUP4 ADD MLOAD DUP5 DUP3 SUB PUSH1 0x60 DUP7 ADD MSTORE PUSH2 0xE62 DUP3 DUP3 PUSH2 0xDC2 JUMP JUMPDEST SWAP2 POP POP DUP1 SWAP2 POP POP SWAP3 SWAP2 POP POP JUMP JUMPDEST PUSH0 PUSH2 0xE7A DUP4 DUP4 PUSH2 0xDFA JUMP JUMPDEST SWAP1 POP SWAP3 SWAP2 POP POP JUMP JUMPDEST PUSH0 PUSH1 0x20 DUP3 ADD SWAP1 POP SWAP2 SWAP1 POP JUMP JUMPDEST PUSH0 PUSH2 0xE98 DUP3 PUSH2 0xD89 JUMP JUMPDEST PUSH2 0xEA2 DUP2 DUP6 PUSH2 0xD93 JUMP JUMPDEST SWAP4 POP DUP4 PUSH1 0x20 DUP3 MUL DUP6 ADD PUSH2 0xEB4 DUP6 PUSH2 0xDA3 JUMP JUMPDEST DUP1 PUSH0 JUMPDEST DUP6 DUP2 LT ISZERO PUSH2 0xEEF JUMPI DUP5 DUP5 SUB DUP10 MSTORE DUP2 MLOAD PUSH2 0xED0 DUP6 DUP3 PUSH2 0xE6F JUMP JUMPDEST SWAP5 POP PUSH2 0xEDB DUP4 PUSH2 0xE82 JUMP JUMPDEST SWAP3 POP PUSH1 0x20 DUP11 ADD SWAP10 POP POP PUSH1 0x1 DUP2 ADD SWAP1 POP PUSH2 0xEB7 JUMP JUMPDEST POP DUP3 SWAP8 POP DUP8 SWAP6 POP POP POP POP POP POP SWAP3 SWAP2 POP POP JUMP JUMPDEST PUSH0 PUSH1 0x20 DUP3 ADD SWAP1 POP DUP2 DUP2 SUB PUSH0 DUP4 ADD MSTORE PUSH2 0xF19 DUP2 DUP5 PUSH2 0xE8E JUMP JUMPDEST SWAP1 POP SWAP3 SWAP2 POP POP JUMP JUMPDEST PUSH0 PUSH1 0x80 DUP4 ADD PUSH0 DUP4 ADD MLOAD DUP5 DUP3 SUB PUSH0 DUP7 ADD MSTORE PUSH2 0xF3B DUP3 DUP3 PUSH2 0xDC2 JUMP JUMPDEST SWAP2 POP POP PUSH1 0x20 DUP4 ADD MLOAD DUP5 DUP3 SUB PUSH1 0x20 DUP7 ADD MSTORE PUSH2 0xF55 DUP3 DUP3 PUSH2 0xDC2 JUMP JUMPDEST SWAP2 POP POP PUSH1 0x40 DUP4 ADD MLOAD DUP5 DUP3 SUB PUSH1 0x40 DUP7 ADD MSTORE PUSH2 0xF6F DUP3 DUP3 PUSH2 0xDC2 JUMP JUMPDEST SWAP2 POP POP PUSH1 0x60 DUP4 ADD MLOAD DUP5 DUP3 SUB PUSH1 0x60 DUP7 ADD MSTORE PUSH2 0xF89 DUP3 DUP3 PUSH2 0xDC2 JUMP JUMPDEST SWAP2 POP POP DUP1 SWAP2 POP POP SWAP3 SWAP2 POP POP JUMP JUMPDEST PUSH0 PUSH1 0x20 DUP3 ADD SWAP1 POP DUP2 DUP2 SUB PUSH0 DUP4 ADD MSTORE PUSH2 0xFAE DUP2 DUP5 PUSH2 0xF21 JUMP JUMPDEST SWAP1 POP SWAP3 SWAP2 POP POP JUMP JUMPDEST PUSH0 DUP2 SWAP1 POP SWAP3 SWAP2 POP POP JUMP JUMPDEST PUSH0 PUSH2 0xFCA DUP3 PUSH2 0xCB0 JUMP JUMPDEST PUSH2 0xFD4 DUP2 DUP6 PUSH2 0xFB6 JUMP JUMPDEST SWAP4 POP PUSH2 0xFE4 DUP2 DUP6 PUSH1 0x20 DUP7 ADD PUSH2 0xCCA JUMP JUMPDEST DUP1 DUP5 ADD SWAP2 POP POP SWAP3 SWAP2 POP POP JUMP JUMPDEST PUSH0 PUSH2 0xFFB DUP3 DUP5 PUSH2 0xFC0 JUMP JUMPDEST SWAP2 POP DUP2 SWAP1 POP SWAP3 SWAP2 POP POP JUMP JUMPDEST PUSH32 0x4E487B7100000000000000000000000000000000000000000000000000000000 PUSH0 MSTORE PUSH1 0x22 PUSH1 0x4 MSTORE PUSH1 0x24 PUSH0 REVERT JUMPDEST PUSH0 PUSH1 0x2 DUP3 DIV SWAP1 POP PUSH1 0x1 DUP3 AND DUP1 PUSH2 0x104A JUMPI PUSH1 0x7F DUP3 AND SWAP2 POP JUMPDEST PUSH1 0x20 DUP3 LT DUP2 SUB PUSH2 0x105D JUMPI PUSH2 0x105C PUSH2 0x1006 JUMP JUMPDEST JUMPDEST POP SWAP2 SWAP1 POP JUMP JUMPDEST PUSH32 0x4173736F63696174696F6E20616C726561647920657869737473000000000000 PUSH0 DUP3 ADD MSTORE POP JUMP JUMPDEST PUSH0 PUSH2 0x1097 PUSH1 0x1A DUP4 PUSH2 0xCBA JUMP JUMPDEST SWAP2 POP PUSH2 0x10A2 DUP3 PUSH2 0x1063 JUMP JUMPDEST PUSH1 0x20 DUP3 ADD SWAP1 POP SWAP2 SWAP1 POP JUMP JUMPDEST PUSH0 PUSH1 0x20 DUP3 ADD SWAP1 POP DUP2 DUP2 SUB PUSH0 DUP4 ADD MSTORE PUSH2 0x10C4 DUP2 PUSH2 0x108B JUMP JUMPDEST SWAP1 POP SWAP2 SWAP1 POP JUMP JUMPDEST PUSH0 DUP2 SWAP1 POP DUP2 PUSH0 MSTORE PUSH1 0x20 PUSH0 KECCAK256 SWAP1 POP SWAP2 SWAP1 POP JUMP JUMPDEST PUSH0 PUSH1 0x20 PUSH1 0x1F DUP4 ADD DIV SWAP1 POP SWAP2 SWAP1 POP JUMP JUMPDEST PUSH0 DUP3 DUP3 SHL SWAP1 POP SWAP3 SWAP2 POP POP JUMP JUMPDEST PUSH0 PUSH1 0x8 DUP4 MUL PUSH2 0x1127 PUSH32 0xFFFFFFFFFFFFFFFFFFFFFFFFFFFFFFFFFFFFFFFFFFFFFFFFFFFFFFFFFFFFFFFF DUP3 PUSH2 0x10EC JUMP JUMPDEST PUSH2 0x1131 DUP7 DUP4 PUSH2 0x10EC JUMP JUMPDEST SWAP6 POP DUP1 NOT DUP5 AND SWAP4 POP DUP1 DUP7 AND DUP5 OR SWAP3 POP POP POP SWAP4 SWAP3 POP POP POP JUMP JUMPDEST PUSH0 DUP2 SWAP1 POP SWAP2 SWAP1 POP JUMP JUMPDEST PUSH0 DUP2 SWAP1 POP SWAP2 SWAP1 POP JUMP JUMPDEST PUSH0 PUSH2 0x1175 PUSH2 0x1170 PUSH2 0x116B DUP5 PUSH2 0x1149 JUMP JUMPDEST PUSH2 0x1152 JUMP JUMPDEST PUSH2 0x1149 JUMP JUMPDEST SWAP1 POP SWAP2 SWAP1 POP JUMP JUMPDEST PUSH0 DUP2 SWAP1 POP SWAP2 SWAP1 POP JUMP JUMPDEST PUSH2 0x118E DUP4 PUSH2 0x115B JUMP JUMPDEST PUSH2 0x11A2 PUSH2 0x119A DUP3 PUSH2 0x117C JUMP JUMPDEST DUP5 DUP5 SLOAD PUSH2 0x10F8 JUMP JUMPDEST DUP3 SSTORE POP POP POP POP JUMP JUMPDEST PUSH0 SWAP1 JUMP JUMPDEST PUSH2 0x11B6 PUSH2 0x11AA JUMP JUMPDEST PUSH2 0x11C1 DUP2 DUP5 DUP5 PUSH2 0x1185 JUMP JUMPDEST POP POP POP JUMP JUMPDEST JUMPDEST DUP2 DUP2 LT ISZERO PUSH2 0x11E4 JUMPI PUSH2 0x11D9 PUSH0 DUP3 PUSH2 0x11AE JUMP JUMPDEST PUSH1 0x1 DUP2 ADD SWAP1 POP PUSH2 0x11C7 JUMP JUMPDEST POP POP JUMP JUMPDEST PUSH1 0x1F DUP3 GT ISZERO PUSH2 0x1229 JUMPI PUSH2 0x11FA DUP2 PUSH2 0x10CB JUMP JUMPDEST PUSH2 0x1203 DUP5 PUSH2 0x10DD JUMP JUMPDEST DUP2 ADD PUSH1 0x20 DUP6 LT ISZERO PUSH2 0x1212 JUMPI DUP2 SWAP1 POP JUMPDEST PUSH2 0x1226 PUSH2 0x121E DUP6 PUSH2 0x10DD JUMP JUMPDEST DUP4 ADD DUP3 PUSH2 0x11C6 JUMP JUMPDEST POP POP JUMPDEST POP POP POP JUMP JUMPDEST PUSH0 DUP3 DUP3 SHR SWAP1 POP SWAP3 SWAP2 POP POP JUMP JUMPDEST PUSH0 PUSH2 0x1249 PUSH0 NOT DUP5 PUSH1 0x8 MUL PUSH2 0x122E JUMP JUMPDEST NOT DUP1 DUP4 AND SWAP2 POP POP SWAP3 SWAP2 POP POP JUMP JUMPDEST PUSH0 PUSH2 0x1261 DUP4 DUP4 PUSH2 0x123A JUMP JUMPDEST SWAP2 POP DUP3 PUSH1 0x2 MUL DUP3 OR SWAP1 POP SWAP3 SWAP2 POP POP JUMP JUMPDEST PUSH2 0x127A DUP3 PUSH2 0xCB0 JUMP JUMPDEST PUSH8 0xFFFFFFFFFFFFFFFF DUP2 GT ISZERO PUSH2 0x1293 JUMPI PUSH2 0x1292 PUSH2 0xA71 JUMP JUMPDEST JUMPDEST PUSH2 0x129D DUP3 SLOAD PUSH2 0x1033 JUMP JUMPDEST PUSH2 0x12A8 DUP3 DUP3 DUP6 PUSH2 0x11E8 JUMP JUMPDEST PUSH0 PUSH1 0x20 SWAP1 POP PUSH1 0x1F DUP4 GT PUSH1 0x1 DUP2 EQ PUSH2 0x12D9 JUMPI PUSH0 DUP5 ISZERO PUSH2 0x12C7 JUMPI DUP3 DUP8 ADD MLOAD SWAP1 POP JUMPDEST PUSH2 0x12D1 DUP6 DUP3 PUSH2 0x1256 JUMP JUMPDEST DUP7 SSTORE POP PUSH2 0x1338 JUMP JUMPDEST PUSH1 0x1F NOT DUP5 AND PUSH2 0x12E7 DUP7 PUSH2 0x10CB JUMP JUMPDEST PUSH0 JUMPDEST DUP3 DUP2 LT ISZERO PUSH2 0x130E JUMPI DUP5 DUP10 ADD MLOAD DUP3 SSTORE PUSH1 0x1 DUP3 ADD SWAP2 POP PUSH1 0x20 DUP6 ADD SWAP5 POP PUSH1 0x20 DUP2 ADD SWAP1 POP PUSH2 0x12E9 JUMP JUMPDEST DUP7 DUP4 LT ISZERO PUSH2 0x132B JUMPI DUP5 DUP10 ADD MLOAD PUSH2 0x1327 PUSH1 0x1F DUP10 AND DUP3 PUSH2 0x123A JUMP JUMPDEST DUP4 SSTORE POP JUMPDEST PUSH1 0x1 PUSH1 0x2 DUP9 MUL ADD DUP9 SSTORE POP POP POP JUMPDEST POP POP POP POP POP POP JUMP JUMPDEST PUSH32 0x4E487B7100000000000000000000000000000000000000000000000000000000 PUSH0 MSTORE PUSH1 0x32 PUSH1 0x4 MSTORE PUSH1 0x24 PUSH0 REVERT JUMPDEST PUSH0 DUP2 SLOAD PUSH2 0x1379 DUP2 PUSH2 0x1033 JUMP JUMPDEST PUSH2 0x1383 DUP2 DUP7 PUSH2 0xFB6 JUMP JUMPDEST SWAP5 POP PUSH1 0x1 DUP3 AND PUSH0 DUP2 EQ PUSH2 0x139D JUMPI PUSH1 0x1 DUP2 EQ PUSH2 0x13B2 JUMPI PUSH2 0x13E4 JUMP JUMPDEST PUSH1 0xFF NOT DUP4 AND DUP7 MSTORE DUP2 ISZERO ISZERO DUP3 MUL DUP7 ADD SWAP4 POP PUSH2 0x13E4 JUMP JUMPDEST PUSH2 0x13BB DUP6 PUSH2 0x10CB JUMP JUMPDEST PUSH0 JUMPDEST DUP4 DUP2 LT ISZERO PUSH2 0x13DC JUMPI DUP2 SLOAD DUP2 DUP10 ADD MSTORE PUSH1 0x1 DUP3 ADD SWAP2 POP PUSH1 0x20 DUP2 ADD SWAP1 POP PUSH2 0x13BD JUMP JUMPDEST DUP4 DUP9 ADD SWAP6 POP POP POP JUMPDEST POP POP POP SWAP3 SWAP2 POP POP JUMP JUMPDEST PUSH0 PUSH2 0x13F8 DUP3 DUP5 PUSH2 0x136D JUMP JUMPDEST SWAP2 POP DUP2 SWAP1 POP SWAP3 SWAP2 POP POP JUMP JUMPDEST PUSH32 0x4E487B7100000000000000000000000000000000000000000000000000000000 PUSH0 MSTORE PUSH1 0x11 PUSH1 0x4 MSTORE PUSH1 0x24 PUSH0 REVERT JUMPDEST PUSH0 PUSH2 0x143A DUP3 PUSH2 0x1149 JUMP JUMPDEST SWAP2 POP PUSH32 0xFFFFFFFFFFFFFFFFFFFFFFFFFFFFFFFFFFFFFFFFFFFFFFFFFFFFFFFFFFFFFFFF DUP3 SUB PUSH2 0x146C JUMPI PUSH2 0x146B PUSH2 0x1403 JUMP JUMPDEST JUMPDEST PUSH1 0x1 DUP3 ADD SWAP1 POP SWAP2 SWAP1 POP JUMP INVALID LOG2 PUSH5 0x6970667358 0x22 SLT KECCAK256 0x5D DELEGATECALL 0xAF 0xD1 PREVRANDAO PUSH17 0x8E37D0FA156047465843E6BE390853CC9F 0x26 0xD3 DUP13 DUP11 0x4D SWAP7 0xB2 DUP13 SELFBALANCE PUSH5 0x736F6C6343 STOP ADDMOD EQ STOP CALLER "},"gasEstimates":{"creation":{"codeDepositCost":"1058600","executionCost":"1098","totalCost":"1059698"},"external":{"addAssociation(string,string,string,string)":"infinite","associations(string)":"infinite","getAllAssociations()":"infinite","getAssociation(string)":"infinite"}},"methodIdentifiers":{"addAssociation(string,string,string,string)":"46492563","associations(string)":"6aec2c7d","getAllAssociations()":"6dcef697","getAssociation(string)":"8bf18321"}},"storageLayout":{"storage":[{"astId":15,"contract":"AssociationVerifier.sol:AssociationVerifier","label":"associations","offset":0,"slot":"0","type":"t_mapping(t_string_memory_ptr,t_struct(Association)10_storage)"},{"astId":18,"contract":"AssociationVerifier.sol:AssociationVerifier","label":"associationIds","offset":0,"slot":"1","type":"t_array(t_string_storage)dyn_storage"}],"types":{"t_array(t_string_storage)dyn_storage":{"base":"t_string_storage","encoding":"dynamic_array","label":"string[]","numberOfBytes":"32"},"t_mapping(t_string_memory_ptr,t_struct(Association)10_storage)":{"encoding":"mapping","key":"t_string_memory_ptr","label":"mapping(string => struct AssociationVerifier.Association)","numberOfBytes":"32","value":"t_struct(Association)10_storage"},"t_string_memory_ptr":{"encoding":"bytes","label":"string","numberOfBytes":"32"},"t_string_storage":{"encoding":"bytes","label":"string","numberOfBytes":"32"},"t_struct(Association)10_storage":{"encoding":"inplace","label":"struct AssociationVerifier.Association","members":[{"astId":3,"contract":"AssociationVerifier.sol:AssociationVerifier","label":"id","offset":0,"slot":"0","type":"t_string_storage"},{"astId":5,"contract":"AssociationVerifier.sol:AssociationVerifier","label":"titre","offset":0,"slot":"1","type":"t_string_storage"},{"astId":7,"contract":"AssociationVerifier.sol:AssociationVerifier","label":"adr1","offset":0,"slot":"2","type":"t_string_storage"},{"astId":9,"contract":"AssociationVerifier.sol:AssociationVerifier","label":"adrs_codepostal","offset":0,"slot":"3","type":"t_string_storage"}],"numberOfBytes":"128"}}},"userdoc":{"kind":"user","methods":{},"version":1}}