{"abi":[{"inputs":[{"internalType":"string","name":"_id","type":"string"},{"internalType":"string","name":"_titre","type":"string"},{"internalType":"string","name":"_adr1","type":"string"},{"internalType":"string","name":"_adrs_codepostal","type":"string"}],"name":"addAssociation","outputs":[],"stateMutability":"nonpayable","type":"function"},{"inputs":[{"internalType":"string","name":"","type":"string"}],"name":"associations","outputs":[{"internalType":"string","name":"id","type":"string"},{"internalType":"string","name":"titre","type":"string"},{"internalType":"string","name":"adr1","type":"string"},{"internalType":"string","name":"adrs_codepostal","type":"string"},{"internalType":"address","name":"owner","type":"address"}],"stateMutability":"view","type":"function"},{"inputs":[],"name":"getAllAssociations","outputs":[{"components":[{"internalType":"string","name":"id","type":"string"},{"internalType":"string","name":"titre","type":"string"},{"internalType":"string","name":"adr1","type":"string"},{"internalType":"string","name":"adrs_codepostal","type":"string"},{"internalType":"address","name":"owner","type":"address"}],"internalType":"struct AssociationVerifier.Association[]","name":"","type":"tuple[]"}],"stateMutability":"view","type":"function"},{"inputs":[{"internalType":"string","name":"_id","type":"string"}],"name":"getAssociation","outputs":[{"components":[{"internalType":"string","name":"id","type":"string"},{"internalType":"string","name":"titre","type":"string"},{"internalType":"string","name":"adr1","type":"string"},{"internalType":"string","name":"adrs_codepostal","type":"string"},{"internalType":"address","name":"owner","type":"address"}],"internalType":"struct AssociationVerifier.Association","name":"","type":"tuple"}],"stateMutability":"view","type":"function"}],"devdoc":{"kind":"dev","methods":{},"version":1},"evm":{"assembly":"    /* \"AssociationVerifier.sol\":60:1910  contract AssociationVerifier {... */\n  mstore(0x40, 0x80)\n  callvalue\n  dup1\n  iszero\n  tag_1\n  jumpi\n  0x00\n  dup1\n  revert\ntag_1:\n  pop\n  dataSize(sub_0)\n  dup1\n  dataOffset(sub_0)\n  0x00\n  codecopy\n  0x00\n  return\nstop\n\nsub_0: assembly {\n        /* \"AssociationVerifier.sol\":60:1910  contract AssociationVerifier {... */\n      mstore(0x40, 0x80)\n      callvalue\n      dup1\n      iszero\n      tag_1\n      jumpi\n      0x00\n      dup1\n      revert\n    tag_1:\n      pop\n      jumpi(tag_2, lt(calldatasize, 0x04))\n      shr(0xe0, calldataload(0x00))\n      dup1\n      0x46492563\n      eq\n      tag_3\n      jumpi\n      dup1\n      0x6aec2c7d\n      eq\n      tag_4\n      jumpi\n      dup1\n      0x6dcef697\n      eq\n      tag_5\n      jumpi\n      dup1\n      0x8bf18321\n      eq\n      tag_6\n      jumpi\n    tag_2:\n      0x00\n      dup1\n      revert\n        /* \"AssociationVerifier.sol\":517:1191  function addAssociation(... */\n    tag_3:\n      tag_7\n      0x04\n      dup1\n      calldatasize\n      sub\n      dup2\n      add\n      swap1\n      tag_8\n      swap2\n      swap1\n      tag_9\n      jump\t// in\n    tag_8:\n      tag_10\n      jump\t// in\n    tag_7:\n      stop\n        /* \"AssociationVerifier.sol\":315:365  mapping(string => Association) public associations */\n    tag_4:\n      tag_11\n      0x04\n      dup1\n      calldatasize\n      sub\n      dup2\n      add\n      swap1\n      tag_12\n      swap2\n      swap1\n      tag_13\n      jump\t// in\n    tag_12:\n      tag_14\n      jump\t// in\n    tag_11:\n      mload(0x40)\n      tag_15\n      swap6\n      swap5\n      swap4\n      swap3\n      swap2\n      swap1\n      tag_16\n      jump\t// in\n    tag_15:\n      mload(0x40)\n      dup1\n      swap2\n      sub\n      swap1\n      return\n        /* \"AssociationVerifier.sol\":1434:1907  function getAllAssociations() public view returns (Association[] memory) {... */\n    tag_5:\n      tag_17\n      tag_18\n      jump\t// in\n    tag_17:\n      mload(0x40)\n      tag_19\n      swap2\n      swap1\n      tag_20\n      jump\t// in\n    tag_19:\n      mload(0x40)\n      dup1\n      swap2\n      sub\n      swap1\n      return\n        /* \"AssociationVerifier.sol\":1249:1376  function getAssociation(string memory _id) public view returns (Association memory) {... */\n    tag_6:\n      tag_21\n      0x04\n      dup1\n      calldatasize\n      sub\n      dup2\n      add\n      swap1\n      tag_22\n      swap2\n      swap1\n      tag_13\n      jump\t// in\n    tag_22:\n      tag_23\n      jump\t// in\n    tag_21:\n      mload(0x40)\n      tag_24\n      swap2\n      swap1\n      tag_25\n      jump\t// in\n    tag_24:\n      mload(0x40)\n      dup1\n      swap2\n      sub\n      swap1\n      return\n        /* \"AssociationVerifier.sol\":517:1191  function addAssociation(... */\n    tag_10:\n        /* \"AssociationVerifier.sol\":800:801  0 */\n      0x00\n        /* \"AssociationVerifier.sol\":768:780  associations */\n      dup1\n        /* \"AssociationVerifier.sol\":781:784  _id */\n      dup6\n        /* \"AssociationVerifier.sol\":768:785  associations[_id] */\n      mload(0x40)\n      tag_27\n      swap2\n      swap1\n      tag_28\n      jump\t// in\n    tag_27:\n      swap1\n      dup2\n      mstore\n      0x20\n      add\n      mload(0x40)\n      dup1\n      swap2\n      sub\n      swap1\n      keccak256\n        /* \"AssociationVerifier.sol\":768:788  associations[_id].id */\n      0x00\n      add\n        /* \"AssociationVerifier.sol\":762:796  bytes(associations[_id].id).length */\n      dup1\n      sload\n      tag_29\n      swap1\n      tag_30\n      jump\t// in\n    tag_29:\n      swap1\n      pop\n        /* \"AssociationVerifier.sol\":762:801  bytes(associations[_id].id).length == 0 */\n      eq\n        /* \"AssociationVerifier.sol\":754:832  require(bytes(associations[_id].id).length == 0, \"Association already exists\") */\n      tag_31\n      jumpi\n      mload(0x40)\n      0x08c379a000000000000000000000000000000000000000000000000000000000\n      dup2\n      mstore\n      0x04\n      add\n      tag_32\n      swap1\n      tag_33\n      jump\t// in\n    tag_32:\n      mload(0x40)\n      dup1\n      swap2\n      sub\n      swap1\n      revert\n    tag_31:\n        /* \"AssociationVerifier.sol\":912:1092  Association({... */\n      mload(0x40)\n      dup1\n      0xa0\n      add\n      0x40\n      mstore\n      dup1\n        /* \"AssociationVerifier.sol\":943:946  _id */\n      dup6\n        /* \"AssociationVerifier.sol\":912:1092  Association({... */\n      dup2\n      mstore\n      0x20\n      add\n        /* \"AssociationVerifier.sol\":968:974  _titre */\n      dup5\n        /* \"AssociationVerifier.sol\":912:1092  Association({... */\n      dup2\n      mstore\n      0x20\n      add\n        /* \"AssociationVerifier.sol\":995:1000  _adr1 */\n      dup4\n        /* \"AssociationVerifier.sol\":912:1092  Association({... */\n      dup2\n      mstore\n      0x20\n      add\n        /* \"AssociationVerifier.sol\":1032:1048  _adrs_codepostal */\n      dup3\n        /* \"AssociationVerifier.sol\":912:1092  Association({... */\n      dup2\n      mstore\n      0x20\n      add\n        /* \"AssociationVerifier.sol\":1070:1080  msg.sender */\n      caller\n        /* \"AssociationVerifier.sol\":912:1092  Association({... */\n      0xffffffffffffffffffffffffffffffffffffffff\n      and\n      dup2\n      mstore\n      pop\n        /* \"AssociationVerifier.sol\":892:904  associations */\n      0x00\n        /* \"AssociationVerifier.sol\":905:908  _id */\n      dup6\n        /* \"AssociationVerifier.sol\":892:909  associations[_id] */\n      mload(0x40)\n      tag_34\n      swap2\n      swap1\n      tag_28\n      jump\t// in\n    tag_34:\n      swap1\n      dup2\n      mstore\n      0x20\n      add\n      mload(0x40)\n      dup1\n      swap2\n      sub\n      swap1\n      keccak256\n        /* \"AssociationVerifier.sol\":892:1092  associations[_id] = Association({... */\n      0x00\n      dup3\n      add\n      mload\n      dup2\n      0x00\n      add\n      swap1\n      dup2\n      tag_35\n      swap2\n      swap1\n      tag_36\n      jump\t// in\n    tag_35:\n      pop\n      0x20\n      dup3\n      add\n      mload\n      dup2\n      0x01\n      add\n      swap1\n      dup2\n      tag_37\n      swap2\n      swap1\n      tag_36\n      jump\t// in\n    tag_37:\n      pop\n      0x40\n      dup3\n      add\n      mload\n      dup2\n      0x02\n      add\n      swap1\n      dup2\n      tag_38\n      swap2\n      swap1\n      tag_36\n      jump\t// in\n    tag_38:\n      pop\n      0x60\n      dup3\n      add\n      mload\n      dup2\n      0x03\n      add\n      swap1\n      dup2\n      tag_39\n      swap2\n      swap1\n      tag_36\n      jump\t// in\n    tag_39:\n      pop\n      0x80\n      dup3\n      add\n      mload\n      dup2\n      0x04\n      add\n      exp(0x0100, 0x00)\n      dup2\n      sload\n      dup2\n      0xffffffffffffffffffffffffffffffffffffffff\n      mul\n      not\n      and\n      swap1\n      dup4\n      0xffffffffffffffffffffffffffffffffffffffff\n      and\n      mul\n      or\n      swap1\n      sstore\n      pop\n      swap1\n      pop\n      pop\n        /* \"AssociationVerifier.sol\":1159:1173  associationIds */\n      0x01\n        /* \"AssociationVerifier.sol\":1179:1182  _id */\n      dup5\n        /* \"AssociationVerifier.sol\":1159:1183  associationIds.push(_id) */\n      swap1\n      dup1\n      0x01\n      dup2\n      sload\n      add\n      dup1\n      dup3\n      sstore\n      dup1\n      swap2\n      pop\n      pop\n      0x01\n      swap1\n      sub\n      swap1\n      0x00\n      mstore\n      keccak256(0x00, 0x20)\n      add\n      0x00\n      swap1\n      swap2\n      swap1\n      swap2\n      swap1\n      swap2\n      pop\n      swap1\n      dup2\n      tag_41\n      swap2\n      swap1\n      tag_36\n      jump\t// in\n    tag_41:\n      pop\n        /* \"AssociationVerifier.sol\":517:1191  function addAssociation(... */\n      pop\n      pop\n      pop\n      pop\n      jump\t// out\n        /* \"AssociationVerifier.sol\":315:365  mapping(string => Association) public associations */\n    tag_14:\n      0x00\n      dup2\n      dup1\n      mload\n      0x20\n      dup2\n      add\n      dup3\n      add\n      dup1\n      mload\n      dup5\n      dup3\n      mstore\n      0x20\n      dup4\n      add\n      0x20\n      dup6\n      add\n      keccak256\n      dup2\n      dup4\n      mstore\n      dup1\n      swap6\n      pop\n      pop\n      pop\n      pop\n      pop\n      pop\n      0x00\n      swap2\n      pop\n      swap1\n      pop\n      dup1\n      0x00\n      add\n      dup1\n      sload\n      tag_42\n      swap1\n      tag_30\n      jump\t// in\n    tag_42:\n      dup1\n      0x1f\n      add\n      0x20\n      dup1\n      swap2\n      div\n      mul\n      0x20\n      add\n      mload(0x40)\n      swap1\n      dup2\n      add\n      0x40\n      mstore\n      dup1\n      swap3\n      swap2\n      swap1\n      dup2\n      dup2\n      mstore\n      0x20\n      add\n      dup3\n      dup1\n      sload\n      tag_43\n      swap1\n      tag_30\n      jump\t// in\n    tag_43:\n      dup1\n      iszero\n      tag_44\n      jumpi\n      dup1\n      0x1f\n      lt\n      tag_45\n      jumpi\n      0x0100\n      dup1\n      dup4\n      sload\n      div\n      mul\n      dup4\n      mstore\n      swap2\n      0x20\n      add\n      swap2\n      jump(tag_44)\n    tag_45:\n      dup3\n      add\n      swap2\n      swap1\n      0x00\n      mstore\n      keccak256(0x00, 0x20)\n      swap1\n    tag_46:\n      dup2\n      sload\n      dup2\n      mstore\n      swap1\n      0x01\n      add\n      swap1\n      0x20\n      add\n      dup1\n      dup4\n      gt\n      tag_46\n      jumpi\n      dup3\n      swap1\n      sub\n      0x1f\n      and\n      dup3\n      add\n      swap2\n    tag_44:\n      pop\n      pop\n      pop\n      pop\n      pop\n      swap1\n      dup1\n      0x01\n      add\n      dup1\n      sload\n      tag_47\n      swap1\n      tag_30\n      jump\t// in\n    tag_47:\n      dup1\n      0x1f\n      add\n      0x20\n      dup1\n      swap2\n      div\n      mul\n      0x20\n      add\n      mload(0x40)\n      swap1\n      dup2\n      add\n      0x40\n      mstore\n      dup1\n      swap3\n      swap2\n      swap1\n      dup2\n      dup2\n      mstore\n      0x20\n      add\n      dup3\n      dup1\n      sload\n      tag_48\n      swap1\n      tag_30\n      jump\t// in\n    tag_48:\n      dup1\n      iszero\n      tag_49\n      jumpi\n      dup1\n      0x1f\n      lt\n      tag_50\n      jumpi\n      0x0100\n      dup1\n      dup4\n      sload\n      div\n      mul\n      dup4\n      mstore\n      swap2\n      0x20\n      add\n      swap2\n      jump(tag_49)\n    tag_50:\n      dup3\n      add\n      swap2\n      swap1\n      0x00\n      mstore\n      keccak256(0x00, 0x20)\n      swap1\n    tag_51:\n      dup2\n      sload\n      dup2\n      mstore\n      swap1\n      0x01\n      add\n      swap1\n      0x20\n      add\n      dup1\n      dup4\n      gt\n      tag_51\n      jumpi\n      dup3\n      swap1\n      sub\n      0x1f\n      and\n      dup3\n      add\n      swap2\n    tag_49:\n      pop\n      pop\n      pop\n      pop\n      pop\n      swap1\n      dup1\n      0x02\n      add\n      dup1\n      sload\n      tag_52\n      swap1\n      tag_30\n      jump\t// in\n    tag_52:\n      dup1\n      0x1f\n      add\n      0x20\n      dup1\n      swap2\n      div\n      mul\n      0x20\n      add\n      mload(0x40)\n      swap1\n      dup2\n      add\n      0x40\n      mstore\n      dup1\n      swap3\n      swap2\n      swap1\n      dup2\n      dup2\n      mstore\n      0x20\n      add\n      dup3\n      dup1\n      sload\n      tag_53\n      swap1\n      tag_30\n      jump\t// in\n    tag_53:\n      dup1\n      iszero\n      tag_54\n      jumpi\n      dup1\n      0x1f\n      lt\n      tag_55\n      jumpi\n      0x0100\n      dup1\n      dup4\n      sload\n      div\n      mul\n      dup4\n      mstore\n      swap2\n      0x20\n      add\n      swap2\n      jump(tag_54)\n    tag_55:\n      dup3\n      add\n      swap2\n      swap1\n      0x00\n      mstore\n      keccak256(0x00, 0x20)\n      swap1\n    tag_56:\n      dup2\n      sload\n      dup2\n      mstore\n      swap1\n      0x01\n      add\n      swap1\n      0x20\n      add\n      dup1\n      dup4\n      gt\n      tag_56\n      jumpi\n      dup3\n      swap1\n      sub\n      0x1f\n      and\n      dup3\n      add\n      swap2\n    tag_54:\n      pop\n      pop\n      pop\n      pop\n      pop\n      swap1\n      dup1\n      0x03\n      add\n      dup1\n      sload\n      tag_57\n      swap1\n      tag_30\n      jump\t// in\n    tag_57:\n      dup1\n      0x1f\n      add\n      0x20\n      dup1\n      swap2\n      div\n      mul\n      0x20\n      add\n      mload(0x40)\n      swap1\n      dup2\n      add\n      0x40\n      mstore\n      dup1\n      swap3\n      swap2\n      swap1\n      dup2\n      dup2\n      mstore\n      0x20\n      add\n      dup3\n      dup1\n      sload\n      tag_58\n      swap1\n      tag_30\n      jump\t// in\n    tag_58:\n      dup1\n      iszero\n      tag_59\n      jumpi\n      dup1\n      0x1f\n      lt\n      tag_60\n      jumpi\n      0x0100\n      dup1\n      dup4\n      sload\n      div\n      mul\n      dup4\n      mstore\n      swap2\n      0x20\n      add\n      swap2\n      jump(tag_59)\n    tag_60:\n      dup3\n      add\n      swap2\n      swap1\n      0x00\n      mstore\n      keccak256(0x00, 0x20)\n      swap1\n    tag_61:\n      dup2\n      sload\n      dup2\n      mstore\n      swap1\n      0x01\n      add\n      swap1\n      0x20\n      add\n      dup1\n      dup4\n      gt\n      tag_61\n      jumpi\n      dup3\n      swap1\n      sub\n      0x1f\n      and\n      dup3\n      add\n      swap2\n    tag_59:\n      pop\n      pop\n      pop\n      pop\n      pop\n      swap1\n      dup1\n      0x04\n      add\n      0x00\n      swap1\n      sload\n      swap1\n      0x0100\n      exp\n      swap1\n      div\n      0xffffffffffffffffffffffffffffffffffffffff\n      and\n      swap1\n      pop\n      dup6\n      jump\t// out\n        /* \"AssociationVerifier.sol\":1434:1907  function getAllAssociations() public view returns (Association[] memory) {... */\n    tag_18:\n        /* \"AssociationVerifier.sol\":1485:1505  Association[] memory */\n      0x60\n        /* \"AssociationVerifier.sol\":1589:1625  Association[] memory allAssociations */\n      0x00\n        /* \"AssociationVerifier.sol\":1646:1660  associationIds */\n      0x01\n        /* \"AssociationVerifier.sol\":1646:1667  associationIds.length */\n      dup1\n      sload\n      swap1\n      pop\n        /* \"AssociationVerifier.sol\":1628:1668  new Association[](associationIds.length) */\n      0xffffffffffffffff\n      dup2\n      gt\n      iszero\n      tag_63\n      jumpi\n      tag_64\n      tag_65\n      jump\t// in\n    tag_64:\n    tag_63:\n      mload(0x40)\n      swap1\n      dup1\n      dup3\n      mstore\n      dup1\n      0x20\n      mul\n      0x20\n      add\n      dup3\n      add\n      0x40\n      mstore\n      dup1\n      iszero\n      tag_66\n      jumpi\n      dup2\n      0x20\n      add\n    tag_67:\n      tag_68\n      tag_69\n      jump\t// in\n    tag_68:\n      dup2\n      mstore\n      0x20\n      add\n      swap1\n      0x01\n      swap1\n      sub\n      swap1\n      dup2\n      tag_67\n      jumpi\n      swap1\n      pop\n    tag_66:\n      pop\n        /* \"AssociationVerifier.sol\":1589:1668  Association[] memory allAssociations = new Association[](associationIds.length) */\n      swap1\n      pop\n        /* \"AssociationVerifier.sol\":1739:1748  uint256 i */\n      0x00\n        /* \"AssociationVerifier.sol\":1734:1865  for (uint256 i = 0; i < associationIds.length; i++) {... */\n    tag_70:\n        /* \"AssociationVerifier.sol\":1758:1772  associationIds */\n      0x01\n        /* \"AssociationVerifier.sol\":1758:1779  associationIds.length */\n      dup1\n      sload\n      swap1\n      pop\n        /* \"AssociationVerifier.sol\":1754:1755  i */\n      dup2\n        /* \"AssociationVerifier.sol\":1754:1779  i < associationIds.length */\n      lt\n        /* \"AssociationVerifier.sol\":1734:1865  for (uint256 i = 0; i < associationIds.length; i++) {... */\n      iszero\n      tag_71\n      jumpi\n        /* \"AssociationVerifier.sol\":1822:1834  associations */\n      0x00\n        /* \"AssociationVerifier.sol\":1835:1849  associationIds */\n      0x01\n        /* \"AssociationVerifier.sol\":1850:1851  i */\n      dup3\n        /* \"AssociationVerifier.sol\":1835:1852  associationIds[i] */\n      dup2\n      sload\n      dup2\n      lt\n      tag_73\n      jumpi\n      tag_74\n      tag_75\n      jump\t// in\n    tag_74:\n    tag_73:\n      swap1\n      0x00\n      mstore\n      keccak256(0x00, 0x20)\n      add\n        /* \"AssociationVerifier.sol\":1822:1853  associations[associationIds[i]] */\n      mload(0x40)\n      tag_77\n      swap2\n      swap1\n      tag_78\n      jump\t// in\n    tag_77:\n      swap1\n      dup2\n      mstore\n      0x20\n      add\n      mload(0x40)\n      dup1\n      swap2\n      sub\n      swap1\n      keccak256\n        /* \"AssociationVerifier.sol\":1801:1853  allAssociations[i] = associations[associationIds[i]] */\n      mload(0x40)\n      dup1\n      0xa0\n      add\n      0x40\n      mstore\n      swap1\n      dup2\n      0x00\n      dup3\n      add\n      dup1\n      sload\n      tag_79\n      swap1\n      tag_30\n      jump\t// in\n    tag_79:\n      dup1\n      0x1f\n      add\n      0x20\n      dup1\n      swap2\n      div\n      mul\n      0x20\n      add\n      mload(0x40)\n      swap1\n      dup2\n      add\n      0x40\n      mstore\n      dup1\n      swap3\n      swap2\n      swap1\n      dup2\n      dup2\n      mstore\n      0x20\n      add\n      dup3\n      dup1\n      sload\n      tag_80\n      swap1\n      tag_30\n      jump\t// in\n    tag_80:\n      dup1\n      iszero\n      tag_81\n      jumpi\n      dup1\n      0x1f\n      lt\n      tag_82\n      jumpi\n      0x0100\n      dup1\n      dup4\n      sload\n      div\n      mul\n      dup4\n      mstore\n      swap2\n      0x20\n      add\n      swap2\n      jump(tag_81)\n    tag_82:\n      dup3\n      add\n      swap2\n      swap1\n      0x00\n      mstore\n      keccak256(0x00, 0x20)\n      swap1\n    tag_83:\n      dup2\n      sload\n      dup2\n      mstore\n      swap1\n      0x01\n      add\n      swap1\n      0x20\n      add\n      dup1\n      dup4\n      gt\n      tag_83\n      jumpi\n      dup3\n      swap1\n      sub\n      0x1f\n      and\n      dup3\n      add\n      swap2\n    tag_81:\n      pop\n      pop\n      pop\n      pop\n      pop\n      dup2\n      mstore\n      0x20\n      add\n      0x01\n      dup3\n      add\n      dup1\n      sload\n      tag_84\n      swap1\n      tag_30\n      jump\t// in\n    tag_84:\n      dup1\n      0x1f\n      add\n      0x20\n      dup1\n      swap2\n      div\n      mul\n      0x20\n      add\n      mload(0x40)\n      swap1\n      dup2\n      add\n      0x40\n      mstore\n      dup1\n      swap3\n      swap2\n      swap1\n      dup2\n      dup2\n      mstore\n      0x20\n      add\n      dup3\n      dup1\n      sload\n      tag_85\n      swap1\n      tag_30\n      jump\t// in\n    tag_85:\n      dup1\n      iszero\n      tag_86\n      jumpi\n      dup1\n      0x1f\n      lt\n      tag_87\n      jumpi\n      0x0100\n      dup1\n      dup4\n      sload\n      div\n      mul\n      dup4\n      mstore\n      swap2\n      0x20\n      add\n      swap2\n      jump(tag_86)\n    tag_87:\n      dup3\n      add\n      swap2\n      swap1\n      0x00\n      mstore\n      keccak256(0x00, 0x20)\n      swap1\n    tag_88:\n      dup2\n      sload\n      dup2\n      mstore\n      swap1\n      0x01\n      add\n      swap1\n      0x20\n      add\n      dup1\n      dup4\n      gt\n      tag_88\n      jumpi\n      dup3\n      swap1\n      sub\n      0x1f\n      and\n      dup3\n      add\n      swap2\n    tag_86:\n      pop\n      pop\n      pop\n      pop\n      pop\n      dup2\n      mstore\n      0x20\n      add\n      0x02\n      dup3\n      add\n      dup1\n      sload\n      tag_89\n      swap1\n      tag_30\n      jump\t// in\n    tag_89:\n      dup1\n      0x1f\n      add\n      0x20\n      dup1\n      swap2\n      div\n      mul\n      0x20\n      add\n      mload(0x40)\n      swap1\n      dup2\n      add\n      0x40\n      mstore\n      dup1\n      swap3\n      swap2\n      swap1\n      dup2\n      dup2\n      mstore\n      0x20\n      add\n      dup3\n      dup1\n      sload\n      tag_90\n      swap1\n      tag_30\n      jump\t// in\n    tag_90:\n      dup1\n      iszero\n      tag_91\n      jumpi\n      dup1\n      0x1f\n      lt\n      tag_92\n      jumpi\n      0x0100\n      dup1\n      dup4\n      sload\n      div\n      mul\n      dup4\n      mstore\n      swap2\n      0x20\n      add\n      swap2\n      jump(tag_91)\n    tag_92:\n      dup3\n      add\n      swap2\n      swap1\n      0x00\n      mstore\n      keccak256(0x00, 0x20)\n      swap1\n    tag_93:\n      dup2\n      sload\n      dup2\n      mstore\n      swap1\n      0x01\n      add\n      swap1\n      0x20\n      add\n      dup1\n      dup4\n      gt\n      tag_93\n      jumpi\n      dup3\n      swap1\n      sub\n      0x1f\n      and\n      dup3\n      add\n      swap2\n    tag_91:\n      pop\n      pop\n      pop\n      pop\n      pop\n      dup2\n      mstore\n      0x20\n      add\n      0x03\n      dup3\n      add\n      dup1\n      sload\n      tag_94\n      swap1\n      tag_30\n      jump\t// in\n    tag_94:\n      dup1\n      0x1f\n      add\n      0x20\n      dup1\n      swap2\n      div\n      mul\n      0x20\n      add\n      mload(0x40)\n      swap1\n      dup2\n      add\n      0x40\n      mstore\n      dup1\n      swap3\n      swap2\n      swap1\n      dup2\n      dup2\n      mstore\n      0x20\n      add\n      dup3\n      dup1\n      sload\n      tag_95\n      swap1\n      tag_30\n      jump\t// in\n    tag_95:\n      dup1\n      iszero\n      tag_96\n      jumpi\n      dup1\n      0x1f\n      lt\n      tag_97\n      jumpi\n      0x0100\n      dup1\n      dup4\n      sload\n      div\n      mul\n      dup4\n      mstore\n      swap2\n      0x20\n      add\n      swap2\n      jump(tag_96)\n    tag_97:\n      dup3\n      add\n      swap2\n      swap1\n      0x00\n      mstore\n      keccak256(0x00, 0x20)\n      swap1\n    tag_98:\n      dup2\n      sload\n      dup2\n      mstore\n      swap1\n      0x01\n      add\n      swap1\n      0x20\n      add\n      dup1\n      dup4\n      gt\n      tag_98\n      jumpi\n      dup3\n      swap1\n      sub\n      0x1f\n      and\n      dup3\n      add\n      swap2\n    tag_96:\n      pop\n      pop\n      pop\n      pop\n      pop\n      dup2\n      mstore\n      0x20\n      add\n      0x04\n      dup3\n      add\n      0x00\n      swap1\n      sload\n      swap1\n      0x0100\n      exp\n      swap1\n      div\n      0xffffffffffffffffffffffffffffffffffffffff\n      and\n      0xffffffffffffffffffffffffffffffffffffffff\n      and\n      0xffffffffffffffffffffffffffffffffffffffff\n      and\n      dup2\n      mstore\n      pop\n      pop\n        /* \"AssociationVerifier.sol\":1801:1816  allAssociations */\n      dup3\n        /* \"AssociationVerifier.sol\":1817:1818  i */\n      dup3\n        /* \"AssociationVerifier.sol\":1801:1819  allAssociations[i] */\n      dup2\n      mload\n      dup2\n      lt\n      tag_99\n      jumpi\n      tag_100\n      tag_75\n      jump\t// in\n    tag_100:\n    tag_99:\n      0x20\n      mul\n      0x20\n      add\n      add\n        /* \"AssociationVerifier.sol\":1801:1853  allAssociations[i] = associations[associationIds[i]] */\n      dup2\n      swap1\n      mstore\n      pop\n        /* \"AssociationVerifier.sol\":1781:1784  i++ */\n      dup1\n      dup1\n      tag_101\n      swap1\n      tag_102\n      jump\t// in\n    tag_101:\n      swap2\n      pop\n      pop\n        /* \"AssociationVerifier.sol\":1734:1865  for (uint256 i = 0; i < associationIds.length; i++) {... */\n      jump(tag_70)\n    tag_71:\n      pop\n        /* \"AssociationVerifier.sol\":1884:1899  allAssociations */\n      dup1\n        /* \"AssociationVerifier.sol\":1877:1899  return allAssociations */\n      swap2\n      pop\n      pop\n        /* \"AssociationVerifier.sol\":1434:1907  function getAllAssociations() public view returns (Association[] memory) {... */\n      swap1\n      jump\t// out\n        /* \"AssociationVerifier.sol\":1249:1376  function getAssociation(string memory _id) public view returns (Association memory) {... */\n    tag_23:\n        /* \"AssociationVerifier.sol\":1313:1331  Association memory */\n      tag_103\n      tag_69\n      jump\t// in\n    tag_103:\n        /* \"AssociationVerifier.sol\":1351:1363  associations */\n      0x00\n        /* \"AssociationVerifier.sol\":1364:1367  _id */\n      dup3\n        /* \"AssociationVerifier.sol\":1351:1368  associations[_id] */\n      mload(0x40)\n      tag_105\n      swap2\n      swap1\n      tag_28\n      jump\t// in\n    tag_105:\n      swap1\n      dup2\n      mstore\n      0x20\n      add\n      mload(0x40)\n      dup1\n      swap2\n      sub\n      swap1\n      keccak256\n        /* \"AssociationVerifier.sol\":1344:1368  return associations[_id] */\n      mload(0x40)\n      dup1\n      0xa0\n      add\n      0x40\n      mstore\n      swap1\n      dup2\n      0x00\n      dup3\n      add\n      dup1\n      sload\n      tag_106\n      swap1\n      tag_30\n      jump\t// in\n    tag_106:\n      dup1\n      0x1f\n      add\n      0x20\n      dup1\n      swap2\n      div\n      mul\n      0x20\n      add\n      mload(0x40)\n      swap1\n      dup2\n      add\n      0x40\n      mstore\n      dup1\n      swap3\n      swap2\n      swap1\n      dup2\n      dup2\n      mstore\n      0x20\n      add\n      dup3\n      dup1\n      sload\n      tag_107\n      swap1\n      tag_30\n      jump\t// in\n    tag_107:\n      dup1\n      iszero\n      tag_108\n      jumpi\n      dup1\n      0x1f\n      lt\n      tag_109\n      jumpi\n      0x0100\n      dup1\n      dup4\n      sload\n      div\n      mul\n      dup4\n      mstore\n      swap2\n      0x20\n      add\n      swap2\n      jump(tag_108)\n    tag_109:\n      dup3\n      add\n      swap2\n      swap1\n      0x00\n      mstore\n      keccak256(0x00, 0x20)\n      swap1\n    tag_110:\n      dup2\n      sload\n      dup2\n      mstore\n      swap1\n      0x01\n      add\n      swap1\n      0x20\n      add\n      dup1\n      dup4\n      gt\n      tag_110\n      jumpi\n      dup3\n      swap1\n      sub\n      0x1f\n      and\n      dup3\n      add\n      swap2\n    tag_108:\n      pop\n      pop\n      pop\n      pop\n      pop\n      dup2\n      mstore\n      0x20\n      add\n      0x01\n      dup3\n      add\n      dup1\n      sload\n      tag_111\n      swap1\n      tag_30\n      jump\t// in\n    tag_111:\n      dup1\n      0x1f\n      add\n      0x20\n      dup1\n      swap2\n      div\n      mul\n      0x20\n      add\n      mload(0x40)\n      swap1\n      dup2\n      add\n      0x40\n      mstore\n      dup1\n      swap3\n      swap2\n      swap1\n      dup2\n      dup2\n      mstore\n      0x20\n      add\n      dup3\n      dup1\n      sload\n      tag_112\n      swap1\n      tag_30\n      jump\t// in\n    tag_112:\n      dup1\n      iszero\n      tag_113\n      jumpi\n      dup1\n      0x1f\n      lt\n      tag_114\n      jumpi\n      0x0100\n      dup1\n      dup4\n      sload\n      div\n      mul\n      dup4\n      mstore\n      swap2\n      0x20\n      add\n      swap2\n      jump(tag_113)\n    tag_114:\n      dup3\n      add\n      swap2\n      swap1\n      0x00\n      mstore\n      keccak256(0x00, 0x20)\n      swap1\n    tag_115:\n      dup2\n      sload\n      dup2\n      mstore\n      swap1\n      0x01\n      add\n      swap1\n      0x20\n      add\n      dup1\n      dup4\n      gt\n      tag_115\n      jumpi\n      dup3\n      swap1\n      sub\n      0x1f\n      and\n      dup3\n      add\n      swap2\n    tag_113:\n      pop\n      pop\n      pop\n      pop\n      pop\n      dup2\n      mstore\n      0x20\n      add\n      0x02\n      dup3\n      add\n      dup1\n      sload\n      tag_116\n      swap1\n      tag_30\n      jump\t// in\n    tag_116:\n      dup1\n      0x1f\n      add\n      0x20\n      dup1\n      swap2\n      div\n      mul\n      0x20\n      add\n      mload(0x40)\n      swap1\n      dup2\n      add\n      0x40\n      mstore\n      dup1\n      swap3\n      swap2\n      swap1\n      dup2\n      dup2\n      mstore\n      0x20\n      add\n      dup3\n      dup1\n      sload\n      tag_117\n      swap1\n      tag_30\n      jump\t// in\n    tag_117:\n      dup1\n      iszero\n      tag_118\n      jumpi\n      dup1\n      0x1f\n      lt\n      tag_119\n      jumpi\n      0x0100\n      dup1\n      dup4\n      sload\n      div\n      mul\n      dup4\n      mstore\n      swap2\n      0x20\n      add\n      swap2\n      jump(tag_118)\n    tag_119:\n      dup3\n      add\n      swap2\n      swap1\n      0x00\n      mstore\n      keccak256(0x00, 0x20)\n      swap1\n    tag_120:\n      dup2\n      sload\n      dup2\n      mstore\n      swap1\n      0x01\n      add\n      swap1\n      0x20\n      add\n      dup1\n      dup4\n      gt\n      tag_120\n      jumpi\n      dup3\n      swap1\n      sub\n      0x1f\n      and\n      dup3\n      add\n      swap2\n    tag_118:\n      pop\n      pop\n      pop\n      pop\n      pop\n      dup2\n      mstore\n      0x20\n      add\n      0x03\n      dup3\n      add\n      dup1\n      sload\n      tag_121\n      swap1\n      tag_30\n      jump\t// in\n    tag_121:\n      dup1\n      0x1f\n      add\n      0x20\n      dup1\n      swap2\n      div\n      mul\n      0x20\n      add\n      mload(0x40)\n      swap1\n      dup2\n      add\n      0x40\n      mstore\n      dup1\n      swap3\n      swap2\n      swap1\n      dup2\n      dup2\n      mstore\n      0x20\n      add\n      dup3\n      dup1\n      sload\n      tag_122\n      swap1\n      tag_30\n      jump\t// in\n    tag_122:\n      dup1\n      iszero\n      tag_123\n      jumpi\n      dup1\n      0x1f\n      lt\n      tag_124\n      jumpi\n      0x0100\n      dup1\n      dup4\n      sload\n      div\n      mul\n      dup4\n      mstore\n      swap2\n      0x20\n      add\n      swap2\n      jump(tag_123)\n    tag_124:\n      dup3\n      add\n      swap2\n      swap1\n      0x00\n      mstore\n      keccak256(0x00, 0x20)\n      swap1\n    tag_125:\n      dup2\n      sload\n      dup2\n      mstore\n      swap1\n      0x01\n      add\n      swap1\n      0x20\n      add\n      dup1\n      dup4\n      gt\n      tag_125\n      jumpi\n      dup3\n      swap1\n      sub\n      0x1f\n      and\n      dup3\n      add\n      swap2\n    tag_123:\n      pop\n      pop\n      pop\n      pop\n      pop\n      dup2\n      mstore\n      0x20\n      add\n      0x04\n      dup3\n      add\n      0x00\n      swap1\n      sload\n      swap1\n      0x0100\n      exp\n      swap1\n      div\n      0xffffffffffffffffffffffffffffffffffffffff\n      and\n      0xffffffffffffffffffffffffffffffffffffffff\n      and\n      0xffffffffffffffffffffffffffffffffffffffff\n      and\n      dup2\n      mstore\n      pop\n      pop\n      swap1\n      pop\n        /* \"AssociationVerifier.sol\":1249:1376  function getAssociation(string memory _id) public view returns (Association memory) {... */\n      swap2\n      swap1\n      pop\n      jump\t// out\n    tag_69:\n      mload(0x40)\n      dup1\n      0xa0\n      add\n      0x40\n      mstore\n      dup1\n      0x60\n      dup2\n      mstore\n      0x20\n      add\n      0x60\n      dup2\n      mstore\n      0x20\n      add\n      0x60\n      dup2\n      mstore\n      0x20\n      add\n      0x60\n      dup2\n      mstore\n      0x20\n      add\n      and(0xffffffffffffffffffffffffffffffffffffffff, 0x00)\n      dup2\n      mstore\n      pop\n      swap1\n      jump\t// out\n        /* \"#utility.yul\":7:82   */\n    tag_126:\n        /* \"#utility.yul\":40:46   */\n      0x00\n        /* \"#utility.yul\":73:75   */\n      0x40\n        /* \"#utility.yul\":67:76   */\n      mload\n        /* \"#utility.yul\":57:76   */\n      swap1\n      pop\n        /* \"#utility.yul\":7:82   */\n      swap1\n      jump\t// out\n        /* \"#utility.yul\":88:205   */\n    tag_127:\n        /* \"#utility.yul\":197:198   */\n      0x00\n        /* \"#utility.yul\":194:195   */\n      dup1\n        /* \"#utility.yul\":187:199   */\n      revert\n        /* \"#utility.yul\":211:328   */\n    tag_128:\n        /* \"#utility.yul\":320:321   */\n      0x00\n        /* \"#utility.yul\":317:318   */\n      dup1\n        /* \"#utility.yul\":310:322   */\n      revert\n        /* \"#utility.yul\":334:451   */\n    tag_129:\n        /* \"#utility.yul\":443:444   */\n      0x00\n        /* \"#utility.yul\":440:441   */\n      dup1\n        /* \"#utility.yul\":433:445   */\n      revert\n        /* \"#utility.yul\":457:574   */\n    tag_130:\n        /* \"#utility.yul\":566:567   */\n      0x00\n        /* \"#utility.yul\":563:564   */\n      dup1\n        /* \"#utility.yul\":556:568   */\n      revert\n        /* \"#utility.yul\":580:682   */\n    tag_131:\n        /* \"#utility.yul\":621:627   */\n      0x00\n        /* \"#utility.yul\":672:674   */\n      0x1f\n        /* \"#utility.yul\":668:675   */\n      not\n        /* \"#utility.yul\":663:665   */\n      0x1f\n        /* \"#utility.yul\":656:661   */\n      dup4\n        /* \"#utility.yul\":652:666   */\n      add\n        /* \"#utility.yul\":648:676   */\n      and\n        /* \"#utility.yul\":638:676   */\n      swap1\n      pop\n        /* \"#utility.yul\":580:682   */\n      swap2\n      swap1\n      pop\n      jump\t// out\n        /* \"#utility.yul\":688:868   */\n    tag_65:\n        /* \"#utility.yul\":736:813   */\n      0x4e487b7100000000000000000000000000000000000000000000000000000000\n        /* \"#utility.yul\":733:734   */\n      0x00\n        /* \"#utility.yul\":726:814   */\n      mstore\n        /* \"#utility.yul\":833:837   */\n      0x41\n        /* \"#utility.yul\":830:831   */\n      0x04\n        /* \"#utility.yul\":823:838   */\n      mstore\n        /* \"#utility.yul\":857:861   */\n      0x24\n        /* \"#utility.yul\":854:855   */\n      0x00\n        /* \"#utility.yul\":847:862   */\n      revert\n        /* \"#utility.yul\":874:1155   */\n    tag_132:\n        /* \"#utility.yul\":957:984   */\n      tag_188\n        /* \"#utility.yul\":979:983   */\n      dup3\n        /* \"#utility.yul\":957:984   */\n      tag_131\n      jump\t// in\n    tag_188:\n        /* \"#utility.yul\":949:955   */\n      dup2\n        /* \"#utility.yul\":945:985   */\n      add\n        /* \"#utility.yul\":1087:1093   */\n      dup2\n        /* \"#utility.yul\":1075:1085   */\n      dup2\n        /* \"#utility.yul\":1072:1094   */\n      lt\n        /* \"#utility.yul\":1051:1069   */\n      0xffffffffffffffff\n        /* \"#utility.yul\":1039:1049   */\n      dup3\n        /* \"#utility.yul\":1036:1070   */\n      gt\n        /* \"#utility.yul\":1033:1095   */\n      or\n        /* \"#utility.yul\":1030:1118   */\n      iszero\n      tag_189\n      jumpi\n        /* \"#utility.yul\":1098:1116   */\n      tag_190\n      tag_65\n      jump\t// in\n    tag_190:\n        /* \"#utility.yul\":1030:1118   */\n    tag_189:\n        /* \"#utility.yul\":1138:1148   */\n      dup1\n        /* \"#utility.yul\":1134:1136   */\n      0x40\n        /* \"#utility.yul\":1127:1149   */\n      mstore\n        /* \"#utility.yul\":917:1155   */\n      pop\n        /* \"#utility.yul\":874:1155   */\n      pop\n      pop\n      jump\t// out\n        /* \"#utility.yul\":1161:1290   */\n    tag_133:\n        /* \"#utility.yul\":1195:1201   */\n      0x00\n        /* \"#utility.yul\":1222:1242   */\n      tag_192\n      tag_126\n      jump\t// in\n    tag_192:\n        /* \"#utility.yul\":1212:1242   */\n      swap1\n      pop\n        /* \"#utility.yul\":1251:1284   */\n      tag_193\n        /* \"#utility.yul\":1279:1283   */\n      dup3\n        /* \"#utility.yul\":1271:1277   */\n      dup3\n        /* \"#utility.yul\":1251:1284   */\n      tag_132\n      jump\t// in\n    tag_193:\n        /* \"#utility.yul\":1161:1290   */\n      swap2\n      swap1\n      pop\n      jump\t// out\n        /* \"#utility.yul\":1296:1604   */\n    tag_134:\n        /* \"#utility.yul\":1358:1362   */\n      0x00\n        /* \"#utility.yul\":1448:1466   */\n      0xffffffffffffffff\n        /* \"#utility.yul\":1440:1446   */\n      dup3\n        /* \"#utility.yul\":1437:1467   */\n      gt\n        /* \"#utility.yul\":1434:1490   */\n      iszero\n      tag_195\n      jumpi\n        /* \"#utility.yul\":1470:1488   */\n      tag_196\n      tag_65\n      jump\t// in\n    tag_196:\n        /* \"#utility.yul\":1434:1490   */\n    tag_195:\n        /* \"#utility.yul\":1508:1537   */\n      tag_197\n        /* \"#utility.yul\":1530:1536   */\n      dup3\n        /* \"#utility.yul\":1508:1537   */\n      tag_131\n      jump\t// in\n    tag_197:\n        /* \"#utility.yul\":1500:1537   */\n      swap1\n      pop\n        /* \"#utility.yul\":1592:1596   */\n      0x20\n        /* \"#utility.yul\":1586:1590   */\n      dup2\n        /* \"#utility.yul\":1582:1597   */\n      add\n        /* \"#utility.yul\":1574:1597   */\n      swap1\n      pop\n        /* \"#utility.yul\":1296:1604   */\n      swap2\n      swap1\n      pop\n      jump\t// out\n        /* \"#utility.yul\":1610:1756   */\n    tag_135:\n        /* \"#utility.yul\":1707:1713   */\n      dup3\n        /* \"#utility.yul\":1702:1705   */\n      dup2\n        /* \"#utility.yul\":1697:1700   */\n      dup4\n        /* \"#utility.yul\":1684:1714   */\n      calldatacopy\n        /* \"#utility.yul\":1748:1749   */\n      0x00\n        /* \"#utility.yul\":1739:1745   */\n      dup4\n        /* \"#utility.yul\":1734:1737   */\n      dup4\n        /* \"#utility.yul\":1730:1746   */\n      add\n        /* \"#utility.yul\":1723:1750   */\n      mstore\n        /* \"#utility.yul\":1610:1756   */\n      pop\n      pop\n      pop\n      jump\t// out\n        /* \"#utility.yul\":1762:2187   */\n    tag_136:\n        /* \"#utility.yul\":1840:1845   */\n      0x00\n        /* \"#utility.yul\":1865:1931   */\n      tag_200\n        /* \"#utility.yul\":1881:1930   */\n      tag_201\n        /* \"#utility.yul\":1923:1929   */\n      dup5\n        /* \"#utility.yul\":1881:1930   */\n      tag_134\n      jump\t// in\n    tag_201:\n        /* \"#utility.yul\":1865:1931   */\n      tag_133\n      jump\t// in\n    tag_200:\n        /* \"#utility.yul\":1856:1931   */\n      swap1\n      pop\n        /* \"#utility.yul\":1954:1960   */\n      dup3\n        /* \"#utility.yul\":1947:1952   */\n      dup2\n        /* \"#utility.yul\":1940:1961   */\n      mstore\n        /* \"#utility.yul\":1992:1996   */\n      0x20\n        /* \"#utility.yul\":1985:1990   */\n      dup2\n        /* \"#utility.yul\":1981:1997   */\n      add\n        /* \"#utility.yul\":2030:2033   */\n      dup5\n        /* \"#utility.yul\":2021:2027   */\n      dup5\n        /* \"#utility.yul\":2016:2019   */\n      dup5\n        /* \"#utility.yul\":2012:2028   */\n      add\n        /* \"#utility.yul\":2009:2034   */\n      gt\n        /* \"#utility.yul\":2006:2118   */\n      iszero\n      tag_202\n      jumpi\n        /* \"#utility.yul\":2037:2116   */\n      tag_203\n      tag_130\n      jump\t// in\n    tag_203:\n        /* \"#utility.yul\":2006:2118   */\n    tag_202:\n        /* \"#utility.yul\":2127:2181   */\n      tag_204\n        /* \"#utility.yul\":2174:2180   */\n      dup5\n        /* \"#utility.yul\":2169:2172   */\n      dup3\n        /* \"#utility.yul\":2164:2167   */\n      dup6\n        /* \"#utility.yul\":2127:2181   */\n      tag_135\n      jump\t// in\n    tag_204:\n        /* \"#utility.yul\":1846:2187   */\n      pop\n        /* \"#utility.yul\":1762:2187   */\n      swap4\n      swap3\n      pop\n      pop\n      pop\n      jump\t// out\n        /* \"#utility.yul\":2207:2547   */\n    tag_137:\n        /* \"#utility.yul\":2263:2268   */\n      0x00\n        /* \"#utility.yul\":2312:2315   */\n      dup3\n        /* \"#utility.yul\":2305:2309   */\n      0x1f\n        /* \"#utility.yul\":2297:2303   */\n      dup4\n        /* \"#utility.yul\":2293:2310   */\n      add\n        /* \"#utility.yul\":2289:2316   */\n      slt\n        /* \"#utility.yul\":2279:2401   */\n      tag_206\n      jumpi\n        /* \"#utility.yul\":2320:2399   */\n      tag_207\n      tag_129\n      jump\t// in\n    tag_207:\n        /* \"#utility.yul\":2279:2401   */\n    tag_206:\n        /* \"#utility.yul\":2437:2443   */\n      dup2\n        /* \"#utility.yul\":2424:2444   */\n      calldataload\n        /* \"#utility.yul\":2462:2541   */\n      tag_208\n        /* \"#utility.yul\":2537:2540   */\n      dup5\n        /* \"#utility.yul\":2529:2535   */\n      dup3\n        /* \"#utility.yul\":2522:2526   */\n      0x20\n        /* \"#utility.yul\":2514:2520   */\n      dup7\n        /* \"#utility.yul\":2510:2527   */\n      add\n        /* \"#utility.yul\":2462:2541   */\n      tag_136\n      jump\t// in\n    tag_208:\n        /* \"#utility.yul\":2453:2541   */\n      swap2\n      pop\n        /* \"#utility.yul\":2269:2547   */\n      pop\n        /* \"#utility.yul\":2207:2547   */\n      swap3\n      swap2\n      pop\n      pop\n      jump\t// out\n        /* \"#utility.yul\":2553:4038   */\n    tag_9:\n        /* \"#utility.yul\":2679:2685   */\n      0x00\n        /* \"#utility.yul\":2687:2693   */\n      dup1\n        /* \"#utility.yul\":2695:2701   */\n      0x00\n        /* \"#utility.yul\":2703:2709   */\n      dup1\n        /* \"#utility.yul\":2752:2755   */\n      0x80\n        /* \"#utility.yul\":2740:2749   */\n      dup6\n        /* \"#utility.yul\":2731:2738   */\n      dup8\n        /* \"#utility.yul\":2727:2750   */\n      sub\n        /* \"#utility.yul\":2723:2756   */\n      slt\n        /* \"#utility.yul\":2720:2840   */\n      iszero\n      tag_210\n      jumpi\n        /* \"#utility.yul\":2759:2838   */\n      tag_211\n      tag_127\n      jump\t// in\n    tag_211:\n        /* \"#utility.yul\":2720:2840   */\n    tag_210:\n        /* \"#utility.yul\":2907:2908   */\n      0x00\n        /* \"#utility.yul\":2896:2905   */\n      dup6\n        /* \"#utility.yul\":2892:2909   */\n      add\n        /* \"#utility.yul\":2879:2910   */\n      calldataload\n        /* \"#utility.yul\":2937:2955   */\n      0xffffffffffffffff\n        /* \"#utility.yul\":2929:2935   */\n      dup2\n        /* \"#utility.yul\":2926:2956   */\n      gt\n        /* \"#utility.yul\":2923:3040   */\n      iszero\n      tag_212\n      jumpi\n        /* \"#utility.yul\":2959:3038   */\n      tag_213\n      tag_128\n      jump\t// in\n    tag_213:\n        /* \"#utility.yul\":2923:3040   */\n    tag_212:\n        /* \"#utility.yul\":3064:3127   */\n      tag_214\n        /* \"#utility.yul\":3119:3126   */\n      dup8\n        /* \"#utility.yul\":3110:3116   */\n      dup3\n        /* \"#utility.yul\":3099:3108   */\n      dup9\n        /* \"#utility.yul\":3095:3117   */\n      add\n        /* \"#utility.yul\":3064:3127   */\n      tag_137\n      jump\t// in\n    tag_214:\n        /* \"#utility.yul\":3054:3127   */\n      swap5\n      pop\n        /* \"#utility.yul\":2850:3137   */\n      pop\n        /* \"#utility.yul\":3204:3206   */\n      0x20\n        /* \"#utility.yul\":3193:3202   */\n      dup6\n        /* \"#utility.yul\":3189:3207   */\n      add\n        /* \"#utility.yul\":3176:3208   */\n      calldataload\n        /* \"#utility.yul\":3235:3253   */\n      0xffffffffffffffff\n        /* \"#utility.yul\":3227:3233   */\n      dup2\n        /* \"#utility.yul\":3224:3254   */\n      gt\n        /* \"#utility.yul\":3221:3338   */\n      iszero\n      tag_215\n      jumpi\n        /* \"#utility.yul\":3257:3336   */\n      tag_216\n      tag_128\n      jump\t// in\n    tag_216:\n        /* \"#utility.yul\":3221:3338   */\n    tag_215:\n        /* \"#utility.yul\":3362:3425   */\n      tag_217\n        /* \"#utility.yul\":3417:3424   */\n      dup8\n        /* \"#utility.yul\":3408:3414   */\n      dup3\n        /* \"#utility.yul\":3397:3406   */\n      dup9\n        /* \"#utility.yul\":3393:3415   */\n      add\n        /* \"#utility.yul\":3362:3425   */\n      tag_137\n      jump\t// in\n    tag_217:\n        /* \"#utility.yul\":3352:3425   */\n      swap4\n      pop\n        /* \"#utility.yul\":3147:3435   */\n      pop\n        /* \"#utility.yul\":3502:3504   */\n      0x40\n        /* \"#utility.yul\":3491:3500   */\n      dup6\n        /* \"#utility.yul\":3487:3505   */\n      add\n        /* \"#utility.yul\":3474:3506   */\n      calldataload\n        /* \"#utility.yul\":3533:3551   */\n      0xffffffffffffffff\n        /* \"#utility.yul\":3525:3531   */\n      dup2\n        /* \"#utility.yul\":3522:3552   */\n      gt\n        /* \"#utility.yul\":3519:3636   */\n      iszero\n      tag_218\n      jumpi\n        /* \"#utility.yul\":3555:3634   */\n      tag_219\n      tag_128\n      jump\t// in\n    tag_219:\n        /* \"#utility.yul\":3519:3636   */\n    tag_218:\n        /* \"#utility.yul\":3660:3723   */\n      tag_220\n        /* \"#utility.yul\":3715:3722   */\n      dup8\n        /* \"#utility.yul\":3706:3712   */\n      dup3\n        /* \"#utility.yul\":3695:3704   */\n      dup9\n        /* \"#utility.yul\":3691:3713   */\n      add\n        /* \"#utility.yul\":3660:3723   */\n      tag_137\n      jump\t// in\n    tag_220:\n        /* \"#utility.yul\":3650:3723   */\n      swap3\n      pop\n        /* \"#utility.yul\":3445:3733   */\n      pop\n        /* \"#utility.yul\":3800:3802   */\n      0x60\n        /* \"#utility.yul\":3789:3798   */\n      dup6\n        /* \"#utility.yul\":3785:3803   */\n      add\n        /* \"#utility.yul\":3772:3804   */\n      calldataload\n        /* \"#utility.yul\":3831:3849   */\n      0xffffffffffffffff\n        /* \"#utility.yul\":3823:3829   */\n      dup2\n        /* \"#utility.yul\":3820:3850   */\n      gt\n        /* \"#utility.yul\":3817:3934   */\n      iszero\n      tag_221\n      jumpi\n        /* \"#utility.yul\":3853:3932   */\n      tag_222\n      tag_128\n      jump\t// in\n    tag_222:\n        /* \"#utility.yul\":3817:3934   */\n    tag_221:\n        /* \"#utility.yul\":3958:4021   */\n      tag_223\n        /* \"#utility.yul\":4013:4020   */\n      dup8\n        /* \"#utility.yul\":4004:4010   */\n      dup3\n        /* \"#utility.yul\":3993:4002   */\n      dup9\n        /* \"#utility.yul\":3989:4011   */\n      add\n        /* \"#utility.yul\":3958:4021   */\n      tag_137\n      jump\t// in\n    tag_223:\n        /* \"#utility.yul\":3948:4021   */\n      swap2\n      pop\n        /* \"#utility.yul\":3743:4031   */\n      pop\n        /* \"#utility.yul\":2553:4038   */\n      swap3\n      swap6\n      swap2\n      swap5\n      pop\n      swap3\n      pop\n      jump\t// out\n        /* \"#utility.yul\":4044:4553   */\n    tag_13:\n        /* \"#utility.yul\":4113:4119   */\n      0x00\n        /* \"#utility.yul\":4162:4164   */\n      0x20\n        /* \"#utility.yul\":4150:4159   */\n      dup3\n        /* \"#utility.yul\":4141:4148   */\n      dup5\n        /* \"#utility.yul\":4137:4160   */\n      sub\n        /* \"#utility.yul\":4133:4165   */\n      slt\n        /* \"#utility.yul\":4130:4249   */\n      iszero\n      tag_225\n      jumpi\n        /* \"#utility.yul\":4168:4247   */\n      tag_226\n      tag_127\n      jump\t// in\n    tag_226:\n        /* \"#utility.yul\":4130:4249   */\n    tag_225:\n        /* \"#utility.yul\":4316:4317   */\n      0x00\n        /* \"#utility.yul\":4305:4314   */\n      dup3\n        /* \"#utility.yul\":4301:4318   */\n      add\n        /* \"#utility.yul\":4288:4319   */\n      calldataload\n        /* \"#utility.yul\":4346:4364   */\n      0xffffffffffffffff\n        /* \"#utility.yul\":4338:4344   */\n      dup2\n        /* \"#utility.yul\":4335:4365   */\n      gt\n        /* \"#utility.yul\":4332:4449   */\n      iszero\n      tag_227\n      jumpi\n        /* \"#utility.yul\":4368:4447   */\n      tag_228\n      tag_128\n      jump\t// in\n    tag_228:\n        /* \"#utility.yul\":4332:4449   */\n    tag_227:\n        /* \"#utility.yul\":4473:4536   */\n      tag_229\n        /* \"#utility.yul\":4528:4535   */\n      dup5\n        /* \"#utility.yul\":4519:4525   */\n      dup3\n        /* \"#utility.yul\":4508:4517   */\n      dup6\n        /* \"#utility.yul\":4504:4526   */\n      add\n        /* \"#utility.yul\":4473:4536   */\n      tag_137\n      jump\t// in\n    tag_229:\n        /* \"#utility.yul\":4463:4536   */\n      swap2\n      pop\n        /* \"#utility.yul\":4259:4546   */\n      pop\n        /* \"#utility.yul\":4044:4553   */\n      swap3\n      swap2\n      pop\n      pop\n      jump\t// out\n        /* \"#utility.yul\":4559:4658   */\n    tag_138:\n        /* \"#utility.yul\":4611:4617   */\n      0x00\n        /* \"#utility.yul\":4645:4650   */\n      dup2\n        /* \"#utility.yul\":4639:4651   */\n      mload\n        /* \"#utility.yul\":4629:4651   */\n      swap1\n      pop\n        /* \"#utility.yul\":4559:4658   */\n      swap2\n      swap1\n      pop\n      jump\t// out\n        /* \"#utility.yul\":4664:4833   */\n    tag_139:\n        /* \"#utility.yul\":4748:4759   */\n      0x00\n        /* \"#utility.yul\":4782:4788   */\n      dup3\n        /* \"#utility.yul\":4777:4780   */\n      dup3\n        /* \"#utility.yul\":4770:4789   */\n      mstore\n        /* \"#utility.yul\":4822:4826   */\n      0x20\n        /* \"#utility.yul\":4817:4820   */\n      dup3\n        /* \"#utility.yul\":4813:4827   */\n      add\n        /* \"#utility.yul\":4798:4827   */\n      swap1\n      pop\n        /* \"#utility.yul\":4664:4833   */\n      swap3\n      swap2\n      pop\n      pop\n      jump\t// out\n        /* \"#utility.yul\":4839:5085   */\n    tag_140:\n        /* \"#utility.yul\":4920:4921   */\n      0x00\n        /* \"#utility.yul\":4930:5043   */\n    tag_233:\n        /* \"#utility.yul\":4944:4950   */\n      dup4\n        /* \"#utility.yul\":4941:4942   */\n      dup2\n        /* \"#utility.yul\":4938:4951   */\n      lt\n        /* \"#utility.yul\":4930:5043   */\n      iszero\n      tag_235\n      jumpi\n        /* \"#utility.yul\":5029:5030   */\n      dup1\n        /* \"#utility.yul\":5024:5027   */\n      dup3\n        /* \"#utility.yul\":5020:5031   */\n      add\n        /* \"#utility.yul\":5014:5032   */\n      mload\n        /* \"#utility.yul\":5010:5011   */\n      dup2\n        /* \"#utility.yul\":5005:5008   */\n      dup5\n        /* \"#utility.yul\":5001:5012   */\n      add\n        /* \"#utility.yul\":4994:5033   */\n      mstore\n        /* \"#utility.yul\":4966:4968   */\n      0x20\n        /* \"#utility.yul\":4963:4964   */\n      dup2\n        /* \"#utility.yul\":4959:4969   */\n      add\n        /* \"#utility.yul\":4954:4969   */\n      swap1\n      pop\n        /* \"#utility.yul\":4930:5043   */\n      jump(tag_233)\n    tag_235:\n        /* \"#utility.yul\":5077:5078   */\n      0x00\n        /* \"#utility.yul\":5068:5074   */\n      dup5\n        /* \"#utility.yul\":5063:5066   */\n      dup5\n        /* \"#utility.yul\":5059:5075   */\n      add\n        /* \"#utility.yul\":5052:5079   */\n      mstore\n        /* \"#utility.yul\":4901:5085   */\n      pop\n        /* \"#utility.yul\":4839:5085   */\n      pop\n      pop\n      pop\n      jump\t// out\n        /* \"#utility.yul\":5091:5468   */\n    tag_141:\n        /* \"#utility.yul\":5179:5182   */\n      0x00\n        /* \"#utility.yul\":5207:5246   */\n      tag_237\n        /* \"#utility.yul\":5240:5245   */\n      dup3\n        /* \"#utility.yul\":5207:5246   */\n      tag_138\n      jump\t// in\n    tag_237:\n        /* \"#utility.yul\":5262:5333   */\n      tag_238\n        /* \"#utility.yul\":5326:5332   */\n      dup2\n        /* \"#utility.yul\":5321:5324   */\n      dup6\n        /* \"#utility.yul\":5262:5333   */\n      tag_139\n      jump\t// in\n    tag_238:\n        /* \"#utility.yul\":5255:5333   */\n      swap4\n      pop\n        /* \"#utility.yul\":5342:5407   */\n      tag_239\n        /* \"#utility.yul\":5400:5406   */\n      dup2\n        /* \"#utility.yul\":5395:5398   */\n      dup6\n        /* \"#utility.yul\":5388:5392   */\n      0x20\n        /* \"#utility.yul\":5381:5386   */\n      dup7\n        /* \"#utility.yul\":5377:5393   */\n      add\n        /* \"#utility.yul\":5342:5407   */\n      tag_140\n      jump\t// in\n    tag_239:\n        /* \"#utility.yul\":5432:5461   */\n      tag_240\n        /* \"#utility.yul\":5454:5460   */\n      dup2\n        /* \"#utility.yul\":5432:5461   */\n      tag_131\n      jump\t// in\n    tag_240:\n        /* \"#utility.yul\":5427:5430   */\n      dup5\n        /* \"#utility.yul\":5423:5462   */\n      add\n        /* \"#utility.yul\":5416:5462   */\n      swap2\n      pop\n        /* \"#utility.yul\":5183:5468   */\n      pop\n        /* \"#utility.yul\":5091:5468   */\n      swap3\n      swap2\n      pop\n      pop\n      jump\t// out\n        /* \"#utility.yul\":5474:5600   */\n    tag_142:\n        /* \"#utility.yul\":5511:5518   */\n      0x00\n        /* \"#utility.yul\":5551:5593   */\n      0xffffffffffffffffffffffffffffffffffffffff\n        /* \"#utility.yul\":5544:5549   */\n      dup3\n        /* \"#utility.yul\":5540:5594   */\n      and\n        /* \"#utility.yul\":5529:5594   */\n      swap1\n      pop\n        /* \"#utility.yul\":5474:5600   */\n      swap2\n      swap1\n      pop\n      jump\t// out\n        /* \"#utility.yul\":5606:5702   */\n    tag_143:\n        /* \"#utility.yul\":5643:5650   */\n      0x00\n        /* \"#utility.yul\":5672:5696   */\n      tag_243\n        /* \"#utility.yul\":5690:5695   */\n      dup3\n        /* \"#utility.yul\":5672:5696   */\n      tag_142\n      jump\t// in\n    tag_243:\n        /* \"#utility.yul\":5661:5696   */\n      swap1\n      pop\n        /* \"#utility.yul\":5606:5702   */\n      swap2\n      swap1\n      pop\n      jump\t// out\n        /* \"#utility.yul\":5708:5826   */\n    tag_144:\n        /* \"#utility.yul\":5795:5819   */\n      tag_245\n        /* \"#utility.yul\":5813:5818   */\n      dup2\n        /* \"#utility.yul\":5795:5819   */\n      tag_143\n      jump\t// in\n    tag_245:\n        /* \"#utility.yul\":5790:5793   */\n      dup3\n        /* \"#utility.yul\":5783:5820   */\n      mstore\n        /* \"#utility.yul\":5708:5826   */\n      pop\n      pop\n      jump\t// out\n        /* \"#utility.yul\":5832:6860   */\n    tag_16:\n        /* \"#utility.yul\":6117:6121   */\n      0x00\n        /* \"#utility.yul\":6155:6158   */\n      0xa0\n        /* \"#utility.yul\":6144:6153   */\n      dup3\n        /* \"#utility.yul\":6140:6159   */\n      add\n        /* \"#utility.yul\":6132:6159   */\n      swap1\n      pop\n        /* \"#utility.yul\":6205:6214   */\n      dup2\n        /* \"#utility.yul\":6199:6203   */\n      dup2\n        /* \"#utility.yul\":6195:6215   */\n      sub\n        /* \"#utility.yul\":6191:6192   */\n      0x00\n        /* \"#utility.yul\":6180:6189   */\n      dup4\n        /* \"#utility.yul\":6176:6193   */\n      add\n        /* \"#utility.yul\":6169:6216   */\n      mstore\n        /* \"#utility.yul\":6233:6311   */\n      tag_247\n        /* \"#utility.yul\":6306:6310   */\n      dup2\n        /* \"#utility.yul\":6297:6303   */\n      dup9\n        /* \"#utility.yul\":6233:6311   */\n      tag_141\n      jump\t// in\n    tag_247:\n        /* \"#utility.yul\":6225:6311   */\n      swap1\n      pop\n        /* \"#utility.yul\":6358:6367   */\n      dup2\n        /* \"#utility.yul\":6352:6356   */\n      dup2\n        /* \"#utility.yul\":6348:6368   */\n      sub\n        /* \"#utility.yul\":6343:6345   */\n      0x20\n        /* \"#utility.yul\":6332:6341   */\n      dup4\n        /* \"#utility.yul\":6328:6346   */\n      add\n        /* \"#utility.yul\":6321:6369   */\n      mstore\n        /* \"#utility.yul\":6386:6464   */\n      tag_248\n        /* \"#utility.yul\":6459:6463   */\n      dup2\n        /* \"#utility.yul\":6450:6456   */\n      dup8\n        /* \"#utility.yul\":6386:6464   */\n      tag_141\n      jump\t// in\n    tag_248:\n        /* \"#utility.yul\":6378:6464   */\n      swap1\n      pop\n        /* \"#utility.yul\":6511:6520   */\n      dup2\n        /* \"#utility.yul\":6505:6509   */\n      dup2\n        /* \"#utility.yul\":6501:6521   */\n      sub\n        /* \"#utility.yul\":6496:6498   */\n      0x40\n        /* \"#utility.yul\":6485:6494   */\n      dup4\n        /* \"#utility.yul\":6481:6499   */\n      add\n        /* \"#utility.yul\":6474:6522   */\n      mstore\n        /* \"#utility.yul\":6539:6617   */\n      tag_249\n        /* \"#utility.yul\":6612:6616   */\n      dup2\n        /* \"#utility.yul\":6603:6609   */\n      dup7\n        /* \"#utility.yul\":6539:6617   */\n      tag_141\n      jump\t// in\n    tag_249:\n        /* \"#utility.yul\":6531:6617   */\n      swap1\n      pop\n        /* \"#utility.yul\":6664:6673   */\n      dup2\n        /* \"#utility.yul\":6658:6662   */\n      dup2\n        /* \"#utility.yul\":6654:6674   */\n      sub\n        /* \"#utility.yul\":6649:6651   */\n      0x60\n        /* \"#utility.yul\":6638:6647   */\n      dup4\n        /* \"#utility.yul\":6634:6652   */\n      add\n        /* \"#utility.yul\":6627:6675   */\n      mstore\n        /* \"#utility.yul\":6692:6770   */\n      tag_250\n        /* \"#utility.yul\":6765:6769   */\n      dup2\n        /* \"#utility.yul\":6756:6762   */\n      dup6\n        /* \"#utility.yul\":6692:6770   */\n      tag_141\n      jump\t// in\n    tag_250:\n        /* \"#utility.yul\":6684:6770   */\n      swap1\n      pop\n        /* \"#utility.yul\":6780:6853   */\n      tag_251\n        /* \"#utility.yul\":6848:6851   */\n      0x80\n        /* \"#utility.yul\":6837:6846   */\n      dup4\n        /* \"#utility.yul\":6833:6852   */\n      add\n        /* \"#utility.yul\":6824:6830   */\n      dup5\n        /* \"#utility.yul\":6780:6853   */\n      tag_144\n      jump\t// in\n    tag_251:\n        /* \"#utility.yul\":5832:6860   */\n      swap7\n      swap6\n      pop\n      pop\n      pop\n      pop\n      pop\n      pop\n      jump\t// out\n        /* \"#utility.yul\":6866:7007   */\n    tag_145:\n        /* \"#utility.yul\":6960:6966   */\n      0x00\n        /* \"#utility.yul\":6994:6999   */\n      dup2\n        /* \"#utility.yul\":6988:7000   */\n      mload\n        /* \"#utility.yul\":6978:7000   */\n      swap1\n      pop\n        /* \"#utility.yul\":6866:7007   */\n      swap2\n      swap1\n      pop\n      jump\t// out\n        /* \"#utility.yul\":7013:7224   */\n    tag_146:\n        /* \"#utility.yul\":7139:7150   */\n      0x00\n        /* \"#utility.yul\":7173:7179   */\n      dup3\n        /* \"#utility.yul\":7168:7171   */\n      dup3\n        /* \"#utility.yul\":7161:7180   */\n      mstore\n        /* \"#utility.yul\":7213:7217   */\n      0x20\n        /* \"#utility.yul\":7208:7211   */\n      dup3\n        /* \"#utility.yul\":7204:7218   */\n      add\n        /* \"#utility.yul\":7189:7218   */\n      swap1\n      pop\n        /* \"#utility.yul\":7013:7224   */\n      swap3\n      swap2\n      pop\n      pop\n      jump\t// out\n        /* \"#utility.yul\":7230:7389   */\n    tag_147:\n        /* \"#utility.yul\":7324:7328   */\n      0x00\n        /* \"#utility.yul\":7347:7350   */\n      dup2\n        /* \"#utility.yul\":7339:7350   */\n      swap1\n      pop\n        /* \"#utility.yul\":7377:7381   */\n      0x20\n        /* \"#utility.yul\":7372:7375   */\n      dup3\n        /* \"#utility.yul\":7368:7382   */\n      add\n        /* \"#utility.yul\":7360:7382   */\n      swap1\n      pop\n        /* \"#utility.yul\":7230:7389   */\n      swap2\n      swap1\n      pop\n      jump\t// out\n        /* \"#utility.yul\":7395:7554   */\n    tag_148:\n        /* \"#utility.yul\":7469:7480   */\n      0x00\n        /* \"#utility.yul\":7503:7509   */\n      dup3\n        /* \"#utility.yul\":7498:7501   */\n      dup3\n        /* \"#utility.yul\":7491:7510   */\n      mstore\n        /* \"#utility.yul\":7543:7547   */\n      0x20\n        /* \"#utility.yul\":7538:7541   */\n      dup3\n        /* \"#utility.yul\":7534:7548   */\n      add\n        /* \"#utility.yul\":7519:7548   */\n      swap1\n      pop\n        /* \"#utility.yul\":7395:7554   */\n      swap3\n      swap2\n      pop\n      pop\n      jump\t// out\n        /* \"#utility.yul\":7560:7917   */\n    tag_149:\n        /* \"#utility.yul\":7638:7641   */\n      0x00\n        /* \"#utility.yul\":7666:7705   */\n      tag_257\n        /* \"#utility.yul\":7699:7704   */\n      dup3\n        /* \"#utility.yul\":7666:7705   */\n      tag_138\n      jump\t// in\n    tag_257:\n        /* \"#utility.yul\":7721:7782   */\n      tag_258\n        /* \"#utility.yul\":7775:7781   */\n      dup2\n        /* \"#utility.yul\":7770:7773   */\n      dup6\n        /* \"#utility.yul\":7721:7782   */\n      tag_148\n      jump\t// in\n    tag_258:\n        /* \"#utility.yul\":7714:7782   */\n      swap4\n      pop\n        /* \"#utility.yul\":7791:7856   */\n      tag_259\n        /* \"#utility.yul\":7849:7855   */\n      dup2\n        /* \"#utility.yul\":7844:7847   */\n      dup6\n        /* \"#utility.yul\":7837:7841   */\n      0x20\n        /* \"#utility.yul\":7830:7835   */\n      dup7\n        /* \"#utility.yul\":7826:7842   */\n      add\n        /* \"#utility.yul\":7791:7856   */\n      tag_140\n      jump\t// in\n    tag_259:\n        /* \"#utility.yul\":7881:7910   */\n      tag_260\n        /* \"#utility.yul\":7903:7909   */\n      dup2\n        /* \"#utility.yul\":7881:7910   */\n      tag_131\n      jump\t// in\n    tag_260:\n        /* \"#utility.yul\":7876:7879   */\n      dup5\n        /* \"#utility.yul\":7872:7911   */\n      add\n        /* \"#utility.yul\":7865:7911   */\n      swap2\n      pop\n        /* \"#utility.yul\":7642:7917   */\n      pop\n        /* \"#utility.yul\":7560:7917   */\n      swap3\n      swap2\n      pop\n      pop\n      jump\t// out\n        /* \"#utility.yul\":7923:8031   */\n    tag_150:\n        /* \"#utility.yul\":8000:8024   */\n      tag_262\n        /* \"#utility.yul\":8018:8023   */\n      dup2\n        /* \"#utility.yul\":8000:8024   */\n      tag_143\n      jump\t// in\n    tag_262:\n        /* \"#utility.yul\":7995:7998   */\n      dup3\n        /* \"#utility.yul\":7988:8025   */\n      mstore\n        /* \"#utility.yul\":7923:8031   */\n      pop\n      pop\n      jump\t// out\n        /* \"#utility.yul\":8125:9471   */\n    tag_151:\n        /* \"#utility.yul\":8238:8241   */\n      0x00\n        /* \"#utility.yul\":8274:8278   */\n      0xa0\n        /* \"#utility.yul\":8269:8272   */\n      dup4\n        /* \"#utility.yul\":8265:8279   */\n      add\n        /* \"#utility.yul\":8359:8363   */\n      0x00\n        /* \"#utility.yul\":8352:8357   */\n      dup4\n        /* \"#utility.yul\":8348:8364   */\n      add\n        /* \"#utility.yul\":8342:8365   */\n      mload\n        /* \"#utility.yul\":8412:8415   */\n      dup5\n        /* \"#utility.yul\":8406:8410   */\n      dup3\n        /* \"#utility.yul\":8402:8416   */\n      sub\n        /* \"#utility.yul\":8395:8399   */\n      0x00\n        /* \"#utility.yul\":8390:8393   */\n      dup7\n        /* \"#utility.yul\":8386:8400   */\n      add\n        /* \"#utility.yul\":8379:8417   */\n      mstore\n        /* \"#utility.yul\":8438:8511   */\n      tag_264\n        /* \"#utility.yul\":8506:8510   */\n      dup3\n        /* \"#utility.yul\":8492:8504   */\n      dup3\n        /* \"#utility.yul\":8438:8511   */\n      tag_149\n      jump\t// in\n    tag_264:\n        /* \"#utility.yul\":8430:8511   */\n      swap2\n      pop\n        /* \"#utility.yul\":8289:8522   */\n      pop\n        /* \"#utility.yul\":8605:8609   */\n      0x20\n        /* \"#utility.yul\":8598:8603   */\n      dup4\n        /* \"#utility.yul\":8594:8610   */\n      add\n        /* \"#utility.yul\":8588:8611   */\n      mload\n        /* \"#utility.yul\":8658:8661   */\n      dup5\n        /* \"#utility.yul\":8652:8656   */\n      dup3\n        /* \"#utility.yul\":8648:8662   */\n      sub\n        /* \"#utility.yul\":8641:8645   */\n      0x20\n        /* \"#utility.yul\":8636:8639   */\n      dup7\n        /* \"#utility.yul\":8632:8646   */\n      add\n        /* \"#utility.yul\":8625:8663   */\n      mstore\n        /* \"#utility.yul\":8684:8757   */\n      tag_265\n        /* \"#utility.yul\":8752:8756   */\n      dup3\n        /* \"#utility.yul\":8738:8750   */\n      dup3\n        /* \"#utility.yul\":8684:8757   */\n      tag_149\n      jump\t// in\n    tag_265:\n        /* \"#utility.yul\":8676:8757   */\n      swap2\n      pop\n        /* \"#utility.yul\":8532:8768   */\n      pop\n        /* \"#utility.yul\":8850:8854   */\n      0x40\n        /* \"#utility.yul\":8843:8848   */\n      dup4\n        /* \"#utility.yul\":8839:8855   */\n      add\n        /* \"#utility.yul\":8833:8856   */\n      mload\n        /* \"#utility.yul\":8903:8906   */\n      dup5\n        /* \"#utility.yul\":8897:8901   */\n      dup3\n        /* \"#utility.yul\":8893:8907   */\n      sub\n        /* \"#utility.yul\":8886:8890   */\n      0x40\n        /* \"#utility.yul\":8881:8884   */\n      dup7\n        /* \"#utility.yul\":8877:8891   */\n      add\n        /* \"#utility.yul\":8870:8908   */\n      mstore\n        /* \"#utility.yul\":8929:9002   */\n      tag_266\n        /* \"#utility.yul\":8997:9001   */\n      dup3\n        /* \"#utility.yul\":8983:8995   */\n      dup3\n        /* \"#utility.yul\":8929:9002   */\n      tag_149\n      jump\t// in\n    tag_266:\n        /* \"#utility.yul\":8921:9002   */\n      swap2\n      pop\n        /* \"#utility.yul\":8778:9013   */\n      pop\n        /* \"#utility.yul\":9106:9110   */\n      0x60\n        /* \"#utility.yul\":9099:9104   */\n      dup4\n        /* \"#utility.yul\":9095:9111   */\n      add\n        /* \"#utility.yul\":9089:9112   */\n      mload\n        /* \"#utility.yul\":9159:9162   */\n      dup5\n        /* \"#utility.yul\":9153:9157   */\n      dup3\n        /* \"#utility.yul\":9149:9163   */\n      sub\n        /* \"#utility.yul\":9142:9146   */\n      0x60\n        /* \"#utility.yul\":9137:9140   */\n      dup7\n        /* \"#utility.yul\":9133:9147   */\n      add\n        /* \"#utility.yul\":9126:9164   */\n      mstore\n        /* \"#utility.yul\":9185:9258   */\n      tag_267\n        /* \"#utility.yul\":9253:9257   */\n      dup3\n        /* \"#utility.yul\":9239:9251   */\n      dup3\n        /* \"#utility.yul\":9185:9258   */\n      tag_149\n      jump\t// in\n    tag_267:\n        /* \"#utility.yul\":9177:9258   */\n      swap2\n      pop\n        /* \"#utility.yul\":9023:9269   */\n      pop\n        /* \"#utility.yul\":9352:9356   */\n      0x80\n        /* \"#utility.yul\":9345:9350   */\n      dup4\n        /* \"#utility.yul\":9341:9357   */\n      add\n        /* \"#utility.yul\":9335:9358   */\n      mload\n        /* \"#utility.yul\":9371:9434   */\n      tag_268\n        /* \"#utility.yul\":9428:9432   */\n      0x80\n        /* \"#utility.yul\":9423:9426   */\n      dup7\n        /* \"#utility.yul\":9419:9433   */\n      add\n        /* \"#utility.yul\":9405:9417   */\n      dup3\n        /* \"#utility.yul\":9371:9434   */\n      tag_150\n      jump\t// in\n    tag_268:\n        /* \"#utility.yul\":9279:9444   */\n      pop\n        /* \"#utility.yul\":9461:9465   */\n      dup1\n        /* \"#utility.yul\":9454:9465   */\n      swap2\n      pop\n        /* \"#utility.yul\":8243:9471   */\n      pop\n        /* \"#utility.yul\":8125:9471   */\n      swap3\n      swap2\n      pop\n      pop\n      jump\t// out\n        /* \"#utility.yul\":9477:9741   */\n    tag_152:\n        /* \"#utility.yul\":9600:9610   */\n      0x00\n        /* \"#utility.yul\":9635:9735   */\n      tag_270\n        /* \"#utility.yul\":9731:9734   */\n      dup4\n        /* \"#utility.yul\":9723:9729   */\n      dup4\n        /* \"#utility.yul\":9635:9735   */\n      tag_151\n      jump\t// in\n    tag_270:\n        /* \"#utility.yul\":9621:9735   */\n      swap1\n      pop\n        /* \"#utility.yul\":9477:9741   */\n      swap3\n      swap2\n      pop\n      pop\n      jump\t// out\n        /* \"#utility.yul\":9747:9887   */\n    tag_153:\n        /* \"#utility.yul\":9844:9848   */\n      0x00\n        /* \"#utility.yul\":9876:9880   */\n      0x20\n        /* \"#utility.yul\":9871:9874   */\n      dup3\n        /* \"#utility.yul\":9867:9881   */\n      add\n        /* \"#utility.yul\":9859:9881   */\n      swap1\n      pop\n        /* \"#utility.yul\":9747:9887   */\n      swap2\n      swap1\n      pop\n      jump\t// out\n        /* \"#utility.yul\":9985:11112   */\n    tag_154:\n        /* \"#utility.yul\":10158:10161   */\n      0x00\n        /* \"#utility.yul\":10187:10268   */\n      tag_273\n        /* \"#utility.yul\":10262:10267   */\n      dup3\n        /* \"#utility.yul\":10187:10268   */\n      tag_145\n      jump\t// in\n    tag_273:\n        /* \"#utility.yul\":10284:10397   */\n      tag_274\n        /* \"#utility.yul\":10390:10396   */\n      dup2\n        /* \"#utility.yul\":10385:10388   */\n      dup6\n        /* \"#utility.yul\":10284:10397   */\n      tag_146\n      jump\t// in\n    tag_274:\n        /* \"#utility.yul\":10277:10397   */\n      swap4\n      pop\n        /* \"#utility.yul\":10423:10426   */\n      dup4\n        /* \"#utility.yul\":10468:10472   */\n      0x20\n        /* \"#utility.yul\":10460:10466   */\n      dup3\n        /* \"#utility.yul\":10456:10473   */\n      mul\n        /* \"#utility.yul\":10451:10454   */\n      dup6\n        /* \"#utility.yul\":10447:10474   */\n      add\n        /* \"#utility.yul\":10498:10581   */\n      tag_275\n        /* \"#utility.yul\":10575:10580   */\n      dup6\n        /* \"#utility.yul\":10498:10581   */\n      tag_147\n      jump\t// in\n    tag_275:\n        /* \"#utility.yul\":10604:10611   */\n      dup1\n        /* \"#utility.yul\":10635:10636   */\n      0x00\n        /* \"#utility.yul\":10620:11067   */\n    tag_276:\n        /* \"#utility.yul\":10645:10651   */\n      dup6\n        /* \"#utility.yul\":10642:10643   */\n      dup2\n        /* \"#utility.yul\":10639:10652   */\n      lt\n        /* \"#utility.yul\":10620:11067   */\n      iszero\n      tag_278\n      jumpi\n        /* \"#utility.yul\":10716:10725   */\n      dup5\n        /* \"#utility.yul\":10710:10714   */\n      dup5\n        /* \"#utility.yul\":10706:10726   */\n      sub\n        /* \"#utility.yul\":10701:10704   */\n      dup10\n        /* \"#utility.yul\":10694:10727   */\n      mstore\n        /* \"#utility.yul\":10767:10773   */\n      dup2\n        /* \"#utility.yul\":10761:10774   */\n      mload\n        /* \"#utility.yul\":10795:10913   */\n      tag_279\n        /* \"#utility.yul\":10908:10912   */\n      dup6\n        /* \"#utility.yul\":10893:10906   */\n      dup3\n        /* \"#utility.yul\":10795:10913   */\n      tag_152\n      jump\t// in\n    tag_279:\n        /* \"#utility.yul\":10787:10913   */\n      swap5\n      pop\n        /* \"#utility.yul\":10936:11023   */\n      tag_280\n        /* \"#utility.yul\":11016:11022   */\n      dup4\n        /* \"#utility.yul\":10936:11023   */\n      tag_153\n      jump\t// in\n    tag_280:\n        /* \"#utility.yul\":10926:11023   */\n      swap3\n      pop\n        /* \"#utility.yul\":11052:11056   */\n      0x20\n        /* \"#utility.yul\":11047:11050   */\n      dup11\n        /* \"#utility.yul\":11043:11057   */\n      add\n        /* \"#utility.yul\":11036:11057   */\n      swap10\n      pop\n        /* \"#utility.yul\":10680:11067   */\n      pop\n        /* \"#utility.yul\":10667:10668   */\n      0x01\n        /* \"#utility.yul\":10664:10665   */\n      dup2\n        /* \"#utility.yul\":10660:10669   */\n      add\n        /* \"#utility.yul\":10655:10669   */\n      swap1\n      pop\n        /* \"#utility.yul\":10620:11067   */\n      jump(tag_276)\n    tag_278:\n        /* \"#utility.yul\":10624:10638   */\n      pop\n        /* \"#utility.yul\":11083:11087   */\n      dup3\n        /* \"#utility.yul\":11076:11087   */\n      swap8\n      pop\n        /* \"#utility.yul\":11103:11106   */\n      dup8\n        /* \"#utility.yul\":11096:11106   */\n      swap6\n      pop\n        /* \"#utility.yul\":10163:11112   */\n      pop\n      pop\n      pop\n      pop\n      pop\n        /* \"#utility.yul\":9985:11112   */\n      swap3\n      swap2\n      pop\n      pop\n      jump\t// out\n        /* \"#utility.yul\":11118:11599   */\n    tag_20:\n        /* \"#utility.yul\":11315:11319   */\n      0x00\n        /* \"#utility.yul\":11353:11355   */\n      0x20\n        /* \"#utility.yul\":11342:11351   */\n      dup3\n        /* \"#utility.yul\":11338:11356   */\n      add\n        /* \"#utility.yul\":11330:11356   */\n      swap1\n      pop\n        /* \"#utility.yul\":11402:11411   */\n      dup2\n        /* \"#utility.yul\":11396:11400   */\n      dup2\n        /* \"#utility.yul\":11392:11412   */\n      sub\n        /* \"#utility.yul\":11388:11389   */\n      0x00\n        /* \"#utility.yul\":11377:11386   */\n      dup4\n        /* \"#utility.yul\":11373:11390   */\n      add\n        /* \"#utility.yul\":11366:11413   */\n      mstore\n        /* \"#utility.yul\":11430:11592   */\n      tag_282\n        /* \"#utility.yul\":11587:11591   */\n      dup2\n        /* \"#utility.yul\":11578:11584   */\n      dup5\n        /* \"#utility.yul\":11430:11592   */\n      tag_154\n      jump\t// in\n    tag_282:\n        /* \"#utility.yul\":11422:11592   */\n      swap1\n      pop\n        /* \"#utility.yul\":11118:11599   */\n      swap3\n      swap2\n      pop\n      pop\n      jump\t// out\n        /* \"#utility.yul\":11693:13049   */\n    tag_155:\n        /* \"#utility.yul\":11816:11819   */\n      0x00\n        /* \"#utility.yul\":11852:11856   */\n      0xa0\n        /* \"#utility.yul\":11847:11850   */\n      dup4\n        /* \"#utility.yul\":11843:11857   */\n      add\n        /* \"#utility.yul\":11937:11941   */\n      0x00\n        /* \"#utility.yul\":11930:11935   */\n      dup4\n        /* \"#utility.yul\":11926:11942   */\n      add\n        /* \"#utility.yul\":11920:11943   */\n      mload\n        /* \"#utility.yul\":11990:11993   */\n      dup5\n        /* \"#utility.yul\":11984:11988   */\n      dup3\n        /* \"#utility.yul\":11980:11994   */\n      sub\n        /* \"#utility.yul\":11973:11977   */\n      0x00\n        /* \"#utility.yul\":11968:11971   */\n      dup7\n        /* \"#utility.yul\":11964:11978   */\n      add\n        /* \"#utility.yul\":11957:11995   */\n      mstore\n        /* \"#utility.yul\":12016:12089   */\n      tag_284\n        /* \"#utility.yul\":12084:12088   */\n      dup3\n        /* \"#utility.yul\":12070:12082   */\n      dup3\n        /* \"#utility.yul\":12016:12089   */\n      tag_149\n      jump\t// in\n    tag_284:\n        /* \"#utility.yul\":12008:12089   */\n      swap2\n      pop\n        /* \"#utility.yul\":11867:12100   */\n      pop\n        /* \"#utility.yul\":12183:12187   */\n      0x20\n        /* \"#utility.yul\":12176:12181   */\n      dup4\n        /* \"#utility.yul\":12172:12188   */\n      add\n        /* \"#utility.yul\":12166:12189   */\n      mload\n        /* \"#utility.yul\":12236:12239   */\n      dup5\n        /* \"#utility.yul\":12230:12234   */\n      dup3\n        /* \"#utility.yul\":12226:12240   */\n      sub\n        /* \"#utility.yul\":12219:12223   */\n      0x20\n        /* \"#utility.yul\":12214:12217   */\n      dup7\n        /* \"#utility.yul\":12210:12224   */\n      add\n        /* \"#utility.yul\":12203:12241   */\n      mstore\n        /* \"#utility.yul\":12262:12335   */\n      tag_285\n        /* \"#utility.yul\":12330:12334   */\n      dup3\n        /* \"#utility.yul\":12316:12328   */\n      dup3\n        /* \"#utility.yul\":12262:12335   */\n      tag_149\n      jump\t// in\n    tag_285:\n        /* \"#utility.yul\":12254:12335   */\n      swap2\n      pop\n        /* \"#utility.yul\":12110:12346   */\n      pop\n        /* \"#utility.yul\":12428:12432   */\n      0x40\n        /* \"#utility.yul\":12421:12426   */\n      dup4\n        /* \"#utility.yul\":12417:12433   */\n      add\n        /* \"#utility.yul\":12411:12434   */\n      mload\n        /* \"#utility.yul\":12481:12484   */\n      dup5\n        /* \"#utility.yul\":12475:12479   */\n      dup3\n        /* \"#utility.yul\":12471:12485   */\n      sub\n        /* \"#utility.yul\":12464:12468   */\n      0x40\n        /* \"#utility.yul\":12459:12462   */\n      dup7\n        /* \"#utility.yul\":12455:12469   */\n      add\n        /* \"#utility.yul\":12448:12486   */\n      mstore\n        /* \"#utility.yul\":12507:12580   */\n      tag_286\n        /* \"#utility.yul\":12575:12579   */\n      dup3\n        /* \"#utility.yul\":12561:12573   */\n      dup3\n        /* \"#utility.yul\":12507:12580   */\n      tag_149\n      jump\t// in\n    tag_286:\n        /* \"#utility.yul\":12499:12580   */\n      swap2\n      pop\n        /* \"#utility.yul\":12356:12591   */\n      pop\n        /* \"#utility.yul\":12684:12688   */\n      0x60\n        /* \"#utility.yul\":12677:12682   */\n      dup4\n        /* \"#utility.yul\":12673:12689   */\n      add\n        /* \"#utility.yul\":12667:12690   */\n      mload\n        /* \"#utility.yul\":12737:12740   */\n      dup5\n        /* \"#utility.yul\":12731:12735   */\n      dup3\n        /* \"#utility.yul\":12727:12741   */\n      sub\n        /* \"#utility.yul\":12720:12724   */\n      0x60\n        /* \"#utility.yul\":12715:12718   */\n      dup7\n        /* \"#utility.yul\":12711:12725   */\n      add\n        /* \"#utility.yul\":12704:12742   */\n      mstore\n        /* \"#utility.yul\":12763:12836   */\n      tag_287\n        /* \"#utility.yul\":12831:12835   */\n      dup3\n        /* \"#utility.yul\":12817:12829   */\n      dup3\n        /* \"#utility.yul\":12763:12836   */\n      tag_149\n      jump\t// in\n    tag_287:\n        /* \"#utility.yul\":12755:12836   */\n      swap2\n      pop\n        /* \"#utility.yul\":12601:12847   */\n      pop\n        /* \"#utility.yul\":12930:12934   */\n      0x80\n        /* \"#utility.yul\":12923:12928   */\n      dup4\n        /* \"#utility.yul\":12919:12935   */\n      add\n        /* \"#utility.yul\":12913:12936   */\n      mload\n        /* \"#utility.yul\":12949:13012   */\n      tag_288\n        /* \"#utility.yul\":13006:13010   */\n      0x80\n        /* \"#utility.yul\":13001:13004   */\n      dup7\n        /* \"#utility.yul\":12997:13011   */\n      add\n        /* \"#utility.yul\":12983:12995   */\n      dup3\n        /* \"#utility.yul\":12949:13012   */\n      tag_150\n      jump\t// in\n    tag_288:\n        /* \"#utility.yul\":12857:13022   */\n      pop\n        /* \"#utility.yul\":13039:13043   */\n      dup1\n        /* \"#utility.yul\":13032:13043   */\n      swap2\n      pop\n        /* \"#utility.yul\":11821:13049   */\n      pop\n        /* \"#utility.yul\":11693:13049   */\n      swap3\n      swap2\n      pop\n      pop\n      jump\t// out\n        /* \"#utility.yul\":13055:13436   */\n    tag_25:\n        /* \"#utility.yul\":13202:13206   */\n      0x00\n        /* \"#utility.yul\":13240:13242   */\n      0x20\n        /* \"#utility.yul\":13229:13238   */\n      dup3\n        /* \"#utility.yul\":13225:13243   */\n      add\n        /* \"#utility.yul\":13217:13243   */\n      swap1\n      pop\n        /* \"#utility.yul\":13289:13298   */\n      dup2\n        /* \"#utility.yul\":13283:13287   */\n      dup2\n        /* \"#utility.yul\":13279:13299   */\n      sub\n        /* \"#utility.yul\":13275:13276   */\n      0x00\n        /* \"#utility.yul\":13264:13273   */\n      dup4\n        /* \"#utility.yul\":13260:13277   */\n      add\n        /* \"#utility.yul\":13253:13300   */\n      mstore\n        /* \"#utility.yul\":13317:13429   */\n      tag_290\n        /* \"#utility.yul\":13424:13428   */\n      dup2\n        /* \"#utility.yul\":13415:13421   */\n      dup5\n        /* \"#utility.yul\":13317:13429   */\n      tag_155\n      jump\t// in\n    tag_290:\n        /* \"#utility.yul\":13309:13429   */\n      swap1\n      pop\n        /* \"#utility.yul\":13055:13436   */\n      swap3\n      swap2\n      pop\n      pop\n      jump\t// out\n        /* \"#utility.yul\":13442:13590   */\n    tag_156:\n        /* \"#utility.yul\":13544:13555   */\n      0x00\n        /* \"#utility.yul\":13581:13584   */\n      dup2\n        /* \"#utility.yul\":13566:13584   */\n      swap1\n      pop\n        /* \"#utility.yul\":13442:13590   */\n      swap3\n      swap2\n      pop\n      pop\n      jump\t// out\n        /* \"#utility.yul\":13596:13986   */\n    tag_157:\n        /* \"#utility.yul\":13702:13705   */\n      0x00\n        /* \"#utility.yul\":13730:13769   */\n      tag_293\n        /* \"#utility.yul\":13763:13768   */\n      dup3\n        /* \"#utility.yul\":13730:13769   */\n      tag_138\n      jump\t// in\n    tag_293:\n        /* \"#utility.yul\":13785:13874   */\n      tag_294\n        /* \"#utility.yul\":13867:13873   */\n      dup2\n        /* \"#utility.yul\":13862:13865   */\n      dup6\n        /* \"#utility.yul\":13785:13874   */\n      tag_156\n      jump\t// in\n    tag_294:\n        /* \"#utility.yul\":13778:13874   */\n      swap4\n      pop\n        /* \"#utility.yul\":13883:13948   */\n      tag_295\n        /* \"#utility.yul\":13941:13947   */\n      dup2\n        /* \"#utility.yul\":13936:13939   */\n      dup6\n        /* \"#utility.yul\":13929:13933   */\n      0x20\n        /* \"#utility.yul\":13922:13927   */\n      dup7\n        /* \"#utility.yul\":13918:13934   */\n      add\n        /* \"#utility.yul\":13883:13948   */\n      tag_140\n      jump\t// in\n    tag_295:\n        /* \"#utility.yul\":13973:13979   */\n      dup1\n        /* \"#utility.yul\":13968:13971   */\n      dup5\n        /* \"#utility.yul\":13964:13980   */\n      add\n        /* \"#utility.yul\":13957:13980   */\n      swap2\n      pop\n        /* \"#utility.yul\":13706:13986   */\n      pop\n        /* \"#utility.yul\":13596:13986   */\n      swap3\n      swap2\n      pop\n      pop\n      jump\t// out\n        /* \"#utility.yul\":13992:14267   */\n    tag_28:\n        /* \"#utility.yul\":14124:14127   */\n      0x00\n        /* \"#utility.yul\":14146:14241   */\n      tag_297\n        /* \"#utility.yul\":14237:14240   */\n      dup3\n        /* \"#utility.yul\":14228:14234   */\n      dup5\n        /* \"#utility.yul\":14146:14241   */\n      tag_157\n      jump\t// in\n    tag_297:\n        /* \"#utility.yul\":14139:14241   */\n      swap2\n      pop\n        /* \"#utility.yul\":14258:14261   */\n      dup2\n        /* \"#utility.yul\":14251:14261   */\n      swap1\n      pop\n        /* \"#utility.yul\":13992:14267   */\n      swap3\n      swap2\n      pop\n      pop\n      jump\t// out\n        /* \"#utility.yul\":14273:14453   */\n    tag_158:\n        /* \"#utility.yul\":14321:14398   */\n      0x4e487b7100000000000000000000000000000000000000000000000000000000\n        /* \"#utility.yul\":14318:14319   */\n      0x00\n        /* \"#utility.yul\":14311:14399   */\n      mstore\n        /* \"#utility.yul\":14418:14422   */\n      0x22\n        /* \"#utility.yul\":14415:14416   */\n      0x04\n        /* \"#utility.yul\":14408:14423   */\n      mstore\n        /* \"#utility.yul\":14442:14446   */\n      0x24\n        /* \"#utility.yul\":14439:14440   */\n      0x00\n        /* \"#utility.yul\":14432:14447   */\n      revert\n        /* \"#utility.yul\":14459:14779   */\n    tag_30:\n        /* \"#utility.yul\":14503:14509   */\n      0x00\n        /* \"#utility.yul\":14540:14541   */\n      0x02\n        /* \"#utility.yul\":14534:14538   */\n      dup3\n        /* \"#utility.yul\":14530:14542   */\n      div\n        /* \"#utility.yul\":14520:14542   */\n      swap1\n      pop\n        /* \"#utility.yul\":14587:14588   */\n      0x01\n        /* \"#utility.yul\":14581:14585   */\n      dup3\n        /* \"#utility.yul\":14577:14589   */\n      and\n        /* \"#utility.yul\":14608:14626   */\n      dup1\n        /* \"#utility.yul\":14598:14679   */\n      tag_300\n      jumpi\n        /* \"#utility.yul\":14664:14668   */\n      0x7f\n        /* \"#utility.yul\":14656:14662   */\n      dup3\n        /* \"#utility.yul\":14652:14669   */\n      and\n        /* \"#utility.yul\":14642:14669   */\n      swap2\n      pop\n        /* \"#utility.yul\":14598:14679   */\n    tag_300:\n        /* \"#utility.yul\":14726:14728   */\n      0x20\n        /* \"#utility.yul\":14718:14724   */\n      dup3\n        /* \"#utility.yul\":14715:14729   */\n      lt\n        /* \"#utility.yul\":14695:14713   */\n      dup2\n        /* \"#utility.yul\":14692:14730   */\n      sub\n        /* \"#utility.yul\":14689:14773   */\n      tag_301\n      jumpi\n        /* \"#utility.yul\":14745:14763   */\n      tag_302\n      tag_158\n      jump\t// in\n    tag_302:\n        /* \"#utility.yul\":14689:14773   */\n    tag_301:\n        /* \"#utility.yul\":14510:14779   */\n      pop\n        /* \"#utility.yul\":14459:14779   */\n      swap2\n      swap1\n      pop\n      jump\t// out\n        /* \"#utility.yul\":14785:14961   */\n    tag_159:\n        /* \"#utility.yul\":14925:14953   */\n      0x4173736f63696174696f6e20616c726561647920657869737473000000000000\n        /* \"#utility.yul\":14921:14922   */\n      0x00\n        /* \"#utility.yul\":14913:14919   */\n      dup3\n        /* \"#utility.yul\":14909:14923   */\n      add\n        /* \"#utility.yul\":14902:14954   */\n      mstore\n        /* \"#utility.yul\":14785:14961   */\n      pop\n      jump\t// out\n        /* \"#utility.yul\":14967:15333   */\n    tag_160:\n        /* \"#utility.yul\":15109:15112   */\n      0x00\n        /* \"#utility.yul\":15130:15197   */\n      tag_305\n        /* \"#utility.yul\":15194:15196   */\n      0x1a\n        /* \"#utility.yul\":15189:15192   */\n      dup4\n        /* \"#utility.yul\":15130:15197   */\n      tag_139\n      jump\t// in\n    tag_305:\n        /* \"#utility.yul\":15123:15197   */\n      swap2\n      pop\n        /* \"#utility.yul\":15206:15299   */\n      tag_306\n        /* \"#utility.yul\":15295:15298   */\n      dup3\n        /* \"#utility.yul\":15206:15299   */\n      tag_159\n      jump\t// in\n    tag_306:\n        /* \"#utility.yul\":15324:15326   */\n      0x20\n        /* \"#utility.yul\":15319:15322   */\n      dup3\n        /* \"#utility.yul\":15315:15327   */\n      add\n        /* \"#utility.yul\":15308:15327   */\n      swap1\n      pop\n        /* \"#utility.yul\":14967:15333   */\n      swap2\n      swap1\n      pop\n      jump\t// out\n        /* \"#utility.yul\":15339:15758   */\n    tag_33:\n        /* \"#utility.yul\":15505:15509   */\n      0x00\n        /* \"#utility.yul\":15543:15545   */\n      0x20\n        /* \"#utility.yul\":15532:15541   */\n      dup3\n        /* \"#utility.yul\":15528:15546   */\n      add\n        /* \"#utility.yul\":15520:15546   */\n      swap1\n      pop\n        /* \"#utility.yul\":15592:15601   */\n      dup2\n        /* \"#utility.yul\":15586:15590   */\n      dup2\n        /* \"#utility.yul\":15582:15602   */\n      sub\n        /* \"#utility.yul\":15578:15579   */\n      0x00\n        /* \"#utility.yul\":15567:15576   */\n      dup4\n        /* \"#utility.yul\":15563:15580   */\n      add\n        /* \"#utility.yul\":15556:15603   */\n      mstore\n        /* \"#utility.yul\":15620:15751   */\n      tag_308\n        /* \"#utility.yul\":15746:15750   */\n      dup2\n        /* \"#utility.yul\":15620:15751   */\n      tag_160\n      jump\t// in\n    tag_308:\n        /* \"#utility.yul\":15612:15751   */\n      swap1\n      pop\n        /* \"#utility.yul\":15339:15758   */\n      swap2\n      swap1\n      pop\n      jump\t// out\n        /* \"#utility.yul\":15764:15905   */\n    tag_161:\n        /* \"#utility.yul\":15813:15817   */\n      0x00\n        /* \"#utility.yul\":15836:15839   */\n      dup2\n        /* \"#utility.yul\":15828:15839   */\n      swap1\n      pop\n        /* \"#utility.yul\":15859:15862   */\n      dup2\n        /* \"#utility.yul\":15856:15857   */\n      0x00\n        /* \"#utility.yul\":15849:15863   */\n      mstore\n        /* \"#utility.yul\":15893:15897   */\n      0x20\n        /* \"#utility.yul\":15890:15891   */\n      0x00\n        /* \"#utility.yul\":15880:15898   */\n      keccak256\n        /* \"#utility.yul\":15872:15898   */\n      swap1\n      pop\n        /* \"#utility.yul\":15764:15905   */\n      swap2\n      swap1\n      pop\n      jump\t// out\n        /* \"#utility.yul\":15911:16004   */\n    tag_162:\n        /* \"#utility.yul\":15948:15954   */\n      0x00\n        /* \"#utility.yul\":15995:15997   */\n      0x20\n        /* \"#utility.yul\":15990:15992   */\n      0x1f\n        /* \"#utility.yul\":15983:15988   */\n      dup4\n        /* \"#utility.yul\":15979:15993   */\n      add\n        /* \"#utility.yul\":15975:15998   */\n      div\n        /* \"#utility.yul\":15965:15998   */\n      swap1\n      pop\n        /* \"#utility.yul\":15911:16004   */\n      swap2\n      swap1\n      pop\n      jump\t// out\n        /* \"#utility.yul\":16010:16117   */\n    tag_163:\n        /* \"#utility.yul\":16054:16062   */\n      0x00\n        /* \"#utility.yul\":16104:16109   */\n      dup3\n        /* \"#utility.yul\":16098:16102   */\n      dup3\n        /* \"#utility.yul\":16094:16110   */\n      shl\n        /* \"#utility.yul\":16073:16110   */\n      swap1\n      pop\n        /* \"#utility.yul\":16010:16117   */\n      swap3\n      swap2\n      pop\n      pop\n      jump\t// out\n        /* \"#utility.yul\":16123:16516   */\n    tag_164:\n        /* \"#utility.yul\":16192:16198   */\n      0x00\n        /* \"#utility.yul\":16242:16243   */\n      0x08\n        /* \"#utility.yul\":16230:16240   */\n      dup4\n        /* \"#utility.yul\":16226:16244   */\n      mul\n        /* \"#utility.yul\":16265:16362   */\n      tag_313\n        /* \"#utility.yul\":16295:16361   */\n      0xffffffffffffffffffffffffffffffffffffffffffffffffffffffffffffffff\n        /* \"#utility.yul\":16284:16293   */\n      dup3\n        /* \"#utility.yul\":16265:16362   */\n      tag_163\n      jump\t// in\n    tag_313:\n        /* \"#utility.yul\":16383:16422   */\n      tag_314\n        /* \"#utility.yul\":16413:16421   */\n      dup7\n        /* \"#utility.yul\":16402:16411   */\n      dup4\n        /* \"#utility.yul\":16383:16422   */\n      tag_163\n      jump\t// in\n    tag_314:\n        /* \"#utility.yul\":16371:16422   */\n      swap6\n      pop\n        /* \"#utility.yul\":16455:16459   */\n      dup1\n        /* \"#utility.yul\":16451:16460   */\n      not\n        /* \"#utility.yul\":16444:16449   */\n      dup5\n        /* \"#utility.yul\":16440:16461   */\n      and\n        /* \"#utility.yul\":16431:16461   */\n      swap4\n      pop\n        /* \"#utility.yul\":16504:16508   */\n      dup1\n        /* \"#utility.yul\":16494:16502   */\n      dup7\n        /* \"#utility.yul\":16490:16509   */\n      and\n        /* \"#utility.yul\":16483:16488   */\n      dup5\n        /* \"#utility.yul\":16480:16510   */\n      or\n        /* \"#utility.yul\":16470:16510   */\n      swap3\n      pop\n        /* \"#utility.yul\":16199:16516   */\n      pop\n      pop\n        /* \"#utility.yul\":16123:16516   */\n      swap4\n      swap3\n      pop\n      pop\n      pop\n      jump\t// out\n        /* \"#utility.yul\":16522:16599   */\n    tag_165:\n        /* \"#utility.yul\":16559:16566   */\n      0x00\n        /* \"#utility.yul\":16588:16593   */\n      dup2\n        /* \"#utility.yul\":16577:16593   */\n      swap1\n      pop\n        /* \"#utility.yul\":16522:16599   */\n      swap2\n      swap1\n      pop\n      jump\t// out\n        /* \"#utility.yul\":16605:16665   */\n    tag_166:\n        /* \"#utility.yul\":16633:16636   */\n      0x00\n        /* \"#utility.yul\":16654:16659   */\n      dup2\n        /* \"#utility.yul\":16647:16659   */\n      swap1\n      pop\n        /* \"#utility.yul\":16605:16665   */\n      swap2\n      swap1\n      pop\n      jump\t// out\n        /* \"#utility.yul\":16671:16813   */\n    tag_167:\n        /* \"#utility.yul\":16721:16730   */\n      0x00\n        /* \"#utility.yul\":16754:16807   */\n      tag_318\n        /* \"#utility.yul\":16772:16806   */\n      tag_319\n        /* \"#utility.yul\":16781:16805   */\n      tag_320\n        /* \"#utility.yul\":16799:16804   */\n      dup5\n        /* \"#utility.yul\":16781:16805   */\n      tag_165\n      jump\t// in\n    tag_320:\n        /* \"#utility.yul\":16772:16806   */\n      tag_166\n      jump\t// in\n    tag_319:\n        /* \"#utility.yul\":16754:16807   */\n      tag_165\n      jump\t// in\n    tag_318:\n        /* \"#utility.yul\":16741:16807   */\n      swap1\n      pop\n        /* \"#utility.yul\":16671:16813   */\n      swap2\n      swap1\n      pop\n      jump\t// out\n        /* \"#utility.yul\":16819:16894   */\n    tag_168:\n        /* \"#utility.yul\":16862:16865   */\n      0x00\n        /* \"#utility.yul\":16883:16888   */\n      dup2\n        /* \"#utility.yul\":16876:16888   */\n      swap1\n      pop\n        /* \"#utility.yul\":16819:16894   */\n      swap2\n      swap1\n      pop\n      jump\t// out\n        /* \"#utility.yul\":16900:17169   */\n    tag_169:\n        /* \"#utility.yul\":17010:17049   */\n      tag_323\n        /* \"#utility.yul\":17041:17048   */\n      dup4\n        /* \"#utility.yul\":17010:17049   */\n      tag_167\n      jump\t// in\n    tag_323:\n        /* \"#utility.yul\":17071:17162   */\n      tag_324\n        /* \"#utility.yul\":17120:17161   */\n      tag_325\n        /* \"#utility.yul\":17144:17160   */\n      dup3\n        /* \"#utility.yul\":17120:17161   */\n      tag_168\n      jump\t// in\n    tag_325:\n        /* \"#utility.yul\":17112:17118   */\n      dup5\n        /* \"#utility.yul\":17105:17109   */\n      dup5\n        /* \"#utility.yul\":17099:17110   */\n      sload\n        /* \"#utility.yul\":17071:17162   */\n      tag_164\n      jump\t// in\n    tag_324:\n        /* \"#utility.yul\":17065:17069   */\n      dup3\n        /* \"#utility.yul\":17058:17163   */\n      sstore\n        /* \"#utility.yul\":16976:17169   */\n      pop\n        /* \"#utility.yul\":16900:17169   */\n      pop\n      pop\n      pop\n      jump\t// out\n        /* \"#utility.yul\":17175:17248   */\n    tag_170:\n        /* \"#utility.yul\":17220:17223   */\n      0x00\n        /* \"#utility.yul\":17175:17248   */\n      swap1\n      jump\t// out\n        /* \"#utility.yul\":17254:17443   */\n    tag_171:\n        /* \"#utility.yul\":17331:17363   */\n      tag_328\n      tag_170\n      jump\t// in\n    tag_328:\n        /* \"#utility.yul\":17372:17437   */\n      tag_329\n        /* \"#utility.yul\":17430:17436   */\n      dup2\n        /* \"#utility.yul\":17422:17428   */\n      dup5\n        /* \"#utility.yul\":17416:17420   */\n      dup5\n        /* \"#utility.yul\":17372:17437   */\n      tag_169\n      jump\t// in\n    tag_329:\n        /* \"#utility.yul\":17307:17443   */\n      pop\n        /* \"#utility.yul\":17254:17443   */\n      pop\n      pop\n      jump\t// out\n        /* \"#utility.yul\":17449:17635   */\n    tag_172:\n        /* \"#utility.yul\":17509:17629   */\n    tag_331:\n        /* \"#utility.yul\":17526:17529   */\n      dup2\n        /* \"#utility.yul\":17519:17524   */\n      dup2\n        /* \"#utility.yul\":17516:17530   */\n      lt\n        /* \"#utility.yul\":17509:17629   */\n      iszero\n      tag_333\n      jumpi\n        /* \"#utility.yul\":17580:17619   */\n      tag_334\n        /* \"#utility.yul\":17617:17618   */\n      0x00\n        /* \"#utility.yul\":17610:17615   */\n      dup3\n        /* \"#utility.yul\":17580:17619   */\n      tag_171\n      jump\t// in\n    tag_334:\n        /* \"#utility.yul\":17553:17554   */\n      0x01\n        /* \"#utility.yul\":17546:17551   */\n      dup2\n        /* \"#utility.yul\":17542:17555   */\n      add\n        /* \"#utility.yul\":17533:17555   */\n      swap1\n      pop\n        /* \"#utility.yul\":17509:17629   */\n      jump(tag_331)\n    tag_333:\n        /* \"#utility.yul\":17449:17635   */\n      pop\n      pop\n      jump\t// out\n        /* \"#utility.yul\":17641:18184   */\n    tag_173:\n        /* \"#utility.yul\":17742:17744   */\n      0x1f\n        /* \"#utility.yul\":17737:17740   */\n      dup3\n        /* \"#utility.yul\":17734:17745   */\n      gt\n        /* \"#utility.yul\":17731:18177   */\n      iszero\n      tag_336\n      jumpi\n        /* \"#utility.yul\":17776:17814   */\n      tag_337\n        /* \"#utility.yul\":17808:17813   */\n      dup2\n        /* \"#utility.yul\":17776:17814   */\n      tag_161\n      jump\t// in\n    tag_337:\n        /* \"#utility.yul\":17860:17889   */\n      tag_338\n        /* \"#utility.yul\":17878:17888   */\n      dup5\n        /* \"#utility.yul\":17860:17889   */\n      tag_162\n      jump\t// in\n    tag_338:\n        /* \"#utility.yul\":17850:17858   */\n      dup2\n        /* \"#utility.yul\":17846:17890   */\n      add\n        /* \"#utility.yul\":18043:18045   */\n      0x20\n        /* \"#utility.yul\":18031:18041   */\n      dup6\n        /* \"#utility.yul\":18028:18046   */\n      lt\n        /* \"#utility.yul\":18025:18074   */\n      iszero\n      tag_339\n      jumpi\n        /* \"#utility.yul\":18064:18072   */\n      dup2\n        /* \"#utility.yul\":18049:18072   */\n      swap1\n      pop\n        /* \"#utility.yul\":18025:18074   */\n    tag_339:\n        /* \"#utility.yul\":18087:18167   */\n      tag_340\n        /* \"#utility.yul\":18143:18165   */\n      tag_341\n        /* \"#utility.yul\":18161:18164   */\n      dup6\n        /* \"#utility.yul\":18143:18165   */\n      tag_162\n      jump\t// in\n    tag_341:\n        /* \"#utility.yul\":18133:18141   */\n      dup4\n        /* \"#utility.yul\":18129:18166   */\n      add\n        /* \"#utility.yul\":18116:18127   */\n      dup3\n        /* \"#utility.yul\":18087:18167   */\n      tag_172\n      jump\t// in\n    tag_340:\n        /* \"#utility.yul\":17746:18177   */\n      pop\n      pop\n        /* \"#utility.yul\":17731:18177   */\n    tag_336:\n        /* \"#utility.yul\":17641:18184   */\n      pop\n      pop\n      pop\n      jump\t// out\n        /* \"#utility.yul\":18190:18307   */\n    tag_174:\n        /* \"#utility.yul\":18244:18252   */\n      0x00\n        /* \"#utility.yul\":18294:18299   */\n      dup3\n        /* \"#utility.yul\":18288:18292   */\n      dup3\n        /* \"#utility.yul\":18284:18300   */\n      shr\n        /* \"#utility.yul\":18263:18300   */\n      swap1\n      pop\n        /* \"#utility.yul\":18190:18307   */\n      swap3\n      swap2\n      pop\n      pop\n      jump\t// out\n        /* \"#utility.yul\":18313:18482   */\n    tag_175:\n        /* \"#utility.yul\":18357:18363   */\n      0x00\n        /* \"#utility.yul\":18390:18441   */\n      tag_344\n        /* \"#utility.yul\":18438:18439   */\n      0x00\n        /* \"#utility.yul\":18434:18440   */\n      not\n        /* \"#utility.yul\":18426:18431   */\n      dup5\n        /* \"#utility.yul\":18423:18424   */\n      0x08\n        /* \"#utility.yul\":18419:18432   */\n      mul\n        /* \"#utility.yul\":18390:18441   */\n      tag_174\n      jump\t// in\n    tag_344:\n        /* \"#utility.yul\":18386:18442   */\n      not\n        /* \"#utility.yul\":18471:18475   */\n      dup1\n        /* \"#utility.yul\":18465:18469   */\n      dup4\n        /* \"#utility.yul\":18461:18476   */\n      and\n        /* \"#utility.yul\":18451:18476   */\n      swap2\n      pop\n        /* \"#utility.yul\":18364:18482   */\n      pop\n        /* \"#utility.yul\":18313:18482   */\n      swap3\n      swap2\n      pop\n      pop\n      jump\t// out\n        /* \"#utility.yul\":18487:18782   */\n    tag_176:\n        /* \"#utility.yul\":18563:18567   */\n      0x00\n        /* \"#utility.yul\":18709:18738   */\n      tag_346\n        /* \"#utility.yul\":18734:18737   */\n      dup4\n        /* \"#utility.yul\":18728:18732   */\n      dup4\n        /* \"#utility.yul\":18709:18738   */\n      tag_175\n      jump\t// in\n    tag_346:\n        /* \"#utility.yul\":18701:18738   */\n      swap2\n      pop\n        /* \"#utility.yul\":18771:18774   */\n      dup3\n        /* \"#utility.yul\":18768:18769   */\n      0x02\n        /* \"#utility.yul\":18764:18775   */\n      mul\n        /* \"#utility.yul\":18758:18762   */\n      dup3\n        /* \"#utility.yul\":18755:18776   */\n      or\n        /* \"#utility.yul\":18747:18776   */\n      swap1\n      pop\n        /* \"#utility.yul\":18487:18782   */\n      swap3\n      swap2\n      pop\n      pop\n      jump\t// out\n        /* \"#utility.yul\":18787:20182   */\n    tag_36:\n        /* \"#utility.yul\":18904:18941   */\n      tag_348\n        /* \"#utility.yul\":18937:18940   */\n      dup3\n        /* \"#utility.yul\":18904:18941   */\n      tag_138\n      jump\t// in\n    tag_348:\n        /* \"#utility.yul\":19006:19024   */\n      0xffffffffffffffff\n        /* \"#utility.yul\":18998:19004   */\n      dup2\n        /* \"#utility.yul\":18995:19025   */\n      gt\n        /* \"#utility.yul\":18992:19048   */\n      iszero\n      tag_349\n      jumpi\n        /* \"#utility.yul\":19028:19046   */\n      tag_350\n      tag_65\n      jump\t// in\n    tag_350:\n        /* \"#utility.yul\":18992:19048   */\n    tag_349:\n        /* \"#utility.yul\":19072:19110   */\n      tag_351\n        /* \"#utility.yul\":19104:19108   */\n      dup3\n        /* \"#utility.yul\":19098:19109   */\n      sload\n        /* \"#utility.yul\":19072:19110   */\n      tag_30\n      jump\t// in\n    tag_351:\n        /* \"#utility.yul\":19157:19224   */\n      tag_352\n        /* \"#utility.yul\":19217:19223   */\n      dup3\n        /* \"#utility.yul\":19209:19215   */\n      dup3\n        /* \"#utility.yul\":19203:19207   */\n      dup6\n        /* \"#utility.yul\":19157:19224   */\n      tag_173\n      jump\t// in\n    tag_352:\n        /* \"#utility.yul\":19251:19252   */\n      0x00\n        /* \"#utility.yul\":19275:19279   */\n      0x20\n        /* \"#utility.yul\":19262:19279   */\n      swap1\n      pop\n        /* \"#utility.yul\":19307:19309   */\n      0x1f\n        /* \"#utility.yul\":19299:19305   */\n      dup4\n        /* \"#utility.yul\":19296:19310   */\n      gt\n        /* \"#utility.yul\":19324:19325   */\n      0x01\n        /* \"#utility.yul\":19319:19937   */\n      dup2\n      eq\n      tag_354\n      jumpi\n        /* \"#utility.yul\":19981:19982   */\n      0x00\n        /* \"#utility.yul\":19998:20004   */\n      dup5\n        /* \"#utility.yul\":19995:20072   */\n      iszero\n      tag_355\n      jumpi\n        /* \"#utility.yul\":20047:20056   */\n      dup3\n        /* \"#utility.yul\":20042:20045   */\n      dup8\n        /* \"#utility.yul\":20038:20057   */\n      add\n        /* \"#utility.yul\":20032:20058   */\n      mload\n        /* \"#utility.yul\":20023:20058   */\n      swap1\n      pop\n        /* \"#utility.yul\":19995:20072   */\n    tag_355:\n        /* \"#utility.yul\":20098:20165   */\n      tag_356\n        /* \"#utility.yul\":20158:20164   */\n      dup6\n        /* \"#utility.yul\":20151:20156   */\n      dup3\n        /* \"#utility.yul\":20098:20165   */\n      tag_176\n      jump\t// in\n    tag_356:\n        /* \"#utility.yul\":20092:20096   */\n      dup7\n        /* \"#utility.yul\":20085:20166   */\n      sstore\n        /* \"#utility.yul\":19954:20176   */\n      pop\n        /* \"#utility.yul\":19289:20176   */\n      jump(tag_353)\n        /* \"#utility.yul\":19319:19937   */\n    tag_354:\n        /* \"#utility.yul\":19371:19375   */\n      0x1f\n        /* \"#utility.yul\":19367:19376   */\n      not\n        /* \"#utility.yul\":19359:19365   */\n      dup5\n        /* \"#utility.yul\":19355:19377   */\n      and\n        /* \"#utility.yul\":19405:19442   */\n      tag_357\n        /* \"#utility.yul\":19437:19441   */\n      dup7\n        /* \"#utility.yul\":19405:19442   */\n      tag_161\n      jump\t// in\n    tag_357:\n        /* \"#utility.yul\":19464:19465   */\n      0x00\n        /* \"#utility.yul\":19478:19686   */\n    tag_358:\n        /* \"#utility.yul\":19492:19499   */\n      dup3\n        /* \"#utility.yul\":19489:19490   */\n      dup2\n        /* \"#utility.yul\":19486:19500   */\n      lt\n        /* \"#utility.yul\":19478:19686   */\n      iszero\n      tag_360\n      jumpi\n        /* \"#utility.yul\":19571:19580   */\n      dup5\n        /* \"#utility.yul\":19566:19569   */\n      dup10\n        /* \"#utility.yul\":19562:19581   */\n      add\n        /* \"#utility.yul\":19556:19582   */\n      mload\n        /* \"#utility.yul\":19548:19554   */\n      dup3\n        /* \"#utility.yul\":19541:19583   */\n      sstore\n        /* \"#utility.yul\":19622:19623   */\n      0x01\n        /* \"#utility.yul\":19614:19620   */\n      dup3\n        /* \"#utility.yul\":19610:19624   */\n      add\n        /* \"#utility.yul\":19600:19624   */\n      swap2\n      pop\n        /* \"#utility.yul\":19669:19671   */\n      0x20\n        /* \"#utility.yul\":19658:19667   */\n      dup6\n        /* \"#utility.yul\":19654:19672   */\n      add\n        /* \"#utility.yul\":19641:19672   */\n      swap5\n      pop\n        /* \"#utility.yul\":19515:19519   */\n      0x20\n        /* \"#utility.yul\":19512:19513   */\n      dup2\n        /* \"#utility.yul\":19508:19520   */\n      add\n        /* \"#utility.yul\":19503:19520   */\n      swap1\n      pop\n        /* \"#utility.yul\":19478:19686   */\n      jump(tag_358)\n    tag_360:\n        /* \"#utility.yul\":19714:19720   */\n      dup7\n        /* \"#utility.yul\":19705:19712   */\n      dup4\n        /* \"#utility.yul\":19702:19721   */\n      lt\n        /* \"#utility.yul\":19699:19878   */\n      iszero\n      tag_361\n      jumpi\n        /* \"#utility.yul\":19772:19781   */\n      dup5\n        /* \"#utility.yul\":19767:19770   */\n      dup10\n        /* \"#utility.yul\":19763:19782   */\n      add\n        /* \"#utility.yul\":19757:19783   */\n      mload\n        /* \"#utility.yul\":19815:19863   */\n      tag_362\n        /* \"#utility.yul\":19857:19861   */\n      0x1f\n        /* \"#utility.yul\":19849:19855   */\n      dup10\n        /* \"#utility.yul\":19845:19862   */\n      and\n        /* \"#utility.yul\":19834:19843   */\n      dup3\n        /* \"#utility.yul\":19815:19863   */\n      tag_175\n      jump\t// in\n    tag_362:\n        /* \"#utility.yul\":19807:19813   */\n      dup4\n        /* \"#utility.yul\":19800:19864   */\n      sstore\n        /* \"#utility.yul\":19722:19878   */\n      pop\n        /* \"#utility.yul\":19699:19878   */\n    tag_361:\n        /* \"#utility.yul\":19924:19925   */\n      0x01\n        /* \"#utility.yul\":19920:19921   */\n      0x02\n        /* \"#utility.yul\":19912:19918   */\n      dup9\n        /* \"#utility.yul\":19908:19922   */\n      mul\n        /* \"#utility.yul\":19904:19926   */\n      add\n        /* \"#utility.yul\":19898:19902   */\n      dup9\n        /* \"#utility.yul\":19891:19927   */\n      sstore\n        /* \"#utility.yul\":19326:19937   */\n      pop\n      pop\n      pop\n        /* \"#utility.yul\":19289:20176   */\n    tag_353:\n      pop\n        /* \"#utility.yul\":18879:20182   */\n      pop\n      pop\n      pop\n        /* \"#utility.yul\":18787:20182   */\n      pop\n      pop\n      jump\t// out\n        /* \"#utility.yul\":20188:20368   */\n    tag_75:\n        /* \"#utility.yul\":20236:20313   */\n      0x4e487b7100000000000000000000000000000000000000000000000000000000\n        /* \"#utility.yul\":20233:20234   */\n      0x00\n        /* \"#utility.yul\":20226:20314   */\n      mstore\n        /* \"#utility.yul\":20333:20337   */\n      0x32\n        /* \"#utility.yul\":20330:20331   */\n      0x04\n        /* \"#utility.yul\":20323:20338   */\n      mstore\n        /* \"#utility.yul\":20357:20361   */\n      0x24\n        /* \"#utility.yul\":20354:20355   */\n      0x00\n        /* \"#utility.yul\":20347:20362   */\n      revert\n        /* \"#utility.yul\":20398:21272   */\n    tag_177:\n        /* \"#utility.yul\":20501:20504   */\n      0x00\n        /* \"#utility.yul\":20538:20543   */\n      dup2\n        /* \"#utility.yul\":20532:20544   */\n      sload\n        /* \"#utility.yul\":20567:20603   */\n      tag_365\n        /* \"#utility.yul\":20593:20602   */\n      dup2\n        /* \"#utility.yul\":20567:20603   */\n      tag_30\n      jump\t// in\n    tag_365:\n        /* \"#utility.yul\":20619:20708   */\n      tag_366\n        /* \"#utility.yul\":20701:20707   */\n      dup2\n        /* \"#utility.yul\":20696:20699   */\n      dup7\n        /* \"#utility.yul\":20619:20708   */\n      tag_156\n      jump\t// in\n    tag_366:\n        /* \"#utility.yul\":20612:20708   */\n      swap5\n      pop\n        /* \"#utility.yul\":20739:20740   */\n      0x01\n        /* \"#utility.yul\":20728:20737   */\n      dup3\n        /* \"#utility.yul\":20724:20741   */\n      and\n        /* \"#utility.yul\":20755:20756   */\n      0x00\n        /* \"#utility.yul\":20750:20916   */\n      dup2\n      eq\n      tag_368\n      jumpi\n        /* \"#utility.yul\":20930:20931   */\n      0x01\n        /* \"#utility.yul\":20925:21266   */\n      dup2\n      eq\n      tag_369\n      jumpi\n        /* \"#utility.yul\":20717:21266   */\n      jump(tag_367)\n        /* \"#utility.yul\":20750:20916   */\n    tag_368:\n        /* \"#utility.yul\":20834:20838   */\n      0xff\n        /* \"#utility.yul\":20830:20839   */\n      not\n        /* \"#utility.yul\":20819:20828   */\n      dup4\n        /* \"#utility.yul\":20815:20840   */\n      and\n        /* \"#utility.yul\":20810:20813   */\n      dup7\n        /* \"#utility.yul\":20803:20841   */\n      mstore\n        /* \"#utility.yul\":20896:20902   */\n      dup2\n        /* \"#utility.yul\":20889:20903   */\n      iszero\n        /* \"#utility.yul\":20882:20904   */\n      iszero\n        /* \"#utility.yul\":20874:20880   */\n      dup3\n        /* \"#utility.yul\":20870:20905   */\n      mul\n        /* \"#utility.yul\":20865:20868   */\n      dup7\n        /* \"#utility.yul\":20861:20906   */\n      add\n        /* \"#utility.yul\":20854:20906   */\n      swap4\n      pop\n        /* \"#utility.yul\":20750:20916   */\n      jump(tag_367)\n        /* \"#utility.yul\":20925:21266   */\n    tag_369:\n        /* \"#utility.yul\":20992:21030   */\n      tag_370\n        /* \"#utility.yul\":21024:21029   */\n      dup6\n        /* \"#utility.yul\":20992:21030   */\n      tag_161\n      jump\t// in\n    tag_370:\n        /* \"#utility.yul\":21052:21053   */\n      0x00\n        /* \"#utility.yul\":21066:21220   */\n    tag_371:\n        /* \"#utility.yul\":21080:21086   */\n      dup4\n        /* \"#utility.yul\":21077:21078   */\n      dup2\n        /* \"#utility.yul\":21074:21087   */\n      lt\n        /* \"#utility.yul\":21066:21220   */\n      iszero\n      tag_373\n      jumpi\n        /* \"#utility.yul\":21154:21161   */\n      dup2\n        /* \"#utility.yul\":21148:21162   */\n      sload\n        /* \"#utility.yul\":21144:21145   */\n      dup2\n        /* \"#utility.yul\":21139:21142   */\n      dup10\n        /* \"#utility.yul\":21135:21146   */\n      add\n        /* \"#utility.yul\":21128:21163   */\n      mstore\n        /* \"#utility.yul\":21204:21205   */\n      0x01\n        /* \"#utility.yul\":21195:21202   */\n      dup3\n        /* \"#utility.yul\":21191:21206   */\n      add\n        /* \"#utility.yul\":21180:21206   */\n      swap2\n      pop\n        /* \"#utility.yul\":21102:21106   */\n      0x20\n        /* \"#utility.yul\":21099:21100   */\n      dup2\n        /* \"#utility.yul\":21095:21107   */\n      add\n        /* \"#utility.yul\":21090:21107   */\n      swap1\n      pop\n        /* \"#utility.yul\":21066:21220   */\n      jump(tag_371)\n    tag_373:\n        /* \"#utility.yul\":21249:21255   */\n      dup4\n        /* \"#utility.yul\":21244:21247   */\n      dup9\n        /* \"#utility.yul\":21240:21256   */\n      add\n        /* \"#utility.yul\":21233:21256   */\n      swap6\n      pop\n        /* \"#utility.yul\":20932:21266   */\n      pop\n      pop\n        /* \"#utility.yul\":20717:21266   */\n    tag_367:\n      pop\n        /* \"#utility.yul\":20505:21272   */\n      pop\n      pop\n        /* \"#utility.yul\":20398:21272   */\n      swap3\n      swap2\n      pop\n      pop\n      jump\t// out\n        /* \"#utility.yul\":21278:21547   */\n    tag_78:\n        /* \"#utility.yul\":21407:21410   */\n      0x00\n        /* \"#utility.yul\":21429:21521   */\n      tag_375\n        /* \"#utility.yul\":21517:21520   */\n      dup3\n        /* \"#utility.yul\":21508:21514   */\n      dup5\n        /* \"#utility.yul\":21429:21521   */\n      tag_177\n      jump\t// in\n    tag_375:\n        /* \"#utility.yul\":21422:21521   */\n      swap2\n      pop\n        /* \"#utility.yul\":21538:21541   */\n      dup2\n        /* \"#utility.yul\":21531:21541   */\n      swap1\n      pop\n        /* \"#utility.yul\":21278:21547   */\n      swap3\n      swap2\n      pop\n      pop\n      jump\t// out\n        /* \"#utility.yul\":21553:21733   */\n    tag_178:\n        /* \"#utility.yul\":21601:21678   */\n      0x4e487b7100000000000000000000000000000000000000000000000000000000\n        /* \"#utility.yul\":21598:21599   */\n      0x00\n        /* \"#utility.yul\":21591:21679   */\n      mstore\n        /* \"#utility.yul\":21698:21702   */\n      0x11\n        /* \"#utility.yul\":21695:21696   */\n      0x04\n        /* \"#utility.yul\":21688:21703   */\n      mstore\n        /* \"#utility.yul\":21722:21726   */\n      0x24\n        /* \"#utility.yul\":21719:21720   */\n      0x00\n        /* \"#utility.yul\":21712:21727   */\n      revert\n        /* \"#utility.yul\":21739:21972   */\n    tag_102:\n        /* \"#utility.yul\":21778:21781   */\n      0x00\n        /* \"#utility.yul\":21801:21825   */\n      tag_378\n        /* \"#utility.yul\":21819:21824   */\n      dup3\n        /* \"#utility.yul\":21801:21825   */\n      tag_165\n      jump\t// in\n    tag_378:\n        /* \"#utility.yul\":21792:21825   */\n      swap2\n      pop\n        /* \"#utility.yul\":21847:21913   */\n      0xffffffffffffffffffffffffffffffffffffffffffffffffffffffffffffffff\n        /* \"#utility.yul\":21840:21845   */\n      dup3\n        /* \"#utility.yul\":21837:21914   */\n      sub\n        /* \"#utility.yul\":21834:21937   */\n      tag_379\n      jumpi\n        /* \"#utility.yul\":21917:21935   */\n      tag_380\n      tag_178\n      jump\t// in\n    tag_380:\n        /* \"#utility.yul\":21834:21937   */\n    tag_379:\n        /* \"#utility.yul\":21964:21965   */\n      0x01\n        /* \"#utility.yul\":21957:21962   */\n      dup3\n        /* \"#utility.yul\":21953:21966   */\n      add\n        /* \"#utility.yul\":21946:21966   */\n      swap1\n      pop\n        /* \"#utility.yul\":21739:21972   */\n      swap2\n      swap1\n      pop\n      jump\t// out\n\n    auxdata: 0xa2646970667358221220284c20ffab0a8193f3b47f576687e46acd6477a8677f5d6be79f88b014052da764736f6c63430008140033\n}\n","bytecode":{"linkReferences":{},"object":"608060405234801561000f575f80fd5b5061167d8061001d5f395ff3fe608060405234801561000f575f80fd5b506004361061004a575f3560e01c8063464925631461004e5780636aec2c7d1461006a5780636dcef6971461009e5780638bf18321146100bc575b5f80fd5b61006860048036038101906100639190610ce3565b6100ec565b005b610084600480360381019061007f9190610db7565b61028a565b604051610095959493929190610eb7565b60405180910390f35b6100a661050a565b6040516100b391906110be565b60405180910390f35b6100d660048036038101906100d19190610db7565b610887565b6040516100e39190611166565b60405180910390f35b5f80856040516100fc91906111c0565b90815260200160405180910390205f01805461011790611203565b905014610159576040517f08c379a00000000000000000000000000000000000000000000000000000000081526004016101509061127d565b60405180910390fd5b6040518060a001604052808581526020018481526020018381526020018281526020013373ffffffffffffffffffffffffffffffffffffffff168152505f856040516101a591906111c0565b90815260200160405180910390205f820151815f0190816101c69190611441565b5060208201518160010190816101dc9190611441565b5060408201518160020190816101f29190611441565b5060608201518160030190816102089190611441565b506080820151816004015f6101000a81548173ffffffffffffffffffffffffffffffffffffffff021916908373ffffffffffffffffffffffffffffffffffffffff160217905550905050600184908060018154018082558091505060019003905f5260205f20015f9091909190915090816102839190611441565b5050505050565b5f818051602081018201805184825260208301602085012081835280955050505050505f91509050805f0180546102c090611203565b80601f01602080910402602001604051908101604052809291908181526020018280546102ec90611203565b80156103375780601f1061030e57610100808354040283529160200191610337565b820191905f5260205f20905b81548152906001019060200180831161031a57829003601f168201915b50505050509080600101805461034c90611203565b80601f016020809104026020016040519081016040528092919081815260200182805461037890611203565b80156103c35780601f1061039a576101008083540402835291602001916103c3565b820191905f5260205f20905b8154815290600101906020018083116103a657829003601f168201915b5050505050908060020180546103d890611203565b80601f016020809104026020016040519081016040528092919081815260200182805461040490611203565b801561044f5780601f106104265761010080835404028352916020019161044f565b820191905f5260205f20905b81548152906001019060200180831161043257829003601f168201915b50505050509080600301805461046490611203565b80601f016020809104026020016040519081016040528092919081815260200182805461049090611203565b80156104db5780601f106104b2576101008083540402835291602001916104db565b820191905f5260205f20905b8154815290600101906020018083116104be57829003601f168201915b505050505090806004015f9054906101000a900473ffffffffffffffffffffffffffffffffffffffff16905085565b60605f60018054905067ffffffffffffffff81111561052c5761052b610bbf565b5b60405190808252806020026020018201604052801561056557816020015b610552610b52565b81526020019060019003908161054a5790505b5090505f5b60018054905081101561087f575f6001828154811061058c5761058b611510565b5b905f5260205f20016040516105a191906115bd565b90815260200160405180910390206040518060a00160405290815f820180546105c990611203565b80601f01602080910402602001604051908101604052809291908181526020018280546105f590611203565b80156106405780601f1061061757610100808354040283529160200191610640565b820191905f5260205f20905b81548152906001019060200180831161062357829003601f168201915b5050505050815260200160018201805461065990611203565b80601f016020809104026020016040519081016040528092919081815260200182805461068590611203565b80156106d05780601f106106a7576101008083540402835291602001916106d0565b820191905f5260205f20905b8154815290600101906020018083116106b357829003601f168201915b505050505081526020016002820180546106e990611203565b80601f016020809104026020016040519081016040528092919081815260200182805461071590611203565b80156107605780601f1061073757610100808354040283529160200191610760565b820191905f5260205f20905b81548152906001019060200180831161074357829003601f168201915b5050505050815260200160038201805461077990611203565b80601f01602080910402602001604051908101604052809291908181526020018280546107a590611203565b80156107f05780601f106107c7576101008083540402835291602001916107f0565b820191905f5260205f20905b8154815290600101906020018083116107d357829003601f168201915b50505050508152602001600482015f9054906101000a900473ffffffffffffffffffffffffffffffffffffffff1673ffffffffffffffffffffffffffffffffffffffff1673ffffffffffffffffffffffffffffffffffffffff168152505082828151811061086157610860611510565b5b6020026020010181905250808061087790611600565b91505061056a565b508091505090565b61088f610b52565b5f8260405161089e91906111c0565b90815260200160405180910390206040518060a00160405290815f820180546108c690611203565b80601f01602080910402602001604051908101604052809291908181526020018280546108f290611203565b801561093d5780601f106109145761010080835404028352916020019161093d565b820191905f5260205f20905b81548152906001019060200180831161092057829003601f168201915b5050505050815260200160018201805461095690611203565b80601f016020809104026020016040519081016040528092919081815260200182805461098290611203565b80156109cd5780601f106109a4576101008083540402835291602001916109cd565b820191905f5260205f20905b8154815290600101906020018083116109b057829003601f168201915b505050505081526020016002820180546109e690611203565b80601f0160208091040260200160405190810160405280929190818152602001828054610a1290611203565b8015610a5d5780601f10610a3457610100808354040283529160200191610a5d565b820191905f5260205f20905b815481529060010190602001808311610a4057829003601f168201915b50505050508152602001600382018054610a7690611203565b80601f0160208091040260200160405190810160405280929190818152602001828054610aa290611203565b8015610aed5780601f10610ac457610100808354040283529160200191610aed565b820191905f5260205f20905b815481529060010190602001808311610ad057829003601f168201915b50505050508152602001600482015f9054906101000a900473ffffffffffffffffffffffffffffffffffffffff1673ffffffffffffffffffffffffffffffffffffffff1673ffffffffffffffffffffffffffffffffffffffff16815250509050919050565b6040518060a00160405280606081526020016060815260200160608152602001606081526020015f73ffffffffffffffffffffffffffffffffffffffff1681525090565b5f604051905090565b5f80fd5b5f80fd5b5f80fd5b5f80fd5b5f601f19601f8301169050919050565b7f4e487b71000000000000000000000000000000000000000000000000000000005f52604160045260245ffd5b610bf582610baf565b810181811067ffffffffffffffff82111715610c1457610c13610bbf565b5b80604052505050565b5f610c26610b96565b9050610c328282610bec565b919050565b5f67ffffffffffffffff821115610c5157610c50610bbf565b5b610c5a82610baf565b9050602081019050919050565b828183375f83830152505050565b5f610c87610c8284610c37565b610c1d565b905082815260208101848484011115610ca357610ca2610bab565b5b610cae848285610c67565b509392505050565b5f82601f830112610cca57610cc9610ba7565b5b8135610cda848260208601610c75565b91505092915050565b5f805f8060808587031215610cfb57610cfa610b9f565b5b5f85013567ffffffffffffffff811115610d1857610d17610ba3565b5b610d2487828801610cb6565b945050602085013567ffffffffffffffff811115610d4557610d44610ba3565b5b610d5187828801610cb6565b935050604085013567ffffffffffffffff811115610d7257610d71610ba3565b5b610d7e87828801610cb6565b925050606085013567ffffffffffffffff811115610d9f57610d9e610ba3565b5b610dab87828801610cb6565b91505092959194509250565b5f60208284031215610dcc57610dcb610b9f565b5b5f82013567ffffffffffffffff811115610de957610de8610ba3565b5b610df584828501610cb6565b91505092915050565b5f81519050919050565b5f82825260208201905092915050565b5f5b83811015610e35578082015181840152602081019050610e1a565b5f8484015250505050565b5f610e4a82610dfe565b610e548185610e08565b9350610e64818560208601610e18565b610e6d81610baf565b840191505092915050565b5f73ffffffffffffffffffffffffffffffffffffffff82169050919050565b5f610ea182610e78565b9050919050565b610eb181610e97565b82525050565b5f60a0820190508181035f830152610ecf8188610e40565b90508181036020830152610ee38187610e40565b90508181036040830152610ef78186610e40565b90508181036060830152610f0b8185610e40565b9050610f1a6080830184610ea8565b9695505050505050565b5f81519050919050565b5f82825260208201905092915050565b5f819050602082019050919050565b5f82825260208201905092915050565b5f610f6782610dfe565b610f718185610f4d565b9350610f81818560208601610e18565b610f8a81610baf565b840191505092915050565b610f9e81610e97565b82525050565b5f60a083015f8301518482035f860152610fbe8282610f5d565b91505060208301518482036020860152610fd88282610f5d565b91505060408301518482036040860152610ff28282610f5d565b9150506060830151848203606086015261100c8282610f5d565b91505060808301516110216080860182610f95565b508091505092915050565b5f6110378383610fa4565b905092915050565b5f602082019050919050565b5f61105582610f24565b61105f8185610f2e565b93508360208202850161107185610f3e565b805f5b858110156110ac578484038952815161108d858261102c565b94506110988361103f565b925060208a01995050600181019050611074565b50829750879550505050505092915050565b5f6020820190508181035f8301526110d6818461104b565b905092915050565b5f60a083015f8301518482035f8601526110f88282610f5d565b915050602083015184820360208601526111128282610f5d565b9150506040830151848203604086015261112c8282610f5d565b915050606083015184820360608601526111468282610f5d565b915050608083015161115b6080860182610f95565b508091505092915050565b5f6020820190508181035f83015261117e81846110de565b905092915050565b5f81905092915050565b5f61119a82610dfe565b6111a48185611186565b93506111b4818560208601610e18565b80840191505092915050565b5f6111cb8284611190565b915081905092915050565b7f4e487b71000000000000000000000000000000000000000000000000000000005f52602260045260245ffd5b5f600282049050600182168061121a57607f821691505b60208210810361122d5761122c6111d6565b5b50919050565b7f4173736f63696174696f6e20616c7265616479206578697374730000000000005f82015250565b5f611267601a83610e08565b915061127282611233565b602082019050919050565b5f6020820190508181035f8301526112948161125b565b9050919050565b5f819050815f5260205f209050919050565b5f6020601f8301049050919050565b5f82821b905092915050565b5f600883026112f77fffffffffffffffffffffffffffffffffffffffffffffffffffffffffffffffff826112bc565b61130186836112bc565b95508019841693508086168417925050509392505050565b5f819050919050565b5f819050919050565b5f61134561134061133b84611319565b611322565b611319565b9050919050565b5f819050919050565b61135e8361132b565b61137261136a8261134c565b8484546112c8565b825550505050565b5f90565b61138661137a565b611391818484611355565b505050565b5b818110156113b4576113a95f8261137e565b600181019050611397565b5050565b601f8211156113f9576113ca8161129b565b6113d3846112ad565b810160208510156113e2578190505b6113f66113ee856112ad565b830182611396565b50505b505050565b5f82821c905092915050565b5f6114195f19846008026113fe565b1980831691505092915050565b5f611431838361140a565b9150826002028217905092915050565b61144a82610dfe565b67ffffffffffffffff81111561146357611462610bbf565b5b61146d8254611203565b6114788282856113b8565b5f60209050601f8311600181146114a9575f8415611497578287015190505b6114a18582611426565b865550611508565b601f1984166114b78661129b565b5f5b828110156114de578489015182556001820191506020850194506020810190506114b9565b868310156114fb57848901516114f7601f89168261140a565b8355505b6001600288020188555050505b505050505050565b7f4e487b71000000000000000000000000000000000000000000000000000000005f52603260045260245ffd5b5f815461154981611203565b6115538186611186565b9450600182165f811461156d5760018114611582576115b4565b60ff19831686528115158202860193506115b4565b61158b8561129b565b5f5b838110156115ac5781548189015260018201915060208101905061158d565b838801955050505b50505092915050565b5f6115c8828461153d565b915081905092915050565b7f4e487b71000000000000000000000000000000000000000000000000000000005f52601160045260245ffd5b5f61160a82611319565b91507fffffffffffffffffffffffffffffffffffffffffffffffffffffffffffffffff820361163c5761163b6115d3565b5b60018201905091905056fea2646970667358221220284c20ffab0a8193f3b47f576687e46acd6477a8677f5d6be79f88b014052da764736f6c63430008140033","opcodes":"PUSH1 0x80 PUSH1 0x40 MSTORE CALLVALUE DUP1 ISZERO PUSH2 0xF JUMPI PUSH0 DUP1 REVERT JUMPDEST POP PUSH2 0x167D DUP1 PUSH2 0x1D PUSH0 CODECOPY PUSH0 RETURN INVALID PUSH1 0x80 PUSH1 0x40 MSTORE CALLVALUE DUP1 ISZERO PUSH2 0xF JUMPI PUSH0 DUP1 REVERT JUMPDEST POP PUSH1 0x4 CALLDATASIZE LT PUSH2 0x4A JUMPI PUSH0 CALLDATALOAD PUSH1 0xE0 SHR DUP1 PUSH4 0x46492563 EQ PUSH2 0x4E JUMPI DUP1 PUSH4 0x6AEC2C7D EQ PUSH2 0x6A JUMPI DUP1 PUSH4 0x6DCEF697 EQ PUSH2 0x9E JUMPI DUP1 PUSH4 0x8BF18321 EQ PUSH2 0xBC JUMPI JUMPDEST PUSH0 DUP1 REVERT JUMPDEST PUSH2 0x68 PUSH1 0x4 DUP1 CALLDATASIZE SUB DUP2 ADD SWAP1 PUSH2 0x63 SWAP2 SWAP1 PUSH2 0xCE3 JUMP JUMPDEST PUSH2 0xEC JUMP JUMPDEST STOP JUMPDEST PUSH2 0x84 PUSH1 0x4 DUP1 CALLDATASIZE SUB DUP2 ADD SWAP1 PUSH2 0x7F SWAP2 SWAP1 PUSH2 0xDB7 JUMP JUMPDEST PUSH2 0x28A JUMP JUMPDEST PUSH1 0x40 MLOAD PUSH2 0x95 SWAP6 SWAP5 SWAP4 SWAP3 SWAP2 SWAP1 PUSH2 0xEB7 JUMP JUMPDEST PUSH1 0x40 MLOAD DUP1 SWAP2 SUB SWAP1 RETURN JUMPDEST PUSH2 0xA6 PUSH2 0x50A JUMP JUMPDEST PUSH1 0x40 MLOAD PUSH2 0xB3 SWAP2 SWAP1 PUSH2 0x10BE JUMP JUMPDEST PUSH1 0x40 MLOAD DUP1 SWAP2 SUB SWAP1 RETURN JUMPDEST PUSH2 0xD6 PUSH1 0x4 DUP1 CALLDATASIZE SUB DUP2 ADD SWAP1 PUSH2 0xD1 SWAP2 SWAP1 PUSH2 0xDB7 JUMP JUMPDEST PUSH2 0x887 JUMP JUMPDEST PUSH1 0x40 MLOAD PUSH2 0xE3 SWAP2 SWAP1 PUSH2 0x1166 JUMP JUMPDEST PUSH1 0x40 MLOAD DUP1 SWAP2 SUB SWAP1 RETURN JUMPDEST PUSH0 DUP1 DUP6 PUSH1 0x40 MLOAD PUSH2 0xFC SWAP2 SWAP1 PUSH2 0x11C0 JUMP JUMPDEST SWAP1 DUP2 MSTORE PUSH1 0x20 ADD PUSH1 0x40 MLOAD DUP1 SWAP2 SUB SWAP1 KECCAK256 PUSH0 ADD DUP1 SLOAD PUSH2 0x117 SWAP1 PUSH2 0x1203 JUMP JUMPDEST SWAP1 POP EQ PUSH2 0x159 JUMPI PUSH1 0x40 MLOAD PUSH32 0x8C379A000000000000000000000000000000000000000000000000000000000 DUP2 MSTORE PUSH1 0x4 ADD PUSH2 0x150 SWAP1 PUSH2 0x127D JUMP JUMPDEST PUSH1 0x40 MLOAD DUP1 SWAP2 SUB SWAP1 REVERT JUMPDEST PUSH1 0x40 MLOAD DUP1 PUSH1 0xA0 ADD PUSH1 0x40 MSTORE DUP1 DUP6 DUP2 MSTORE PUSH1 0x20 ADD DUP5 DUP2 MSTORE PUSH1 0x20 ADD DUP4 DUP2 MSTORE PUSH1 0x20 ADD DUP3 DUP2 MSTORE PUSH1 0x20 ADD CALLER PUSH20 0xFFFFFFFFFFFFFFFFFFFFFFFFFFFFFFFFFFFFFFFF AND DUP2 MSTORE POP PUSH0 DUP6 PUSH1 0x40 MLOAD PUSH2 0x1A5 SWAP2 SWAP1 PUSH2 0x11C0 JUMP JUMPDEST SWAP1 DUP2 MSTORE PUSH1 0x20 ADD PUSH1 0x40 MLOAD DUP1 SWAP2 SUB SWAP1 KECCAK256 PUSH0 DUP3 ADD MLOAD DUP2 PUSH0 ADD SWAP1 DUP2 PUSH2 0x1C6 SWAP2 SWAP1 PUSH2 0x1441 JUMP JUMPDEST POP PUSH1 0x20 DUP3 ADD MLOAD DUP2 PUSH1 0x1 ADD SWAP1 DUP2 PUSH2 0x1DC SWAP2 SWAP1 PUSH2 0x1441 JUMP JUMPDEST POP PUSH1 0x40 DUP3 ADD MLOAD DUP2 PUSH1 0x2 ADD SWAP1 DUP2 PUSH2 0x1F2 SWAP2 SWAP1 PUSH2 0x1441 JUMP JUMPDEST POP PUSH1 0x60 DUP3 ADD MLOAD DUP2 PUSH1 0x3 ADD SWAP1 DUP2 PUSH2 0x208 SWAP2 SWAP1 PUSH2 0x1441 JUMP JUMPDEST POP PUSH1 0x80 DUP3 ADD MLOAD DUP2 PUSH1 0x4 ADD PUSH0 PUSH2 0x100 EXP DUP2 SLOAD DUP2 PUSH20 0xFFFFFFFFFFFFFFFFFFFFFFFFFFFFFFFFFFFFFFFF MUL NOT AND SWAP1 DUP4 PUSH20 0xFFFFFFFFFFFFFFFFFFFFFFFFFFFFFFFFFFFFFFFF AND MUL OR SWAP1 SSTORE POP SWAP1 POP POP PUSH1 0x1 DUP5 SWAP1 DUP1 PUSH1 0x1 DUP2 SLOAD ADD DUP1 DUP3 SSTORE DUP1 SWAP2 POP POP PUSH1 0x1 SWAP1 SUB SWAP1 PUSH0 MSTORE PUSH1 0x20 PUSH0 KECCAK256 ADD PUSH0 SWAP1 SWAP2 SWAP1 SWAP2 SWAP1 SWAP2 POP SWAP1 DUP2 PUSH2 0x283 SWAP2 SWAP1 PUSH2 0x1441 JUMP JUMPDEST POP POP POP POP POP JUMP JUMPDEST PUSH0 DUP2 DUP1 MLOAD PUSH1 0x20 DUP2 ADD DUP3 ADD DUP1 MLOAD DUP5 DUP3 MSTORE PUSH1 0x20 DUP4 ADD PUSH1 0x20 DUP6 ADD KECCAK256 DUP2 DUP4 MSTORE DUP1 SWAP6 POP POP POP POP POP POP PUSH0 SWAP2 POP SWAP1 POP DUP1 PUSH0 ADD DUP1 SLOAD PUSH2 0x2C0 SWAP1 PUSH2 0x1203 JUMP JUMPDEST DUP1 PUSH1 0x1F ADD PUSH1 0x20 DUP1 SWAP2 DIV MUL PUSH1 0x20 ADD PUSH1 0x40 MLOAD SWAP1 DUP2 ADD PUSH1 0x40 MSTORE DUP1 SWAP3 SWAP2 SWAP1 DUP2 DUP2 MSTORE PUSH1 0x20 ADD DUP3 DUP1 SLOAD PUSH2 0x2EC SWAP1 PUSH2 0x1203 JUMP JUMPDEST DUP1 ISZERO PUSH2 0x337 JUMPI DUP1 PUSH1 0x1F LT PUSH2 0x30E JUMPI PUSH2 0x100 DUP1 DUP4 SLOAD DIV MUL DUP4 MSTORE SWAP2 PUSH1 0x20 ADD SWAP2 PUSH2 0x337 JUMP JUMPDEST DUP3 ADD SWAP2 SWAP1 PUSH0 MSTORE PUSH1 0x20 PUSH0 KECCAK256 SWAP1 JUMPDEST DUP2 SLOAD DUP2 MSTORE SWAP1 PUSH1 0x1 ADD SWAP1 PUSH1 0x20 ADD DUP1 DUP4 GT PUSH2 0x31A JUMPI DUP3 SWAP1 SUB PUSH1 0x1F AND DUP3 ADD SWAP2 JUMPDEST POP POP POP POP POP SWAP1 DUP1 PUSH1 0x1 ADD DUP1 SLOAD PUSH2 0x34C SWAP1 PUSH2 0x1203 JUMP JUMPDEST DUP1 PUSH1 0x1F ADD PUSH1 0x20 DUP1 SWAP2 DIV MUL PUSH1 0x20 ADD PUSH1 0x40 MLOAD SWAP1 DUP2 ADD PUSH1 0x40 MSTORE DUP1 SWAP3 SWAP2 SWAP1 DUP2 DUP2 MSTORE PUSH1 0x20 ADD DUP3 DUP1 SLOAD PUSH2 0x378 SWAP1 PUSH2 0x1203 JUMP JUMPDEST DUP1 ISZERO PUSH2 0x3C3 JUMPI DUP1 PUSH1 0x1F LT PUSH2 0x39A JUMPI PUSH2 0x100 DUP1 DUP4 SLOAD DIV MUL DUP4 MSTORE SWAP2 PUSH1 0x20 ADD SWAP2 PUSH2 0x3C3 JUMP JUMPDEST DUP3 ADD SWAP2 SWAP1 PUSH0 MSTORE PUSH1 0x20 PUSH0 KECCAK256 SWAP1 JUMPDEST DUP2 SLOAD DUP2 MSTORE SWAP1 PUSH1 0x1 ADD SWAP1 PUSH1 0x20 ADD DUP1 DUP4 GT PUSH2 0x3A6 JUMPI DUP3 SWAP1 SUB PUSH1 0x1F AND DUP3 ADD SWAP2 JUMPDEST POP POP POP POP POP SWAP1 DUP1 PUSH1 0x2 ADD DUP1 SLOAD PUSH2 0x3D8 SWAP1 PUSH2 0x1203 JUMP JUMPDEST DUP1 PUSH1 0x1F ADD PUSH1 0x20 DUP1 SWAP2 DIV MUL PUSH1 0x20 ADD PUSH1 0x40 MLOAD SWAP1 DUP2 ADD PUSH1 0x40 MSTORE DUP1 SWAP3 SWAP2 SWAP1 DUP2 DUP2 MSTORE PUSH1 0x20 ADD DUP3 DUP1 SLOAD PUSH2 0x404 SWAP1 PUSH2 0x1203 JUMP JUMPDEST DUP1 ISZERO PUSH2 0x44F JUMPI DUP1 PUSH1 0x1F LT PUSH2 0x426 JUMPI PUSH2 0x100 DUP1 DUP4 SLOAD DIV MUL DUP4 MSTORE SWAP2 PUSH1 0x20 ADD SWAP2 PUSH2 0x44F JUMP JUMPDEST DUP3 ADD SWAP2 SWAP1 PUSH0 MSTORE PUSH1 0x20 PUSH0 KECCAK256 SWAP1 JUMPDEST DUP2 SLOAD DUP2 MSTORE SWAP1 PUSH1 0x1 ADD SWAP1 PUSH1 0x20 ADD DUP1 DUP4 GT PUSH2 0x432 JUMPI DUP3 SWAP1 SUB PUSH1 0x1F AND DUP3 ADD SWAP2 JUMPDEST POP POP POP POP POP SWAP1 DUP1 PUSH1 0x3 ADD DUP1 SLOAD PUSH2 0x464 SWAP1 PUSH2 0x1203 JUMP JUMPDEST DUP1 PUSH1 0x1F ADD PUSH1 0x20 DUP1 SWAP2 DIV MUL PUSH1 0x20 ADD PUSH1 0x40 MLOAD SWAP1 DUP2 ADD PUSH1 0x40 MSTORE DUP1 SWAP3 SWAP2 SWAP1 DUP2 DUP2 MSTORE PUSH1 0x20 ADD DUP3 DUP1 SLOAD PUSH2 0x490 SWAP1 PUSH2 0x1203 JUMP JUMPDEST DUP1 ISZERO PUSH2 0x4DB JUMPI DUP1 PUSH1 0x1F LT PUSH2 0x4B2 JUMPI PUSH2 0x100 DUP1 DUP4 SLOAD DIV MUL DUP4 MSTORE SWAP2 PUSH1 0x20 ADD SWAP2 PUSH2 0x4DB JUMP JUMPDEST DUP3 ADD SWAP2 SWAP1 PUSH0 MSTORE PUSH1 0x20 PUSH0 KECCAK256 SWAP1 JUMPDEST DUP2 SLOAD DUP2 MSTORE SWAP1 PUSH1 0x1 ADD SWAP1 PUSH1 0x20 ADD DUP1 DUP4 GT PUSH2 0x4BE JUMPI DUP3 SWAP1 SUB PUSH1 0x1F AND DUP3 ADD SWAP2 JUMPDEST POP POP POP POP POP SWAP1 DUP1 PUSH1 0x4 ADD PUSH0 SWAP1 SLOAD SWAP1 PUSH2 0x100 EXP SWAP1 DIV PUSH20 0xFFFFFFFFFFFFFFFFFFFFFFFFFFFFFFFFFFFFFFFF AND SWAP1 POP DUP6 JUMP JUMPDEST PUSH1 0x60 PUSH0 PUSH1 0x1 DUP1 SLOAD SWAP1 POP PUSH8 0xFFFFFFFFFFFFFFFF DUP2 GT ISZERO PUSH2 0x52C JUMPI PUSH2 0x52B PUSH2 0xBBF JUMP JUMPDEST JUMPDEST PUSH1 0x40 MLOAD SWAP1 DUP1 DUP3 MSTORE DUP1 PUSH1 0x20 MUL PUSH1 0x20 ADD DUP3 ADD PUSH1 0x40 MSTORE DUP1 ISZERO PUSH2 0x565 JUMPI DUP2 PUSH1 0x20 ADD JUMPDEST PUSH2 0x552 PUSH2 0xB52 JUMP JUMPDEST DUP2 MSTORE PUSH1 0x20 ADD SWAP1 PUSH1 0x1 SWAP1 SUB SWAP1 DUP2 PUSH2 0x54A JUMPI SWAP1 POP JUMPDEST POP SWAP1 POP PUSH0 JUMPDEST PUSH1 0x1 DUP1 SLOAD SWAP1 POP DUP2 LT ISZERO PUSH2 0x87F JUMPI PUSH0 PUSH1 0x1 DUP3 DUP2 SLOAD DUP2 LT PUSH2 0x58C JUMPI PUSH2 0x58B PUSH2 0x1510 JUMP JUMPDEST JUMPDEST SWAP1 PUSH0 MSTORE PUSH1 0x20 PUSH0 KECCAK256 ADD PUSH1 0x40 MLOAD PUSH2 0x5A1 SWAP2 SWAP1 PUSH2 0x15BD JUMP JUMPDEST SWAP1 DUP2 MSTORE PUSH1 0x20 ADD PUSH1 0x40 MLOAD DUP1 SWAP2 SUB SWAP1 KECCAK256 PUSH1 0x40 MLOAD DUP1 PUSH1 0xA0 ADD PUSH1 0x40 MSTORE SWAP1 DUP2 PUSH0 DUP3 ADD DUP1 SLOAD PUSH2 0x5C9 SWAP1 PUSH2 0x1203 JUMP JUMPDEST DUP1 PUSH1 0x1F ADD PUSH1 0x20 DUP1 SWAP2 DIV MUL PUSH1 0x20 ADD PUSH1 0x40 MLOAD SWAP1 DUP2 ADD PUSH1 0x40 MSTORE DUP1 SWAP3 SWAP2 SWAP1 DUP2 DUP2 MSTORE PUSH1 0x20 ADD DUP3 DUP1 SLOAD PUSH2 0x5F5 SWAP1 PUSH2 0x1203 JUMP JUMPDEST DUP1 ISZERO PUSH2 0x640 JUMPI DUP1 PUSH1 0x1F LT PUSH2 0x617 JUMPI PUSH2 0x100 DUP1 DUP4 SLOAD DIV MUL DUP4 MSTORE SWAP2 PUSH1 0x20 ADD SWAP2 PUSH2 0x640 JUMP JUMPDEST DUP3 ADD SWAP2 SWAP1 PUSH0 MSTORE PUSH1 0x20 PUSH0 KECCAK256 SWAP1 JUMPDEST DUP2 SLOAD DUP2 MSTORE SWAP1 PUSH1 0x1 ADD SWAP1 PUSH1 0x20 ADD DUP1 DUP4 GT PUSH2 0x623 JUMPI DUP3 SWAP1 SUB PUSH1 0x1F AND DUP3 ADD SWAP2 JUMPDEST POP POP POP POP POP DUP2 MSTORE PUSH1 0x20 ADD PUSH1 0x1 DUP3 ADD DUP1 SLOAD PUSH2 0x659 SWAP1 PUSH2 0x1203 JUMP JUMPDEST DUP1 PUSH1 0x1F ADD PUSH1 0x20 DUP1 SWAP2 DIV MUL PUSH1 0x20 ADD PUSH1 0x40 MLOAD SWAP1 DUP2 ADD PUSH1 0x40 MSTORE DUP1 SWAP3 SWAP2 SWAP1 DUP2 DUP2 MSTORE PUSH1 0x20 ADD DUP3 DUP1 SLOAD PUSH2 0x685 SWAP1 PUSH2 0x1203 JUMP JUMPDEST DUP1 ISZERO PUSH2 0x6D0 JUMPI DUP1 PUSH1 0x1F LT PUSH2 0x6A7 JUMPI PUSH2 0x100 DUP1 DUP4 SLOAD DIV MUL DUP4 MSTORE SWAP2 PUSH1 0x20 ADD SWAP2 PUSH2 0x6D0 JUMP JUMPDEST DUP3 ADD SWAP2 SWAP1 PUSH0 MSTORE PUSH1 0x20 PUSH0 KECCAK256 SWAP1 JUMPDEST DUP2 SLOAD DUP2 MSTORE SWAP1 PUSH1 0x1 ADD SWAP1 PUSH1 0x20 ADD DUP1 DUP4 GT PUSH2 0x6B3 JUMPI DUP3 SWAP1 SUB PUSH1 0x1F AND DUP3 ADD SWAP2 JUMPDEST POP POP POP POP POP DUP2 MSTORE PUSH1 0x20 ADD PUSH1 0x2 DUP3 ADD DUP1 SLOAD PUSH2 0x6E9 SWAP1 PUSH2 0x1203 JUMP JUMPDEST DUP1 PUSH1 0x1F ADD PUSH1 0x20 DUP1 SWAP2 DIV MUL PUSH1 0x20 ADD PUSH1 0x40 MLOAD SWAP1 DUP2 ADD PUSH1 0x40 MSTORE DUP1 SWAP3 SWAP2 SWAP1 DUP2 DUP2 MSTORE PUSH1 0x20 ADD DUP3 DUP1 SLOAD PUSH2 0x715 SWAP1 PUSH2 0x1203 JUMP JUMPDEST DUP1 ISZERO PUSH2 0x760 JUMPI DUP1 PUSH1 0x1F LT PUSH2 0x737 JUMPI PUSH2 0x100 DUP1 DUP4 SLOAD DIV MUL DUP4 MSTORE SWAP2 PUSH1 0x20 ADD SWAP2 PUSH2 0x760 JUMP JUMPDEST DUP3 ADD SWAP2 SWAP1 PUSH0 MSTORE PUSH1 0x20 PUSH0 KECCAK256 SWAP1 JUMPDEST DUP2 SLOAD DUP2 MSTORE SWAP1 PUSH1 0x1 ADD SWAP1 PUSH1 0x20 ADD DUP1 DUP4 GT PUSH2 0x743 JUMPI DUP3 SWAP1 SUB PUSH1 0x1F AND DUP3 ADD SWAP2 JUMPDEST POP POP POP POP POP DUP2 MSTORE PUSH1 0x20 ADD PUSH1 0x3 DUP3 ADD DUP1 SLOAD PUSH2 0x779 SWAP1 PUSH2 0x1203 JUMP JUMPDEST DUP1 PUSH1 0x1F ADD PUSH1 0x20 DUP1 SWAP2 DIV MUL PUSH1 0x20 ADD PUSH1 0x40 MLOAD SWAP1 DUP2 ADD PUSH1 0x40 MSTORE DUP1 SWAP3 SWAP2 SWAP1 DUP2 DUP2 MSTORE PUSH1 0x20 ADD DUP3 DUP1 SLOAD PUSH2 0x7A5 SWAP1 PUSH2 0x1203 JUMP JUMPDEST DUP1 ISZERO PUSH2 0x7F0 JUMPI DUP1 PUSH1 0x1F LT PUSH2 0x7C7 JUMPI PUSH2 0x100 DUP1 DUP4 SLOAD DIV MUL DUP4 MSTORE SWAP2 PUSH1 0x20 ADD SWAP2 PUSH2 0x7F0 JUMP JUMPDEST DUP3 ADD SWAP2 SWAP1 PUSH0 MSTORE PUSH1 0x20 PUSH0 KECCAK256 SWAP1 JUMPDEST DUP2 SLOAD DUP2 MSTORE SWAP1 PUSH1 0x1 ADD SWAP1 PUSH1 0x20 ADD DUP1 DUP4 GT PUSH2 0x7D3 JUMPI DUP3 SWAP1 SUB PUSH1 0x1F AND DUP3 ADD SWAP2 JUMPDEST POP POP POP POP POP DUP2 MSTORE PUSH1 0x20 ADD PUSH1 0x4 DUP3 ADD PUSH0 SWAP1 SLOAD SWAP1 PUSH2 0x100 EXP SWAP1 DIV PUSH20 0xFFFFFFFFFFFFFFFFFFFFFFFFFFFFFFFFFFFFFFFF AND PUSH20 0xFFFFFFFFFFFFFFFFFFFFFFFFFFFFFFFFFFFFFFFF AND PUSH20 0xFFFFFFFFFFFFFFFFFFFFFFFFFFFFFFFFFFFFFFFF AND DUP2 MSTORE POP POP DUP3 DUP3 DUP2 MLOAD DUP2 LT PUSH2 0x861 JUMPI PUSH2 0x860 PUSH2 0x1510 JUMP JUMPDEST JUMPDEST PUSH1 0x20 MUL PUSH1 0x20 ADD ADD DUP2 SWAP1 MSTORE POP DUP1 DUP1 PUSH2 0x877 SWAP1 PUSH2 0x1600 JUMP JUMPDEST SWAP2 POP POP PUSH2 0x56A JUMP JUMPDEST POP DUP1 SWAP2 POP POP SWAP1 JUMP JUMPDEST PUSH2 0x88F PUSH2 0xB52 JUMP JUMPDEST PUSH0 DUP3 PUSH1 0x40 MLOAD PUSH2 0x89E SWAP2 SWAP1 PUSH2 0x11C0 JUMP JUMPDEST SWAP1 DUP2 MSTORE PUSH1 0x20 ADD PUSH1 0x40 MLOAD DUP1 SWAP2 SUB SWAP1 KECCAK256 PUSH1 0x40 MLOAD DUP1 PUSH1 0xA0 ADD PUSH1 0x40 MSTORE SWAP1 DUP2 PUSH0 DUP3 ADD DUP1 SLOAD PUSH2 0x8C6 SWAP1 PUSH2 0x1203 JUMP JUMPDEST DUP1 PUSH1 0x1F ADD PUSH1 0x20 DUP1 SWAP2 DIV MUL PUSH1 0x20 ADD PUSH1 0x40 MLOAD SWAP1 DUP2 ADD PUSH1 0x40 MSTORE DUP1 SWAP3 SWAP2 SWAP1 DUP2 DUP2 MSTORE PUSH1 0x20 ADD DUP3 DUP1 SLOAD PUSH2 0x8F2 SWAP1 PUSH2 0x1203 JUMP JUMPDEST DUP1 ISZERO PUSH2 0x93D JUMPI DUP1 PUSH1 0x1F LT PUSH2 0x914 JUMPI PUSH2 0x100 DUP1 DUP4 SLOAD DIV MUL DUP4 MSTORE SWAP2 PUSH1 0x20 ADD SWAP2 PUSH2 0x93D JUMP JUMPDEST DUP3 ADD SWAP2 SWAP1 PUSH0 MSTORE PUSH1 0x20 PUSH0 KECCAK256 SWAP1 JUMPDEST DUP2 SLOAD DUP2 MSTORE SWAP1 PUSH1 0x1 ADD SWAP1 PUSH1 0x20 ADD DUP1 DUP4 GT PUSH2 0x920 JUMPI DUP3 SWAP1 SUB PUSH1 0x1F AND DUP3 ADD SWAP2 JUMPDEST POP POP POP POP POP DUP2 MSTORE PUSH1 0x20 ADD PUSH1 0x1 DUP3 ADD DUP1 SLOAD PUSH2 0x956 SWAP1 PUSH2 0x1203 JUMP JUMPDEST DUP1 PUSH1 0x1F ADD PUSH1 0x20 DUP1 SWAP2 DIV MUL PUSH1 0x20 ADD PUSH1 0x40 MLOAD SWAP1 DUP2 ADD PUSH1 0x40 MSTORE DUP1 SWAP3 SWAP2 SWAP1 DUP2 DUP2 MSTORE PUSH1 0x20 ADD DUP3 DUP1 SLOAD PUSH2 0x982 SWAP1 PUSH2 0x1203 JUMP JUMPDEST DUP1 ISZERO PUSH2 0x9CD JUMPI DUP1 PUSH1 0x1F LT PUSH2 0x9A4 JUMPI PUSH2 0x100 DUP1 DUP4 SLOAD DIV MUL DUP4 MSTORE SWAP2 PUSH1 0x20 ADD SWAP2 PUSH2 0x9CD JUMP JUMPDEST DUP3 ADD SWAP2 SWAP1 PUSH0 MSTORE PUSH1 0x20 PUSH0 KECCAK256 SWAP1 JUMPDEST DUP2 SLOAD DUP2 MSTORE SWAP1 PUSH1 0x1 ADD SWAP1 PUSH1 0x20 ADD DUP1 DUP4 GT PUSH2 0x9B0 JUMPI DUP3 SWAP1 SUB PUSH1 0x1F AND DUP3 ADD SWAP2 JUMPDEST POP POP POP POP POP DUP2 MSTORE PUSH1 0x20 ADD PUSH1 0x2 DUP3 ADD DUP1 SLOAD PUSH2 0x9E6 SWAP1 PUSH2 0x1203 JUMP JUMPDEST DUP1 PUSH1 0x1F ADD PUSH1 0x20 DUP1 SWAP2 DIV MUL PUSH1 0x20 ADD PUSH1 0x40 MLOAD SWAP1 DUP2 ADD PUSH1 0x40 MSTORE DUP1 SWAP3 SWAP2 SWAP1 DUP2 DUP2 MSTORE PUSH1 0x20 ADD DUP3 DUP1 SLOAD PUSH2 0xA12 SWAP1 PUSH2 0x1203 JUMP JUMPDEST DUP1 ISZERO PUSH2 0xA5D JUMPI DUP1 PUSH1 0x1F LT PUSH2 0xA34 JUMPI PUSH2 0x100 DUP1 DUP4 SLOAD DIV MUL DUP4 MSTORE SWAP2 PUSH1 0x20 ADD SWAP2 PUSH2 0xA5D JUMP JUMPDEST DUP3 ADD SWAP2 SWAP1 PUSH0 MSTORE PUSH1 0x20 PUSH0 KECCAK256 SWAP1 JUMPDEST DUP2 SLOAD DUP2 MSTORE SWAP1 PUSH1 0x1 ADD SWAP1 PUSH1 0x20 ADD DUP1 DUP4 GT PUSH2 0xA40 JUMPI DUP3 SWAP1 SUB PUSH1 0x1F AND DUP3 ADD SWAP2 JUMPDEST POP POP POP POP POP DUP2 MSTORE PUSH1 0x20 ADD PUSH1 0x3 DUP3 ADD DUP1 SLOAD PUSH2 0xA76 SWAP1 PUSH2 0x1203 JUMP JUMPDEST DUP1 PUSH1 0x1F ADD PUSH1 0x20 DUP1 SWAP2 DIV MUL PUSH1 0x20 ADD PUSH1 0x40 MLOAD SWAP1 DUP2 ADD PUSH1 0x40 MSTORE DUP1 SWAP3 SWAP2 SWAP1 DUP2 DUP2 MSTORE PUSH1 0x20 ADD DUP3 DUP1 SLOAD PUSH2 0xAA2 SWAP1 PUSH2 0x1203 JUMP JUMPDEST DUP1 ISZERO PUSH2 0xAED JUMPI DUP1 PUSH1 0x1F LT PUSH2 0xAC4 JUMPI PUSH2 0x100 DUP1 DUP4 SLOAD DIV MUL DUP4 MSTORE SWAP2 PUSH1 0x20 ADD SWAP2 PUSH2 0xAED JUMP JUMPDEST DUP3 ADD SWAP2 SWAP1 PUSH0 MSTORE PUSH1 0x20 PUSH0 KECCAK256 SWAP1 JUMPDEST DUP2 SLOAD DUP2 MSTORE SWAP1 PUSH1 0x1 ADD SWAP1 PUSH1 0x20 ADD DUP1 DUP4 GT PUSH2 0xAD0 JUMPI DUP3 SWAP1 SUB PUSH1 0x1F AND DUP3 ADD SWAP2 JUMPDEST POP POP POP POP POP DUP2 MSTORE PUSH1 0x20 ADD PUSH1 0x4 DUP3 ADD PUSH0 SWAP1 SLOAD SWAP1 PUSH2 0x100 EXP SWAP1 DIV PUSH20 0xFFFFFFFFFFFFFFFFFFFFFFFFFFFFFFFFFFFFFFFF AND PUSH20 0xFFFFFFFFFFFFFFFFFFFFFFFFFFFFFFFFFFFFFFFF AND PUSH20 0xFFFFFFFFFFFFFFFFFFFFFFFFFFFFFFFFFFFFFFFF AND DUP2 MSTORE POP POP SWAP1 POP SWAP2 SWAP1 POP JUMP JUMPDEST PUSH1 0x40 MLOAD DUP1 PUSH1 0xA0 ADD PUSH1 0x40 MSTORE DUP1 PUSH1 0x60 DUP2 MSTORE PUSH1 0x20 ADD PUSH1 0x60 DUP2 MSTORE PUSH1 0x20 ADD PUSH1 0x60 DUP2 MSTORE PUSH1 0x20 ADD PUSH1 0x60 DUP2 MSTORE PUSH1 0x20 ADD PUSH0 PUSH20 0xFFFFFFFFFFFFFFFFFFFFFFFFFFFFFFFFFFFFFFFF AND DUP2 MSTORE POP SWAP1 JUMP JUMPDEST PUSH0 PUSH1 0x40 MLOAD SWAP1 POP SWAP1 JUMP JUMPDEST PUSH0 DUP1 REVERT JUMPDEST PUSH0 DUP1 REVERT JUMPDEST PUSH0 DUP1 REVERT JUMPDEST PUSH0 DUP1 REVERT JUMPDEST PUSH0 PUSH1 0x1F NOT PUSH1 0x1F DUP4 ADD AND SWAP1 POP SWAP2 SWAP1 POP JUMP JUMPDEST PUSH32 0x4E487B7100000000000000000000000000000000000000000000000000000000 PUSH0 MSTORE PUSH1 0x41 PUSH1 0x4 MSTORE PUSH1 0x24 PUSH0 REVERT JUMPDEST PUSH2 0xBF5 DUP3 PUSH2 0xBAF JUMP JUMPDEST DUP2 ADD DUP2 DUP2 LT PUSH8 0xFFFFFFFFFFFFFFFF DUP3 GT OR ISZERO PUSH2 0xC14 JUMPI PUSH2 0xC13 PUSH2 0xBBF JUMP JUMPDEST JUMPDEST DUP1 PUSH1 0x40 MSTORE POP POP POP JUMP JUMPDEST PUSH0 PUSH2 0xC26 PUSH2 0xB96 JUMP JUMPDEST SWAP1 POP PUSH2 0xC32 DUP3 DUP3 PUSH2 0xBEC JUMP JUMPDEST SWAP2 SWAP1 POP JUMP JUMPDEST PUSH0 PUSH8 0xFFFFFFFFFFFFFFFF DUP3 GT ISZERO PUSH2 0xC51 JUMPI PUSH2 0xC50 PUSH2 0xBBF JUMP JUMPDEST JUMPDEST PUSH2 0xC5A DUP3 PUSH2 0xBAF JUMP JUMPDEST SWAP1 POP PUSH1 0x20 DUP2 ADD SWAP1 POP SWAP2 SWAP1 POP JUMP JUMPDEST DUP3 DUP2 DUP4 CALLDATACOPY PUSH0 DUP4 DUP4 ADD MSTORE POP POP POP JUMP JUMPDEST PUSH0 PUSH2 0xC87 PUSH2 0xC82 DUP5 PUSH2 0xC37 JUMP JUMPDEST PUSH2 0xC1D JUMP JUMPDEST SWAP1 POP DUP3 DUP2 MSTORE PUSH1 0x20 DUP2 ADD DUP5 DUP5 DUP5 ADD GT ISZERO PUSH2 0xCA3 JUMPI PUSH2 0xCA2 PUSH2 0xBAB JUMP JUMPDEST JUMPDEST PUSH2 0xCAE DUP5 DUP3 DUP6 PUSH2 0xC67 JUMP JUMPDEST POP SWAP4 SWAP3 POP POP POP JUMP JUMPDEST PUSH0 DUP3 PUSH1 0x1F DUP4 ADD SLT PUSH2 0xCCA JUMPI PUSH2 0xCC9 PUSH2 0xBA7 JUMP JUMPDEST JUMPDEST DUP2 CALLDATALOAD PUSH2 0xCDA DUP5 DUP3 PUSH1 0x20 DUP7 ADD PUSH2 0xC75 JUMP JUMPDEST SWAP2 POP POP SWAP3 SWAP2 POP POP JUMP JUMPDEST PUSH0 DUP1 PUSH0 DUP1 PUSH1 0x80 DUP6 DUP8 SUB SLT ISZERO PUSH2 0xCFB JUMPI PUSH2 0xCFA PUSH2 0xB9F JUMP JUMPDEST JUMPDEST PUSH0 DUP6 ADD CALLDATALOAD PUSH8 0xFFFFFFFFFFFFFFFF DUP2 GT ISZERO PUSH2 0xD18 JUMPI PUSH2 0xD17 PUSH2 0xBA3 JUMP JUMPDEST JUMPDEST PUSH2 0xD24 DUP8 DUP3 DUP9 ADD PUSH2 0xCB6 JUMP JUMPDEST SWAP5 POP POP PUSH1 0x20 DUP6 ADD CALLDATALOAD PUSH8 0xFFFFFFFFFFFFFFFF DUP2 GT ISZERO PUSH2 0xD45 JUMPI PUSH2 0xD44 PUSH2 0xBA3 JUMP JUMPDEST JUMPDEST PUSH2 0xD51 DUP8 DUP3 DUP9 ADD PUSH2 0xCB6 JUMP JUMPDEST SWAP4 POP POP PUSH1 0x40 DUP6 ADD CALLDATALOAD PUSH8 0xFFFFFFFFFFFFFFFF DUP2 GT ISZERO PUSH2 0xD72 JUMPI PUSH2 0xD71 PUSH2 0xBA3 JUMP JUMPDEST JUMPDEST PUSH2 0xD7E DUP8 DUP3 DUP9 ADD PUSH2 0xCB6 JUMP JUMPDEST SWAP3 POP POP PUSH1 0x60 DUP6 ADD CALLDATALOAD PUSH8 0xFFFFFFFFFFFFFFFF DUP2 GT ISZERO PUSH2 0xD9F JUMPI PUSH2 0xD9E PUSH2 0xBA3 JUMP JUMPDEST JUMPDEST PUSH2 0xDAB DUP8 DUP3 DUP9 ADD PUSH2 0xCB6 JUMP JUMPDEST SWAP2 POP POP SWAP3 SWAP6 SWAP2 SWAP5 POP SWAP3 POP JUMP JUMPDEST PUSH0 PUSH1 0x20 DUP3 DUP5 SUB SLT ISZERO PUSH2 0xDCC JUMPI PUSH2 0xDCB PUSH2 0xB9F JUMP JUMPDEST JUMPDEST PUSH0 DUP3 ADD CALLDATALOAD PUSH8 0xFFFFFFFFFFFFFFFF DUP2 GT ISZERO PUSH2 0xDE9 JUMPI PUSH2 0xDE8 PUSH2 0xBA3 JUMP JUMPDEST JUMPDEST PUSH2 0xDF5 DUP5 DUP3 DUP6 ADD PUSH2 0xCB6 JUMP JUMPDEST SWAP2 POP POP SWAP3 SWAP2 POP POP JUMP JUMPDEST PUSH0 DUP2 MLOAD SWAP1 POP SWAP2 SWAP1 POP JUMP JUMPDEST PUSH0 DUP3 DUP3 MSTORE PUSH1 0x20 DUP3 ADD SWAP1 POP SWAP3 SWAP2 POP POP JUMP JUMPDEST PUSH0 JUMPDEST DUP4 DUP2 LT ISZERO PUSH2 0xE35 JUMPI DUP1 DUP3 ADD MLOAD DUP2 DUP5 ADD MSTORE PUSH1 0x20 DUP2 ADD SWAP1 POP PUSH2 0xE1A JUMP JUMPDEST PUSH0 DUP5 DUP5 ADD MSTORE POP POP POP POP JUMP JUMPDEST PUSH0 PUSH2 0xE4A DUP3 PUSH2 0xDFE JUMP JUMPDEST PUSH2 0xE54 DUP2 DUP6 PUSH2 0xE08 JUMP JUMPDEST SWAP4 POP PUSH2 0xE64 DUP2 DUP6 PUSH1 0x20 DUP7 ADD PUSH2 0xE18 JUMP JUMPDEST PUSH2 0xE6D DUP2 PUSH2 0xBAF JUMP JUMPDEST DUP5 ADD SWAP2 POP POP SWAP3 SWAP2 POP POP JUMP JUMPDEST PUSH0 PUSH20 0xFFFFFFFFFFFFFFFFFFFFFFFFFFFFFFFFFFFFFFFF DUP3 AND SWAP1 POP SWAP2 SWAP1 POP JUMP JUMPDEST PUSH0 PUSH2 0xEA1 DUP3 PUSH2 0xE78 JUMP JUMPDEST SWAP1 POP SWAP2 SWAP1 POP JUMP JUMPDEST PUSH2 0xEB1 DUP2 PUSH2 0xE97 JUMP JUMPDEST DUP3 MSTORE POP POP JUMP JUMPDEST PUSH0 PUSH1 0xA0 DUP3 ADD SWAP1 POP DUP2 DUP2 SUB PUSH0 DUP4 ADD MSTORE PUSH2 0xECF DUP2 DUP9 PUSH2 0xE40 JUMP JUMPDEST SWAP1 POP DUP2 DUP2 SUB PUSH1 0x20 DUP4 ADD MSTORE PUSH2 0xEE3 DUP2 DUP8 PUSH2 0xE40 JUMP JUMPDEST SWAP1 POP DUP2 DUP2 SUB PUSH1 0x40 DUP4 ADD MSTORE PUSH2 0xEF7 DUP2 DUP7 PUSH2 0xE40 JUMP JUMPDEST SWAP1 POP DUP2 DUP2 SUB PUSH1 0x60 DUP4 ADD MSTORE PUSH2 0xF0B DUP2 DUP6 PUSH2 0xE40 JUMP JUMPDEST SWAP1 POP PUSH2 0xF1A PUSH1 0x80 DUP4 ADD DUP5 PUSH2 0xEA8 JUMP JUMPDEST SWAP7 SWAP6 POP POP POP POP POP POP JUMP JUMPDEST PUSH0 DUP2 MLOAD SWAP1 POP SWAP2 SWAP1 POP JUMP JUMPDEST PUSH0 DUP3 DUP3 MSTORE PUSH1 0x20 DUP3 ADD SWAP1 POP SWAP3 SWAP2 POP POP JUMP JUMPDEST PUSH0 DUP2 SWAP1 POP PUSH1 0x20 DUP3 ADD SWAP1 POP SWAP2 SWAP1 POP JUMP JUMPDEST PUSH0 DUP3 DUP3 MSTORE PUSH1 0x20 DUP3 ADD SWAP1 POP SWAP3 SWAP2 POP POP JUMP JUMPDEST PUSH0 PUSH2 0xF67 DUP3 PUSH2 0xDFE JUMP JUMPDEST PUSH2 0xF71 DUP2 DUP6 PUSH2 0xF4D JUMP JUMPDEST SWAP4 POP PUSH2 0xF81 DUP2 DUP6 PUSH1 0x20 DUP7 ADD PUSH2 0xE18 JUMP JUMPDEST PUSH2 0xF8A DUP2 PUSH2 0xBAF JUMP JUMPDEST DUP5 ADD SWAP2 POP POP SWAP3 SWAP2 POP POP JUMP JUMPDEST PUSH2 0xF9E DUP2 PUSH2 0xE97 JUMP JUMPDEST DUP3 MSTORE POP POP JUMP JUMPDEST PUSH0 PUSH1 0xA0 DUP4 ADD PUSH0 DUP4 ADD MLOAD DUP5 DUP3 SUB PUSH0 DUP7 ADD MSTORE PUSH2 0xFBE DUP3 DUP3 PUSH2 0xF5D JUMP JUMPDEST SWAP2 POP POP PUSH1 0x20 DUP4 ADD MLOAD DUP5 DUP3 SUB PUSH1 0x20 DUP7 ADD MSTORE PUSH2 0xFD8 DUP3 DUP3 PUSH2 0xF5D JUMP JUMPDEST SWAP2 POP POP PUSH1 0x40 DUP4 ADD MLOAD DUP5 DUP3 SUB PUSH1 0x40 DUP7 ADD MSTORE PUSH2 0xFF2 DUP3 DUP3 PUSH2 0xF5D JUMP JUMPDEST SWAP2 POP POP PUSH1 0x60 DUP4 ADD MLOAD DUP5 DUP3 SUB PUSH1 0x60 DUP7 ADD MSTORE PUSH2 0x100C DUP3 DUP3 PUSH2 0xF5D JUMP JUMPDEST SWAP2 POP POP PUSH1 0x80 DUP4 ADD MLOAD PUSH2 0x1021 PUSH1 0x80 DUP7 ADD DUP3 PUSH2 0xF95 JUMP JUMPDEST POP DUP1 SWAP2 POP POP SWAP3 SWAP2 POP POP JUMP JUMPDEST PUSH0 PUSH2 0x1037 DUP4 DUP4 PUSH2 0xFA4 JUMP JUMPDEST SWAP1 POP SWAP3 SWAP2 POP POP JUMP JUMPDEST PUSH0 PUSH1 0x20 DUP3 ADD SWAP1 POP SWAP2 SWAP1 POP JUMP JUMPDEST PUSH0 PUSH2 0x1055 DUP3 PUSH2 0xF24 JUMP JUMPDEST PUSH2 0x105F DUP2 DUP6 PUSH2 0xF2E JUMP JUMPDEST SWAP4 POP DUP4 PUSH1 0x20 DUP3 MUL DUP6 ADD PUSH2 0x1071 DUP6 PUSH2 0xF3E JUMP JUMPDEST DUP1 PUSH0 JUMPDEST DUP6 DUP2 LT ISZERO PUSH2 0x10AC JUMPI DUP5 DUP5 SUB DUP10 MSTORE DUP2 MLOAD PUSH2 0x108D DUP6 DUP3 PUSH2 0x102C JUMP JUMPDEST SWAP5 POP PUSH2 0x1098 DUP4 PUSH2 0x103F JUMP JUMPDEST SWAP3 POP PUSH1 0x20 DUP11 ADD SWAP10 POP POP PUSH1 0x1 DUP2 ADD SWAP1 POP PUSH2 0x1074 JUMP JUMPDEST POP DUP3 SWAP8 POP DUP8 SWAP6 POP POP POP POP POP POP SWAP3 SWAP2 POP POP JUMP JUMPDEST PUSH0 PUSH1 0x20 DUP3 ADD SWAP1 POP DUP2 DUP2 SUB PUSH0 DUP4 ADD MSTORE PUSH2 0x10D6 DUP2 DUP5 PUSH2 0x104B JUMP JUMPDEST SWAP1 POP SWAP3 SWAP2 POP POP JUMP JUMPDEST PUSH0 PUSH1 0xA0 DUP4 ADD PUSH0 DUP4 ADD MLOAD DUP5 DUP3 SUB PUSH0 DUP7 ADD MSTORE PUSH2 0x10F8 DUP3 DUP3 PUSH2 0xF5D JUMP JUMPDEST SWAP2 POP POP PUSH1 0x20 DUP4 ADD MLOAD DUP5 DUP3 SUB PUSH1 0x20 DUP7 ADD MSTORE PUSH2 0x1112 DUP3 DUP3 PUSH2 0xF5D JUMP JUMPDEST SWAP2 POP POP PUSH1 0x40 DUP4 ADD MLOAD DUP5 DUP3 SUB PUSH1 0x40 DUP7 ADD MSTORE PUSH2 0x112C DUP3 DUP3 PUSH2 0xF5D JUMP JUMPDEST SWAP2 POP POP PUSH1 0x60 DUP4 ADD MLOAD DUP5 DUP3 SUB PUSH1 0x60 DUP7 ADD MSTORE PUSH2 0x1146 DUP3 DUP3 PUSH2 0xF5D JUMP JUMPDEST SWAP2 POP POP PUSH1 0x80 DUP4 ADD MLOAD PUSH2 0x115B PUSH1 0x80 DUP7 ADD DUP3 PUSH2 0xF95 JUMP JUMPDEST POP DUP1 SWAP2 POP POP SWAP3 SWAP2 POP POP JUMP JUMPDEST PUSH0 PUSH1 0x20 DUP3 ADD SWAP1 POP DUP2 DUP2 SUB PUSH0 DUP4 ADD MSTORE PUSH2 0x117E DUP2 DUP5 PUSH2 0x10DE JUMP JUMPDEST SWAP1 POP SWAP3 SWAP2 POP POP JUMP JUMPDEST PUSH0 DUP2 SWAP1 POP SWAP3 SWAP2 POP POP JUMP JUMPDEST PUSH0 PUSH2 0x119A DUP3 PUSH2 0xDFE JUMP JUMPDEST PUSH2 0x11A4 DUP2 DUP6 PUSH2 0x1186 JUMP JUMPDEST SWAP4 POP PUSH2 0x11B4 DUP2 DUP6 PUSH1 0x20 DUP7 ADD PUSH2 0xE18 JUMP JUMPDEST DUP1 DUP5 ADD SWAP2 POP POP SWAP3 SWAP2 POP POP JUMP JUMPDEST PUSH0 PUSH2 0x11CB DUP3 DUP5 PUSH2 0x1190 JUMP JUMPDEST SWAP2 POP DUP2 SWAP1 POP SWAP3 SWAP2 POP POP JUMP JUMPDEST PUSH32 0x4E487B7100000000000000000000000000000000000000000000000000000000 PUSH0 MSTORE PUSH1 0x22 PUSH1 0x4 MSTORE PUSH1 0x24 PUSH0 REVERT JUMPDEST PUSH0 PUSH1 0x2 DUP3 DIV SWAP1 POP PUSH1 0x1 DUP3 AND DUP1 PUSH2 0x121A JUMPI PUSH1 0x7F DUP3 AND SWAP2 POP JUMPDEST PUSH1 0x20 DUP3 LT DUP2 SUB PUSH2 0x122D JUMPI PUSH2 0x122C PUSH2 0x11D6 JUMP JUMPDEST JUMPDEST POP SWAP2 SWAP1 POP JUMP JUMPDEST PUSH32 0x4173736F63696174696F6E20616C726561647920657869737473000000000000 PUSH0 DUP3 ADD MSTORE POP JUMP JUMPDEST PUSH0 PUSH2 0x1267 PUSH1 0x1A DUP4 PUSH2 0xE08 JUMP JUMPDEST SWAP2 POP PUSH2 0x1272 DUP3 PUSH2 0x1233 JUMP JUMPDEST PUSH1 0x20 DUP3 ADD SWAP1 POP SWAP2 SWAP1 POP JUMP JUMPDEST PUSH0 PUSH1 0x20 DUP3 ADD SWAP1 POP DUP2 DUP2 SUB PUSH0 DUP4 ADD MSTORE PUSH2 0x1294 DUP2 PUSH2 0x125B JUMP JUMPDEST SWAP1 POP SWAP2 SWAP1 POP JUMP JUMPDEST PUSH0 DUP2 SWAP1 POP DUP2 PUSH0 MSTORE PUSH1 0x20 PUSH0 KECCAK256 SWAP1 POP SWAP2 SWAP1 POP JUMP JUMPDEST PUSH0 PUSH1 0x20 PUSH1 0x1F DUP4 ADD DIV SWAP1 POP SWAP2 SWAP1 POP JUMP JUMPDEST PUSH0 DUP3 DUP3 SHL SWAP1 POP SWAP3 SWAP2 POP POP JUMP JUMPDEST PUSH0 PUSH1 0x8 DUP4 MUL PUSH2 0x12F7 PUSH32 0xFFFFFFFFFFFFFFFFFFFFFFFFFFFFFFFFFFFFFFFFFFFFFFFFFFFFFFFFFFFFFFFF DUP3 PUSH2 0x12BC JUMP JUMPDEST PUSH2 0x1301 DUP7 DUP4 PUSH2 0x12BC JUMP JUMPDEST SWAP6 POP DUP1 NOT DUP5 AND SWAP4 POP DUP1 DUP7 AND DUP5 OR SWAP3 POP POP POP SWAP4 SWAP3 POP POP POP JUMP JUMPDEST PUSH0 DUP2 SWAP1 POP SWAP2 SWAP1 POP JUMP JUMPDEST PUSH0 DUP2 SWAP1 POP SWAP2 SWAP1 POP JUMP JUMPDEST PUSH0 PUSH2 0x1345 PUSH2 0x1340 PUSH2 0x133B DUP5 PUSH2 0x1319 JUMP JUMPDEST PUSH2 0x1322 JUMP JUMPDEST PUSH2 0x1319 JUMP JUMPDEST SWAP1 POP SWAP2 SWAP1 POP JUMP JUMPDEST PUSH0 DUP2 SWAP1 POP SWAP2 SWAP1 POP JUMP JUMPDEST PUSH2 0x135E DUP4 PUSH2 0x132B JUMP JUMPDEST PUSH2 0x1372 PUSH2 0x136A DUP3 PUSH2 0x134C JUMP JUMPDEST DUP5 DUP5 SLOAD PUSH2 0x12C8 JUMP JUMPDEST DUP3 SSTORE POP POP POP POP JUMP JUMPDEST PUSH0 SWAP1 JUMP JUMPDEST PUSH2 0x1386 PUSH2 0x137A JUMP JUMPDEST PUSH2 0x1391 DUP2 DUP5 DUP5 PUSH2 0x1355 JUMP JUMPDEST POP POP POP JUMP JUMPDEST JUMPDEST DUP2 DUP2 LT ISZERO PUSH2 0x13B4 JUMPI PUSH2 0x13A9 PUSH0 DUP3 PUSH2 0x137E JUMP JUMPDEST PUSH1 0x1 DUP2 ADD SWAP1 POP PUSH2 0x1397 JUMP JUMPDEST POP POP JUMP JUMPDEST PUSH1 0x1F DUP3 GT ISZERO PUSH2 0x13F9 JUMPI PUSH2 0x13CA DUP2 PUSH2 0x129B JUMP JUMPDEST PUSH2 0x13D3 DUP5 PUSH2 0x12AD JUMP JUMPDEST DUP2 ADD PUSH1 0x20 DUP6 LT ISZERO PUSH2 0x13E2 JUMPI DUP2 SWAP1 POP JUMPDEST PUSH2 0x13F6 PUSH2 0x13EE DUP6 PUSH2 0x12AD JUMP JUMPDEST DUP4 ADD DUP3 PUSH2 0x1396 JUMP JUMPDEST POP POP JUMPDEST POP POP POP JUMP JUMPDEST PUSH0 DUP3 DUP3 SHR SWAP1 POP SWAP3 SWAP2 POP POP JUMP JUMPDEST PUSH0 PUSH2 0x1419 PUSH0 NOT DUP5 PUSH1 0x8 MUL PUSH2 0x13FE JUMP JUMPDEST NOT DUP1 DUP4 AND SWAP2 POP POP SWAP3 SWAP2 POP POP JUMP JUMPDEST PUSH0 PUSH2 0x1431 DUP4 DUP4 PUSH2 0x140A JUMP JUMPDEST SWAP2 POP DUP3 PUSH1 0x2 MUL DUP3 OR SWAP1 POP SWAP3 SWAP2 POP POP JUMP JUMPDEST PUSH2 0x144A DUP3 PUSH2 0xDFE JUMP JUMPDEST PUSH8 0xFFFFFFFFFFFFFFFF DUP2 GT ISZERO PUSH2 0x1463 JUMPI PUSH2 0x1462 PUSH2 0xBBF JUMP JUMPDEST JUMPDEST PUSH2 0x146D DUP3 SLOAD PUSH2 0x1203 JUMP JUMPDEST PUSH2 0x1478 DUP3 DUP3 DUP6 PUSH2 0x13B8 JUMP JUMPDEST PUSH0 PUSH1 0x20 SWAP1 POP PUSH1 0x1F DUP4 GT PUSH1 0x1 DUP2 EQ PUSH2 0x14A9 JUMPI PUSH0 DUP5 ISZERO PUSH2 0x1497 JUMPI DUP3 DUP8 ADD MLOAD SWAP1 POP JUMPDEST PUSH2 0x14A1 DUP6 DUP3 PUSH2 0x1426 JUMP JUMPDEST DUP7 SSTORE POP PUSH2 0x1508 JUMP JUMPDEST PUSH1 0x1F NOT DUP5 AND PUSH2 0x14B7 DUP7 PUSH2 0x129B JUMP JUMPDEST PUSH0 JUMPDEST DUP3 DUP2 LT ISZERO PUSH2 0x14DE JUMPI DUP5 DUP10 ADD MLOAD DUP3 SSTORE PUSH1 0x1 DUP3 ADD SWAP2 POP PUSH1 0x20 DUP6 ADD SWAP5 POP PUSH1 0x20 DUP2 ADD SWAP1 POP PUSH2 0x14B9 JUMP JUMPDEST DUP7 DUP4 LT ISZERO PUSH2 0x14FB JUMPI DUP5 DUP10 ADD MLOAD PUSH2 0x14F7 PUSH1 0x1F DUP10 AND DUP3 PUSH2 0x140A JUMP JUMPDEST DUP4 SSTORE POP JUMPDEST PUSH1 0x1 PUSH1 0x2 DUP9 MUL ADD DUP9 SSTORE POP POP POP JUMPDEST POP POP POP POP POP POP JUMP JUMPDEST PUSH32 0x4E487B7100000000000000000000000000000000000000000000000000000000 PUSH0 MSTORE PUSH1 0x32 PUSH1 0x4 MSTORE PUSH1 0x24 PUSH0 REVERT JUMPDEST PUSH0 DUP2 SLOAD PUSH2 0x1549 DUP2 PUSH2 0x1203 JUMP JUMPDEST PUSH2 0x1553 DUP2 DUP7 PUSH2 0x1186 JUMP JUMPDEST SWAP5 POP PUSH1 0x1 DUP3 AND PUSH0 DUP2 EQ PUSH2 0x156D JUMPI PUSH1 0x1 DUP2 EQ PUSH2 0x1582 JUMPI PUSH2 0x15B4 JUMP JUMPDEST PUSH1 0xFF NOT DUP4 AND DUP7 MSTORE DUP2 ISZERO ISZERO DUP3 MUL DUP7 ADD SWAP4 POP PUSH2 0x15B4 JUMP JUMPDEST PUSH2 0x158B DUP6 PUSH2 0x129B JUMP JUMPDEST PUSH0 JUMPDEST DUP4 DUP2 LT ISZERO PUSH2 0x15AC JUMPI DUP2 SLOAD DUP2 DUP10 ADD MSTORE PUSH1 0x1 DUP3 ADD SWAP2 POP PUSH1 0x20 DUP2 ADD SWAP1 POP PUSH2 0x158D JUMP JUMPDEST DUP4 DUP9 ADD SWAP6 POP POP POP JUMPDEST POP POP POP SWAP3 SWAP2 POP POP JUMP JUMPDEST PUSH0 PUSH2 0x15C8 DUP3 DUP5 PUSH2 0x153D JUMP JUMPDEST SWAP2 POP DUP2 SWAP1 POP SWAP3 SWAP2 POP POP JUMP JUMPDEST PUSH32 0x4E487B7100000000000000000000000000000000000000000000000000000000 PUSH0 MSTORE PUSH1 0x11 PUSH1 0x4 MSTORE PUSH1 0x24 PUSH0 REVERT JUMPDEST PUSH0 PUSH2 0x160A DUP3 PUSH2 0x1319 JUMP JUMPDEST SWAP2 POP PUSH32 0xFFFFFFFFFFFFFFFFFFFFFFFFFFFFFFFFFFFFFFFFFFFFFFFFFFFFFFFFFFFFFFFF DUP3 SUB PUSH2 0x163C JUMPI PUSH2 0x163B PUSH2 0x15D3 JUMP JUMPDEST JUMPDEST PUSH1 0x1 DUP3 ADD SWAP1 POP SWAP2 SWAP1 POP JUMP INVALID LOG2 PUSH5 0x6970667358 0x22 SLT KECCAK256 0x28 0x4C KECCAK256 SELFDESTRUCT 0xAB EXP DUP2 SWAP4 RETURN 0xB4 PUSH32 0x576687E46ACD6477A8677F5D6BE79F88B014052DA764736F6C63430008140033 "},"gasEstimates":{"creation":{"codeDepositCost":"1151400","executionCost":"1192","totalCost":"1152592"},"external":{"addAssociation(string,string,string,string)":"infinite","associations(string)":"infinite","getAllAssociations()":"infinite","getAssociation(string)":"infinite"}},"methodIdentifiers":{"addAssociation(string,string,string,string)":"46492563","associations(string)":"6aec2c7d","getAllAssociations()":"6dcef697","getAssociation(string)":"8bf18321"}},"storageLayout":{"storage":[{"astId":17,"contract":"AssociationVerifier.sol:AssociationVerifier","label":"associations","offset":0,"slot":"0","type":"t_mapping(t_string_memory_ptr,t_struct(Association)12_storage)"},{"astId":20,"contract":"AssociationVerifier.sol:AssociationVerifier","label":"associationIds","offset":0,"slot":"1","type":"t_array(t_string_storage)dyn_storage"}],"types":{"t_address":{"encoding":"inplace","label":"address","numberOfBytes":"20"},"t_array(t_string_storage)dyn_storage":{"base":"t_string_storage","encoding":"dynamic_array","label":"string[]","numberOfBytes":"32"},"t_mapping(t_string_memory_ptr,t_struct(Association)12_storage)":{"encoding":"mapping","key":"t_string_memory_ptr","label":"mapping(string => struct AssociationVerifier.Association)","numberOfBytes":"32","value":"t_struct(Association)12_storage"},"t_string_memory_ptr":{"encoding":"bytes","label":"string","numberOfBytes":"32"},"t_string_storage":{"encoding":"bytes","label":"string","numberOfBytes":"32"},"t_struct(Association)12_storage":{"encoding":"inplace","label":"struct AssociationVerifier.Association","members":[{"astId":3,"contract":"AssociationVerifier.sol:AssociationVerifier","label":"id","offset":0,"slot":"0","type":"t_string_storage"},{"astId":5,"contract":"AssociationVerifier.sol:AssociationVerifier","label":"titre","offset":0,"slot":"1","type":"t_string_storage"},{"astId":7,"contract":"AssociationVerifier.sol:AssociationVerifier","label":"adr1","offset":0,"slot":"2","type":"t_string_storage"},{"astId":9,"contract":"AssociationVerifier.sol:AssociationVerifier","label":"adrs_codepostal","offset":0,"slot":"3","type":"t_string_storage"},{"astId":11,"contract":"AssociationVerifier.sol:AssociationVerifier","label":"owner","offset":0,"slot":"4","type":"t_address"}],"numberOfBytes":"160"}}},"userdoc":{"kind":"user","methods":{},"version":1}}