{"abi":[{"inputs":[{"internalType":"uint256","name":"minimum","type":"uint256"},{"internalType":"address","name":"creator","type":"address"},{"internalType":"string","name":"crowdfundingName","type":"string"}],"stateMutability":"nonpayable","type":"constructor"},{"inputs":[{"internalType":"uint256","name":"index","type":"uint256"}],"name":"approveRequest","outputs":[],"stateMutability":"nonpayable","type":"function"},{"inputs":[{"internalType":"address","name":"","type":"address"}],"name":"approvers","outputs":[{"internalType":"bool","name":"","type":"bool"}],"stateMutability":"view","type":"function"},{"inputs":[],"name":"approversCount","outputs":[{"internalType":"uint256","name":"","type":"uint256"}],"stateMutability":"view","type":"function"},{"inputs":[],"name":"contribute","outputs":[],"stateMutability":"payable","type":"function"},{"inputs":[{"internalType":"string","name":"description","type":"string"},{"internalType":"uint256","name":"value","type":"uint256"},{"internalType":"address","name":"recipient","type":"address"}],"name":"createRequest","outputs":[],"stateMutability":"nonpayable","type":"function"},{"inputs":[{"internalType":"uint256","name":"index","type":"uint256"}],"name":"finalizeRequest","outputs":[],"stateMutability":"nonpayable","type":"function"},{"inputs":[],"name":"getRequestsCount","outputs":[{"internalType":"uint256","name":"","type":"uint256"}],"stateMutability":"view","type":"function"},{"inputs":[],"name":"getSummary","outputs":[{"internalType":"uint256","name":"","type":"uint256"},{"internalType":"uint256","name":"","type":"uint256"},{"internalType":"uint256","name":"","type":"uint256"},{"internalType":"uint256","name":"","type":"uint256"},{"internalType":"address","name":"","type":"address"},{"internalType":"string","name":"","type":"string"}],"stateMutability":"view","type":"function"},{"inputs":[],"name":"manager","outputs":[{"internalType":"address","name":"","type":"address"}],"stateMutability":"view","type":"function"},{"inputs":[],"name":"minimumContribution","outputs":[{"internalType":"uint256","name":"","type":"uint256"}],"stateMutability":"view","type":"function"},{"inputs":[],"name":"name","outputs":[{"internalType":"string","name":"","type":"string"}],"stateMutability":"view","type":"function"},{"inputs":[{"internalType":"uint256","name":"","type":"uint256"}],"name":"requests","outputs":[{"internalType":"string","name":"description","type":"string"},{"internalType":"uint256","name":"value","type":"uint256"},{"internalType":"address","name":"recipient","type":"address"},{"internalType":"bool","name":"complete","type":"bool"},{"internalType":"uint256","name":"approvalCount","type":"uint256"}],"stateMutability":"view","type":"function"}],"devdoc":{"kind":"dev","methods":{},"version":1},"evm":{"assembly":"    /* \"Crowdfunding.sol\":510:2726  contract Crowdfunding {... */\n  mstore(0x40, 0x80)\n    /* \"Crowdfunding.sol\":1022:1204  constructor (uint minimum, address creator, string memory crowdfundingName) {... */\n  callvalue\n  dup1\n  iszero\n  tag_1\n  jumpi\n  0x00\n  dup1\n  revert\ntag_1:\n  pop\n  mload(0x40)\n  sub(codesize, bytecodeSize)\n  dup1\n  bytecodeSize\n  dup4\n  codecopy\n  dup2\n  dup2\n  add\n  0x40\n  mstore\n  dup2\n  add\n  swap1\n  tag_2\n  swap2\n  swap1\n  tag_3\n  jump\t// in\ntag_2:\n    /* \"Crowdfunding.sol\":1118:1125  creator */\n  dup2\n    /* \"Crowdfunding.sol\":1108:1115  manager */\n  0x01\n  0x00\n    /* \"Crowdfunding.sol\":1108:1125  manager = creator */\n  0x0100\n  exp\n  dup2\n  sload\n  dup2\n  0xffffffffffffffffffffffffffffffffffffffff\n  mul\n  not\n  and\n  swap1\n  dup4\n  0xffffffffffffffffffffffffffffffffffffffff\n  and\n  mul\n  or\n  swap1\n  sstore\n  pop\n    /* \"Crowdfunding.sol\":1157:1164  minimum */\n  dup3\n    /* \"Crowdfunding.sol\":1135:1154  minimumContribution */\n  0x02\n    /* \"Crowdfunding.sol\":1135:1164  minimumContribution = minimum */\n  dup2\n  swap1\n  sstore\n  pop\n    /* \"Crowdfunding.sol\":1181:1197  crowdfundingName */\n  dup1\n    /* \"Crowdfunding.sol\":1174:1178  name */\n  0x03\n    /* \"Crowdfunding.sol\":1174:1197  name = crowdfundingName */\n  swap1\n  dup2\n  tag_6\n  swap2\n  swap1\n  tag_7\n  jump\t// in\ntag_6:\n  pop\n    /* \"Crowdfunding.sol\":1022:1204  constructor (uint minimum, address creator, string memory crowdfundingName) {... */\n  pop\n  pop\n  pop\n    /* \"Crowdfunding.sol\":510:2726  contract Crowdfunding {... */\n  jump(tag_8)\n    /* \"#utility.yul\":7:82   */\ntag_9:\n    /* \"#utility.yul\":40:46   */\n  0x00\n    /* \"#utility.yul\":73:75   */\n  0x40\n    /* \"#utility.yul\":67:76   */\n  mload\n    /* \"#utility.yul\":57:76   */\n  swap1\n  pop\n    /* \"#utility.yul\":7:82   */\n  swap1\n  jump\t// out\n    /* \"#utility.yul\":88:205   */\ntag_10:\n    /* \"#utility.yul\":197:198   */\n  0x00\n    /* \"#utility.yul\":194:195   */\n  dup1\n    /* \"#utility.yul\":187:199   */\n  revert\n    /* \"#utility.yul\":211:328   */\ntag_11:\n    /* \"#utility.yul\":320:321   */\n  0x00\n    /* \"#utility.yul\":317:318   */\n  dup1\n    /* \"#utility.yul\":310:322   */\n  revert\n    /* \"#utility.yul\":334:411   */\ntag_12:\n    /* \"#utility.yul\":371:378   */\n  0x00\n    /* \"#utility.yul\":400:405   */\n  dup2\n    /* \"#utility.yul\":389:405   */\n  swap1\n  pop\n    /* \"#utility.yul\":334:411   */\n  swap2\n  swap1\n  pop\n  jump\t// out\n    /* \"#utility.yul\":417:539   */\ntag_13:\n    /* \"#utility.yul\":490:514   */\n  tag_53\n    /* \"#utility.yul\":508:513   */\n  dup2\n    /* \"#utility.yul\":490:514   */\n  tag_12\n  jump\t// in\ntag_53:\n    /* \"#utility.yul\":483:488   */\n  dup2\n    /* \"#utility.yul\":480:515   */\n  eq\n    /* \"#utility.yul\":470:533   */\n  tag_54\n  jumpi\n    /* \"#utility.yul\":529:530   */\n  0x00\n    /* \"#utility.yul\":526:527   */\n  dup1\n    /* \"#utility.yul\":519:531   */\n  revert\n    /* \"#utility.yul\":470:533   */\ntag_54:\n    /* \"#utility.yul\":417:539   */\n  pop\n  jump\t// out\n    /* \"#utility.yul\":545:688   */\ntag_14:\n    /* \"#utility.yul\":602:607   */\n  0x00\n    /* \"#utility.yul\":633:639   */\n  dup2\n    /* \"#utility.yul\":627:640   */\n  mload\n    /* \"#utility.yul\":618:640   */\n  swap1\n  pop\n    /* \"#utility.yul\":649:682   */\n  tag_56\n    /* \"#utility.yul\":676:681   */\n  dup2\n    /* \"#utility.yul\":649:682   */\n  tag_13\n  jump\t// in\ntag_56:\n    /* \"#utility.yul\":545:688   */\n  swap3\n  swap2\n  pop\n  pop\n  jump\t// out\n    /* \"#utility.yul\":694:820   */\ntag_15:\n    /* \"#utility.yul\":731:738   */\n  0x00\n    /* \"#utility.yul\":771:813   */\n  0xffffffffffffffffffffffffffffffffffffffff\n    /* \"#utility.yul\":764:769   */\n  dup3\n    /* \"#utility.yul\":760:814   */\n  and\n    /* \"#utility.yul\":749:814   */\n  swap1\n  pop\n    /* \"#utility.yul\":694:820   */\n  swap2\n  swap1\n  pop\n  jump\t// out\n    /* \"#utility.yul\":826:922   */\ntag_16:\n    /* \"#utility.yul\":863:870   */\n  0x00\n    /* \"#utility.yul\":892:916   */\n  tag_59\n    /* \"#utility.yul\":910:915   */\n  dup3\n    /* \"#utility.yul\":892:916   */\n  tag_15\n  jump\t// in\ntag_59:\n    /* \"#utility.yul\":881:916   */\n  swap1\n  pop\n    /* \"#utility.yul\":826:922   */\n  swap2\n  swap1\n  pop\n  jump\t// out\n    /* \"#utility.yul\":928:1050   */\ntag_17:\n    /* \"#utility.yul\":1001:1025   */\n  tag_61\n    /* \"#utility.yul\":1019:1024   */\n  dup2\n    /* \"#utility.yul\":1001:1025   */\n  tag_16\n  jump\t// in\ntag_61:\n    /* \"#utility.yul\":994:999   */\n  dup2\n    /* \"#utility.yul\":991:1026   */\n  eq\n    /* \"#utility.yul\":981:1044   */\n  tag_62\n  jumpi\n    /* \"#utility.yul\":1040:1041   */\n  0x00\n    /* \"#utility.yul\":1037:1038   */\n  dup1\n    /* \"#utility.yul\":1030:1042   */\n  revert\n    /* \"#utility.yul\":981:1044   */\ntag_62:\n    /* \"#utility.yul\":928:1050   */\n  pop\n  jump\t// out\n    /* \"#utility.yul\":1056:1199   */\ntag_18:\n    /* \"#utility.yul\":1113:1118   */\n  0x00\n    /* \"#utility.yul\":1144:1150   */\n  dup2\n    /* \"#utility.yul\":1138:1151   */\n  mload\n    /* \"#utility.yul\":1129:1151   */\n  swap1\n  pop\n    /* \"#utility.yul\":1160:1193   */\n  tag_64\n    /* \"#utility.yul\":1187:1192   */\n  dup2\n    /* \"#utility.yul\":1160:1193   */\n  tag_17\n  jump\t// in\ntag_64:\n    /* \"#utility.yul\":1056:1199   */\n  swap3\n  swap2\n  pop\n  pop\n  jump\t// out\n    /* \"#utility.yul\":1205:1322   */\ntag_19:\n    /* \"#utility.yul\":1314:1315   */\n  0x00\n    /* \"#utility.yul\":1311:1312   */\n  dup1\n    /* \"#utility.yul\":1304:1316   */\n  revert\n    /* \"#utility.yul\":1328:1445   */\ntag_20:\n    /* \"#utility.yul\":1437:1438   */\n  0x00\n    /* \"#utility.yul\":1434:1435   */\n  dup1\n    /* \"#utility.yul\":1427:1439   */\n  revert\n    /* \"#utility.yul\":1451:1553   */\ntag_21:\n    /* \"#utility.yul\":1492:1498   */\n  0x00\n    /* \"#utility.yul\":1543:1545   */\n  0x1f\n    /* \"#utility.yul\":1539:1546   */\n  not\n    /* \"#utility.yul\":1534:1536   */\n  0x1f\n    /* \"#utility.yul\":1527:1532   */\n  dup4\n    /* \"#utility.yul\":1523:1537   */\n  add\n    /* \"#utility.yul\":1519:1547   */\n  and\n    /* \"#utility.yul\":1509:1547   */\n  swap1\n  pop\n    /* \"#utility.yul\":1451:1553   */\n  swap2\n  swap1\n  pop\n  jump\t// out\n    /* \"#utility.yul\":1559:1739   */\ntag_22:\n    /* \"#utility.yul\":1607:1684   */\n  0x4e487b7100000000000000000000000000000000000000000000000000000000\n    /* \"#utility.yul\":1604:1605   */\n  0x00\n    /* \"#utility.yul\":1597:1685   */\n  mstore\n    /* \"#utility.yul\":1704:1708   */\n  0x41\n    /* \"#utility.yul\":1701:1702   */\n  0x04\n    /* \"#utility.yul\":1694:1709   */\n  mstore\n    /* \"#utility.yul\":1728:1732   */\n  0x24\n    /* \"#utility.yul\":1725:1726   */\n  0x00\n    /* \"#utility.yul\":1718:1733   */\n  revert\n    /* \"#utility.yul\":1745:2026   */\ntag_23:\n    /* \"#utility.yul\":1828:1855   */\n  tag_70\n    /* \"#utility.yul\":1850:1854   */\n  dup3\n    /* \"#utility.yul\":1828:1855   */\n  tag_21\n  jump\t// in\ntag_70:\n    /* \"#utility.yul\":1820:1826   */\n  dup2\n    /* \"#utility.yul\":1816:1856   */\n  add\n    /* \"#utility.yul\":1958:1964   */\n  dup2\n    /* \"#utility.yul\":1946:1956   */\n  dup2\n    /* \"#utility.yul\":1943:1965   */\n  lt\n    /* \"#utility.yul\":1922:1940   */\n  0xffffffffffffffff\n    /* \"#utility.yul\":1910:1920   */\n  dup3\n    /* \"#utility.yul\":1907:1941   */\n  gt\n    /* \"#utility.yul\":1904:1966   */\n  or\n    /* \"#utility.yul\":1901:1989   */\n  iszero\n  tag_71\n  jumpi\n    /* \"#utility.yul\":1969:1987   */\n  tag_72\n  tag_22\n  jump\t// in\ntag_72:\n    /* \"#utility.yul\":1901:1989   */\ntag_71:\n    /* \"#utility.yul\":2009:2019   */\n  dup1\n    /* \"#utility.yul\":2005:2007   */\n  0x40\n    /* \"#utility.yul\":1998:2020   */\n  mstore\n    /* \"#utility.yul\":1788:2026   */\n  pop\n    /* \"#utility.yul\":1745:2026   */\n  pop\n  pop\n  jump\t// out\n    /* \"#utility.yul\":2032:2161   */\ntag_24:\n    /* \"#utility.yul\":2066:2072   */\n  0x00\n    /* \"#utility.yul\":2093:2113   */\n  tag_74\n  tag_9\n  jump\t// in\ntag_74:\n    /* \"#utility.yul\":2083:2113   */\n  swap1\n  pop\n    /* \"#utility.yul\":2122:2155   */\n  tag_75\n    /* \"#utility.yul\":2150:2154   */\n  dup3\n    /* \"#utility.yul\":2142:2148   */\n  dup3\n    /* \"#utility.yul\":2122:2155   */\n  tag_23\n  jump\t// in\ntag_75:\n    /* \"#utility.yul\":2032:2161   */\n  swap2\n  swap1\n  pop\n  jump\t// out\n    /* \"#utility.yul\":2167:2475   */\ntag_25:\n    /* \"#utility.yul\":2229:2233   */\n  0x00\n    /* \"#utility.yul\":2319:2337   */\n  0xffffffffffffffff\n    /* \"#utility.yul\":2311:2317   */\n  dup3\n    /* \"#utility.yul\":2308:2338   */\n  gt\n    /* \"#utility.yul\":2305:2361   */\n  iszero\n  tag_77\n  jumpi\n    /* \"#utility.yul\":2341:2359   */\n  tag_78\n  tag_22\n  jump\t// in\ntag_78:\n    /* \"#utility.yul\":2305:2361   */\ntag_77:\n    /* \"#utility.yul\":2379:2408   */\n  tag_79\n    /* \"#utility.yul\":2401:2407   */\n  dup3\n    /* \"#utility.yul\":2379:2408   */\n  tag_21\n  jump\t// in\ntag_79:\n    /* \"#utility.yul\":2371:2408   */\n  swap1\n  pop\n    /* \"#utility.yul\":2463:2467   */\n  0x20\n    /* \"#utility.yul\":2457:2461   */\n  dup2\n    /* \"#utility.yul\":2453:2468   */\n  add\n    /* \"#utility.yul\":2445:2468   */\n  swap1\n  pop\n    /* \"#utility.yul\":2167:2475   */\n  swap2\n  swap1\n  pop\n  jump\t// out\n    /* \"#utility.yul\":2481:2727   */\ntag_26:\n    /* \"#utility.yul\":2562:2563   */\n  0x00\n    /* \"#utility.yul\":2572:2685   */\ntag_81:\n    /* \"#utility.yul\":2586:2592   */\n  dup4\n    /* \"#utility.yul\":2583:2584   */\n  dup2\n    /* \"#utility.yul\":2580:2593   */\n  lt\n    /* \"#utility.yul\":2572:2685   */\n  iszero\n  tag_83\n  jumpi\n    /* \"#utility.yul\":2671:2672   */\n  dup1\n    /* \"#utility.yul\":2666:2669   */\n  dup3\n    /* \"#utility.yul\":2662:2673   */\n  add\n    /* \"#utility.yul\":2656:2674   */\n  mload\n    /* \"#utility.yul\":2652:2653   */\n  dup2\n    /* \"#utility.yul\":2647:2650   */\n  dup5\n    /* \"#utility.yul\":2643:2654   */\n  add\n    /* \"#utility.yul\":2636:2675   */\n  mstore\n    /* \"#utility.yul\":2608:2610   */\n  0x20\n    /* \"#utility.yul\":2605:2606   */\n  dup2\n    /* \"#utility.yul\":2601:2611   */\n  add\n    /* \"#utility.yul\":2596:2611   */\n  swap1\n  pop\n    /* \"#utility.yul\":2572:2685   */\n  jump(tag_81)\ntag_83:\n    /* \"#utility.yul\":2719:2720   */\n  0x00\n    /* \"#utility.yul\":2710:2716   */\n  dup5\n    /* \"#utility.yul\":2705:2708   */\n  dup5\n    /* \"#utility.yul\":2701:2717   */\n  add\n    /* \"#utility.yul\":2694:2721   */\n  mstore\n    /* \"#utility.yul\":2543:2727   */\n  pop\n    /* \"#utility.yul\":2481:2727   */\n  pop\n  pop\n  pop\n  jump\t// out\n    /* \"#utility.yul\":2733:3167   */\ntag_27:\n    /* \"#utility.yul\":2822:2827   */\n  0x00\n    /* \"#utility.yul\":2847:2913   */\n  tag_85\n    /* \"#utility.yul\":2863:2912   */\n  tag_86\n    /* \"#utility.yul\":2905:2911   */\n  dup5\n    /* \"#utility.yul\":2863:2912   */\n  tag_25\n  jump\t// in\ntag_86:\n    /* \"#utility.yul\":2847:2913   */\n  tag_24\n  jump\t// in\ntag_85:\n    /* \"#utility.yul\":2838:2913   */\n  swap1\n  pop\n    /* \"#utility.yul\":2936:2942   */\n  dup3\n    /* \"#utility.yul\":2929:2934   */\n  dup2\n    /* \"#utility.yul\":2922:2943   */\n  mstore\n    /* \"#utility.yul\":2974:2978   */\n  0x20\n    /* \"#utility.yul\":2967:2972   */\n  dup2\n    /* \"#utility.yul\":2963:2979   */\n  add\n    /* \"#utility.yul\":3012:3015   */\n  dup5\n    /* \"#utility.yul\":3003:3009   */\n  dup5\n    /* \"#utility.yul\":2998:3001   */\n  dup5\n    /* \"#utility.yul\":2994:3010   */\n  add\n    /* \"#utility.yul\":2991:3016   */\n  gt\n    /* \"#utility.yul\":2988:3100   */\n  iszero\n  tag_87\n  jumpi\n    /* \"#utility.yul\":3019:3098   */\n  tag_88\n  tag_20\n  jump\t// in\ntag_88:\n    /* \"#utility.yul\":2988:3100   */\ntag_87:\n    /* \"#utility.yul\":3109:3161   */\n  tag_89\n    /* \"#utility.yul\":3154:3160   */\n  dup5\n    /* \"#utility.yul\":3149:3152   */\n  dup3\n    /* \"#utility.yul\":3144:3147   */\n  dup6\n    /* \"#utility.yul\":3109:3161   */\n  tag_26\n  jump\t// in\ntag_89:\n    /* \"#utility.yul\":2828:3167   */\n  pop\n    /* \"#utility.yul\":2733:3167   */\n  swap4\n  swap3\n  pop\n  pop\n  pop\n  jump\t// out\n    /* \"#utility.yul\":3187:3542   */\ntag_28:\n    /* \"#utility.yul\":3254:3259   */\n  0x00\n    /* \"#utility.yul\":3303:3306   */\n  dup3\n    /* \"#utility.yul\":3296:3300   */\n  0x1f\n    /* \"#utility.yul\":3288:3294   */\n  dup4\n    /* \"#utility.yul\":3284:3301   */\n  add\n    /* \"#utility.yul\":3280:3307   */\n  slt\n    /* \"#utility.yul\":3270:3392   */\n  tag_91\n  jumpi\n    /* \"#utility.yul\":3311:3390   */\n  tag_92\n  tag_19\n  jump\t// in\ntag_92:\n    /* \"#utility.yul\":3270:3392   */\ntag_91:\n    /* \"#utility.yul\":3421:3427   */\n  dup2\n    /* \"#utility.yul\":3415:3428   */\n  mload\n    /* \"#utility.yul\":3446:3536   */\n  tag_93\n    /* \"#utility.yul\":3532:3535   */\n  dup5\n    /* \"#utility.yul\":3524:3530   */\n  dup3\n    /* \"#utility.yul\":3517:3521   */\n  0x20\n    /* \"#utility.yul\":3509:3515   */\n  dup7\n    /* \"#utility.yul\":3505:3522   */\n  add\n    /* \"#utility.yul\":3446:3536   */\n  tag_27\n  jump\t// in\ntag_93:\n    /* \"#utility.yul\":3437:3536   */\n  swap2\n  pop\n    /* \"#utility.yul\":3260:3542   */\n  pop\n    /* \"#utility.yul\":3187:3542   */\n  swap3\n  swap2\n  pop\n  pop\n  jump\t// out\n    /* \"#utility.yul\":3548:4384   */\ntag_3:\n    /* \"#utility.yul\":3646:3652   */\n  0x00\n    /* \"#utility.yul\":3654:3660   */\n  dup1\n    /* \"#utility.yul\":3662:3668   */\n  0x00\n    /* \"#utility.yul\":3711:3713   */\n  0x60\n    /* \"#utility.yul\":3699:3708   */\n  dup5\n    /* \"#utility.yul\":3690:3697   */\n  dup7\n    /* \"#utility.yul\":3686:3709   */\n  sub\n    /* \"#utility.yul\":3682:3714   */\n  slt\n    /* \"#utility.yul\":3679:3798   */\n  iszero\n  tag_95\n  jumpi\n    /* \"#utility.yul\":3717:3796   */\n  tag_96\n  tag_10\n  jump\t// in\ntag_96:\n    /* \"#utility.yul\":3679:3798   */\ntag_95:\n    /* \"#utility.yul\":3837:3838   */\n  0x00\n    /* \"#utility.yul\":3862:3926   */\n  tag_97\n    /* \"#utility.yul\":3918:3925   */\n  dup7\n    /* \"#utility.yul\":3909:3915   */\n  dup3\n    /* \"#utility.yul\":3898:3907   */\n  dup8\n    /* \"#utility.yul\":3894:3916   */\n  add\n    /* \"#utility.yul\":3862:3926   */\n  tag_14\n  jump\t// in\ntag_97:\n    /* \"#utility.yul\":3852:3926   */\n  swap4\n  pop\n    /* \"#utility.yul\":3808:3936   */\n  pop\n    /* \"#utility.yul\":3975:3977   */\n  0x20\n    /* \"#utility.yul\":4001:4065   */\n  tag_98\n    /* \"#utility.yul\":4057:4064   */\n  dup7\n    /* \"#utility.yul\":4048:4054   */\n  dup3\n    /* \"#utility.yul\":4037:4046   */\n  dup8\n    /* \"#utility.yul\":4033:4055   */\n  add\n    /* \"#utility.yul\":4001:4065   */\n  tag_18\n  jump\t// in\ntag_98:\n    /* \"#utility.yul\":3991:4065   */\n  swap3\n  pop\n    /* \"#utility.yul\":3946:4075   */\n  pop\n    /* \"#utility.yul\":4135:4137   */\n  0x40\n    /* \"#utility.yul\":4124:4133   */\n  dup5\n    /* \"#utility.yul\":4120:4138   */\n  add\n    /* \"#utility.yul\":4114:4139   */\n  mload\n    /* \"#utility.yul\":4166:4184   */\n  0xffffffffffffffff\n    /* \"#utility.yul\":4158:4164   */\n  dup2\n    /* \"#utility.yul\":4155:4185   */\n  gt\n    /* \"#utility.yul\":4152:4269   */\n  iszero\n  tag_99\n  jumpi\n    /* \"#utility.yul\":4188:4267   */\n  tag_100\n  tag_11\n  jump\t// in\ntag_100:\n    /* \"#utility.yul\":4152:4269   */\ntag_99:\n    /* \"#utility.yul\":4293:4367   */\n  tag_101\n    /* \"#utility.yul\":4359:4366   */\n  dup7\n    /* \"#utility.yul\":4350:4356   */\n  dup3\n    /* \"#utility.yul\":4339:4348   */\n  dup8\n    /* \"#utility.yul\":4335:4357   */\n  add\n    /* \"#utility.yul\":4293:4367   */\n  tag_28\n  jump\t// in\ntag_101:\n    /* \"#utility.yul\":4283:4367   */\n  swap2\n  pop\n    /* \"#utility.yul\":4085:4377   */\n  pop\n    /* \"#utility.yul\":3548:4384   */\n  swap3\n  pop\n  swap3\n  pop\n  swap3\n  jump\t// out\n    /* \"#utility.yul\":4390:4489   */\ntag_29:\n    /* \"#utility.yul\":4442:4448   */\n  0x00\n    /* \"#utility.yul\":4476:4481   */\n  dup2\n    /* \"#utility.yul\":4470:4482   */\n  mload\n    /* \"#utility.yul\":4460:4482   */\n  swap1\n  pop\n    /* \"#utility.yul\":4390:4489   */\n  swap2\n  swap1\n  pop\n  jump\t// out\n    /* \"#utility.yul\":4495:4675   */\ntag_30:\n    /* \"#utility.yul\":4543:4620   */\n  0x4e487b7100000000000000000000000000000000000000000000000000000000\n    /* \"#utility.yul\":4540:4541   */\n  0x00\n    /* \"#utility.yul\":4533:4621   */\n  mstore\n    /* \"#utility.yul\":4640:4644   */\n  0x22\n    /* \"#utility.yul\":4637:4638   */\n  0x04\n    /* \"#utility.yul\":4630:4645   */\n  mstore\n    /* \"#utility.yul\":4664:4668   */\n  0x24\n    /* \"#utility.yul\":4661:4662   */\n  0x00\n    /* \"#utility.yul\":4654:4669   */\n  revert\n    /* \"#utility.yul\":4681:5001   */\ntag_31:\n    /* \"#utility.yul\":4725:4731   */\n  0x00\n    /* \"#utility.yul\":4762:4763   */\n  0x02\n    /* \"#utility.yul\":4756:4760   */\n  dup3\n    /* \"#utility.yul\":4752:4764   */\n  div\n    /* \"#utility.yul\":4742:4764   */\n  swap1\n  pop\n    /* \"#utility.yul\":4809:4810   */\n  0x01\n    /* \"#utility.yul\":4803:4807   */\n  dup3\n    /* \"#utility.yul\":4799:4811   */\n  and\n    /* \"#utility.yul\":4830:4848   */\n  dup1\n    /* \"#utility.yul\":4820:4901   */\n  tag_105\n  jumpi\n    /* \"#utility.yul\":4886:4890   */\n  0x7f\n    /* \"#utility.yul\":4878:4884   */\n  dup3\n    /* \"#utility.yul\":4874:4891   */\n  and\n    /* \"#utility.yul\":4864:4891   */\n  swap2\n  pop\n    /* \"#utility.yul\":4820:4901   */\ntag_105:\n    /* \"#utility.yul\":4948:4950   */\n  0x20\n    /* \"#utility.yul\":4940:4946   */\n  dup3\n    /* \"#utility.yul\":4937:4951   */\n  lt\n    /* \"#utility.yul\":4917:4935   */\n  dup2\n    /* \"#utility.yul\":4914:4952   */\n  sub\n    /* \"#utility.yul\":4911:4995   */\n  tag_106\n  jumpi\n    /* \"#utility.yul\":4967:4985   */\n  tag_107\n  tag_30\n  jump\t// in\ntag_107:\n    /* \"#utility.yul\":4911:4995   */\ntag_106:\n    /* \"#utility.yul\":4732:5001   */\n  pop\n    /* \"#utility.yul\":4681:5001   */\n  swap2\n  swap1\n  pop\n  jump\t// out\n    /* \"#utility.yul\":5007:5148   */\ntag_32:\n    /* \"#utility.yul\":5056:5060   */\n  0x00\n    /* \"#utility.yul\":5079:5082   */\n  dup2\n    /* \"#utility.yul\":5071:5082   */\n  swap1\n  pop\n    /* \"#utility.yul\":5102:5105   */\n  dup2\n    /* \"#utility.yul\":5099:5100   */\n  0x00\n    /* \"#utility.yul\":5092:5106   */\n  mstore\n    /* \"#utility.yul\":5136:5140   */\n  0x20\n    /* \"#utility.yul\":5133:5134   */\n  0x00\n    /* \"#utility.yul\":5123:5141   */\n  keccak256\n    /* \"#utility.yul\":5115:5141   */\n  swap1\n  pop\n    /* \"#utility.yul\":5007:5148   */\n  swap2\n  swap1\n  pop\n  jump\t// out\n    /* \"#utility.yul\":5154:5247   */\ntag_33:\n    /* \"#utility.yul\":5191:5197   */\n  0x00\n    /* \"#utility.yul\":5238:5240   */\n  0x20\n    /* \"#utility.yul\":5233:5235   */\n  0x1f\n    /* \"#utility.yul\":5226:5231   */\n  dup4\n    /* \"#utility.yul\":5222:5236   */\n  add\n    /* \"#utility.yul\":5218:5241   */\n  div\n    /* \"#utility.yul\":5208:5241   */\n  swap1\n  pop\n    /* \"#utility.yul\":5154:5247   */\n  swap2\n  swap1\n  pop\n  jump\t// out\n    /* \"#utility.yul\":5253:5360   */\ntag_34:\n    /* \"#utility.yul\":5297:5305   */\n  0x00\n    /* \"#utility.yul\":5347:5352   */\n  dup3\n    /* \"#utility.yul\":5341:5345   */\n  dup3\n    /* \"#utility.yul\":5337:5353   */\n  shl\n    /* \"#utility.yul\":5316:5353   */\n  swap1\n  pop\n    /* \"#utility.yul\":5253:5360   */\n  swap3\n  swap2\n  pop\n  pop\n  jump\t// out\n    /* \"#utility.yul\":5366:5759   */\ntag_35:\n    /* \"#utility.yul\":5435:5441   */\n  0x00\n    /* \"#utility.yul\":5485:5486   */\n  0x08\n    /* \"#utility.yul\":5473:5483   */\n  dup4\n    /* \"#utility.yul\":5469:5487   */\n  mul\n    /* \"#utility.yul\":5508:5605   */\n  tag_112\n    /* \"#utility.yul\":5538:5604   */\n  0xffffffffffffffffffffffffffffffffffffffffffffffffffffffffffffffff\n    /* \"#utility.yul\":5527:5536   */\n  dup3\n    /* \"#utility.yul\":5508:5605   */\n  tag_34\n  jump\t// in\ntag_112:\n    /* \"#utility.yul\":5626:5665   */\n  tag_113\n    /* \"#utility.yul\":5656:5664   */\n  dup7\n    /* \"#utility.yul\":5645:5654   */\n  dup4\n    /* \"#utility.yul\":5626:5665   */\n  tag_34\n  jump\t// in\ntag_113:\n    /* \"#utility.yul\":5614:5665   */\n  swap6\n  pop\n    /* \"#utility.yul\":5698:5702   */\n  dup1\n    /* \"#utility.yul\":5694:5703   */\n  not\n    /* \"#utility.yul\":5687:5692   */\n  dup5\n    /* \"#utility.yul\":5683:5704   */\n  and\n    /* \"#utility.yul\":5674:5704   */\n  swap4\n  pop\n    /* \"#utility.yul\":5747:5751   */\n  dup1\n    /* \"#utility.yul\":5737:5745   */\n  dup7\n    /* \"#utility.yul\":5733:5752   */\n  and\n    /* \"#utility.yul\":5726:5731   */\n  dup5\n    /* \"#utility.yul\":5723:5753   */\n  or\n    /* \"#utility.yul\":5713:5753   */\n  swap3\n  pop\n    /* \"#utility.yul\":5442:5759   */\n  pop\n  pop\n    /* \"#utility.yul\":5366:5759   */\n  swap4\n  swap3\n  pop\n  pop\n  pop\n  jump\t// out\n    /* \"#utility.yul\":5765:5825   */\ntag_36:\n    /* \"#utility.yul\":5793:5796   */\n  0x00\n    /* \"#utility.yul\":5814:5819   */\n  dup2\n    /* \"#utility.yul\":5807:5819   */\n  swap1\n  pop\n    /* \"#utility.yul\":5765:5825   */\n  swap2\n  swap1\n  pop\n  jump\t// out\n    /* \"#utility.yul\":5831:5973   */\ntag_37:\n    /* \"#utility.yul\":5881:5890   */\n  0x00\n    /* \"#utility.yul\":5914:5967   */\n  tag_116\n    /* \"#utility.yul\":5932:5966   */\n  tag_117\n    /* \"#utility.yul\":5941:5965   */\n  tag_118\n    /* \"#utility.yul\":5959:5964   */\n  dup5\n    /* \"#utility.yul\":5941:5965   */\n  tag_12\n  jump\t// in\ntag_118:\n    /* \"#utility.yul\":5932:5966   */\n  tag_36\n  jump\t// in\ntag_117:\n    /* \"#utility.yul\":5914:5967   */\n  tag_12\n  jump\t// in\ntag_116:\n    /* \"#utility.yul\":5901:5967   */\n  swap1\n  pop\n    /* \"#utility.yul\":5831:5973   */\n  swap2\n  swap1\n  pop\n  jump\t// out\n    /* \"#utility.yul\":5979:6054   */\ntag_38:\n    /* \"#utility.yul\":6022:6025   */\n  0x00\n    /* \"#utility.yul\":6043:6048   */\n  dup2\n    /* \"#utility.yul\":6036:6048   */\n  swap1\n  pop\n    /* \"#utility.yul\":5979:6054   */\n  swap2\n  swap1\n  pop\n  jump\t// out\n    /* \"#utility.yul\":6060:6329   */\ntag_39:\n    /* \"#utility.yul\":6170:6209   */\n  tag_121\n    /* \"#utility.yul\":6201:6208   */\n  dup4\n    /* \"#utility.yul\":6170:6209   */\n  tag_37\n  jump\t// in\ntag_121:\n    /* \"#utility.yul\":6231:6322   */\n  tag_122\n    /* \"#utility.yul\":6280:6321   */\n  tag_123\n    /* \"#utility.yul\":6304:6320   */\n  dup3\n    /* \"#utility.yul\":6280:6321   */\n  tag_38\n  jump\t// in\ntag_123:\n    /* \"#utility.yul\":6272:6278   */\n  dup5\n    /* \"#utility.yul\":6265:6269   */\n  dup5\n    /* \"#utility.yul\":6259:6270   */\n  sload\n    /* \"#utility.yul\":6231:6322   */\n  tag_35\n  jump\t// in\ntag_122:\n    /* \"#utility.yul\":6225:6229   */\n  dup3\n    /* \"#utility.yul\":6218:6323   */\n  sstore\n    /* \"#utility.yul\":6136:6329   */\n  pop\n    /* \"#utility.yul\":6060:6329   */\n  pop\n  pop\n  pop\n  jump\t// out\n    /* \"#utility.yul\":6335:6408   */\ntag_40:\n    /* \"#utility.yul\":6380:6383   */\n  0x00\n    /* \"#utility.yul\":6335:6408   */\n  swap1\n  jump\t// out\n    /* \"#utility.yul\":6414:6603   */\ntag_41:\n    /* \"#utility.yul\":6491:6523   */\n  tag_126\n  tag_40\n  jump\t// in\ntag_126:\n    /* \"#utility.yul\":6532:6597   */\n  tag_127\n    /* \"#utility.yul\":6590:6596   */\n  dup2\n    /* \"#utility.yul\":6582:6588   */\n  dup5\n    /* \"#utility.yul\":6576:6580   */\n  dup5\n    /* \"#utility.yul\":6532:6597   */\n  tag_39\n  jump\t// in\ntag_127:\n    /* \"#utility.yul\":6467:6603   */\n  pop\n    /* \"#utility.yul\":6414:6603   */\n  pop\n  pop\n  jump\t// out\n    /* \"#utility.yul\":6609:6795   */\ntag_42:\n    /* \"#utility.yul\":6669:6789   */\ntag_129:\n    /* \"#utility.yul\":6686:6689   */\n  dup2\n    /* \"#utility.yul\":6679:6684   */\n  dup2\n    /* \"#utility.yul\":6676:6690   */\n  lt\n    /* \"#utility.yul\":6669:6789   */\n  iszero\n  tag_131\n  jumpi\n    /* \"#utility.yul\":6740:6779   */\n  tag_132\n    /* \"#utility.yul\":6777:6778   */\n  0x00\n    /* \"#utility.yul\":6770:6775   */\n  dup3\n    /* \"#utility.yul\":6740:6779   */\n  tag_41\n  jump\t// in\ntag_132:\n    /* \"#utility.yul\":6713:6714   */\n  0x01\n    /* \"#utility.yul\":6706:6711   */\n  dup2\n    /* \"#utility.yul\":6702:6715   */\n  add\n    /* \"#utility.yul\":6693:6715   */\n  swap1\n  pop\n    /* \"#utility.yul\":6669:6789   */\n  jump(tag_129)\ntag_131:\n    /* \"#utility.yul\":6609:6795   */\n  pop\n  pop\n  jump\t// out\n    /* \"#utility.yul\":6801:7344   */\ntag_43:\n    /* \"#utility.yul\":6902:6904   */\n  0x1f\n    /* \"#utility.yul\":6897:6900   */\n  dup3\n    /* \"#utility.yul\":6894:6905   */\n  gt\n    /* \"#utility.yul\":6891:7337   */\n  iszero\n  tag_134\n  jumpi\n    /* \"#utility.yul\":6936:6974   */\n  tag_135\n    /* \"#utility.yul\":6968:6973   */\n  dup2\n    /* \"#utility.yul\":6936:6974   */\n  tag_32\n  jump\t// in\ntag_135:\n    /* \"#utility.yul\":7020:7049   */\n  tag_136\n    /* \"#utility.yul\":7038:7048   */\n  dup5\n    /* \"#utility.yul\":7020:7049   */\n  tag_33\n  jump\t// in\ntag_136:\n    /* \"#utility.yul\":7010:7018   */\n  dup2\n    /* \"#utility.yul\":7006:7050   */\n  add\n    /* \"#utility.yul\":7203:7205   */\n  0x20\n    /* \"#utility.yul\":7191:7201   */\n  dup6\n    /* \"#utility.yul\":7188:7206   */\n  lt\n    /* \"#utility.yul\":7185:7234   */\n  iszero\n  tag_137\n  jumpi\n    /* \"#utility.yul\":7224:7232   */\n  dup2\n    /* \"#utility.yul\":7209:7232   */\n  swap1\n  pop\n    /* \"#utility.yul\":7185:7234   */\ntag_137:\n    /* \"#utility.yul\":7247:7327   */\n  tag_138\n    /* \"#utility.yul\":7303:7325   */\n  tag_139\n    /* \"#utility.yul\":7321:7324   */\n  dup6\n    /* \"#utility.yul\":7303:7325   */\n  tag_33\n  jump\t// in\ntag_139:\n    /* \"#utility.yul\":7293:7301   */\n  dup4\n    /* \"#utility.yul\":7289:7326   */\n  add\n    /* \"#utility.yul\":7276:7287   */\n  dup3\n    /* \"#utility.yul\":7247:7327   */\n  tag_42\n  jump\t// in\ntag_138:\n    /* \"#utility.yul\":6906:7337   */\n  pop\n  pop\n    /* \"#utility.yul\":6891:7337   */\ntag_134:\n    /* \"#utility.yul\":6801:7344   */\n  pop\n  pop\n  pop\n  jump\t// out\n    /* \"#utility.yul\":7350:7467   */\ntag_44:\n    /* \"#utility.yul\":7404:7412   */\n  0x00\n    /* \"#utility.yul\":7454:7459   */\n  dup3\n    /* \"#utility.yul\":7448:7452   */\n  dup3\n    /* \"#utility.yul\":7444:7460   */\n  shr\n    /* \"#utility.yul\":7423:7460   */\n  swap1\n  pop\n    /* \"#utility.yul\":7350:7467   */\n  swap3\n  swap2\n  pop\n  pop\n  jump\t// out\n    /* \"#utility.yul\":7473:7642   */\ntag_45:\n    /* \"#utility.yul\":7517:7523   */\n  0x00\n    /* \"#utility.yul\":7550:7601   */\n  tag_142\n    /* \"#utility.yul\":7598:7599   */\n  0x00\n    /* \"#utility.yul\":7594:7600   */\n  not\n    /* \"#utility.yul\":7586:7591   */\n  dup5\n    /* \"#utility.yul\":7583:7584   */\n  0x08\n    /* \"#utility.yul\":7579:7592   */\n  mul\n    /* \"#utility.yul\":7550:7601   */\n  tag_44\n  jump\t// in\ntag_142:\n    /* \"#utility.yul\":7546:7602   */\n  not\n    /* \"#utility.yul\":7631:7635   */\n  dup1\n    /* \"#utility.yul\":7625:7629   */\n  dup4\n    /* \"#utility.yul\":7621:7636   */\n  and\n    /* \"#utility.yul\":7611:7636   */\n  swap2\n  pop\n    /* \"#utility.yul\":7524:7642   */\n  pop\n    /* \"#utility.yul\":7473:7642   */\n  swap3\n  swap2\n  pop\n  pop\n  jump\t// out\n    /* \"#utility.yul\":7647:7942   */\ntag_46:\n    /* \"#utility.yul\":7723:7727   */\n  0x00\n    /* \"#utility.yul\":7869:7898   */\n  tag_144\n    /* \"#utility.yul\":7894:7897   */\n  dup4\n    /* \"#utility.yul\":7888:7892   */\n  dup4\n    /* \"#utility.yul\":7869:7898   */\n  tag_45\n  jump\t// in\ntag_144:\n    /* \"#utility.yul\":7861:7898   */\n  swap2\n  pop\n    /* \"#utility.yul\":7931:7934   */\n  dup3\n    /* \"#utility.yul\":7928:7929   */\n  0x02\n    /* \"#utility.yul\":7924:7935   */\n  mul\n    /* \"#utility.yul\":7918:7922   */\n  dup3\n    /* \"#utility.yul\":7915:7936   */\n  or\n    /* \"#utility.yul\":7907:7936   */\n  swap1\n  pop\n    /* \"#utility.yul\":7647:7942   */\n  swap3\n  swap2\n  pop\n  pop\n  jump\t// out\n    /* \"#utility.yul\":7947:9342   */\ntag_7:\n    /* \"#utility.yul\":8064:8101   */\n  tag_146\n    /* \"#utility.yul\":8097:8100   */\n  dup3\n    /* \"#utility.yul\":8064:8101   */\n  tag_29\n  jump\t// in\ntag_146:\n    /* \"#utility.yul\":8166:8184   */\n  0xffffffffffffffff\n    /* \"#utility.yul\":8158:8164   */\n  dup2\n    /* \"#utility.yul\":8155:8185   */\n  gt\n    /* \"#utility.yul\":8152:8208   */\n  iszero\n  tag_147\n  jumpi\n    /* \"#utility.yul\":8188:8206   */\n  tag_148\n  tag_22\n  jump\t// in\ntag_148:\n    /* \"#utility.yul\":8152:8208   */\ntag_147:\n    /* \"#utility.yul\":8232:8270   */\n  tag_149\n    /* \"#utility.yul\":8264:8268   */\n  dup3\n    /* \"#utility.yul\":8258:8269   */\n  sload\n    /* \"#utility.yul\":8232:8270   */\n  tag_31\n  jump\t// in\ntag_149:\n    /* \"#utility.yul\":8317:8384   */\n  tag_150\n    /* \"#utility.yul\":8377:8383   */\n  dup3\n    /* \"#utility.yul\":8369:8375   */\n  dup3\n    /* \"#utility.yul\":8363:8367   */\n  dup6\n    /* \"#utility.yul\":8317:8384   */\n  tag_43\n  jump\t// in\ntag_150:\n    /* \"#utility.yul\":8411:8412   */\n  0x00\n    /* \"#utility.yul\":8435:8439   */\n  0x20\n    /* \"#utility.yul\":8422:8439   */\n  swap1\n  pop\n    /* \"#utility.yul\":8467:8469   */\n  0x1f\n    /* \"#utility.yul\":8459:8465   */\n  dup4\n    /* \"#utility.yul\":8456:8470   */\n  gt\n    /* \"#utility.yul\":8484:8485   */\n  0x01\n    /* \"#utility.yul\":8479:9097   */\n  dup2\n  eq\n  tag_152\n  jumpi\n    /* \"#utility.yul\":9141:9142   */\n  0x00\n    /* \"#utility.yul\":9158:9164   */\n  dup5\n    /* \"#utility.yul\":9155:9232   */\n  iszero\n  tag_153\n  jumpi\n    /* \"#utility.yul\":9207:9216   */\n  dup3\n    /* \"#utility.yul\":9202:9205   */\n  dup8\n    /* \"#utility.yul\":9198:9217   */\n  add\n    /* \"#utility.yul\":9192:9218   */\n  mload\n    /* \"#utility.yul\":9183:9218   */\n  swap1\n  pop\n    /* \"#utility.yul\":9155:9232   */\ntag_153:\n    /* \"#utility.yul\":9258:9325   */\n  tag_154\n    /* \"#utility.yul\":9318:9324   */\n  dup6\n    /* \"#utility.yul\":9311:9316   */\n  dup3\n    /* \"#utility.yul\":9258:9325   */\n  tag_46\n  jump\t// in\ntag_154:\n    /* \"#utility.yul\":9252:9256   */\n  dup7\n    /* \"#utility.yul\":9245:9326   */\n  sstore\n    /* \"#utility.yul\":9114:9336   */\n  pop\n    /* \"#utility.yul\":8449:9336   */\n  jump(tag_151)\n    /* \"#utility.yul\":8479:9097   */\ntag_152:\n    /* \"#utility.yul\":8531:8535   */\n  0x1f\n    /* \"#utility.yul\":8527:8536   */\n  not\n    /* \"#utility.yul\":8519:8525   */\n  dup5\n    /* \"#utility.yul\":8515:8537   */\n  and\n    /* \"#utility.yul\":8565:8602   */\n  tag_155\n    /* \"#utility.yul\":8597:8601   */\n  dup7\n    /* \"#utility.yul\":8565:8602   */\n  tag_32\n  jump\t// in\ntag_155:\n    /* \"#utility.yul\":8624:8625   */\n  0x00\n    /* \"#utility.yul\":8638:8846   */\ntag_156:\n    /* \"#utility.yul\":8652:8659   */\n  dup3\n    /* \"#utility.yul\":8649:8650   */\n  dup2\n    /* \"#utility.yul\":8646:8660   */\n  lt\n    /* \"#utility.yul\":8638:8846   */\n  iszero\n  tag_158\n  jumpi\n    /* \"#utility.yul\":8731:8740   */\n  dup5\n    /* \"#utility.yul\":8726:8729   */\n  dup10\n    /* \"#utility.yul\":8722:8741   */\n  add\n    /* \"#utility.yul\":8716:8742   */\n  mload\n    /* \"#utility.yul\":8708:8714   */\n  dup3\n    /* \"#utility.yul\":8701:8743   */\n  sstore\n    /* \"#utility.yul\":8782:8783   */\n  0x01\n    /* \"#utility.yul\":8774:8780   */\n  dup3\n    /* \"#utility.yul\":8770:8784   */\n  add\n    /* \"#utility.yul\":8760:8784   */\n  swap2\n  pop\n    /* \"#utility.yul\":8829:8831   */\n  0x20\n    /* \"#utility.yul\":8818:8827   */\n  dup6\n    /* \"#utility.yul\":8814:8832   */\n  add\n    /* \"#utility.yul\":8801:8832   */\n  swap5\n  pop\n    /* \"#utility.yul\":8675:8679   */\n  0x20\n    /* \"#utility.yul\":8672:8673   */\n  dup2\n    /* \"#utility.yul\":8668:8680   */\n  add\n    /* \"#utility.yul\":8663:8680   */\n  swap1\n  pop\n    /* \"#utility.yul\":8638:8846   */\n  jump(tag_156)\ntag_158:\n    /* \"#utility.yul\":8874:8880   */\n  dup7\n    /* \"#utility.yul\":8865:8872   */\n  dup4\n    /* \"#utility.yul\":8862:8881   */\n  lt\n    /* \"#utility.yul\":8859:9038   */\n  iszero\n  tag_159\n  jumpi\n    /* \"#utility.yul\":8932:8941   */\n  dup5\n    /* \"#utility.yul\":8927:8930   */\n  dup10\n    /* \"#utility.yul\":8923:8942   */\n  add\n    /* \"#utility.yul\":8917:8943   */\n  mload\n    /* \"#utility.yul\":8975:9023   */\n  tag_160\n    /* \"#utility.yul\":9017:9021   */\n  0x1f\n    /* \"#utility.yul\":9009:9015   */\n  dup10\n    /* \"#utility.yul\":9005:9022   */\n  and\n    /* \"#utility.yul\":8994:9003   */\n  dup3\n    /* \"#utility.yul\":8975:9023   */\n  tag_45\n  jump\t// in\ntag_160:\n    /* \"#utility.yul\":8967:8973   */\n  dup4\n    /* \"#utility.yul\":8960:9024   */\n  sstore\n    /* \"#utility.yul\":8882:9038   */\n  pop\n    /* \"#utility.yul\":8859:9038   */\ntag_159:\n    /* \"#utility.yul\":9084:9085   */\n  0x01\n    /* \"#utility.yul\":9080:9081   */\n  0x02\n    /* \"#utility.yul\":9072:9078   */\n  dup9\n    /* \"#utility.yul\":9068:9082   */\n  mul\n    /* \"#utility.yul\":9064:9086   */\n  add\n    /* \"#utility.yul\":9058:9062   */\n  dup9\n    /* \"#utility.yul\":9051:9087   */\n  sstore\n    /* \"#utility.yul\":8486:9097   */\n  pop\n  pop\n  pop\n    /* \"#utility.yul\":8449:9336   */\ntag_151:\n  pop\n    /* \"#utility.yul\":8039:9342   */\n  pop\n  pop\n  pop\n    /* \"#utility.yul\":7947:9342   */\n  pop\n  pop\n  jump\t// out\n    /* \"Crowdfunding.sol\":510:2726  contract Crowdfunding {... */\ntag_8:\n  dataSize(sub_0)\n  dup1\n  dataOffset(sub_0)\n  0x00\n  codecopy\n  0x00\n  return\nstop\n\nsub_0: assembly {\n        /* \"Crowdfunding.sol\":510:2726  contract Crowdfunding {... */\n      mstore(0x40, 0x80)\n      jumpi(tag_1, lt(calldatasize, 0x04))\n      shr(0xe0, calldataload(0x00))\n      dup1\n      0x81d12c58\n      gt\n      tag_14\n      jumpi\n      dup1\n      0x81d12c58\n      eq\n      tag_8\n      jumpi\n      dup1\n      0x82fde093\n      eq\n      tag_9\n      jumpi\n      dup1\n      0x8a9cfd55\n      eq\n      tag_10\n      jumpi\n      dup1\n      0x937e09b1\n      eq\n      tag_11\n      jumpi\n      dup1\n      0xd7bb99ba\n      eq\n      tag_12\n      jumpi\n      dup1\n      0xd7d1bbdb\n      eq\n      tag_13\n      jumpi\n      jump(tag_1)\n    tag_14:\n      dup1\n      0x03441006\n      eq\n      tag_2\n      jumpi\n      dup1\n      0x06fdde03\n      eq\n      tag_3\n      jumpi\n      dup1\n      0x0a144391\n      eq\n      tag_4\n      jumpi\n      dup1\n      0x3410452a\n      eq\n      tag_5\n      jumpi\n      dup1\n      0x4051ddac\n      eq\n      tag_6\n      jumpi\n      dup1\n      0x481c6a75\n      eq\n      tag_7\n      jumpi\n    tag_1:\n      0x00\n      dup1\n      revert\n        /* \"Crowdfunding.sol\":2012:2319  function finalizeRequest(uint index) public restricted {... */\n    tag_2:\n      callvalue\n      dup1\n      iszero\n      tag_15\n      jumpi\n      0x00\n      dup1\n      revert\n    tag_15:\n      pop\n      tag_16\n      0x04\n      dup1\n      calldatasize\n      sub\n      dup2\n      add\n      swap1\n      tag_17\n      swap2\n      swap1\n      tag_18\n      jump\t// in\n    tag_17:\n      tag_19\n      jump\t// in\n    tag_16:\n      stop\n        /* \"Crowdfunding.sol\":832:850  string public name */\n    tag_3:\n      callvalue\n      dup1\n      iszero\n      tag_20\n      jumpi\n      0x00\n      dup1\n      revert\n    tag_20:\n      pop\n      tag_21\n      tag_22\n      jump\t// in\n    tag_21:\n      mload(0x40)\n      tag_23\n      swap2\n      swap1\n      tag_24\n      jump\t// in\n    tag_23:\n      mload(0x40)\n      dup1\n      swap2\n      sub\n      swap1\n      return\n        /* \"Crowdfunding.sol\":856:897  mapping(address => bool) public approvers */\n    tag_4:\n      callvalue\n      dup1\n      iszero\n      tag_25\n      jumpi\n      0x00\n      dup1\n      revert\n    tag_25:\n      pop\n      tag_26\n      0x04\n      dup1\n      calldatasize\n      sub\n      dup2\n      add\n      swap1\n      tag_27\n      swap2\n      swap1\n      tag_28\n      jump\t// in\n    tag_27:\n      tag_29\n      jump\t// in\n    tag_26:\n      mload(0x40)\n      tag_30\n      swap2\n      swap1\n      tag_31\n      jump\t// in\n    tag_30:\n      mload(0x40)\n      dup1\n      swap2\n      sub\n      swap1\n      return\n        /* \"Crowdfunding.sol\":2630:2724  function getRequestsCount() public view returns (uint) {... */\n    tag_5:\n      callvalue\n      dup1\n      iszero\n      tag_32\n      jumpi\n      0x00\n      dup1\n      revert\n    tag_32:\n      pop\n      tag_33\n      tag_34\n      jump\t// in\n    tag_33:\n      mload(0x40)\n      tag_35\n      swap2\n      swap1\n      tag_36\n      jump\t// in\n    tag_35:\n      mload(0x40)\n      dup1\n      swap2\n      sub\n      swap1\n      return\n        /* \"Crowdfunding.sol\":2329:2620  function getSummary() public view returns (... */\n    tag_6:\n      callvalue\n      dup1\n      iszero\n      tag_37\n      jumpi\n      0x00\n      dup1\n      revert\n    tag_37:\n      pop\n      tag_38\n      tag_39\n      jump\t// in\n    tag_38:\n      mload(0x40)\n      tag_40\n      swap7\n      swap6\n      swap5\n      swap4\n      swap3\n      swap2\n      swap1\n      tag_41\n      jump\t// in\n    tag_40:\n      mload(0x40)\n      dup1\n      swap2\n      sub\n      swap1\n      return\n        /* \"Crowdfunding.sol\":767:789  address public manager */\n    tag_7:\n      callvalue\n      dup1\n      iszero\n      tag_42\n      jumpi\n      0x00\n      dup1\n      revert\n    tag_42:\n      pop\n      tag_43\n      tag_44\n      jump\t// in\n    tag_43:\n      mload(0x40)\n      tag_45\n      swap2\n      swap1\n      tag_46\n      jump\t// in\n    tag_45:\n      mload(0x40)\n      dup1\n      swap2\n      sub\n      swap1\n      return\n        /* \"Crowdfunding.sol\":736:761  Request[] public requests */\n    tag_8:\n      callvalue\n      dup1\n      iszero\n      tag_47\n      jumpi\n      0x00\n      dup1\n      revert\n    tag_47:\n      pop\n      tag_48\n      0x04\n      dup1\n      calldatasize\n      sub\n      dup2\n      add\n      swap1\n      tag_49\n      swap2\n      swap1\n      tag_18\n      jump\t// in\n    tag_49:\n      tag_50\n      jump\t// in\n    tag_48:\n      mload(0x40)\n      tag_51\n      swap6\n      swap5\n      swap4\n      swap3\n      swap2\n      swap1\n      tag_52\n      jump\t// in\n    tag_51:\n      mload(0x40)\n      dup1\n      swap2\n      sub\n      swap1\n      return\n        /* \"Crowdfunding.sol\":903:929  uint public approversCount */\n    tag_9:\n      callvalue\n      dup1\n      iszero\n      tag_53\n      jumpi\n      0x00\n      dup1\n      revert\n    tag_53:\n      pop\n      tag_54\n      tag_55\n      jump\t// in\n    tag_54:\n      mload(0x40)\n      tag_56\n      swap2\n      swap1\n      tag_36\n      jump\t// in\n    tag_56:\n      mload(0x40)\n      dup1\n      swap2\n      sub\n      swap1\n      return\n        /* \"Crowdfunding.sol\":1375:1729  function createRequest(string memory description, uint value, address recipient) public restricted {... */\n    tag_10:\n      callvalue\n      dup1\n      iszero\n      tag_57\n      jumpi\n      0x00\n      dup1\n      revert\n    tag_57:\n      pop\n      tag_58\n      0x04\n      dup1\n      calldatasize\n      sub\n      dup2\n      add\n      swap1\n      tag_59\n      swap2\n      swap1\n      tag_60\n      jump\t// in\n    tag_59:\n      tag_61\n      jump\t// in\n    tag_58:\n      stop\n        /* \"Crowdfunding.sol\":795:826  uint public minimumContribution */\n    tag_11:\n      callvalue\n      dup1\n      iszero\n      tag_62\n      jumpi\n      0x00\n      dup1\n      revert\n    tag_62:\n      pop\n      tag_63\n      tag_64\n      jump\t// in\n    tag_63:\n      mload(0x40)\n      tag_65\n      swap2\n      swap1\n      tag_36\n      jump\t// in\n    tag_65:\n      mload(0x40)\n      dup1\n      swap2\n      sub\n      swap1\n      return\n        /* \"Crowdfunding.sol\":1210:1369  function contribute() public payable {... */\n    tag_12:\n      tag_66\n      tag_67\n      jump\t// in\n    tag_66:\n      stop\n        /* \"Crowdfunding.sol\":1735:2006  function approveRequest(uint index) public {... */\n    tag_13:\n      callvalue\n      dup1\n      iszero\n      tag_68\n      jumpi\n      0x00\n      dup1\n      revert\n    tag_68:\n      pop\n      tag_69\n      0x04\n      dup1\n      calldatasize\n      sub\n      dup2\n      add\n      swap1\n      tag_70\n      swap2\n      swap1\n      tag_18\n      jump\t// in\n    tag_70:\n      tag_71\n      jump\t// in\n    tag_69:\n      stop\n        /* \"Crowdfunding.sol\":2012:2319  function finalizeRequest(uint index) public restricted {... */\n    tag_19:\n        /* \"Crowdfunding.sol\":990:997  manager */\n      0x01\n      0x00\n      swap1\n      sload\n      swap1\n      0x0100\n      exp\n      swap1\n      div\n      0xffffffffffffffffffffffffffffffffffffffff\n      and\n        /* \"Crowdfunding.sol\":976:997  msg.sender == manager */\n      0xffffffffffffffffffffffffffffffffffffffff\n      and\n        /* \"Crowdfunding.sol\":976:986  msg.sender */\n      caller\n        /* \"Crowdfunding.sol\":976:997  msg.sender == manager */\n      0xffffffffffffffffffffffffffffffffffffffff\n      and\n      eq\n        /* \"Crowdfunding.sol\":968:998  require(msg.sender == manager) */\n      tag_73\n      jumpi\n      0x00\n      dup1\n      revert\n    tag_73:\n        /* \"Crowdfunding.sol\":2077:2100  Request storage request */\n      0x00\n        /* \"Crowdfunding.sol\":2103:2111  requests */\n      dup1\n        /* \"Crowdfunding.sol\":2112:2117  index */\n      dup3\n        /* \"Crowdfunding.sol\":2103:2118  requests[index] */\n      dup2\n      sload\n      dup2\n      lt\n      tag_75\n      jumpi\n      tag_76\n      tag_77\n      jump\t// in\n    tag_76:\n    tag_75:\n      swap1\n      0x00\n      mstore\n      keccak256(0x00, 0x20)\n      swap1\n      0x05\n      mul\n      add\n        /* \"Crowdfunding.sol\":2077:2118  Request storage request = requests[index] */\n      swap1\n      pop\n        /* \"Crowdfunding.sol\":2179:2180  2 */\n      0x02\n        /* \"Crowdfunding.sol\":2162:2176  approversCount */\n      sload(0x05)\n        /* \"Crowdfunding.sol\":2162:2180  approversCount / 2 */\n      tag_79\n      swap2\n      swap1\n      tag_80\n      jump\t// in\n    tag_79:\n        /* \"Crowdfunding.sol\":2137:2144  request */\n      dup2\n        /* \"Crowdfunding.sol\":2137:2158  request.approvalCount */\n      0x03\n      add\n      sload\n        /* \"Crowdfunding.sol\":2137:2181  request.approvalCount > (approversCount / 2) */\n      gt\n        /* \"Crowdfunding.sol\":2129:2182  require(request.approvalCount > (approversCount / 2)) */\n      tag_81\n      jumpi\n      0x00\n      dup1\n      revert\n    tag_81:\n        /* \"Crowdfunding.sol\":2201:2208  request */\n      dup1\n        /* \"Crowdfunding.sol\":2201:2217  request.complete */\n      0x02\n      add\n      0x14\n      swap1\n      sload\n      swap1\n      0x0100\n      exp\n      swap1\n      div\n      0xff\n      and\n        /* \"Crowdfunding.sol\":2200:2217  !request.complete */\n      iszero\n        /* \"Crowdfunding.sol\":2192:2218  require(!request.complete) */\n      tag_82\n      jumpi\n      0x00\n      dup1\n      revert\n    tag_82:\n        /* \"Crowdfunding.sol\":2237:2244  request */\n      dup1\n        /* \"Crowdfunding.sol\":2237:2254  request.recipient */\n      0x02\n      add\n      0x00\n      swap1\n      sload\n      swap1\n      0x0100\n      exp\n      swap1\n      div\n      0xffffffffffffffffffffffffffffffffffffffff\n      and\n        /* \"Crowdfunding.sol\":2229:2264  payable(request.recipient).transfer */\n      0xffffffffffffffffffffffffffffffffffffffff\n      and\n        /* \"Crowdfunding.sol\":2229:2279  payable(request.recipient).transfer(request.value) */\n      0x08fc\n        /* \"Crowdfunding.sol\":2265:2272  request */\n      dup3\n        /* \"Crowdfunding.sol\":2265:2278  request.value */\n      0x01\n      add\n      sload\n        /* \"Crowdfunding.sol\":2229:2279  payable(request.recipient).transfer(request.value) */\n      swap1\n      dup2\n      iszero\n      mul\n      swap1\n      mload(0x40)\n      0x00\n      mload(0x40)\n      dup1\n      dup4\n      sub\n      dup2\n      dup6\n      dup9\n      dup9\n      call\n      swap4\n      pop\n      pop\n      pop\n      pop\n      iszero\n      dup1\n      iszero\n      tag_84\n      jumpi\n      returndatasize\n      0x00\n      dup1\n      returndatacopy\n      revert(0x00, returndatasize)\n    tag_84:\n      pop\n        /* \"Crowdfunding.sol\":2308:2312  true */\n      0x01\n        /* \"Crowdfunding.sol\":2289:2296  request */\n      dup2\n        /* \"Crowdfunding.sol\":2289:2305  request.complete */\n      0x02\n      add\n      0x14\n        /* \"Crowdfunding.sol\":2289:2312  request.complete = true */\n      0x0100\n      exp\n      dup2\n      sload\n      dup2\n      0xff\n      mul\n      not\n      and\n      swap1\n      dup4\n      iszero\n      iszero\n      mul\n      or\n      swap1\n      sstore\n      pop\n        /* \"Crowdfunding.sol\":2067:2319  {... */\n      pop\n        /* \"Crowdfunding.sol\":2012:2319  function finalizeRequest(uint index) public restricted {... */\n      pop\n      jump\t// out\n        /* \"Crowdfunding.sol\":832:850  string public name */\n    tag_22:\n      0x03\n      dup1\n      sload\n      tag_85\n      swap1\n      tag_86\n      jump\t// in\n    tag_85:\n      dup1\n      0x1f\n      add\n      0x20\n      dup1\n      swap2\n      div\n      mul\n      0x20\n      add\n      mload(0x40)\n      swap1\n      dup2\n      add\n      0x40\n      mstore\n      dup1\n      swap3\n      swap2\n      swap1\n      dup2\n      dup2\n      mstore\n      0x20\n      add\n      dup3\n      dup1\n      sload\n      tag_87\n      swap1\n      tag_86\n      jump\t// in\n    tag_87:\n      dup1\n      iszero\n      tag_88\n      jumpi\n      dup1\n      0x1f\n      lt\n      tag_89\n      jumpi\n      0x0100\n      dup1\n      dup4\n      sload\n      div\n      mul\n      dup4\n      mstore\n      swap2\n      0x20\n      add\n      swap2\n      jump(tag_88)\n    tag_89:\n      dup3\n      add\n      swap2\n      swap1\n      0x00\n      mstore\n      keccak256(0x00, 0x20)\n      swap1\n    tag_90:\n      dup2\n      sload\n      dup2\n      mstore\n      swap1\n      0x01\n      add\n      swap1\n      0x20\n      add\n      dup1\n      dup4\n      gt\n      tag_90\n      jumpi\n      dup3\n      swap1\n      sub\n      0x1f\n      and\n      dup3\n      add\n      swap2\n    tag_88:\n      pop\n      pop\n      pop\n      pop\n      pop\n      dup2\n      jump\t// out\n        /* \"Crowdfunding.sol\":856:897  mapping(address => bool) public approvers */\n    tag_29:\n      mstore(0x20, 0x04)\n      dup1\n      0x00\n      mstore\n      keccak256(0x00, 0x40)\n      0x00\n      swap2\n      pop\n      sload\n      swap1\n      0x0100\n      exp\n      swap1\n      div\n      0xff\n      and\n      dup2\n      jump\t// out\n        /* \"Crowdfunding.sol\":2630:2724  function getRequestsCount() public view returns (uint) {... */\n    tag_34:\n        /* \"Crowdfunding.sol\":2679:2683  uint */\n      0x00\n        /* \"Crowdfunding.sol\":2702:2710  requests */\n      dup1\n        /* \"Crowdfunding.sol\":2702:2717  requests.length */\n      dup1\n      sload\n      swap1\n      pop\n        /* \"Crowdfunding.sol\":2695:2717  return requests.length */\n      swap1\n      pop\n        /* \"Crowdfunding.sol\":2630:2724  function getRequestsCount() public view returns (uint) {... */\n      swap1\n      jump\t// out\n        /* \"Crowdfunding.sol\":2329:2620  function getSummary() public view returns (... */\n    tag_39:\n        /* \"Crowdfunding.sol\":2379:2383  uint */\n      0x00\n        /* \"Crowdfunding.sol\":2385:2389  uint */\n      dup1\n        /* \"Crowdfunding.sol\":2391:2395  uint */\n      0x00\n        /* \"Crowdfunding.sol\":2397:2401  uint */\n      dup1\n        /* \"Crowdfunding.sol\":2403:2410  address */\n      0x00\n        /* \"Crowdfunding.sol\":2412:2425  string memory */\n      0x60\n        /* \"Crowdfunding.sol\":2463:2482  minimumContribution */\n      sload(0x02)\n        /* \"Crowdfunding.sol\":2494:2515  address(this).balance */\n      selfbalance\n        /* \"Crowdfunding.sol\":2527:2535  requests */\n      0x00\n        /* \"Crowdfunding.sol\":2527:2542  requests.length */\n      dup1\n      sload\n      swap1\n      pop\n        /* \"Crowdfunding.sol\":2554:2568  approversCount */\n      sload(0x05)\n        /* \"Crowdfunding.sol\":2580:2587  manager */\n      0x01\n      0x00\n      swap1\n      sload\n      swap1\n      0x0100\n      exp\n      swap1\n      div\n      0xffffffffffffffffffffffffffffffffffffffff\n      and\n        /* \"Crowdfunding.sol\":2599:2603  name */\n      0x03\n        /* \"Crowdfunding.sol\":2444:2613  return (... */\n      dup1\n      dup1\n      sload\n      tag_93\n      swap1\n      tag_86\n      jump\t// in\n    tag_93:\n      dup1\n      0x1f\n      add\n      0x20\n      dup1\n      swap2\n      div\n      mul\n      0x20\n      add\n      mload(0x40)\n      swap1\n      dup2\n      add\n      0x40\n      mstore\n      dup1\n      swap3\n      swap2\n      swap1\n      dup2\n      dup2\n      mstore\n      0x20\n      add\n      dup3\n      dup1\n      sload\n      tag_94\n      swap1\n      tag_86\n      jump\t// in\n    tag_94:\n      dup1\n      iszero\n      tag_95\n      jumpi\n      dup1\n      0x1f\n      lt\n      tag_96\n      jumpi\n      0x0100\n      dup1\n      dup4\n      sload\n      div\n      mul\n      dup4\n      mstore\n      swap2\n      0x20\n      add\n      swap2\n      jump(tag_95)\n    tag_96:\n      dup3\n      add\n      swap2\n      swap1\n      0x00\n      mstore\n      keccak256(0x00, 0x20)\n      swap1\n    tag_97:\n      dup2\n      sload\n      dup2\n      mstore\n      swap1\n      0x01\n      add\n      swap1\n      0x20\n      add\n      dup1\n      dup4\n      gt\n      tag_97\n      jumpi\n      dup3\n      swap1\n      sub\n      0x1f\n      and\n      dup3\n      add\n      swap2\n    tag_95:\n      pop\n      pop\n      pop\n      pop\n      pop\n      swap1\n      pop\n      swap6\n      pop\n      swap6\n      pop\n      swap6\n      pop\n      swap6\n      pop\n      swap6\n      pop\n      swap6\n      pop\n        /* \"Crowdfunding.sol\":2329:2620  function getSummary() public view returns (... */\n      swap1\n      swap2\n      swap3\n      swap4\n      swap5\n      swap6\n      jump\t// out\n        /* \"Crowdfunding.sol\":767:789  address public manager */\n    tag_44:\n      0x01\n      0x00\n      swap1\n      sload\n      swap1\n      0x0100\n      exp\n      swap1\n      div\n      0xffffffffffffffffffffffffffffffffffffffff\n      and\n      dup2\n      jump\t// out\n        /* \"Crowdfunding.sol\":736:761  Request[] public requests */\n    tag_50:\n      0x00\n      dup2\n      dup2\n      sload\n      dup2\n      lt\n      tag_98\n      jumpi\n      0x00\n      dup1\n      revert\n    tag_98:\n      swap1\n      0x00\n      mstore\n      keccak256(0x00, 0x20)\n      swap1\n      0x05\n      mul\n      add\n      0x00\n      swap2\n      pop\n      swap1\n      pop\n      dup1\n      0x00\n      add\n      dup1\n      sload\n      tag_100\n      swap1\n      tag_86\n      jump\t// in\n    tag_100:\n      dup1\n      0x1f\n      add\n      0x20\n      dup1\n      swap2\n      div\n      mul\n      0x20\n      add\n      mload(0x40)\n      swap1\n      dup2\n      add\n      0x40\n      mstore\n      dup1\n      swap3\n      swap2\n      swap1\n      dup2\n      dup2\n      mstore\n      0x20\n      add\n      dup3\n      dup1\n      sload\n      tag_101\n      swap1\n      tag_86\n      jump\t// in\n    tag_101:\n      dup1\n      iszero\n      tag_102\n      jumpi\n      dup1\n      0x1f\n      lt\n      tag_103\n      jumpi\n      0x0100\n      dup1\n      dup4\n      sload\n      div\n      mul\n      dup4\n      mstore\n      swap2\n      0x20\n      add\n      swap2\n      jump(tag_102)\n    tag_103:\n      dup3\n      add\n      swap2\n      swap1\n      0x00\n      mstore\n      keccak256(0x00, 0x20)\n      swap1\n    tag_104:\n      dup2\n      sload\n      dup2\n      mstore\n      swap1\n      0x01\n      add\n      swap1\n      0x20\n      add\n      dup1\n      dup4\n      gt\n      tag_104\n      jumpi\n      dup3\n      swap1\n      sub\n      0x1f\n      and\n      dup3\n      add\n      swap2\n    tag_102:\n      pop\n      pop\n      pop\n      pop\n      pop\n      swap1\n      dup1\n      0x01\n      add\n      sload\n      swap1\n      dup1\n      0x02\n      add\n      0x00\n      swap1\n      sload\n      swap1\n      0x0100\n      exp\n      swap1\n      div\n      0xffffffffffffffffffffffffffffffffffffffff\n      and\n      swap1\n      dup1\n      0x02\n      add\n      0x14\n      swap1\n      sload\n      swap1\n      0x0100\n      exp\n      swap1\n      div\n      0xff\n      and\n      swap1\n      dup1\n      0x03\n      add\n      sload\n      swap1\n      pop\n      dup6\n      jump\t// out\n        /* \"Crowdfunding.sol\":903:929  uint public approversCount */\n    tag_55:\n      sload(0x05)\n      dup2\n      jump\t// out\n        /* \"Crowdfunding.sol\":1375:1729  function createRequest(string memory description, uint value, address recipient) public restricted {... */\n    tag_61:\n        /* \"Crowdfunding.sol\":990:997  manager */\n      0x01\n      0x00\n      swap1\n      sload\n      swap1\n      0x0100\n      exp\n      swap1\n      div\n      0xffffffffffffffffffffffffffffffffffffffff\n      and\n        /* \"Crowdfunding.sol\":976:997  msg.sender == manager */\n      0xffffffffffffffffffffffffffffffffffffffff\n      and\n        /* \"Crowdfunding.sol\":976:986  msg.sender */\n      caller\n        /* \"Crowdfunding.sol\":976:997  msg.sender == manager */\n      0xffffffffffffffffffffffffffffffffffffffff\n      and\n      eq\n        /* \"Crowdfunding.sol\":968:998  require(msg.sender == manager) */\n      tag_106\n      jumpi\n      0x00\n      dup1\n      revert\n    tag_106:\n        /* \"Crowdfunding.sol\":1484:1510  Request storage newRequest */\n      0x00\n        /* \"Crowdfunding.sol\":1513:1521  requests */\n      dup1\n        /* \"Crowdfunding.sol\":1513:1528  requests.push() */\n      0x01\n      dup2\n      0x01\n      dup2\n      sload\n      add\n      dup1\n      dup3\n      sstore\n      dup1\n      swap2\n      pop\n      pop\n      sub\n      swap1\n      0x00\n      mstore\n      keccak256(0x00, 0x20)\n      swap1\n      0x05\n      mul\n      add\n        /* \"Crowdfunding.sol\":1484:1528  Request storage newRequest = requests.push() */\n      swap1\n      pop\n        /* \"Crowdfunding.sol\":1564:1575  description */\n      dup4\n        /* \"Crowdfunding.sol\":1539:1549  newRequest */\n      dup2\n        /* \"Crowdfunding.sol\":1539:1561  newRequest.description */\n      0x00\n      add\n        /* \"Crowdfunding.sol\":1539:1575  newRequest.description = description */\n      swap1\n      dup2\n      tag_109\n      swap2\n      swap1\n      tag_110\n      jump\t// in\n    tag_109:\n      pop\n        /* \"Crowdfunding.sol\":1603:1608  value */\n      dup3\n        /* \"Crowdfunding.sol\":1585:1595  newRequest */\n      dup2\n        /* \"Crowdfunding.sol\":1585:1601  newRequest.value */\n      0x01\n      add\n        /* \"Crowdfunding.sol\":1585:1608  newRequest.value= value */\n      dup2\n      swap1\n      sstore\n      pop\n        /* \"Crowdfunding.sol\":1640:1649  recipient */\n      dup2\n        /* \"Crowdfunding.sol\":1618:1628  newRequest */\n      dup2\n        /* \"Crowdfunding.sol\":1618:1638  newRequest.recipient */\n      0x02\n      add\n      0x00\n        /* \"Crowdfunding.sol\":1618:1649  newRequest.recipient= recipient */\n      0x0100\n      exp\n      dup2\n      sload\n      dup2\n      0xffffffffffffffffffffffffffffffffffffffff\n      mul\n      not\n      and\n      swap1\n      dup4\n      0xffffffffffffffffffffffffffffffffffffffff\n      and\n      mul\n      or\n      swap1\n      sstore\n      pop\n        /* \"Crowdfunding.sol\":1680:1685  false */\n      0x00\n        /* \"Crowdfunding.sol\":1659:1669  newRequest */\n      dup2\n        /* \"Crowdfunding.sol\":1659:1678  newRequest.complete */\n      0x02\n      add\n      0x14\n        /* \"Crowdfunding.sol\":1659:1685  newRequest.complete= false */\n      0x0100\n      exp\n      dup2\n      sload\n      dup2\n      0xff\n      mul\n      not\n      and\n      swap1\n      dup4\n      iszero\n      iszero\n      mul\n      or\n      swap1\n      sstore\n      pop\n        /* \"Crowdfunding.sol\":1721:1722  0 */\n      0x00\n        /* \"Crowdfunding.sol\":1695:1705  newRequest */\n      dup2\n        /* \"Crowdfunding.sol\":1695:1719  newRequest.approvalCount */\n      0x03\n      add\n        /* \"Crowdfunding.sol\":1695:1722  newRequest.approvalCount= 0 */\n      dup2\n      swap1\n      sstore\n      pop\n        /* \"Crowdfunding.sol\":1474:1729  {... */\n      pop\n        /* \"Crowdfunding.sol\":1375:1729  function createRequest(string memory description, uint value, address recipient) public restricted {... */\n      pop\n      pop\n      pop\n      jump\t// out\n        /* \"Crowdfunding.sol\":795:826  uint public minimumContribution */\n    tag_64:\n      sload(0x02)\n      dup2\n      jump\t// out\n        /* \"Crowdfunding.sol\":1210:1369  function contribute() public payable {... */\n    tag_67:\n        /* \"Crowdfunding.sol\":1277:1296  minimumContribution */\n      sload(0x02)\n        /* \"Crowdfunding.sol\":1265:1274  msg.value */\n      callvalue\n        /* \"Crowdfunding.sol\":1265:1296  msg.value > minimumContribution */\n      gt\n        /* \"Crowdfunding.sol\":1257:1297  require(msg.value > minimumContribution) */\n      tag_112\n      jumpi\n      0x00\n      dup1\n      revert\n    tag_112:\n        /* \"Crowdfunding.sol\":1332:1336  true */\n      0x01\n        /* \"Crowdfunding.sol\":1308:1317  approvers */\n      0x04\n        /* \"Crowdfunding.sol\":1308:1329  approvers[msg.sender] */\n      0x00\n        /* \"Crowdfunding.sol\":1318:1328  msg.sender */\n      caller\n        /* \"Crowdfunding.sol\":1308:1329  approvers[msg.sender] */\n      0xffffffffffffffffffffffffffffffffffffffff\n      and\n      0xffffffffffffffffffffffffffffffffffffffff\n      and\n      dup2\n      mstore\n      0x20\n      add\n      swap1\n      dup2\n      mstore\n      0x20\n      add\n      0x00\n      keccak256\n      0x00\n        /* \"Crowdfunding.sol\":1308:1336  approvers[msg.sender] = true */\n      0x0100\n      exp\n      dup2\n      sload\n      dup2\n      0xff\n      mul\n      not\n      and\n      swap1\n      dup4\n      iszero\n      iszero\n      mul\n      or\n      swap1\n      sstore\n      pop\n        /* \"Crowdfunding.sol\":1346:1360  approversCount */\n      0x05\n      0x00\n        /* \"Crowdfunding.sol\":1346:1362  approversCount++ */\n      dup2\n      sload\n      dup1\n      swap3\n      swap2\n      swap1\n      tag_113\n      swap1\n      tag_114\n      jump\t// in\n    tag_113:\n      swap2\n      swap1\n      pop\n      sstore\n      pop\n        /* \"Crowdfunding.sol\":1210:1369  function contribute() public payable {... */\n      jump\t// out\n        /* \"Crowdfunding.sol\":1735:2006  function approveRequest(uint index) public {... */\n    tag_71:\n        /* \"Crowdfunding.sol\":1788:1811  Request storage request */\n      0x00\n        /* \"Crowdfunding.sol\":1814:1822  requests */\n      dup1\n        /* \"Crowdfunding.sol\":1823:1828  index */\n      dup3\n        /* \"Crowdfunding.sol\":1814:1829  requests[index] */\n      dup2\n      sload\n      dup2\n      lt\n      tag_116\n      jumpi\n      tag_117\n      tag_77\n      jump\t// in\n    tag_117:\n    tag_116:\n      swap1\n      0x00\n      mstore\n      keccak256(0x00, 0x20)\n      swap1\n      0x05\n      mul\n      add\n        /* \"Crowdfunding.sol\":1788:1829  Request storage request = requests[index] */\n      swap1\n      pop\n        /* \"Crowdfunding.sol\":1848:1857  approvers */\n      0x04\n        /* \"Crowdfunding.sol\":1848:1869  approvers[msg.sender] */\n      0x00\n        /* \"Crowdfunding.sol\":1858:1868  msg.sender */\n      caller\n        /* \"Crowdfunding.sol\":1848:1869  approvers[msg.sender] */\n      0xffffffffffffffffffffffffffffffffffffffff\n      and\n      0xffffffffffffffffffffffffffffffffffffffff\n      and\n      dup2\n      mstore\n      0x20\n      add\n      swap1\n      dup2\n      mstore\n      0x20\n      add\n      0x00\n      keccak256\n      0x00\n      swap1\n      sload\n      swap1\n      0x0100\n      exp\n      swap1\n      div\n      0xff\n      and\n        /* \"Crowdfunding.sol\":1840:1870  require(approvers[msg.sender]) */\n      tag_119\n      jumpi\n      0x00\n      dup1\n      revert\n    tag_119:\n        /* \"Crowdfunding.sol\":1889:1896  request */\n      dup1\n        /* \"Crowdfunding.sol\":1889:1906  request.approvals */\n      0x04\n      add\n        /* \"Crowdfunding.sol\":1889:1918  request.approvals[msg.sender] */\n      0x00\n        /* \"Crowdfunding.sol\":1907:1917  msg.sender */\n      caller\n        /* \"Crowdfunding.sol\":1889:1918  request.approvals[msg.sender] */\n      0xffffffffffffffffffffffffffffffffffffffff\n      and\n      0xffffffffffffffffffffffffffffffffffffffff\n      and\n      dup2\n      mstore\n      0x20\n      add\n      swap1\n      dup2\n      mstore\n      0x20\n      add\n      0x00\n      keccak256\n      0x00\n      swap1\n      sload\n      swap1\n      0x0100\n      exp\n      swap1\n      div\n      0xff\n      and\n        /* \"Crowdfunding.sol\":1888:1918  !request.approvals[msg.sender] */\n      iszero\n        /* \"Crowdfunding.sol\":1880:1919  require(!request.approvals[msg.sender]) */\n      tag_120\n      jumpi\n      0x00\n      dup1\n      revert\n    tag_120:\n        /* \"Crowdfunding.sol\":1962:1966  true */\n      0x01\n        /* \"Crowdfunding.sol\":1930:1937  request */\n      dup2\n        /* \"Crowdfunding.sol\":1930:1947  request.approvals */\n      0x04\n      add\n        /* \"Crowdfunding.sol\":1930:1959  request.approvals[msg.sender] */\n      0x00\n        /* \"Crowdfunding.sol\":1948:1958  msg.sender */\n      caller\n        /* \"Crowdfunding.sol\":1930:1959  request.approvals[msg.sender] */\n      0xffffffffffffffffffffffffffffffffffffffff\n      and\n      0xffffffffffffffffffffffffffffffffffffffff\n      and\n      dup2\n      mstore\n      0x20\n      add\n      swap1\n      dup2\n      mstore\n      0x20\n      add\n      0x00\n      keccak256\n      0x00\n        /* \"Crowdfunding.sol\":1930:1966  request.approvals[msg.sender] = true */\n      0x0100\n      exp\n      dup2\n      sload\n      dup2\n      0xff\n      mul\n      not\n      and\n      swap1\n      dup4\n      iszero\n      iszero\n      mul\n      or\n      swap1\n      sstore\n      pop\n        /* \"Crowdfunding.sol\":1976:1983  request */\n      dup1\n        /* \"Crowdfunding.sol\":1976:1997  request.approvalCount */\n      0x03\n      add\n      0x00\n        /* \"Crowdfunding.sol\":1976:1999  request.approvalCount++ */\n      dup2\n      sload\n      dup1\n      swap3\n      swap2\n      swap1\n      tag_121\n      swap1\n      tag_114\n      jump\t// in\n    tag_121:\n      swap2\n      swap1\n      pop\n      sstore\n      pop\n        /* \"Crowdfunding.sol\":1778:2006  {... */\n      pop\n        /* \"Crowdfunding.sol\":1735:2006  function approveRequest(uint index) public {... */\n      pop\n      jump\t// out\n        /* \"#utility.yul\":7:82   */\n    tag_122:\n        /* \"#utility.yul\":40:46   */\n      0x00\n        /* \"#utility.yul\":73:75   */\n      0x40\n        /* \"#utility.yul\":67:76   */\n      mload\n        /* \"#utility.yul\":57:76   */\n      swap1\n      pop\n        /* \"#utility.yul\":7:82   */\n      swap1\n      jump\t// out\n        /* \"#utility.yul\":88:205   */\n    tag_123:\n        /* \"#utility.yul\":197:198   */\n      0x00\n        /* \"#utility.yul\":194:195   */\n      dup1\n        /* \"#utility.yul\":187:199   */\n      revert\n        /* \"#utility.yul\":211:328   */\n    tag_124:\n        /* \"#utility.yul\":320:321   */\n      0x00\n        /* \"#utility.yul\":317:318   */\n      dup1\n        /* \"#utility.yul\":310:322   */\n      revert\n        /* \"#utility.yul\":334:411   */\n    tag_125:\n        /* \"#utility.yul\":371:378   */\n      0x00\n        /* \"#utility.yul\":400:405   */\n      dup2\n        /* \"#utility.yul\":389:405   */\n      swap1\n      pop\n        /* \"#utility.yul\":334:411   */\n      swap2\n      swap1\n      pop\n      jump\t// out\n        /* \"#utility.yul\":417:539   */\n    tag_126:\n        /* \"#utility.yul\":490:514   */\n      tag_174\n        /* \"#utility.yul\":508:513   */\n      dup2\n        /* \"#utility.yul\":490:514   */\n      tag_125\n      jump\t// in\n    tag_174:\n        /* \"#utility.yul\":483:488   */\n      dup2\n        /* \"#utility.yul\":480:515   */\n      eq\n        /* \"#utility.yul\":470:533   */\n      tag_175\n      jumpi\n        /* \"#utility.yul\":529:530   */\n      0x00\n        /* \"#utility.yul\":526:527   */\n      dup1\n        /* \"#utility.yul\":519:531   */\n      revert\n        /* \"#utility.yul\":470:533   */\n    tag_175:\n        /* \"#utility.yul\":417:539   */\n      pop\n      jump\t// out\n        /* \"#utility.yul\":545:684   */\n    tag_127:\n        /* \"#utility.yul\":591:596   */\n      0x00\n        /* \"#utility.yul\":629:635   */\n      dup2\n        /* \"#utility.yul\":616:636   */\n      calldataload\n        /* \"#utility.yul\":607:636   */\n      swap1\n      pop\n        /* \"#utility.yul\":645:678   */\n      tag_177\n        /* \"#utility.yul\":672:677   */\n      dup2\n        /* \"#utility.yul\":645:678   */\n      tag_126\n      jump\t// in\n    tag_177:\n        /* \"#utility.yul\":545:684   */\n      swap3\n      swap2\n      pop\n      pop\n      jump\t// out\n        /* \"#utility.yul\":690:1019   */\n    tag_18:\n        /* \"#utility.yul\":749:755   */\n      0x00\n        /* \"#utility.yul\":798:800   */\n      0x20\n        /* \"#utility.yul\":786:795   */\n      dup3\n        /* \"#utility.yul\":777:784   */\n      dup5\n        /* \"#utility.yul\":773:796   */\n      sub\n        /* \"#utility.yul\":769:801   */\n      slt\n        /* \"#utility.yul\":766:885   */\n      iszero\n      tag_179\n      jumpi\n        /* \"#utility.yul\":804:883   */\n      tag_180\n      tag_123\n      jump\t// in\n    tag_180:\n        /* \"#utility.yul\":766:885   */\n    tag_179:\n        /* \"#utility.yul\":924:925   */\n      0x00\n        /* \"#utility.yul\":949:1002   */\n      tag_181\n        /* \"#utility.yul\":994:1001   */\n      dup5\n        /* \"#utility.yul\":985:991   */\n      dup3\n        /* \"#utility.yul\":974:983   */\n      dup6\n        /* \"#utility.yul\":970:992   */\n      add\n        /* \"#utility.yul\":949:1002   */\n      tag_127\n      jump\t// in\n    tag_181:\n        /* \"#utility.yul\":939:1002   */\n      swap2\n      pop\n        /* \"#utility.yul\":895:1012   */\n      pop\n        /* \"#utility.yul\":690:1019   */\n      swap3\n      swap2\n      pop\n      pop\n      jump\t// out\n        /* \"#utility.yul\":1025:1124   */\n    tag_128:\n        /* \"#utility.yul\":1077:1083   */\n      0x00\n        /* \"#utility.yul\":1111:1116   */\n      dup2\n        /* \"#utility.yul\":1105:1117   */\n      mload\n        /* \"#utility.yul\":1095:1117   */\n      swap1\n      pop\n        /* \"#utility.yul\":1025:1124   */\n      swap2\n      swap1\n      pop\n      jump\t// out\n        /* \"#utility.yul\":1130:1299   */\n    tag_129:\n        /* \"#utility.yul\":1214:1225   */\n      0x00\n        /* \"#utility.yul\":1248:1254   */\n      dup3\n        /* \"#utility.yul\":1243:1246   */\n      dup3\n        /* \"#utility.yul\":1236:1255   */\n      mstore\n        /* \"#utility.yul\":1288:1292   */\n      0x20\n        /* \"#utility.yul\":1283:1286   */\n      dup3\n        /* \"#utility.yul\":1279:1293   */\n      add\n        /* \"#utility.yul\":1264:1293   */\n      swap1\n      pop\n        /* \"#utility.yul\":1130:1299   */\n      swap3\n      swap2\n      pop\n      pop\n      jump\t// out\n        /* \"#utility.yul\":1305:1551   */\n    tag_130:\n        /* \"#utility.yul\":1386:1387   */\n      0x00\n        /* \"#utility.yul\":1396:1509   */\n    tag_185:\n        /* \"#utility.yul\":1410:1416   */\n      dup4\n        /* \"#utility.yul\":1407:1408   */\n      dup2\n        /* \"#utility.yul\":1404:1417   */\n      lt\n        /* \"#utility.yul\":1396:1509   */\n      iszero\n      tag_187\n      jumpi\n        /* \"#utility.yul\":1495:1496   */\n      dup1\n        /* \"#utility.yul\":1490:1493   */\n      dup3\n        /* \"#utility.yul\":1486:1497   */\n      add\n        /* \"#utility.yul\":1480:1498   */\n      mload\n        /* \"#utility.yul\":1476:1477   */\n      dup2\n        /* \"#utility.yul\":1471:1474   */\n      dup5\n        /* \"#utility.yul\":1467:1478   */\n      add\n        /* \"#utility.yul\":1460:1499   */\n      mstore\n        /* \"#utility.yul\":1432:1434   */\n      0x20\n        /* \"#utility.yul\":1429:1430   */\n      dup2\n        /* \"#utility.yul\":1425:1435   */\n      add\n        /* \"#utility.yul\":1420:1435   */\n      swap1\n      pop\n        /* \"#utility.yul\":1396:1509   */\n      jump(tag_185)\n    tag_187:\n        /* \"#utility.yul\":1543:1544   */\n      0x00\n        /* \"#utility.yul\":1534:1540   */\n      dup5\n        /* \"#utility.yul\":1529:1532   */\n      dup5\n        /* \"#utility.yul\":1525:1541   */\n      add\n        /* \"#utility.yul\":1518:1545   */\n      mstore\n        /* \"#utility.yul\":1367:1551   */\n      pop\n        /* \"#utility.yul\":1305:1551   */\n      pop\n      pop\n      pop\n      jump\t// out\n        /* \"#utility.yul\":1557:1659   */\n    tag_131:\n        /* \"#utility.yul\":1598:1604   */\n      0x00\n        /* \"#utility.yul\":1649:1651   */\n      0x1f\n        /* \"#utility.yul\":1645:1652   */\n      not\n        /* \"#utility.yul\":1640:1642   */\n      0x1f\n        /* \"#utility.yul\":1633:1638   */\n      dup4\n        /* \"#utility.yul\":1629:1643   */\n      add\n        /* \"#utility.yul\":1625:1653   */\n      and\n        /* \"#utility.yul\":1615:1653   */\n      swap1\n      pop\n        /* \"#utility.yul\":1557:1659   */\n      swap2\n      swap1\n      pop\n      jump\t// out\n        /* \"#utility.yul\":1665:2042   */\n    tag_132:\n        /* \"#utility.yul\":1753:1756   */\n      0x00\n        /* \"#utility.yul\":1781:1820   */\n      tag_190\n        /* \"#utility.yul\":1814:1819   */\n      dup3\n        /* \"#utility.yul\":1781:1820   */\n      tag_128\n      jump\t// in\n    tag_190:\n        /* \"#utility.yul\":1836:1907   */\n      tag_191\n        /* \"#utility.yul\":1900:1906   */\n      dup2\n        /* \"#utility.yul\":1895:1898   */\n      dup6\n        /* \"#utility.yul\":1836:1907   */\n      tag_129\n      jump\t// in\n    tag_191:\n        /* \"#utility.yul\":1829:1907   */\n      swap4\n      pop\n        /* \"#utility.yul\":1916:1981   */\n      tag_192\n        /* \"#utility.yul\":1974:1980   */\n      dup2\n        /* \"#utility.yul\":1969:1972   */\n      dup6\n        /* \"#utility.yul\":1962:1966   */\n      0x20\n        /* \"#utility.yul\":1955:1960   */\n      dup7\n        /* \"#utility.yul\":1951:1967   */\n      add\n        /* \"#utility.yul\":1916:1981   */\n      tag_130\n      jump\t// in\n    tag_192:\n        /* \"#utility.yul\":2006:2035   */\n      tag_193\n        /* \"#utility.yul\":2028:2034   */\n      dup2\n        /* \"#utility.yul\":2006:2035   */\n      tag_131\n      jump\t// in\n    tag_193:\n        /* \"#utility.yul\":2001:2004   */\n      dup5\n        /* \"#utility.yul\":1997:2036   */\n      add\n        /* \"#utility.yul\":1990:2036   */\n      swap2\n      pop\n        /* \"#utility.yul\":1757:2042   */\n      pop\n        /* \"#utility.yul\":1665:2042   */\n      swap3\n      swap2\n      pop\n      pop\n      jump\t// out\n        /* \"#utility.yul\":2048:2361   */\n    tag_24:\n        /* \"#utility.yul\":2161:2165   */\n      0x00\n        /* \"#utility.yul\":2199:2201   */\n      0x20\n        /* \"#utility.yul\":2188:2197   */\n      dup3\n        /* \"#utility.yul\":2184:2202   */\n      add\n        /* \"#utility.yul\":2176:2202   */\n      swap1\n      pop\n        /* \"#utility.yul\":2248:2257   */\n      dup2\n        /* \"#utility.yul\":2242:2246   */\n      dup2\n        /* \"#utility.yul\":2238:2258   */\n      sub\n        /* \"#utility.yul\":2234:2235   */\n      0x00\n        /* \"#utility.yul\":2223:2232   */\n      dup4\n        /* \"#utility.yul\":2219:2236   */\n      add\n        /* \"#utility.yul\":2212:2259   */\n      mstore\n        /* \"#utility.yul\":2276:2354   */\n      tag_195\n        /* \"#utility.yul\":2349:2353   */\n      dup2\n        /* \"#utility.yul\":2340:2346   */\n      dup5\n        /* \"#utility.yul\":2276:2354   */\n      tag_132\n      jump\t// in\n    tag_195:\n        /* \"#utility.yul\":2268:2354   */\n      swap1\n      pop\n        /* \"#utility.yul\":2048:2361   */\n      swap3\n      swap2\n      pop\n      pop\n      jump\t// out\n        /* \"#utility.yul\":2367:2493   */\n    tag_133:\n        /* \"#utility.yul\":2404:2411   */\n      0x00\n        /* \"#utility.yul\":2444:2486   */\n      0xffffffffffffffffffffffffffffffffffffffff\n        /* \"#utility.yul\":2437:2442   */\n      dup3\n        /* \"#utility.yul\":2433:2487   */\n      and\n        /* \"#utility.yul\":2422:2487   */\n      swap1\n      pop\n        /* \"#utility.yul\":2367:2493   */\n      swap2\n      swap1\n      pop\n      jump\t// out\n        /* \"#utility.yul\":2499:2595   */\n    tag_134:\n        /* \"#utility.yul\":2536:2543   */\n      0x00\n        /* \"#utility.yul\":2565:2589   */\n      tag_198\n        /* \"#utility.yul\":2583:2588   */\n      dup3\n        /* \"#utility.yul\":2565:2589   */\n      tag_133\n      jump\t// in\n    tag_198:\n        /* \"#utility.yul\":2554:2589   */\n      swap1\n      pop\n        /* \"#utility.yul\":2499:2595   */\n      swap2\n      swap1\n      pop\n      jump\t// out\n        /* \"#utility.yul\":2601:2723   */\n    tag_135:\n        /* \"#utility.yul\":2674:2698   */\n      tag_200\n        /* \"#utility.yul\":2692:2697   */\n      dup2\n        /* \"#utility.yul\":2674:2698   */\n      tag_134\n      jump\t// in\n    tag_200:\n        /* \"#utility.yul\":2667:2672   */\n      dup2\n        /* \"#utility.yul\":2664:2699   */\n      eq\n        /* \"#utility.yul\":2654:2717   */\n      tag_201\n      jumpi\n        /* \"#utility.yul\":2713:2714   */\n      0x00\n        /* \"#utility.yul\":2710:2711   */\n      dup1\n        /* \"#utility.yul\":2703:2715   */\n      revert\n        /* \"#utility.yul\":2654:2717   */\n    tag_201:\n        /* \"#utility.yul\":2601:2723   */\n      pop\n      jump\t// out\n        /* \"#utility.yul\":2729:2868   */\n    tag_136:\n        /* \"#utility.yul\":2775:2780   */\n      0x00\n        /* \"#utility.yul\":2813:2819   */\n      dup2\n        /* \"#utility.yul\":2800:2820   */\n      calldataload\n        /* \"#utility.yul\":2791:2820   */\n      swap1\n      pop\n        /* \"#utility.yul\":2829:2862   */\n      tag_203\n        /* \"#utility.yul\":2856:2861   */\n      dup2\n        /* \"#utility.yul\":2829:2862   */\n      tag_135\n      jump\t// in\n    tag_203:\n        /* \"#utility.yul\":2729:2868   */\n      swap3\n      swap2\n      pop\n      pop\n      jump\t// out\n        /* \"#utility.yul\":2874:3203   */\n    tag_28:\n        /* \"#utility.yul\":2933:2939   */\n      0x00\n        /* \"#utility.yul\":2982:2984   */\n      0x20\n        /* \"#utility.yul\":2970:2979   */\n      dup3\n        /* \"#utility.yul\":2961:2968   */\n      dup5\n        /* \"#utility.yul\":2957:2980   */\n      sub\n        /* \"#utility.yul\":2953:2985   */\n      slt\n        /* \"#utility.yul\":2950:3069   */\n      iszero\n      tag_205\n      jumpi\n        /* \"#utility.yul\":2988:3067   */\n      tag_206\n      tag_123\n      jump\t// in\n    tag_206:\n        /* \"#utility.yul\":2950:3069   */\n    tag_205:\n        /* \"#utility.yul\":3108:3109   */\n      0x00\n        /* \"#utility.yul\":3133:3186   */\n      tag_207\n        /* \"#utility.yul\":3178:3185   */\n      dup5\n        /* \"#utility.yul\":3169:3175   */\n      dup3\n        /* \"#utility.yul\":3158:3167   */\n      dup6\n        /* \"#utility.yul\":3154:3176   */\n      add\n        /* \"#utility.yul\":3133:3186   */\n      tag_136\n      jump\t// in\n    tag_207:\n        /* \"#utility.yul\":3123:3186   */\n      swap2\n      pop\n        /* \"#utility.yul\":3079:3196   */\n      pop\n        /* \"#utility.yul\":2874:3203   */\n      swap3\n      swap2\n      pop\n      pop\n      jump\t// out\n        /* \"#utility.yul\":3209:3299   */\n    tag_137:\n        /* \"#utility.yul\":3243:3250   */\n      0x00\n        /* \"#utility.yul\":3286:3291   */\n      dup2\n        /* \"#utility.yul\":3279:3292   */\n      iszero\n        /* \"#utility.yul\":3272:3293   */\n      iszero\n        /* \"#utility.yul\":3261:3293   */\n      swap1\n      pop\n        /* \"#utility.yul\":3209:3299   */\n      swap2\n      swap1\n      pop\n      jump\t// out\n        /* \"#utility.yul\":3305:3414   */\n    tag_138:\n        /* \"#utility.yul\":3386:3407   */\n      tag_210\n        /* \"#utility.yul\":3401:3406   */\n      dup2\n        /* \"#utility.yul\":3386:3407   */\n      tag_137\n      jump\t// in\n    tag_210:\n        /* \"#utility.yul\":3381:3384   */\n      dup3\n        /* \"#utility.yul\":3374:3408   */\n      mstore\n        /* \"#utility.yul\":3305:3414   */\n      pop\n      pop\n      jump\t// out\n        /* \"#utility.yul\":3420:3630   */\n    tag_31:\n        /* \"#utility.yul\":3507:3511   */\n      0x00\n        /* \"#utility.yul\":3545:3547   */\n      0x20\n        /* \"#utility.yul\":3534:3543   */\n      dup3\n        /* \"#utility.yul\":3530:3548   */\n      add\n        /* \"#utility.yul\":3522:3548   */\n      swap1\n      pop\n        /* \"#utility.yul\":3558:3623   */\n      tag_212\n        /* \"#utility.yul\":3620:3621   */\n      0x00\n        /* \"#utility.yul\":3609:3618   */\n      dup4\n        /* \"#utility.yul\":3605:3622   */\n      add\n        /* \"#utility.yul\":3596:3602   */\n      dup5\n        /* \"#utility.yul\":3558:3623   */\n      tag_138\n      jump\t// in\n    tag_212:\n        /* \"#utility.yul\":3420:3630   */\n      swap3\n      swap2\n      pop\n      pop\n      jump\t// out\n        /* \"#utility.yul\":3636:3754   */\n    tag_139:\n        /* \"#utility.yul\":3723:3747   */\n      tag_214\n        /* \"#utility.yul\":3741:3746   */\n      dup2\n        /* \"#utility.yul\":3723:3747   */\n      tag_125\n      jump\t// in\n    tag_214:\n        /* \"#utility.yul\":3718:3721   */\n      dup3\n        /* \"#utility.yul\":3711:3748   */\n      mstore\n        /* \"#utility.yul\":3636:3754   */\n      pop\n      pop\n      jump\t// out\n        /* \"#utility.yul\":3760:3982   */\n    tag_36:\n        /* \"#utility.yul\":3853:3857   */\n      0x00\n        /* \"#utility.yul\":3891:3893   */\n      0x20\n        /* \"#utility.yul\":3880:3889   */\n      dup3\n        /* \"#utility.yul\":3876:3894   */\n      add\n        /* \"#utility.yul\":3868:3894   */\n      swap1\n      pop\n        /* \"#utility.yul\":3904:3975   */\n      tag_216\n        /* \"#utility.yul\":3972:3973   */\n      0x00\n        /* \"#utility.yul\":3961:3970   */\n      dup4\n        /* \"#utility.yul\":3957:3974   */\n      add\n        /* \"#utility.yul\":3948:3954   */\n      dup5\n        /* \"#utility.yul\":3904:3975   */\n      tag_139\n      jump\t// in\n    tag_216:\n        /* \"#utility.yul\":3760:3982   */\n      swap3\n      swap2\n      pop\n      pop\n      jump\t// out\n        /* \"#utility.yul\":3988:4106   */\n    tag_140:\n        /* \"#utility.yul\":4075:4099   */\n      tag_218\n        /* \"#utility.yul\":4093:4098   */\n      dup2\n        /* \"#utility.yul\":4075:4099   */\n      tag_134\n      jump\t// in\n    tag_218:\n        /* \"#utility.yul\":4070:4073   */\n      dup3\n        /* \"#utility.yul\":4063:4100   */\n      mstore\n        /* \"#utility.yul\":3988:4106   */\n      pop\n      pop\n      jump\t// out\n        /* \"#utility.yul\":4112:4978   */\n    tag_41:\n        /* \"#utility.yul\":4365:4369   */\n      0x00\n        /* \"#utility.yul\":4403:4406   */\n      0xc0\n        /* \"#utility.yul\":4392:4401   */\n      dup3\n        /* \"#utility.yul\":4388:4407   */\n      add\n        /* \"#utility.yul\":4380:4407   */\n      swap1\n      pop\n        /* \"#utility.yul\":4417:4488   */\n      tag_220\n        /* \"#utility.yul\":4485:4486   */\n      0x00\n        /* \"#utility.yul\":4474:4483   */\n      dup4\n        /* \"#utility.yul\":4470:4487   */\n      add\n        /* \"#utility.yul\":4461:4467   */\n      dup10\n        /* \"#utility.yul\":4417:4488   */\n      tag_139\n      jump\t// in\n    tag_220:\n        /* \"#utility.yul\":4498:4570   */\n      tag_221\n        /* \"#utility.yul\":4566:4568   */\n      0x20\n        /* \"#utility.yul\":4555:4564   */\n      dup4\n        /* \"#utility.yul\":4551:4569   */\n      add\n        /* \"#utility.yul\":4542:4548   */\n      dup9\n        /* \"#utility.yul\":4498:4570   */\n      tag_139\n      jump\t// in\n    tag_221:\n        /* \"#utility.yul\":4580:4652   */\n      tag_222\n        /* \"#utility.yul\":4648:4650   */\n      0x40\n        /* \"#utility.yul\":4637:4646   */\n      dup4\n        /* \"#utility.yul\":4633:4651   */\n      add\n        /* \"#utility.yul\":4624:4630   */\n      dup8\n        /* \"#utility.yul\":4580:4652   */\n      tag_139\n      jump\t// in\n    tag_222:\n        /* \"#utility.yul\":4662:4734   */\n      tag_223\n        /* \"#utility.yul\":4730:4732   */\n      0x60\n        /* \"#utility.yul\":4719:4728   */\n      dup4\n        /* \"#utility.yul\":4715:4733   */\n      add\n        /* \"#utility.yul\":4706:4712   */\n      dup7\n        /* \"#utility.yul\":4662:4734   */\n      tag_139\n      jump\t// in\n    tag_223:\n        /* \"#utility.yul\":4744:4817   */\n      tag_224\n        /* \"#utility.yul\":4812:4815   */\n      0x80\n        /* \"#utility.yul\":4801:4810   */\n      dup4\n        /* \"#utility.yul\":4797:4816   */\n      add\n        /* \"#utility.yul\":4788:4794   */\n      dup6\n        /* \"#utility.yul\":4744:4817   */\n      tag_140\n      jump\t// in\n    tag_224:\n        /* \"#utility.yul\":4865:4874   */\n      dup2\n        /* \"#utility.yul\":4859:4863   */\n      dup2\n        /* \"#utility.yul\":4855:4875   */\n      sub\n        /* \"#utility.yul\":4849:4852   */\n      0xa0\n        /* \"#utility.yul\":4838:4847   */\n      dup4\n        /* \"#utility.yul\":4834:4853   */\n      add\n        /* \"#utility.yul\":4827:4876   */\n      mstore\n        /* \"#utility.yul\":4893:4971   */\n      tag_225\n        /* \"#utility.yul\":4966:4970   */\n      dup2\n        /* \"#utility.yul\":4957:4963   */\n      dup5\n        /* \"#utility.yul\":4893:4971   */\n      tag_132\n      jump\t// in\n    tag_225:\n        /* \"#utility.yul\":4885:4971   */\n      swap1\n      pop\n        /* \"#utility.yul\":4112:4978   */\n      swap8\n      swap7\n      pop\n      pop\n      pop\n      pop\n      pop\n      pop\n      pop\n      jump\t// out\n        /* \"#utility.yul\":4984:5206   */\n    tag_46:\n        /* \"#utility.yul\":5077:5081   */\n      0x00\n        /* \"#utility.yul\":5115:5117   */\n      0x20\n        /* \"#utility.yul\":5104:5113   */\n      dup3\n        /* \"#utility.yul\":5100:5118   */\n      add\n        /* \"#utility.yul\":5092:5118   */\n      swap1\n      pop\n        /* \"#utility.yul\":5128:5199   */\n      tag_227\n        /* \"#utility.yul\":5196:5197   */\n      0x00\n        /* \"#utility.yul\":5185:5194   */\n      dup4\n        /* \"#utility.yul\":5181:5198   */\n      add\n        /* \"#utility.yul\":5172:5178   */\n      dup5\n        /* \"#utility.yul\":5128:5199   */\n      tag_140\n      jump\t// in\n    tag_227:\n        /* \"#utility.yul\":4984:5206   */\n      swap3\n      swap2\n      pop\n      pop\n      jump\t// out\n        /* \"#utility.yul\":5212:5955   */\n    tag_52:\n        /* \"#utility.yul\":5431:5435   */\n      0x00\n        /* \"#utility.yul\":5469:5472   */\n      0xa0\n        /* \"#utility.yul\":5458:5467   */\n      dup3\n        /* \"#utility.yul\":5454:5473   */\n      add\n        /* \"#utility.yul\":5446:5473   */\n      swap1\n      pop\n        /* \"#utility.yul\":5519:5528   */\n      dup2\n        /* \"#utility.yul\":5513:5517   */\n      dup2\n        /* \"#utility.yul\":5509:5529   */\n      sub\n        /* \"#utility.yul\":5505:5506   */\n      0x00\n        /* \"#utility.yul\":5494:5503   */\n      dup4\n        /* \"#utility.yul\":5490:5507   */\n      add\n        /* \"#utility.yul\":5483:5530   */\n      mstore\n        /* \"#utility.yul\":5547:5625   */\n      tag_229\n        /* \"#utility.yul\":5620:5624   */\n      dup2\n        /* \"#utility.yul\":5611:5617   */\n      dup9\n        /* \"#utility.yul\":5547:5625   */\n      tag_132\n      jump\t// in\n    tag_229:\n        /* \"#utility.yul\":5539:5625   */\n      swap1\n      pop\n        /* \"#utility.yul\":5635:5707   */\n      tag_230\n        /* \"#utility.yul\":5703:5705   */\n      0x20\n        /* \"#utility.yul\":5692:5701   */\n      dup4\n        /* \"#utility.yul\":5688:5706   */\n      add\n        /* \"#utility.yul\":5679:5685   */\n      dup8\n        /* \"#utility.yul\":5635:5707   */\n      tag_139\n      jump\t// in\n    tag_230:\n        /* \"#utility.yul\":5717:5789   */\n      tag_231\n        /* \"#utility.yul\":5785:5787   */\n      0x40\n        /* \"#utility.yul\":5774:5783   */\n      dup4\n        /* \"#utility.yul\":5770:5788   */\n      add\n        /* \"#utility.yul\":5761:5767   */\n      dup7\n        /* \"#utility.yul\":5717:5789   */\n      tag_140\n      jump\t// in\n    tag_231:\n        /* \"#utility.yul\":5799:5865   */\n      tag_232\n        /* \"#utility.yul\":5861:5863   */\n      0x60\n        /* \"#utility.yul\":5850:5859   */\n      dup4\n        /* \"#utility.yul\":5846:5864   */\n      add\n        /* \"#utility.yul\":5837:5843   */\n      dup6\n        /* \"#utility.yul\":5799:5865   */\n      tag_138\n      jump\t// in\n    tag_232:\n        /* \"#utility.yul\":5875:5948   */\n      tag_233\n        /* \"#utility.yul\":5943:5946   */\n      0x80\n        /* \"#utility.yul\":5932:5941   */\n      dup4\n        /* \"#utility.yul\":5928:5947   */\n      add\n        /* \"#utility.yul\":5919:5925   */\n      dup5\n        /* \"#utility.yul\":5875:5948   */\n      tag_139\n      jump\t// in\n    tag_233:\n        /* \"#utility.yul\":5212:5955   */\n      swap7\n      swap6\n      pop\n      pop\n      pop\n      pop\n      pop\n      pop\n      jump\t// out\n        /* \"#utility.yul\":5961:6078   */\n    tag_141:\n        /* \"#utility.yul\":6070:6071   */\n      0x00\n        /* \"#utility.yul\":6067:6068   */\n      dup1\n        /* \"#utility.yul\":6060:6072   */\n      revert\n        /* \"#utility.yul\":6084:6201   */\n    tag_142:\n        /* \"#utility.yul\":6193:6194   */\n      0x00\n        /* \"#utility.yul\":6190:6191   */\n      dup1\n        /* \"#utility.yul\":6183:6195   */\n      revert\n        /* \"#utility.yul\":6207:6387   */\n    tag_143:\n        /* \"#utility.yul\":6255:6332   */\n      0x4e487b7100000000000000000000000000000000000000000000000000000000\n        /* \"#utility.yul\":6252:6253   */\n      0x00\n        /* \"#utility.yul\":6245:6333   */\n      mstore\n        /* \"#utility.yul\":6352:6356   */\n      0x41\n        /* \"#utility.yul\":6349:6350   */\n      0x04\n        /* \"#utility.yul\":6342:6357   */\n      mstore\n        /* \"#utility.yul\":6376:6380   */\n      0x24\n        /* \"#utility.yul\":6373:6374   */\n      0x00\n        /* \"#utility.yul\":6366:6381   */\n      revert\n        /* \"#utility.yul\":6393:6674   */\n    tag_144:\n        /* \"#utility.yul\":6476:6503   */\n      tag_238\n        /* \"#utility.yul\":6498:6502   */\n      dup3\n        /* \"#utility.yul\":6476:6503   */\n      tag_131\n      jump\t// in\n    tag_238:\n        /* \"#utility.yul\":6468:6474   */\n      dup2\n        /* \"#utility.yul\":6464:6504   */\n      add\n        /* \"#utility.yul\":6606:6612   */\n      dup2\n        /* \"#utility.yul\":6594:6604   */\n      dup2\n        /* \"#utility.yul\":6591:6613   */\n      lt\n        /* \"#utility.yul\":6570:6588   */\n      0xffffffffffffffff\n        /* \"#utility.yul\":6558:6568   */\n      dup3\n        /* \"#utility.yul\":6555:6589   */\n      gt\n        /* \"#utility.yul\":6552:6614   */\n      or\n        /* \"#utility.yul\":6549:6637   */\n      iszero\n      tag_239\n      jumpi\n        /* \"#utility.yul\":6617:6635   */\n      tag_240\n      tag_143\n      jump\t// in\n    tag_240:\n        /* \"#utility.yul\":6549:6637   */\n    tag_239:\n        /* \"#utility.yul\":6657:6667   */\n      dup1\n        /* \"#utility.yul\":6653:6655   */\n      0x40\n        /* \"#utility.yul\":6646:6668   */\n      mstore\n        /* \"#utility.yul\":6436:6674   */\n      pop\n        /* \"#utility.yul\":6393:6674   */\n      pop\n      pop\n      jump\t// out\n        /* \"#utility.yul\":6680:6809   */\n    tag_145:\n        /* \"#utility.yul\":6714:6720   */\n      0x00\n        /* \"#utility.yul\":6741:6761   */\n      tag_242\n      tag_122\n      jump\t// in\n    tag_242:\n        /* \"#utility.yul\":6731:6761   */\n      swap1\n      pop\n        /* \"#utility.yul\":6770:6803   */\n      tag_243\n        /* \"#utility.yul\":6798:6802   */\n      dup3\n        /* \"#utility.yul\":6790:6796   */\n      dup3\n        /* \"#utility.yul\":6770:6803   */\n      tag_144\n      jump\t// in\n    tag_243:\n        /* \"#utility.yul\":6680:6809   */\n      swap2\n      swap1\n      pop\n      jump\t// out\n        /* \"#utility.yul\":6815:7123   */\n    tag_146:\n        /* \"#utility.yul\":6877:6881   */\n      0x00\n        /* \"#utility.yul\":6967:6985   */\n      0xffffffffffffffff\n        /* \"#utility.yul\":6959:6965   */\n      dup3\n        /* \"#utility.yul\":6956:6986   */\n      gt\n        /* \"#utility.yul\":6953:7009   */\n      iszero\n      tag_245\n      jumpi\n        /* \"#utility.yul\":6989:7007   */\n      tag_246\n      tag_143\n      jump\t// in\n    tag_246:\n        /* \"#utility.yul\":6953:7009   */\n    tag_245:\n        /* \"#utility.yul\":7027:7056   */\n      tag_247\n        /* \"#utility.yul\":7049:7055   */\n      dup3\n        /* \"#utility.yul\":7027:7056   */\n      tag_131\n      jump\t// in\n    tag_247:\n        /* \"#utility.yul\":7019:7056   */\n      swap1\n      pop\n        /* \"#utility.yul\":7111:7115   */\n      0x20\n        /* \"#utility.yul\":7105:7109   */\n      dup2\n        /* \"#utility.yul\":7101:7116   */\n      add\n        /* \"#utility.yul\":7093:7116   */\n      swap1\n      pop\n        /* \"#utility.yul\":6815:7123   */\n      swap2\n      swap1\n      pop\n      jump\t// out\n        /* \"#utility.yul\":7129:7275   */\n    tag_147:\n        /* \"#utility.yul\":7226:7232   */\n      dup3\n        /* \"#utility.yul\":7221:7224   */\n      dup2\n        /* \"#utility.yul\":7216:7219   */\n      dup4\n        /* \"#utility.yul\":7203:7233   */\n      calldatacopy\n        /* \"#utility.yul\":7267:7268   */\n      0x00\n        /* \"#utility.yul\":7258:7264   */\n      dup4\n        /* \"#utility.yul\":7253:7256   */\n      dup4\n        /* \"#utility.yul\":7249:7265   */\n      add\n        /* \"#utility.yul\":7242:7269   */\n      mstore\n        /* \"#utility.yul\":7129:7275   */\n      pop\n      pop\n      pop\n      jump\t// out\n        /* \"#utility.yul\":7281:7706   */\n    tag_148:\n        /* \"#utility.yul\":7359:7364   */\n      0x00\n        /* \"#utility.yul\":7384:7450   */\n      tag_250\n        /* \"#utility.yul\":7400:7449   */\n      tag_251\n        /* \"#utility.yul\":7442:7448   */\n      dup5\n        /* \"#utility.yul\":7400:7449   */\n      tag_146\n      jump\t// in\n    tag_251:\n        /* \"#utility.yul\":7384:7450   */\n      tag_145\n      jump\t// in\n    tag_250:\n        /* \"#utility.yul\":7375:7450   */\n      swap1\n      pop\n        /* \"#utility.yul\":7473:7479   */\n      dup3\n        /* \"#utility.yul\":7466:7471   */\n      dup2\n        /* \"#utility.yul\":7459:7480   */\n      mstore\n        /* \"#utility.yul\":7511:7515   */\n      0x20\n        /* \"#utility.yul\":7504:7509   */\n      dup2\n        /* \"#utility.yul\":7500:7516   */\n      add\n        /* \"#utility.yul\":7549:7552   */\n      dup5\n        /* \"#utility.yul\":7540:7546   */\n      dup5\n        /* \"#utility.yul\":7535:7538   */\n      dup5\n        /* \"#utility.yul\":7531:7547   */\n      add\n        /* \"#utility.yul\":7528:7553   */\n      gt\n        /* \"#utility.yul\":7525:7637   */\n      iszero\n      tag_252\n      jumpi\n        /* \"#utility.yul\":7556:7635   */\n      tag_253\n      tag_142\n      jump\t// in\n    tag_253:\n        /* \"#utility.yul\":7525:7637   */\n    tag_252:\n        /* \"#utility.yul\":7646:7700   */\n      tag_254\n        /* \"#utility.yul\":7693:7699   */\n      dup5\n        /* \"#utility.yul\":7688:7691   */\n      dup3\n        /* \"#utility.yul\":7683:7686   */\n      dup6\n        /* \"#utility.yul\":7646:7700   */\n      tag_147\n      jump\t// in\n    tag_254:\n        /* \"#utility.yul\":7365:7706   */\n      pop\n        /* \"#utility.yul\":7281:7706   */\n      swap4\n      swap3\n      pop\n      pop\n      pop\n      jump\t// out\n        /* \"#utility.yul\":7726:8066   */\n    tag_149:\n        /* \"#utility.yul\":7782:7787   */\n      0x00\n        /* \"#utility.yul\":7831:7834   */\n      dup3\n        /* \"#utility.yul\":7824:7828   */\n      0x1f\n        /* \"#utility.yul\":7816:7822   */\n      dup4\n        /* \"#utility.yul\":7812:7829   */\n      add\n        /* \"#utility.yul\":7808:7835   */\n      slt\n        /* \"#utility.yul\":7798:7920   */\n      tag_256\n      jumpi\n        /* \"#utility.yul\":7839:7918   */\n      tag_257\n      tag_141\n      jump\t// in\n    tag_257:\n        /* \"#utility.yul\":7798:7920   */\n    tag_256:\n        /* \"#utility.yul\":7956:7962   */\n      dup2\n        /* \"#utility.yul\":7943:7963   */\n      calldataload\n        /* \"#utility.yul\":7981:8060   */\n      tag_258\n        /* \"#utility.yul\":8056:8059   */\n      dup5\n        /* \"#utility.yul\":8048:8054   */\n      dup3\n        /* \"#utility.yul\":8041:8045   */\n      0x20\n        /* \"#utility.yul\":8033:8039   */\n      dup7\n        /* \"#utility.yul\":8029:8046   */\n      add\n        /* \"#utility.yul\":7981:8060   */\n      tag_148\n      jump\t// in\n    tag_258:\n        /* \"#utility.yul\":7972:8060   */\n      swap2\n      pop\n        /* \"#utility.yul\":7788:8066   */\n      pop\n        /* \"#utility.yul\":7726:8066   */\n      swap3\n      swap2\n      pop\n      pop\n      jump\t// out\n        /* \"#utility.yul\":8072:8871   */\n    tag_60:\n        /* \"#utility.yul\":8159:8165   */\n      0x00\n        /* \"#utility.yul\":8167:8173   */\n      dup1\n        /* \"#utility.yul\":8175:8181   */\n      0x00\n        /* \"#utility.yul\":8224:8226   */\n      0x60\n        /* \"#utility.yul\":8212:8221   */\n      dup5\n        /* \"#utility.yul\":8203:8210   */\n      dup7\n        /* \"#utility.yul\":8199:8222   */\n      sub\n        /* \"#utility.yul\":8195:8227   */\n      slt\n        /* \"#utility.yul\":8192:8311   */\n      iszero\n      tag_260\n      jumpi\n        /* \"#utility.yul\":8230:8309   */\n      tag_261\n      tag_123\n      jump\t// in\n    tag_261:\n        /* \"#utility.yul\":8192:8311   */\n    tag_260:\n        /* \"#utility.yul\":8378:8379   */\n      0x00\n        /* \"#utility.yul\":8367:8376   */\n      dup5\n        /* \"#utility.yul\":8363:8380   */\n      add\n        /* \"#utility.yul\":8350:8381   */\n      calldataload\n        /* \"#utility.yul\":8408:8426   */\n      0xffffffffffffffff\n        /* \"#utility.yul\":8400:8406   */\n      dup2\n        /* \"#utility.yul\":8397:8427   */\n      gt\n        /* \"#utility.yul\":8394:8511   */\n      iszero\n      tag_262\n      jumpi\n        /* \"#utility.yul\":8430:8509   */\n      tag_263\n      tag_124\n      jump\t// in\n    tag_263:\n        /* \"#utility.yul\":8394:8511   */\n    tag_262:\n        /* \"#utility.yul\":8535:8598   */\n      tag_264\n        /* \"#utility.yul\":8590:8597   */\n      dup7\n        /* \"#utility.yul\":8581:8587   */\n      dup3\n        /* \"#utility.yul\":8570:8579   */\n      dup8\n        /* \"#utility.yul\":8566:8588   */\n      add\n        /* \"#utility.yul\":8535:8598   */\n      tag_149\n      jump\t// in\n    tag_264:\n        /* \"#utility.yul\":8525:8598   */\n      swap4\n      pop\n        /* \"#utility.yul\":8321:8608   */\n      pop\n        /* \"#utility.yul\":8647:8649   */\n      0x20\n        /* \"#utility.yul\":8673:8726   */\n      tag_265\n        /* \"#utility.yul\":8718:8725   */\n      dup7\n        /* \"#utility.yul\":8709:8715   */\n      dup3\n        /* \"#utility.yul\":8698:8707   */\n      dup8\n        /* \"#utility.yul\":8694:8716   */\n      add\n        /* \"#utility.yul\":8673:8726   */\n      tag_127\n      jump\t// in\n    tag_265:\n        /* \"#utility.yul\":8663:8726   */\n      swap3\n      pop\n        /* \"#utility.yul\":8618:8736   */\n      pop\n        /* \"#utility.yul\":8775:8777   */\n      0x40\n        /* \"#utility.yul\":8801:8854   */\n      tag_266\n        /* \"#utility.yul\":8846:8853   */\n      dup7\n        /* \"#utility.yul\":8837:8843   */\n      dup3\n        /* \"#utility.yul\":8826:8835   */\n      dup8\n        /* \"#utility.yul\":8822:8844   */\n      add\n        /* \"#utility.yul\":8801:8854   */\n      tag_136\n      jump\t// in\n    tag_266:\n        /* \"#utility.yul\":8791:8854   */\n      swap2\n      pop\n        /* \"#utility.yul\":8746:8864   */\n      pop\n        /* \"#utility.yul\":8072:8871   */\n      swap3\n      pop\n      swap3\n      pop\n      swap3\n      jump\t// out\n        /* \"#utility.yul\":8877:9057   */\n    tag_77:\n        /* \"#utility.yul\":8925:9002   */\n      0x4e487b7100000000000000000000000000000000000000000000000000000000\n        /* \"#utility.yul\":8922:8923   */\n      0x00\n        /* \"#utility.yul\":8915:9003   */\n      mstore\n        /* \"#utility.yul\":9022:9026   */\n      0x32\n        /* \"#utility.yul\":9019:9020   */\n      0x04\n        /* \"#utility.yul\":9012:9027   */\n      mstore\n        /* \"#utility.yul\":9046:9050   */\n      0x24\n        /* \"#utility.yul\":9043:9044   */\n      0x00\n        /* \"#utility.yul\":9036:9051   */\n      revert\n        /* \"#utility.yul\":9063:9243   */\n    tag_150:\n        /* \"#utility.yul\":9111:9188   */\n      0x4e487b7100000000000000000000000000000000000000000000000000000000\n        /* \"#utility.yul\":9108:9109   */\n      0x00\n        /* \"#utility.yul\":9101:9189   */\n      mstore\n        /* \"#utility.yul\":9208:9212   */\n      0x12\n        /* \"#utility.yul\":9205:9206   */\n      0x04\n        /* \"#utility.yul\":9198:9213   */\n      mstore\n        /* \"#utility.yul\":9232:9236   */\n      0x24\n        /* \"#utility.yul\":9229:9230   */\n      0x00\n        /* \"#utility.yul\":9222:9237   */\n      revert\n        /* \"#utility.yul\":9249:9429   */\n    tag_151:\n        /* \"#utility.yul\":9297:9374   */\n      0x4e487b7100000000000000000000000000000000000000000000000000000000\n        /* \"#utility.yul\":9294:9295   */\n      0x00\n        /* \"#utility.yul\":9287:9375   */\n      mstore\n        /* \"#utility.yul\":9394:9398   */\n      0x11\n        /* \"#utility.yul\":9391:9392   */\n      0x04\n        /* \"#utility.yul\":9384:9399   */\n      mstore\n        /* \"#utility.yul\":9418:9422   */\n      0x24\n        /* \"#utility.yul\":9415:9416   */\n      0x00\n        /* \"#utility.yul\":9408:9423   */\n      revert\n        /* \"#utility.yul\":9435:9620   */\n    tag_80:\n        /* \"#utility.yul\":9475:9476   */\n      0x00\n        /* \"#utility.yul\":9492:9512   */\n      tag_271\n        /* \"#utility.yul\":9510:9511   */\n      dup3\n        /* \"#utility.yul\":9492:9512   */\n      tag_125\n      jump\t// in\n    tag_271:\n        /* \"#utility.yul\":9487:9512   */\n      swap2\n      pop\n        /* \"#utility.yul\":9526:9546   */\n      tag_272\n        /* \"#utility.yul\":9544:9545   */\n      dup4\n        /* \"#utility.yul\":9526:9546   */\n      tag_125\n      jump\t// in\n    tag_272:\n        /* \"#utility.yul\":9521:9546   */\n      swap3\n      pop\n        /* \"#utility.yul\":9565:9566   */\n      dup3\n        /* \"#utility.yul\":9555:9590   */\n      tag_273\n      jumpi\n        /* \"#utility.yul\":9570:9588   */\n      tag_274\n      tag_150\n      jump\t// in\n    tag_274:\n        /* \"#utility.yul\":9555:9590   */\n    tag_273:\n        /* \"#utility.yul\":9612:9613   */\n      dup3\n        /* \"#utility.yul\":9609:9610   */\n      dup3\n        /* \"#utility.yul\":9605:9614   */\n      div\n        /* \"#utility.yul\":9600:9614   */\n      swap1\n      pop\n        /* \"#utility.yul\":9435:9620   */\n      swap3\n      swap2\n      pop\n      pop\n      jump\t// out\n        /* \"#utility.yul\":9626:9806   */\n    tag_152:\n        /* \"#utility.yul\":9674:9751   */\n      0x4e487b7100000000000000000000000000000000000000000000000000000000\n        /* \"#utility.yul\":9671:9672   */\n      0x00\n        /* \"#utility.yul\":9664:9752   */\n      mstore\n        /* \"#utility.yul\":9771:9775   */\n      0x22\n        /* \"#utility.yul\":9768:9769   */\n      0x04\n        /* \"#utility.yul\":9761:9776   */\n      mstore\n        /* \"#utility.yul\":9795:9799   */\n      0x24\n        /* \"#utility.yul\":9792:9793   */\n      0x00\n        /* \"#utility.yul\":9785:9800   */\n      revert\n        /* \"#utility.yul\":9812:10132   */\n    tag_86:\n        /* \"#utility.yul\":9856:9862   */\n      0x00\n        /* \"#utility.yul\":9893:9894   */\n      0x02\n        /* \"#utility.yul\":9887:9891   */\n      dup3\n        /* \"#utility.yul\":9883:9895   */\n      div\n        /* \"#utility.yul\":9873:9895   */\n      swap1\n      pop\n        /* \"#utility.yul\":9940:9941   */\n      0x01\n        /* \"#utility.yul\":9934:9938   */\n      dup3\n        /* \"#utility.yul\":9930:9942   */\n      and\n        /* \"#utility.yul\":9961:9979   */\n      dup1\n        /* \"#utility.yul\":9951:10032   */\n      tag_277\n      jumpi\n        /* \"#utility.yul\":10017:10021   */\n      0x7f\n        /* \"#utility.yul\":10009:10015   */\n      dup3\n        /* \"#utility.yul\":10005:10022   */\n      and\n        /* \"#utility.yul\":9995:10022   */\n      swap2\n      pop\n        /* \"#utility.yul\":9951:10032   */\n    tag_277:\n        /* \"#utility.yul\":10079:10081   */\n      0x20\n        /* \"#utility.yul\":10071:10077   */\n      dup3\n        /* \"#utility.yul\":10068:10082   */\n      lt\n        /* \"#utility.yul\":10048:10066   */\n      dup2\n        /* \"#utility.yul\":10045:10083   */\n      sub\n        /* \"#utility.yul\":10042:10126   */\n      tag_278\n      jumpi\n        /* \"#utility.yul\":10098:10116   */\n      tag_279\n      tag_152\n      jump\t// in\n    tag_279:\n        /* \"#utility.yul\":10042:10126   */\n    tag_278:\n        /* \"#utility.yul\":9863:10132   */\n      pop\n        /* \"#utility.yul\":9812:10132   */\n      swap2\n      swap1\n      pop\n      jump\t// out\n        /* \"#utility.yul\":10138:10279   */\n    tag_153:\n        /* \"#utility.yul\":10187:10191   */\n      0x00\n        /* \"#utility.yul\":10210:10213   */\n      dup2\n        /* \"#utility.yul\":10202:10213   */\n      swap1\n      pop\n        /* \"#utility.yul\":10233:10236   */\n      dup2\n        /* \"#utility.yul\":10230:10231   */\n      0x00\n        /* \"#utility.yul\":10223:10237   */\n      mstore\n        /* \"#utility.yul\":10267:10271   */\n      0x20\n        /* \"#utility.yul\":10264:10265   */\n      0x00\n        /* \"#utility.yul\":10254:10272   */\n      keccak256\n        /* \"#utility.yul\":10246:10272   */\n      swap1\n      pop\n        /* \"#utility.yul\":10138:10279   */\n      swap2\n      swap1\n      pop\n      jump\t// out\n        /* \"#utility.yul\":10285:10378   */\n    tag_154:\n        /* \"#utility.yul\":10322:10328   */\n      0x00\n        /* \"#utility.yul\":10369:10371   */\n      0x20\n        /* \"#utility.yul\":10364:10366   */\n      0x1f\n        /* \"#utility.yul\":10357:10362   */\n      dup4\n        /* \"#utility.yul\":10353:10367   */\n      add\n        /* \"#utility.yul\":10349:10372   */\n      div\n        /* \"#utility.yul\":10339:10372   */\n      swap1\n      pop\n        /* \"#utility.yul\":10285:10378   */\n      swap2\n      swap1\n      pop\n      jump\t// out\n        /* \"#utility.yul\":10384:10491   */\n    tag_155:\n        /* \"#utility.yul\":10428:10436   */\n      0x00\n        /* \"#utility.yul\":10478:10483   */\n      dup3\n        /* \"#utility.yul\":10472:10476   */\n      dup3\n        /* \"#utility.yul\":10468:10484   */\n      shl\n        /* \"#utility.yul\":10447:10484   */\n      swap1\n      pop\n        /* \"#utility.yul\":10384:10491   */\n      swap3\n      swap2\n      pop\n      pop\n      jump\t// out\n        /* \"#utility.yul\":10497:10890   */\n    tag_156:\n        /* \"#utility.yul\":10566:10572   */\n      0x00\n        /* \"#utility.yul\":10616:10617   */\n      0x08\n        /* \"#utility.yul\":10604:10614   */\n      dup4\n        /* \"#utility.yul\":10600:10618   */\n      mul\n        /* \"#utility.yul\":10639:10736   */\n      tag_284\n        /* \"#utility.yul\":10669:10735   */\n      0xffffffffffffffffffffffffffffffffffffffffffffffffffffffffffffffff\n        /* \"#utility.yul\":10658:10667   */\n      dup3\n        /* \"#utility.yul\":10639:10736   */\n      tag_155\n      jump\t// in\n    tag_284:\n        /* \"#utility.yul\":10757:10796   */\n      tag_285\n        /* \"#utility.yul\":10787:10795   */\n      dup7\n        /* \"#utility.yul\":10776:10785   */\n      dup4\n        /* \"#utility.yul\":10757:10796   */\n      tag_155\n      jump\t// in\n    tag_285:\n        /* \"#utility.yul\":10745:10796   */\n      swap6\n      pop\n        /* \"#utility.yul\":10829:10833   */\n      dup1\n        /* \"#utility.yul\":10825:10834   */\n      not\n        /* \"#utility.yul\":10818:10823   */\n      dup5\n        /* \"#utility.yul\":10814:10835   */\n      and\n        /* \"#utility.yul\":10805:10835   */\n      swap4\n      pop\n        /* \"#utility.yul\":10878:10882   */\n      dup1\n        /* \"#utility.yul\":10868:10876   */\n      dup7\n        /* \"#utility.yul\":10864:10883   */\n      and\n        /* \"#utility.yul\":10857:10862   */\n      dup5\n        /* \"#utility.yul\":10854:10884   */\n      or\n        /* \"#utility.yul\":10844:10884   */\n      swap3\n      pop\n        /* \"#utility.yul\":10573:10890   */\n      pop\n      pop\n        /* \"#utility.yul\":10497:10890   */\n      swap4\n      swap3\n      pop\n      pop\n      pop\n      jump\t// out\n        /* \"#utility.yul\":10896:10956   */\n    tag_157:\n        /* \"#utility.yul\":10924:10927   */\n      0x00\n        /* \"#utility.yul\":10945:10950   */\n      dup2\n        /* \"#utility.yul\":10938:10950   */\n      swap1\n      pop\n        /* \"#utility.yul\":10896:10956   */\n      swap2\n      swap1\n      pop\n      jump\t// out\n        /* \"#utility.yul\":10962:11104   */\n    tag_158:\n        /* \"#utility.yul\":11012:11021   */\n      0x00\n        /* \"#utility.yul\":11045:11098   */\n      tag_288\n        /* \"#utility.yul\":11063:11097   */\n      tag_289\n        /* \"#utility.yul\":11072:11096   */\n      tag_290\n        /* \"#utility.yul\":11090:11095   */\n      dup5\n        /* \"#utility.yul\":11072:11096   */\n      tag_125\n      jump\t// in\n    tag_290:\n        /* \"#utility.yul\":11063:11097   */\n      tag_157\n      jump\t// in\n    tag_289:\n        /* \"#utility.yul\":11045:11098   */\n      tag_125\n      jump\t// in\n    tag_288:\n        /* \"#utility.yul\":11032:11098   */\n      swap1\n      pop\n        /* \"#utility.yul\":10962:11104   */\n      swap2\n      swap1\n      pop\n      jump\t// out\n        /* \"#utility.yul\":11110:11185   */\n    tag_159:\n        /* \"#utility.yul\":11153:11156   */\n      0x00\n        /* \"#utility.yul\":11174:11179   */\n      dup2\n        /* \"#utility.yul\":11167:11179   */\n      swap1\n      pop\n        /* \"#utility.yul\":11110:11185   */\n      swap2\n      swap1\n      pop\n      jump\t// out\n        /* \"#utility.yul\":11191:11460   */\n    tag_160:\n        /* \"#utility.yul\":11301:11340   */\n      tag_293\n        /* \"#utility.yul\":11332:11339   */\n      dup4\n        /* \"#utility.yul\":11301:11340   */\n      tag_158\n      jump\t// in\n    tag_293:\n        /* \"#utility.yul\":11362:11453   */\n      tag_294\n        /* \"#utility.yul\":11411:11452   */\n      tag_295\n        /* \"#utility.yul\":11435:11451   */\n      dup3\n        /* \"#utility.yul\":11411:11452   */\n      tag_159\n      jump\t// in\n    tag_295:\n        /* \"#utility.yul\":11403:11409   */\n      dup5\n        /* \"#utility.yul\":11396:11400   */\n      dup5\n        /* \"#utility.yul\":11390:11401   */\n      sload\n        /* \"#utility.yul\":11362:11453   */\n      tag_156\n      jump\t// in\n    tag_294:\n        /* \"#utility.yul\":11356:11360   */\n      dup3\n        /* \"#utility.yul\":11349:11454   */\n      sstore\n        /* \"#utility.yul\":11267:11460   */\n      pop\n        /* \"#utility.yul\":11191:11460   */\n      pop\n      pop\n      pop\n      jump\t// out\n        /* \"#utility.yul\":11466:11539   */\n    tag_161:\n        /* \"#utility.yul\":11511:11514   */\n      0x00\n        /* \"#utility.yul\":11466:11539   */\n      swap1\n      jump\t// out\n        /* \"#utility.yul\":11545:11734   */\n    tag_162:\n        /* \"#utility.yul\":11622:11654   */\n      tag_298\n      tag_161\n      jump\t// in\n    tag_298:\n        /* \"#utility.yul\":11663:11728   */\n      tag_299\n        /* \"#utility.yul\":11721:11727   */\n      dup2\n        /* \"#utility.yul\":11713:11719   */\n      dup5\n        /* \"#utility.yul\":11707:11711   */\n      dup5\n        /* \"#utility.yul\":11663:11728   */\n      tag_160\n      jump\t// in\n    tag_299:\n        /* \"#utility.yul\":11598:11734   */\n      pop\n        /* \"#utility.yul\":11545:11734   */\n      pop\n      pop\n      jump\t// out\n        /* \"#utility.yul\":11740:11926   */\n    tag_163:\n        /* \"#utility.yul\":11800:11920   */\n    tag_301:\n        /* \"#utility.yul\":11817:11820   */\n      dup2\n        /* \"#utility.yul\":11810:11815   */\n      dup2\n        /* \"#utility.yul\":11807:11821   */\n      lt\n        /* \"#utility.yul\":11800:11920   */\n      iszero\n      tag_303\n      jumpi\n        /* \"#utility.yul\":11871:11910   */\n      tag_304\n        /* \"#utility.yul\":11908:11909   */\n      0x00\n        /* \"#utility.yul\":11901:11906   */\n      dup3\n        /* \"#utility.yul\":11871:11910   */\n      tag_162\n      jump\t// in\n    tag_304:\n        /* \"#utility.yul\":11844:11845   */\n      0x01\n        /* \"#utility.yul\":11837:11842   */\n      dup2\n        /* \"#utility.yul\":11833:11846   */\n      add\n        /* \"#utility.yul\":11824:11846   */\n      swap1\n      pop\n        /* \"#utility.yul\":11800:11920   */\n      jump(tag_301)\n    tag_303:\n        /* \"#utility.yul\":11740:11926   */\n      pop\n      pop\n      jump\t// out\n        /* \"#utility.yul\":11932:12475   */\n    tag_164:\n        /* \"#utility.yul\":12033:12035   */\n      0x1f\n        /* \"#utility.yul\":12028:12031   */\n      dup3\n        /* \"#utility.yul\":12025:12036   */\n      gt\n        /* \"#utility.yul\":12022:12468   */\n      iszero\n      tag_306\n      jumpi\n        /* \"#utility.yul\":12067:12105   */\n      tag_307\n        /* \"#utility.yul\":12099:12104   */\n      dup2\n        /* \"#utility.yul\":12067:12105   */\n      tag_153\n      jump\t// in\n    tag_307:\n        /* \"#utility.yul\":12151:12180   */\n      tag_308\n        /* \"#utility.yul\":12169:12179   */\n      dup5\n        /* \"#utility.yul\":12151:12180   */\n      tag_154\n      jump\t// in\n    tag_308:\n        /* \"#utility.yul\":12141:12149   */\n      dup2\n        /* \"#utility.yul\":12137:12181   */\n      add\n        /* \"#utility.yul\":12334:12336   */\n      0x20\n        /* \"#utility.yul\":12322:12332   */\n      dup6\n        /* \"#utility.yul\":12319:12337   */\n      lt\n        /* \"#utility.yul\":12316:12365   */\n      iszero\n      tag_309\n      jumpi\n        /* \"#utility.yul\":12355:12363   */\n      dup2\n        /* \"#utility.yul\":12340:12363   */\n      swap1\n      pop\n        /* \"#utility.yul\":12316:12365   */\n    tag_309:\n        /* \"#utility.yul\":12378:12458   */\n      tag_310\n        /* \"#utility.yul\":12434:12456   */\n      tag_311\n        /* \"#utility.yul\":12452:12455   */\n      dup6\n        /* \"#utility.yul\":12434:12456   */\n      tag_154\n      jump\t// in\n    tag_311:\n        /* \"#utility.yul\":12424:12432   */\n      dup4\n        /* \"#utility.yul\":12420:12457   */\n      add\n        /* \"#utility.yul\":12407:12418   */\n      dup3\n        /* \"#utility.yul\":12378:12458   */\n      tag_163\n      jump\t// in\n    tag_310:\n        /* \"#utility.yul\":12037:12468   */\n      pop\n      pop\n        /* \"#utility.yul\":12022:12468   */\n    tag_306:\n        /* \"#utility.yul\":11932:12475   */\n      pop\n      pop\n      pop\n      jump\t// out\n        /* \"#utility.yul\":12481:12598   */\n    tag_165:\n        /* \"#utility.yul\":12535:12543   */\n      0x00\n        /* \"#utility.yul\":12585:12590   */\n      dup3\n        /* \"#utility.yul\":12579:12583   */\n      dup3\n        /* \"#utility.yul\":12575:12591   */\n      shr\n        /* \"#utility.yul\":12554:12591   */\n      swap1\n      pop\n        /* \"#utility.yul\":12481:12598   */\n      swap3\n      swap2\n      pop\n      pop\n      jump\t// out\n        /* \"#utility.yul\":12604:12773   */\n    tag_166:\n        /* \"#utility.yul\":12648:12654   */\n      0x00\n        /* \"#utility.yul\":12681:12732   */\n      tag_314\n        /* \"#utility.yul\":12729:12730   */\n      0x00\n        /* \"#utility.yul\":12725:12731   */\n      not\n        /* \"#utility.yul\":12717:12722   */\n      dup5\n        /* \"#utility.yul\":12714:12715   */\n      0x08\n        /* \"#utility.yul\":12710:12723   */\n      mul\n        /* \"#utility.yul\":12681:12732   */\n      tag_165\n      jump\t// in\n    tag_314:\n        /* \"#utility.yul\":12677:12733   */\n      not\n        /* \"#utility.yul\":12762:12766   */\n      dup1\n        /* \"#utility.yul\":12756:12760   */\n      dup4\n        /* \"#utility.yul\":12752:12767   */\n      and\n        /* \"#utility.yul\":12742:12767   */\n      swap2\n      pop\n        /* \"#utility.yul\":12655:12773   */\n      pop\n        /* \"#utility.yul\":12604:12773   */\n      swap3\n      swap2\n      pop\n      pop\n      jump\t// out\n        /* \"#utility.yul\":12778:13073   */\n    tag_167:\n        /* \"#utility.yul\":12854:12858   */\n      0x00\n        /* \"#utility.yul\":13000:13029   */\n      tag_316\n        /* \"#utility.yul\":13025:13028   */\n      dup4\n        /* \"#utility.yul\":13019:13023   */\n      dup4\n        /* \"#utility.yul\":13000:13029   */\n      tag_166\n      jump\t// in\n    tag_316:\n        /* \"#utility.yul\":12992:13029   */\n      swap2\n      pop\n        /* \"#utility.yul\":13062:13065   */\n      dup3\n        /* \"#utility.yul\":13059:13060   */\n      0x02\n        /* \"#utility.yul\":13055:13066   */\n      mul\n        /* \"#utility.yul\":13049:13053   */\n      dup3\n        /* \"#utility.yul\":13046:13067   */\n      or\n        /* \"#utility.yul\":13038:13067   */\n      swap1\n      pop\n        /* \"#utility.yul\":12778:13073   */\n      swap3\n      swap2\n      pop\n      pop\n      jump\t// out\n        /* \"#utility.yul\":13078:14473   */\n    tag_110:\n        /* \"#utility.yul\":13195:13232   */\n      tag_318\n        /* \"#utility.yul\":13228:13231   */\n      dup3\n        /* \"#utility.yul\":13195:13232   */\n      tag_128\n      jump\t// in\n    tag_318:\n        /* \"#utility.yul\":13297:13315   */\n      0xffffffffffffffff\n        /* \"#utility.yul\":13289:13295   */\n      dup2\n        /* \"#utility.yul\":13286:13316   */\n      gt\n        /* \"#utility.yul\":13283:13339   */\n      iszero\n      tag_319\n      jumpi\n        /* \"#utility.yul\":13319:13337   */\n      tag_320\n      tag_143\n      jump\t// in\n    tag_320:\n        /* \"#utility.yul\":13283:13339   */\n    tag_319:\n        /* \"#utility.yul\":13363:13401   */\n      tag_321\n        /* \"#utility.yul\":13395:13399   */\n      dup3\n        /* \"#utility.yul\":13389:13400   */\n      sload\n        /* \"#utility.yul\":13363:13401   */\n      tag_86\n      jump\t// in\n    tag_321:\n        /* \"#utility.yul\":13448:13515   */\n      tag_322\n        /* \"#utility.yul\":13508:13514   */\n      dup3\n        /* \"#utility.yul\":13500:13506   */\n      dup3\n        /* \"#utility.yul\":13494:13498   */\n      dup6\n        /* \"#utility.yul\":13448:13515   */\n      tag_164\n      jump\t// in\n    tag_322:\n        /* \"#utility.yul\":13542:13543   */\n      0x00\n        /* \"#utility.yul\":13566:13570   */\n      0x20\n        /* \"#utility.yul\":13553:13570   */\n      swap1\n      pop\n        /* \"#utility.yul\":13598:13600   */\n      0x1f\n        /* \"#utility.yul\":13590:13596   */\n      dup4\n        /* \"#utility.yul\":13587:13601   */\n      gt\n        /* \"#utility.yul\":13615:13616   */\n      0x01\n        /* \"#utility.yul\":13610:14228   */\n      dup2\n      eq\n      tag_324\n      jumpi\n        /* \"#utility.yul\":14272:14273   */\n      0x00\n        /* \"#utility.yul\":14289:14295   */\n      dup5\n        /* \"#utility.yul\":14286:14363   */\n      iszero\n      tag_325\n      jumpi\n        /* \"#utility.yul\":14338:14347   */\n      dup3\n        /* \"#utility.yul\":14333:14336   */\n      dup8\n        /* \"#utility.yul\":14329:14348   */\n      add\n        /* \"#utility.yul\":14323:14349   */\n      mload\n        /* \"#utility.yul\":14314:14349   */\n      swap1\n      pop\n        /* \"#utility.yul\":14286:14363   */\n    tag_325:\n        /* \"#utility.yul\":14389:14456   */\n      tag_326\n        /* \"#utility.yul\":14449:14455   */\n      dup6\n        /* \"#utility.yul\":14442:14447   */\n      dup3\n        /* \"#utility.yul\":14389:14456   */\n      tag_167\n      jump\t// in\n    tag_326:\n        /* \"#utility.yul\":14383:14387   */\n      dup7\n        /* \"#utility.yul\":14376:14457   */\n      sstore\n        /* \"#utility.yul\":14245:14467   */\n      pop\n        /* \"#utility.yul\":13580:14467   */\n      jump(tag_323)\n        /* \"#utility.yul\":13610:14228   */\n    tag_324:\n        /* \"#utility.yul\":13662:13666   */\n      0x1f\n        /* \"#utility.yul\":13658:13667   */\n      not\n        /* \"#utility.yul\":13650:13656   */\n      dup5\n        /* \"#utility.yul\":13646:13668   */\n      and\n        /* \"#utility.yul\":13696:13733   */\n      tag_327\n        /* \"#utility.yul\":13728:13732   */\n      dup7\n        /* \"#utility.yul\":13696:13733   */\n      tag_153\n      jump\t// in\n    tag_327:\n        /* \"#utility.yul\":13755:13756   */\n      0x00\n        /* \"#utility.yul\":13769:13977   */\n    tag_328:\n        /* \"#utility.yul\":13783:13790   */\n      dup3\n        /* \"#utility.yul\":13780:13781   */\n      dup2\n        /* \"#utility.yul\":13777:13791   */\n      lt\n        /* \"#utility.yul\":13769:13977   */\n      iszero\n      tag_330\n      jumpi\n        /* \"#utility.yul\":13862:13871   */\n      dup5\n        /* \"#utility.yul\":13857:13860   */\n      dup10\n        /* \"#utility.yul\":13853:13872   */\n      add\n        /* \"#utility.yul\":13847:13873   */\n      mload\n        /* \"#utility.yul\":13839:13845   */\n      dup3\n        /* \"#utility.yul\":13832:13874   */\n      sstore\n        /* \"#utility.yul\":13913:13914   */\n      0x01\n        /* \"#utility.yul\":13905:13911   */\n      dup3\n        /* \"#utility.yul\":13901:13915   */\n      add\n        /* \"#utility.yul\":13891:13915   */\n      swap2\n      pop\n        /* \"#utility.yul\":13960:13962   */\n      0x20\n        /* \"#utility.yul\":13949:13958   */\n      dup6\n        /* \"#utility.yul\":13945:13963   */\n      add\n        /* \"#utility.yul\":13932:13963   */\n      swap5\n      pop\n        /* \"#utility.yul\":13806:13810   */\n      0x20\n        /* \"#utility.yul\":13803:13804   */\n      dup2\n        /* \"#utility.yul\":13799:13811   */\n      add\n        /* \"#utility.yul\":13794:13811   */\n      swap1\n      pop\n        /* \"#utility.yul\":13769:13977   */\n      jump(tag_328)\n    tag_330:\n        /* \"#utility.yul\":14005:14011   */\n      dup7\n        /* \"#utility.yul\":13996:14003   */\n      dup4\n        /* \"#utility.yul\":13993:14012   */\n      lt\n        /* \"#utility.yul\":13990:14169   */\n      iszero\n      tag_331\n      jumpi\n        /* \"#utility.yul\":14063:14072   */\n      dup5\n        /* \"#utility.yul\":14058:14061   */\n      dup10\n        /* \"#utility.yul\":14054:14073   */\n      add\n        /* \"#utility.yul\":14048:14074   */\n      mload\n        /* \"#utility.yul\":14106:14154   */\n      tag_332\n        /* \"#utility.yul\":14148:14152   */\n      0x1f\n        /* \"#utility.yul\":14140:14146   */\n      dup10\n        /* \"#utility.yul\":14136:14153   */\n      and\n        /* \"#utility.yul\":14125:14134   */\n      dup3\n        /* \"#utility.yul\":14106:14154   */\n      tag_166\n      jump\t// in\n    tag_332:\n        /* \"#utility.yul\":14098:14104   */\n      dup4\n        /* \"#utility.yul\":14091:14155   */\n      sstore\n        /* \"#utility.yul\":14013:14169   */\n      pop\n        /* \"#utility.yul\":13990:14169   */\n    tag_331:\n        /* \"#utility.yul\":14215:14216   */\n      0x01\n        /* \"#utility.yul\":14211:14212   */\n      0x02\n        /* \"#utility.yul\":14203:14209   */\n      dup9\n        /* \"#utility.yul\":14199:14213   */\n      mul\n        /* \"#utility.yul\":14195:14217   */\n      add\n        /* \"#utility.yul\":14189:14193   */\n      dup9\n        /* \"#utility.yul\":14182:14218   */\n      sstore\n        /* \"#utility.yul\":13617:14228   */\n      pop\n      pop\n      pop\n        /* \"#utility.yul\":13580:14467   */\n    tag_323:\n      pop\n        /* \"#utility.yul\":13170:14473   */\n      pop\n      pop\n      pop\n        /* \"#utility.yul\":13078:14473   */\n      pop\n      pop\n      jump\t// out\n        /* \"#utility.yul\":14479:14712   */\n    tag_114:\n        /* \"#utility.yul\":14518:14521   */\n      0x00\n        /* \"#utility.yul\":14541:14565   */\n      tag_334\n        /* \"#utility.yul\":14559:14564   */\n      dup3\n        /* \"#utility.yul\":14541:14565   */\n      tag_125\n      jump\t// in\n    tag_334:\n        /* \"#utility.yul\":14532:14565   */\n      swap2\n      pop\n        /* \"#utility.yul\":14587:14653   */\n      0xffffffffffffffffffffffffffffffffffffffffffffffffffffffffffffffff\n        /* \"#utility.yul\":14580:14585   */\n      dup3\n        /* \"#utility.yul\":14577:14654   */\n      sub\n        /* \"#utility.yul\":14574:14677   */\n      tag_335\n      jumpi\n        /* \"#utility.yul\":14657:14675   */\n      tag_336\n      tag_151\n      jump\t// in\n    tag_336:\n        /* \"#utility.yul\":14574:14677   */\n    tag_335:\n        /* \"#utility.yul\":14704:14705   */\n      0x01\n        /* \"#utility.yul\":14697:14702   */\n      dup3\n        /* \"#utility.yul\":14693:14706   */\n      add\n        /* \"#utility.yul\":14686:14706   */\n      swap1\n      pop\n        /* \"#utility.yul\":14479:14712   */\n      swap2\n      swap1\n      pop\n      jump\t// out\n\n    auxdata: 0xa2646970667358221220a54b79d39313440abc9d0ed244d264a3123803268d577f8d4edd17a749ee854264736f6c63430008140033\n}\n","bytecode":{"linkReferences":{},"object":"608060405234801562000010575f80fd5b506040516200180c3803806200180c8339818101604052810190620000369190620002b6565b8160015f6101000a81548173ffffffffffffffffffffffffffffffffffffffff021916908373ffffffffffffffffffffffffffffffffffffffff1602179055508260028190555080600390816200008e91906200055c565b5050505062000640565b5f604051905090565b5f80fd5b5f80fd5b5f819050919050565b620000bd81620000a9565b8114620000c8575f80fd5b50565b5f81519050620000db81620000b2565b92915050565b5f73ffffffffffffffffffffffffffffffffffffffff82169050919050565b5f6200010c82620000e1565b9050919050565b6200011e8162000100565b811462000129575f80fd5b50565b5f815190506200013c8162000113565b92915050565b5f80fd5b5f80fd5b5f601f19601f8301169050919050565b7f4e487b71000000000000000000000000000000000000000000000000000000005f52604160045260245ffd5b62000192826200014a565b810181811067ffffffffffffffff82111715620001b457620001b36200015a565b5b80604052505050565b5f620001c862000098565b9050620001d6828262000187565b919050565b5f67ffffffffffffffff821115620001f857620001f76200015a565b5b62000203826200014a565b9050602081019050919050565b5f5b838110156200022f57808201518184015260208101905062000212565b5f8484015250505050565b5f620002506200024a84620001db565b620001bd565b9050828152602081018484840111156200026f576200026e62000146565b5b6200027c84828562000210565b509392505050565b5f82601f8301126200029b576200029a62000142565b5b8151620002ad8482602086016200023a565b91505092915050565b5f805f60608486031215620002d057620002cf620000a1565b5b5f620002df86828701620000cb565b9350506020620002f2868287016200012c565b925050604084015167ffffffffffffffff811115620003165762000315620000a5565b5b620003248682870162000284565b9150509250925092565b5f81519050919050565b7f4e487b71000000000000000000000000000000000000000000000000000000005f52602260045260245ffd5b5f60028204905060018216806200037d57607f821691505b60208210810362000393576200039262000338565b5b50919050565b5f819050815f5260205f209050919050565b5f6020601f8301049050919050565b5f82821b905092915050565b5f60088302620003f77fffffffffffffffffffffffffffffffffffffffffffffffffffffffffffffffff82620003ba565b620004038683620003ba565b95508019841693508086168417925050509392505050565b5f819050919050565b5f620004446200043e6200043884620000a9565b6200041b565b620000a9565b9050919050565b5f819050919050565b6200045f8362000424565b620004776200046e826200044b565b848454620003c6565b825550505050565b5f90565b6200048d6200047f565b6200049a81848462000454565b505050565b5b81811015620004c157620004b55f8262000483565b600181019050620004a0565b5050565b601f8211156200051057620004da8162000399565b620004e584620003ab565b81016020851015620004f5578190505b6200050d6200050485620003ab565b8301826200049f565b50505b505050565b5f82821c905092915050565b5f620005325f198460080262000515565b1980831691505092915050565b5f6200054c838362000521565b9150826002028217905092915050565b62000567826200032e565b67ffffffffffffffff8111156200058357620005826200015a565b5b6200058f825462000365565b6200059c828285620004c5565b5f60209050601f831160018114620005d2575f8415620005bd578287015190505b620005c985826200053f565b86555062000638565b601f198416620005e28662000399565b5f5b828110156200060b57848901518255600182019150602085019450602081019050620005e4565b868310156200062b578489015162000627601f89168262000521565b8355505b6001600288020188555050505b505050505050565b6111be806200064e5f395ff3fe6080604052600436106100a6575f3560e01c806381d12c581161006357806381d12c58146101bb57806382fde093146101fb5780638a9cfd5514610225578063937e09b11461024d578063d7bb99ba14610277578063d7d1bbdb14610281576100a6565b806303441006146100aa57806306fdde03146100d25780630a144391146100fc5780633410452a146101385780634051ddac14610162578063481c6a7514610191575b5f80fd5b3480156100b5575f80fd5b506100d060048036038101906100cb919061098e565b6102a9565b005b3480156100dd575f80fd5b506100e66103e7565b6040516100f39190610a43565b60405180910390f35b348015610107575f80fd5b50610122600480360381019061011d9190610abd565b610473565b60405161012f9190610b02565b60405180910390f35b348015610143575f80fd5b5061014c610490565b6040516101599190610b2a565b60405180910390f35b34801561016d575f80fd5b5061017661049b565b60405161018896959493929190610b52565b60405180910390f35b34801561019c575f80fd5b506101a5610570565b6040516101b29190610bb8565b60405180910390f35b3480156101c6575f80fd5b506101e160048036038101906101dc919061098e565b610595565b6040516101f2959493929190610bd1565b60405180910390f35b348015610206575f80fd5b5061020f610687565b60405161021c9190610b2a565b60405180910390f35b348015610230575f80fd5b5061024b60048036038101906102469190610d55565b61068d565b005b348015610258575f80fd5b5061026161078c565b60405161026e9190610b2a565b60405180910390f35b61027f610792565b005b34801561028c575f80fd5b506102a760048036038101906102a2919061098e565b61080d565b005b60015f9054906101000a900473ffffffffffffffffffffffffffffffffffffffff1673ffffffffffffffffffffffffffffffffffffffff163373ffffffffffffffffffffffffffffffffffffffff1614610301575f80fd5b5f80828154811061031557610314610dc1565b5b905f5260205f209060050201905060026005546103329190610e48565b816003015411610340575f80fd5b8060020160149054906101000a900460ff161561035b575f80fd5b806002015f9054906101000a900473ffffffffffffffffffffffffffffffffffffffff1673ffffffffffffffffffffffffffffffffffffffff166108fc826001015490811502906040515f60405180830381858888f193505050501580156103c5573d5f803e3d5ffd5b5060018160020160146101000a81548160ff0219169083151502179055505050565b600380546103f490610ea5565b80601f016020809104026020016040519081016040528092919081815260200182805461042090610ea5565b801561046b5780601f106104425761010080835404028352916020019161046b565b820191905f5260205f20905b81548152906001019060200180831161044e57829003601f168201915b505050505081565b6004602052805f5260405f205f915054906101000a900460ff1681565b5f8080549050905090565b5f805f805f6060600254475f8054905060055460015f9054906101000a900473ffffffffffffffffffffffffffffffffffffffff1660038080546104de90610ea5565b80601f016020809104026020016040519081016040528092919081815260200182805461050a90610ea5565b80156105555780601f1061052c57610100808354040283529160200191610555565b820191905f5260205f20905b81548152906001019060200180831161053857829003601f168201915b50505050509050955095509550955095509550909192939495565b60015f9054906101000a900473ffffffffffffffffffffffffffffffffffffffff1681565b5f81815481106105a3575f80fd5b905f5260205f2090600502015f91509050805f0180546105c290610ea5565b80601f01602080910402602001604051908101604052809291908181526020018280546105ee90610ea5565b80156106395780601f1061061057610100808354040283529160200191610639565b820191905f5260205f20905b81548152906001019060200180831161061c57829003601f168201915b505050505090806001015490806002015f9054906101000a900473ffffffffffffffffffffffffffffffffffffffff16908060020160149054906101000a900460ff16908060030154905085565b60055481565b60015f9054906101000a900473ffffffffffffffffffffffffffffffffffffffff1673ffffffffffffffffffffffffffffffffffffffff163373ffffffffffffffffffffffffffffffffffffffff16146106e5575f80fd5b5f8060018160018154018082558091505003905f5260205f209060050201905083815f0190816107159190611072565b5082816001018190555081816002015f6101000a81548173ffffffffffffffffffffffffffffffffffffffff021916908373ffffffffffffffffffffffffffffffffffffffff1602179055505f8160020160146101000a81548160ff0219169083151502179055505f816003018190555050505050565b60025481565b600254341161079f575f80fd5b600160045f3373ffffffffffffffffffffffffffffffffffffffff1673ffffffffffffffffffffffffffffffffffffffff1681526020019081526020015f205f6101000a81548160ff02191690831515021790555060055f81548092919061080690611141565b9190505550565b5f80828154811061082157610820610dc1565b5b905f5260205f209060050201905060045f3373ffffffffffffffffffffffffffffffffffffffff1673ffffffffffffffffffffffffffffffffffffffff1681526020019081526020015f205f9054906101000a900460ff16610881575f80fd5b806004015f3373ffffffffffffffffffffffffffffffffffffffff1673ffffffffffffffffffffffffffffffffffffffff1681526020019081526020015f205f9054906101000a900460ff16156108d6575f80fd5b6001816004015f3373ffffffffffffffffffffffffffffffffffffffff1673ffffffffffffffffffffffffffffffffffffffff1681526020019081526020015f205f6101000a81548160ff021916908315150217905550806003015f81548092919061094190611141565b91905055505050565b5f604051905090565b5f80fd5b5f80fd5b5f819050919050565b61096d8161095b565b8114610977575f80fd5b50565b5f8135905061098881610964565b92915050565b5f602082840312156109a3576109a2610953565b5b5f6109b08482850161097a565b91505092915050565b5f81519050919050565b5f82825260208201905092915050565b5f5b838110156109f05780820151818401526020810190506109d5565b5f8484015250505050565b5f601f19601f8301169050919050565b5f610a15826109b9565b610a1f81856109c3565b9350610a2f8185602086016109d3565b610a38816109fb565b840191505092915050565b5f6020820190508181035f830152610a5b8184610a0b565b905092915050565b5f73ffffffffffffffffffffffffffffffffffffffff82169050919050565b5f610a8c82610a63565b9050919050565b610a9c81610a82565b8114610aa6575f80fd5b50565b5f81359050610ab781610a93565b92915050565b5f60208284031215610ad257610ad1610953565b5b5f610adf84828501610aa9565b91505092915050565b5f8115159050919050565b610afc81610ae8565b82525050565b5f602082019050610b155f830184610af3565b92915050565b610b248161095b565b82525050565b5f602082019050610b3d5f830184610b1b565b92915050565b610b4c81610a82565b82525050565b5f60c082019050610b655f830189610b1b565b610b726020830188610b1b565b610b7f6040830187610b1b565b610b8c6060830186610b1b565b610b996080830185610b43565b81810360a0830152610bab8184610a0b565b9050979650505050505050565b5f602082019050610bcb5f830184610b43565b92915050565b5f60a0820190508181035f830152610be98188610a0b565b9050610bf86020830187610b1b565b610c056040830186610b43565b610c126060830185610af3565b610c1f6080830184610b1b565b9695505050505050565b5f80fd5b5f80fd5b7f4e487b71000000000000000000000000000000000000000000000000000000005f52604160045260245ffd5b610c67826109fb565b810181811067ffffffffffffffff82111715610c8657610c85610c31565b5b80604052505050565b5f610c9861094a565b9050610ca48282610c5e565b919050565b5f67ffffffffffffffff821115610cc357610cc2610c31565b5b610ccc826109fb565b9050602081019050919050565b828183375f83830152505050565b5f610cf9610cf484610ca9565b610c8f565b905082815260208101848484011115610d1557610d14610c2d565b5b610d20848285610cd9565b509392505050565b5f82601f830112610d3c57610d3b610c29565b5b8135610d4c848260208601610ce7565b91505092915050565b5f805f60608486031215610d6c57610d6b610953565b5b5f84013567ffffffffffffffff811115610d8957610d88610957565b5b610d9586828701610d28565b9350506020610da68682870161097a565b9250506040610db786828701610aa9565b9150509250925092565b7f4e487b71000000000000000000000000000000000000000000000000000000005f52603260045260245ffd5b7f4e487b71000000000000000000000000000000000000000000000000000000005f52601260045260245ffd5b7f4e487b71000000000000000000000000000000000000000000000000000000005f52601160045260245ffd5b5f610e528261095b565b9150610e5d8361095b565b925082610e6d57610e6c610dee565b5b828204905092915050565b7f4e487b71000000000000000000000000000000000000000000000000000000005f52602260045260245ffd5b5f6002820490506001821680610ebc57607f821691505b602082108103610ecf57610ece610e78565b5b50919050565b5f819050815f5260205f209050919050565b5f6020601f8301049050919050565b5f82821b905092915050565b5f60088302610f317fffffffffffffffffffffffffffffffffffffffffffffffffffffffffffffffff82610ef6565b610f3b8683610ef6565b95508019841693508086168417925050509392505050565b5f819050919050565b5f610f76610f71610f6c8461095b565b610f53565b61095b565b9050919050565b5f819050919050565b610f8f83610f5c565b610fa3610f9b82610f7d565b848454610f02565b825550505050565b5f90565b610fb7610fab565b610fc2818484610f86565b505050565b5b81811015610fe557610fda5f82610faf565b600181019050610fc8565b5050565b601f82111561102a57610ffb81610ed5565b61100484610ee7565b81016020851015611013578190505b61102761101f85610ee7565b830182610fc7565b50505b505050565b5f82821c905092915050565b5f61104a5f198460080261102f565b1980831691505092915050565b5f611062838361103b565b9150826002028217905092915050565b61107b826109b9565b67ffffffffffffffff81111561109457611093610c31565b5b61109e8254610ea5565b6110a9828285610fe9565b5f60209050601f8311600181146110da575f84156110c8578287015190505b6110d28582611057565b865550611139565b601f1984166110e886610ed5565b5f5b8281101561110f578489015182556001820191506020850194506020810190506110ea565b8683101561112c5784890151611128601f89168261103b565b8355505b6001600288020188555050505b505050505050565b5f61114b8261095b565b91507fffffffffffffffffffffffffffffffffffffffffffffffffffffffffffffffff820361117d5761117c610e1b565b5b60018201905091905056fea2646970667358221220a54b79d39313440abc9d0ed244d264a3123803268d577f8d4edd17a749ee854264736f6c63430008140033","opcodes":"PUSH1 0x80 PUSH1 0x40 MSTORE CALLVALUE DUP1 ISZERO PUSH3 0x10 JUMPI PUSH0 DUP1 REVERT JUMPDEST POP PUSH1 0x40 MLOAD PUSH3 0x180C CODESIZE SUB DUP1 PUSH3 0x180C DUP4 CODECOPY DUP2 DUP2 ADD PUSH1 0x40 MSTORE DUP2 ADD SWAP1 PUSH3 0x36 SWAP2 SWAP1 PUSH3 0x2B6 JUMP JUMPDEST DUP2 PUSH1 0x1 PUSH0 PUSH2 0x100 EXP DUP2 SLOAD DUP2 PUSH20 0xFFFFFFFFFFFFFFFFFFFFFFFFFFFFFFFFFFFFFFFF MUL NOT AND SWAP1 DUP4 PUSH20 0xFFFFFFFFFFFFFFFFFFFFFFFFFFFFFFFFFFFFFFFF AND MUL OR SWAP1 SSTORE POP DUP3 PUSH1 0x2 DUP2 SWAP1 SSTORE POP DUP1 PUSH1 0x3 SWAP1 DUP2 PUSH3 0x8E SWAP2 SWAP1 PUSH3 0x55C JUMP JUMPDEST POP POP POP POP PUSH3 0x640 JUMP JUMPDEST PUSH0 PUSH1 0x40 MLOAD SWAP1 POP SWAP1 JUMP JUMPDEST PUSH0 DUP1 REVERT JUMPDEST PUSH0 DUP1 REVERT JUMPDEST PUSH0 DUP2 SWAP1 POP SWAP2 SWAP1 POP JUMP JUMPDEST PUSH3 0xBD DUP2 PUSH3 0xA9 JUMP JUMPDEST DUP2 EQ PUSH3 0xC8 JUMPI PUSH0 DUP1 REVERT JUMPDEST POP JUMP JUMPDEST PUSH0 DUP2 MLOAD SWAP1 POP PUSH3 0xDB DUP2 PUSH3 0xB2 JUMP JUMPDEST SWAP3 SWAP2 POP POP JUMP JUMPDEST PUSH0 PUSH20 0xFFFFFFFFFFFFFFFFFFFFFFFFFFFFFFFFFFFFFFFF DUP3 AND SWAP1 POP SWAP2 SWAP1 POP JUMP JUMPDEST PUSH0 PUSH3 0x10C DUP3 PUSH3 0xE1 JUMP JUMPDEST SWAP1 POP SWAP2 SWAP1 POP JUMP JUMPDEST PUSH3 0x11E DUP2 PUSH3 0x100 JUMP JUMPDEST DUP2 EQ PUSH3 0x129 JUMPI PUSH0 DUP1 REVERT JUMPDEST POP JUMP JUMPDEST PUSH0 DUP2 MLOAD SWAP1 POP PUSH3 0x13C DUP2 PUSH3 0x113 JUMP JUMPDEST SWAP3 SWAP2 POP POP JUMP JUMPDEST PUSH0 DUP1 REVERT JUMPDEST PUSH0 DUP1 REVERT JUMPDEST PUSH0 PUSH1 0x1F NOT PUSH1 0x1F DUP4 ADD AND SWAP1 POP SWAP2 SWAP1 POP JUMP JUMPDEST PUSH32 0x4E487B7100000000000000000000000000000000000000000000000000000000 PUSH0 MSTORE PUSH1 0x41 PUSH1 0x4 MSTORE PUSH1 0x24 PUSH0 REVERT JUMPDEST PUSH3 0x192 DUP3 PUSH3 0x14A JUMP JUMPDEST DUP2 ADD DUP2 DUP2 LT PUSH8 0xFFFFFFFFFFFFFFFF DUP3 GT OR ISZERO PUSH3 0x1B4 JUMPI PUSH3 0x1B3 PUSH3 0x15A JUMP JUMPDEST JUMPDEST DUP1 PUSH1 0x40 MSTORE POP POP POP JUMP JUMPDEST PUSH0 PUSH3 0x1C8 PUSH3 0x98 JUMP JUMPDEST SWAP1 POP PUSH3 0x1D6 DUP3 DUP3 PUSH3 0x187 JUMP JUMPDEST SWAP2 SWAP1 POP JUMP JUMPDEST PUSH0 PUSH8 0xFFFFFFFFFFFFFFFF DUP3 GT ISZERO PUSH3 0x1F8 JUMPI PUSH3 0x1F7 PUSH3 0x15A JUMP JUMPDEST JUMPDEST PUSH3 0x203 DUP3 PUSH3 0x14A JUMP JUMPDEST SWAP1 POP PUSH1 0x20 DUP2 ADD SWAP1 POP SWAP2 SWAP1 POP JUMP JUMPDEST PUSH0 JUMPDEST DUP4 DUP2 LT ISZERO PUSH3 0x22F JUMPI DUP1 DUP3 ADD MLOAD DUP2 DUP5 ADD MSTORE PUSH1 0x20 DUP2 ADD SWAP1 POP PUSH3 0x212 JUMP JUMPDEST PUSH0 DUP5 DUP5 ADD MSTORE POP POP POP POP JUMP JUMPDEST PUSH0 PUSH3 0x250 PUSH3 0x24A DUP5 PUSH3 0x1DB JUMP JUMPDEST PUSH3 0x1BD JUMP JUMPDEST SWAP1 POP DUP3 DUP2 MSTORE PUSH1 0x20 DUP2 ADD DUP5 DUP5 DUP5 ADD GT ISZERO PUSH3 0x26F JUMPI PUSH3 0x26E PUSH3 0x146 JUMP JUMPDEST JUMPDEST PUSH3 0x27C DUP5 DUP3 DUP6 PUSH3 0x210 JUMP JUMPDEST POP SWAP4 SWAP3 POP POP POP JUMP JUMPDEST PUSH0 DUP3 PUSH1 0x1F DUP4 ADD SLT PUSH3 0x29B JUMPI PUSH3 0x29A PUSH3 0x142 JUMP JUMPDEST JUMPDEST DUP2 MLOAD PUSH3 0x2AD DUP5 DUP3 PUSH1 0x20 DUP7 ADD PUSH3 0x23A JUMP JUMPDEST SWAP2 POP POP SWAP3 SWAP2 POP POP JUMP JUMPDEST PUSH0 DUP1 PUSH0 PUSH1 0x60 DUP5 DUP7 SUB SLT ISZERO PUSH3 0x2D0 JUMPI PUSH3 0x2CF PUSH3 0xA1 JUMP JUMPDEST JUMPDEST PUSH0 PUSH3 0x2DF DUP7 DUP3 DUP8 ADD PUSH3 0xCB JUMP JUMPDEST SWAP4 POP POP PUSH1 0x20 PUSH3 0x2F2 DUP7 DUP3 DUP8 ADD PUSH3 0x12C JUMP JUMPDEST SWAP3 POP POP PUSH1 0x40 DUP5 ADD MLOAD PUSH8 0xFFFFFFFFFFFFFFFF DUP2 GT ISZERO PUSH3 0x316 JUMPI PUSH3 0x315 PUSH3 0xA5 JUMP JUMPDEST JUMPDEST PUSH3 0x324 DUP7 DUP3 DUP8 ADD PUSH3 0x284 JUMP JUMPDEST SWAP2 POP POP SWAP3 POP SWAP3 POP SWAP3 JUMP JUMPDEST PUSH0 DUP2 MLOAD SWAP1 POP SWAP2 SWAP1 POP JUMP JUMPDEST PUSH32 0x4E487B7100000000000000000000000000000000000000000000000000000000 PUSH0 MSTORE PUSH1 0x22 PUSH1 0x4 MSTORE PUSH1 0x24 PUSH0 REVERT JUMPDEST PUSH0 PUSH1 0x2 DUP3 DIV SWAP1 POP PUSH1 0x1 DUP3 AND DUP1 PUSH3 0x37D JUMPI PUSH1 0x7F DUP3 AND SWAP2 POP JUMPDEST PUSH1 0x20 DUP3 LT DUP2 SUB PUSH3 0x393 JUMPI PUSH3 0x392 PUSH3 0x338 JUMP JUMPDEST JUMPDEST POP SWAP2 SWAP1 POP JUMP JUMPDEST PUSH0 DUP2 SWAP1 POP DUP2 PUSH0 MSTORE PUSH1 0x20 PUSH0 KECCAK256 SWAP1 POP SWAP2 SWAP1 POP JUMP JUMPDEST PUSH0 PUSH1 0x20 PUSH1 0x1F DUP4 ADD DIV SWAP1 POP SWAP2 SWAP1 POP JUMP JUMPDEST PUSH0 DUP3 DUP3 SHL SWAP1 POP SWAP3 SWAP2 POP POP JUMP JUMPDEST PUSH0 PUSH1 0x8 DUP4 MUL PUSH3 0x3F7 PUSH32 0xFFFFFFFFFFFFFFFFFFFFFFFFFFFFFFFFFFFFFFFFFFFFFFFFFFFFFFFFFFFFFFFF DUP3 PUSH3 0x3BA JUMP JUMPDEST PUSH3 0x403 DUP7 DUP4 PUSH3 0x3BA JUMP JUMPDEST SWAP6 POP DUP1 NOT DUP5 AND SWAP4 POP DUP1 DUP7 AND DUP5 OR SWAP3 POP POP POP SWAP4 SWAP3 POP POP POP JUMP JUMPDEST PUSH0 DUP2 SWAP1 POP SWAP2 SWAP1 POP JUMP JUMPDEST PUSH0 PUSH3 0x444 PUSH3 0x43E PUSH3 0x438 DUP5 PUSH3 0xA9 JUMP JUMPDEST PUSH3 0x41B JUMP JUMPDEST PUSH3 0xA9 JUMP JUMPDEST SWAP1 POP SWAP2 SWAP1 POP JUMP JUMPDEST PUSH0 DUP2 SWAP1 POP SWAP2 SWAP1 POP JUMP JUMPDEST PUSH3 0x45F DUP4 PUSH3 0x424 JUMP JUMPDEST PUSH3 0x477 PUSH3 0x46E DUP3 PUSH3 0x44B JUMP JUMPDEST DUP5 DUP5 SLOAD PUSH3 0x3C6 JUMP JUMPDEST DUP3 SSTORE POP POP POP POP JUMP JUMPDEST PUSH0 SWAP1 JUMP JUMPDEST PUSH3 0x48D PUSH3 0x47F JUMP JUMPDEST PUSH3 0x49A DUP2 DUP5 DUP5 PUSH3 0x454 JUMP JUMPDEST POP POP POP JUMP JUMPDEST JUMPDEST DUP2 DUP2 LT ISZERO PUSH3 0x4C1 JUMPI PUSH3 0x4B5 PUSH0 DUP3 PUSH3 0x483 JUMP JUMPDEST PUSH1 0x1 DUP2 ADD SWAP1 POP PUSH3 0x4A0 JUMP JUMPDEST POP POP JUMP JUMPDEST PUSH1 0x1F DUP3 GT ISZERO PUSH3 0x510 JUMPI PUSH3 0x4DA DUP2 PUSH3 0x399 JUMP JUMPDEST PUSH3 0x4E5 DUP5 PUSH3 0x3AB JUMP JUMPDEST DUP2 ADD PUSH1 0x20 DUP6 LT ISZERO PUSH3 0x4F5 JUMPI DUP2 SWAP1 POP JUMPDEST PUSH3 0x50D PUSH3 0x504 DUP6 PUSH3 0x3AB JUMP JUMPDEST DUP4 ADD DUP3 PUSH3 0x49F JUMP JUMPDEST POP POP JUMPDEST POP POP POP JUMP JUMPDEST PUSH0 DUP3 DUP3 SHR SWAP1 POP SWAP3 SWAP2 POP POP JUMP JUMPDEST PUSH0 PUSH3 0x532 PUSH0 NOT DUP5 PUSH1 0x8 MUL PUSH3 0x515 JUMP JUMPDEST NOT DUP1 DUP4 AND SWAP2 POP POP SWAP3 SWAP2 POP POP JUMP JUMPDEST PUSH0 PUSH3 0x54C DUP4 DUP4 PUSH3 0x521 JUMP JUMPDEST SWAP2 POP DUP3 PUSH1 0x2 MUL DUP3 OR SWAP1 POP SWAP3 SWAP2 POP POP JUMP JUMPDEST PUSH3 0x567 DUP3 PUSH3 0x32E JUMP JUMPDEST PUSH8 0xFFFFFFFFFFFFFFFF DUP2 GT ISZERO PUSH3 0x583 JUMPI PUSH3 0x582 PUSH3 0x15A JUMP JUMPDEST JUMPDEST PUSH3 0x58F DUP3 SLOAD PUSH3 0x365 JUMP JUMPDEST PUSH3 0x59C DUP3 DUP3 DUP6 PUSH3 0x4C5 JUMP JUMPDEST PUSH0 PUSH1 0x20 SWAP1 POP PUSH1 0x1F DUP4 GT PUSH1 0x1 DUP2 EQ PUSH3 0x5D2 JUMPI PUSH0 DUP5 ISZERO PUSH3 0x5BD JUMPI DUP3 DUP8 ADD MLOAD SWAP1 POP JUMPDEST PUSH3 0x5C9 DUP6 DUP3 PUSH3 0x53F JUMP JUMPDEST DUP7 SSTORE POP PUSH3 0x638 JUMP JUMPDEST PUSH1 0x1F NOT DUP5 AND PUSH3 0x5E2 DUP7 PUSH3 0x399 JUMP JUMPDEST PUSH0 JUMPDEST DUP3 DUP2 LT ISZERO PUSH3 0x60B JUMPI DUP5 DUP10 ADD MLOAD DUP3 SSTORE PUSH1 0x1 DUP3 ADD SWAP2 POP PUSH1 0x20 DUP6 ADD SWAP5 POP PUSH1 0x20 DUP2 ADD SWAP1 POP PUSH3 0x5E4 JUMP JUMPDEST DUP7 DUP4 LT ISZERO PUSH3 0x62B JUMPI DUP5 DUP10 ADD MLOAD PUSH3 0x627 PUSH1 0x1F DUP10 AND DUP3 PUSH3 0x521 JUMP JUMPDEST DUP4 SSTORE POP JUMPDEST PUSH1 0x1 PUSH1 0x2 DUP9 MUL ADD DUP9 SSTORE POP POP POP JUMPDEST POP POP POP POP POP POP JUMP JUMPDEST PUSH2 0x11BE DUP1 PUSH3 0x64E PUSH0 CODECOPY PUSH0 RETURN INVALID PUSH1 0x80 PUSH1 0x40 MSTORE PUSH1 0x4 CALLDATASIZE LT PUSH2 0xA6 JUMPI PUSH0 CALLDATALOAD PUSH1 0xE0 SHR DUP1 PUSH4 0x81D12C58 GT PUSH2 0x63 JUMPI DUP1 PUSH4 0x81D12C58 EQ PUSH2 0x1BB JUMPI DUP1 PUSH4 0x82FDE093 EQ PUSH2 0x1FB JUMPI DUP1 PUSH4 0x8A9CFD55 EQ PUSH2 0x225 JUMPI DUP1 PUSH4 0x937E09B1 EQ PUSH2 0x24D JUMPI DUP1 PUSH4 0xD7BB99BA EQ PUSH2 0x277 JUMPI DUP1 PUSH4 0xD7D1BBDB EQ PUSH2 0x281 JUMPI PUSH2 0xA6 JUMP JUMPDEST DUP1 PUSH4 0x3441006 EQ PUSH2 0xAA JUMPI DUP1 PUSH4 0x6FDDE03 EQ PUSH2 0xD2 JUMPI DUP1 PUSH4 0xA144391 EQ PUSH2 0xFC JUMPI DUP1 PUSH4 0x3410452A EQ PUSH2 0x138 JUMPI DUP1 PUSH4 0x4051DDAC EQ PUSH2 0x162 JUMPI DUP1 PUSH4 0x481C6A75 EQ PUSH2 0x191 JUMPI JUMPDEST PUSH0 DUP1 REVERT JUMPDEST CALLVALUE DUP1 ISZERO PUSH2 0xB5 JUMPI PUSH0 DUP1 REVERT JUMPDEST POP PUSH2 0xD0 PUSH1 0x4 DUP1 CALLDATASIZE SUB DUP2 ADD SWAP1 PUSH2 0xCB SWAP2 SWAP1 PUSH2 0x98E JUMP JUMPDEST PUSH2 0x2A9 JUMP JUMPDEST STOP JUMPDEST CALLVALUE DUP1 ISZERO PUSH2 0xDD JUMPI PUSH0 DUP1 REVERT JUMPDEST POP PUSH2 0xE6 PUSH2 0x3E7 JUMP JUMPDEST PUSH1 0x40 MLOAD PUSH2 0xF3 SWAP2 SWAP1 PUSH2 0xA43 JUMP JUMPDEST PUSH1 0x40 MLOAD DUP1 SWAP2 SUB SWAP1 RETURN JUMPDEST CALLVALUE DUP1 ISZERO PUSH2 0x107 JUMPI PUSH0 DUP1 REVERT JUMPDEST POP PUSH2 0x122 PUSH1 0x4 DUP1 CALLDATASIZE SUB DUP2 ADD SWAP1 PUSH2 0x11D SWAP2 SWAP1 PUSH2 0xABD JUMP JUMPDEST PUSH2 0x473 JUMP JUMPDEST PUSH1 0x40 MLOAD PUSH2 0x12F SWAP2 SWAP1 PUSH2 0xB02 JUMP JUMPDEST PUSH1 0x40 MLOAD DUP1 SWAP2 SUB SWAP1 RETURN JUMPDEST CALLVALUE DUP1 ISZERO PUSH2 0x143 JUMPI PUSH0 DUP1 REVERT JUMPDEST POP PUSH2 0x14C PUSH2 0x490 JUMP JUMPDEST PUSH1 0x40 MLOAD PUSH2 0x159 SWAP2 SWAP1 PUSH2 0xB2A JUMP JUMPDEST PUSH1 0x40 MLOAD DUP1 SWAP2 SUB SWAP1 RETURN JUMPDEST CALLVALUE DUP1 ISZERO PUSH2 0x16D JUMPI PUSH0 DUP1 REVERT JUMPDEST POP PUSH2 0x176 PUSH2 0x49B JUMP JUMPDEST PUSH1 0x40 MLOAD PUSH2 0x188 SWAP7 SWAP6 SWAP5 SWAP4 SWAP3 SWAP2 SWAP1 PUSH2 0xB52 JUMP JUMPDEST PUSH1 0x40 MLOAD DUP1 SWAP2 SUB SWAP1 RETURN JUMPDEST CALLVALUE DUP1 ISZERO PUSH2 0x19C JUMPI PUSH0 DUP1 REVERT JUMPDEST POP PUSH2 0x1A5 PUSH2 0x570 JUMP JUMPDEST PUSH1 0x40 MLOAD PUSH2 0x1B2 SWAP2 SWAP1 PUSH2 0xBB8 JUMP JUMPDEST PUSH1 0x40 MLOAD DUP1 SWAP2 SUB SWAP1 RETURN JUMPDEST CALLVALUE DUP1 ISZERO PUSH2 0x1C6 JUMPI PUSH0 DUP1 REVERT JUMPDEST POP PUSH2 0x1E1 PUSH1 0x4 DUP1 CALLDATASIZE SUB DUP2 ADD SWAP1 PUSH2 0x1DC SWAP2 SWAP1 PUSH2 0x98E JUMP JUMPDEST PUSH2 0x595 JUMP JUMPDEST PUSH1 0x40 MLOAD PUSH2 0x1F2 SWAP6 SWAP5 SWAP4 SWAP3 SWAP2 SWAP1 PUSH2 0xBD1 JUMP JUMPDEST PUSH1 0x40 MLOAD DUP1 SWAP2 SUB SWAP1 RETURN JUMPDEST CALLVALUE DUP1 ISZERO PUSH2 0x206 JUMPI PUSH0 DUP1 REVERT JUMPDEST POP PUSH2 0x20F PUSH2 0x687 JUMP JUMPDEST PUSH1 0x40 MLOAD PUSH2 0x21C SWAP2 SWAP1 PUSH2 0xB2A JUMP JUMPDEST PUSH1 0x40 MLOAD DUP1 SWAP2 SUB SWAP1 RETURN JUMPDEST CALLVALUE DUP1 ISZERO PUSH2 0x230 JUMPI PUSH0 DUP1 REVERT JUMPDEST POP PUSH2 0x24B PUSH1 0x4 DUP1 CALLDATASIZE SUB DUP2 ADD SWAP1 PUSH2 0x246 SWAP2 SWAP1 PUSH2 0xD55 JUMP JUMPDEST PUSH2 0x68D JUMP JUMPDEST STOP JUMPDEST CALLVALUE DUP1 ISZERO PUSH2 0x258 JUMPI PUSH0 DUP1 REVERT JUMPDEST POP PUSH2 0x261 PUSH2 0x78C JUMP JUMPDEST PUSH1 0x40 MLOAD PUSH2 0x26E SWAP2 SWAP1 PUSH2 0xB2A JUMP JUMPDEST PUSH1 0x40 MLOAD DUP1 SWAP2 SUB SWAP1 RETURN JUMPDEST PUSH2 0x27F PUSH2 0x792 JUMP JUMPDEST STOP JUMPDEST CALLVALUE DUP1 ISZERO PUSH2 0x28C JUMPI PUSH0 DUP1 REVERT JUMPDEST POP PUSH2 0x2A7 PUSH1 0x4 DUP1 CALLDATASIZE SUB DUP2 ADD SWAP1 PUSH2 0x2A2 SWAP2 SWAP1 PUSH2 0x98E JUMP JUMPDEST PUSH2 0x80D JUMP JUMPDEST STOP JUMPDEST PUSH1 0x1 PUSH0 SWAP1 SLOAD SWAP1 PUSH2 0x100 EXP SWAP1 DIV PUSH20 0xFFFFFFFFFFFFFFFFFFFFFFFFFFFFFFFFFFFFFFFF AND PUSH20 0xFFFFFFFFFFFFFFFFFFFFFFFFFFFFFFFFFFFFFFFF AND CALLER PUSH20 0xFFFFFFFFFFFFFFFFFFFFFFFFFFFFFFFFFFFFFFFF AND EQ PUSH2 0x301 JUMPI PUSH0 DUP1 REVERT JUMPDEST PUSH0 DUP1 DUP3 DUP2 SLOAD DUP2 LT PUSH2 0x315 JUMPI PUSH2 0x314 PUSH2 0xDC1 JUMP JUMPDEST JUMPDEST SWAP1 PUSH0 MSTORE PUSH1 0x20 PUSH0 KECCAK256 SWAP1 PUSH1 0x5 MUL ADD SWAP1 POP PUSH1 0x2 PUSH1 0x5 SLOAD PUSH2 0x332 SWAP2 SWAP1 PUSH2 0xE48 JUMP JUMPDEST DUP2 PUSH1 0x3 ADD SLOAD GT PUSH2 0x340 JUMPI PUSH0 DUP1 REVERT JUMPDEST DUP1 PUSH1 0x2 ADD PUSH1 0x14 SWAP1 SLOAD SWAP1 PUSH2 0x100 EXP SWAP1 DIV PUSH1 0xFF AND ISZERO PUSH2 0x35B JUMPI PUSH0 DUP1 REVERT JUMPDEST DUP1 PUSH1 0x2 ADD PUSH0 SWAP1 SLOAD SWAP1 PUSH2 0x100 EXP SWAP1 DIV PUSH20 0xFFFFFFFFFFFFFFFFFFFFFFFFFFFFFFFFFFFFFFFF AND PUSH20 0xFFFFFFFFFFFFFFFFFFFFFFFFFFFFFFFFFFFFFFFF AND PUSH2 0x8FC DUP3 PUSH1 0x1 ADD SLOAD SWAP1 DUP2 ISZERO MUL SWAP1 PUSH1 0x40 MLOAD PUSH0 PUSH1 0x40 MLOAD DUP1 DUP4 SUB DUP2 DUP6 DUP9 DUP9 CALL SWAP4 POP POP POP POP ISZERO DUP1 ISZERO PUSH2 0x3C5 JUMPI RETURNDATASIZE PUSH0 DUP1 RETURNDATACOPY RETURNDATASIZE PUSH0 REVERT JUMPDEST POP PUSH1 0x1 DUP2 PUSH1 0x2 ADD PUSH1 0x14 PUSH2 0x100 EXP DUP2 SLOAD DUP2 PUSH1 0xFF MUL NOT AND SWAP1 DUP4 ISZERO ISZERO MUL OR SWAP1 SSTORE POP POP POP JUMP JUMPDEST PUSH1 0x3 DUP1 SLOAD PUSH2 0x3F4 SWAP1 PUSH2 0xEA5 JUMP JUMPDEST DUP1 PUSH1 0x1F ADD PUSH1 0x20 DUP1 SWAP2 DIV MUL PUSH1 0x20 ADD PUSH1 0x40 MLOAD SWAP1 DUP2 ADD PUSH1 0x40 MSTORE DUP1 SWAP3 SWAP2 SWAP1 DUP2 DUP2 MSTORE PUSH1 0x20 ADD DUP3 DUP1 SLOAD PUSH2 0x420 SWAP1 PUSH2 0xEA5 JUMP JUMPDEST DUP1 ISZERO PUSH2 0x46B JUMPI DUP1 PUSH1 0x1F LT PUSH2 0x442 JUMPI PUSH2 0x100 DUP1 DUP4 SLOAD DIV MUL DUP4 MSTORE SWAP2 PUSH1 0x20 ADD SWAP2 PUSH2 0x46B JUMP JUMPDEST DUP3 ADD SWAP2 SWAP1 PUSH0 MSTORE PUSH1 0x20 PUSH0 KECCAK256 SWAP1 JUMPDEST DUP2 SLOAD DUP2 MSTORE SWAP1 PUSH1 0x1 ADD SWAP1 PUSH1 0x20 ADD DUP1 DUP4 GT PUSH2 0x44E JUMPI DUP3 SWAP1 SUB PUSH1 0x1F AND DUP3 ADD SWAP2 JUMPDEST POP POP POP POP POP DUP2 JUMP JUMPDEST PUSH1 0x4 PUSH1 0x20 MSTORE DUP1 PUSH0 MSTORE PUSH1 0x40 PUSH0 KECCAK256 PUSH0 SWAP2 POP SLOAD SWAP1 PUSH2 0x100 EXP SWAP1 DIV PUSH1 0xFF AND DUP2 JUMP JUMPDEST PUSH0 DUP1 DUP1 SLOAD SWAP1 POP SWAP1 POP SWAP1 JUMP JUMPDEST PUSH0 DUP1 PUSH0 DUP1 PUSH0 PUSH1 0x60 PUSH1 0x2 SLOAD SELFBALANCE PUSH0 DUP1 SLOAD SWAP1 POP PUSH1 0x5 SLOAD PUSH1 0x1 PUSH0 SWAP1 SLOAD SWAP1 PUSH2 0x100 EXP SWAP1 DIV PUSH20 0xFFFFFFFFFFFFFFFFFFFFFFFFFFFFFFFFFFFFFFFF AND PUSH1 0x3 DUP1 DUP1 SLOAD PUSH2 0x4DE SWAP1 PUSH2 0xEA5 JUMP JUMPDEST DUP1 PUSH1 0x1F ADD PUSH1 0x20 DUP1 SWAP2 DIV MUL PUSH1 0x20 ADD PUSH1 0x40 MLOAD SWAP1 DUP2 ADD PUSH1 0x40 MSTORE DUP1 SWAP3 SWAP2 SWAP1 DUP2 DUP2 MSTORE PUSH1 0x20 ADD DUP3 DUP1 SLOAD PUSH2 0x50A SWAP1 PUSH2 0xEA5 JUMP JUMPDEST DUP1 ISZERO PUSH2 0x555 JUMPI DUP1 PUSH1 0x1F LT PUSH2 0x52C JUMPI PUSH2 0x100 DUP1 DUP4 SLOAD DIV MUL DUP4 MSTORE SWAP2 PUSH1 0x20 ADD SWAP2 PUSH2 0x555 JUMP JUMPDEST DUP3 ADD SWAP2 SWAP1 PUSH0 MSTORE PUSH1 0x20 PUSH0 KECCAK256 SWAP1 JUMPDEST DUP2 SLOAD DUP2 MSTORE SWAP1 PUSH1 0x1 ADD SWAP1 PUSH1 0x20 ADD DUP1 DUP4 GT PUSH2 0x538 JUMPI DUP3 SWAP1 SUB PUSH1 0x1F AND DUP3 ADD SWAP2 JUMPDEST POP POP POP POP POP SWAP1 POP SWAP6 POP SWAP6 POP SWAP6 POP SWAP6 POP SWAP6 POP SWAP6 POP SWAP1 SWAP2 SWAP3 SWAP4 SWAP5 SWAP6 JUMP JUMPDEST PUSH1 0x1 PUSH0 SWAP1 SLOAD SWAP1 PUSH2 0x100 EXP SWAP1 DIV PUSH20 0xFFFFFFFFFFFFFFFFFFFFFFFFFFFFFFFFFFFFFFFF AND DUP2 JUMP JUMPDEST PUSH0 DUP2 DUP2 SLOAD DUP2 LT PUSH2 0x5A3 JUMPI PUSH0 DUP1 REVERT JUMPDEST SWAP1 PUSH0 MSTORE PUSH1 0x20 PUSH0 KECCAK256 SWAP1 PUSH1 0x5 MUL ADD PUSH0 SWAP2 POP SWAP1 POP DUP1 PUSH0 ADD DUP1 SLOAD PUSH2 0x5C2 SWAP1 PUSH2 0xEA5 JUMP JUMPDEST DUP1 PUSH1 0x1F ADD PUSH1 0x20 DUP1 SWAP2 DIV MUL PUSH1 0x20 ADD PUSH1 0x40 MLOAD SWAP1 DUP2 ADD PUSH1 0x40 MSTORE DUP1 SWAP3 SWAP2 SWAP1 DUP2 DUP2 MSTORE PUSH1 0x20 ADD DUP3 DUP1 SLOAD PUSH2 0x5EE SWAP1 PUSH2 0xEA5 JUMP JUMPDEST DUP1 ISZERO PUSH2 0x639 JUMPI DUP1 PUSH1 0x1F LT PUSH2 0x610 JUMPI PUSH2 0x100 DUP1 DUP4 SLOAD DIV MUL DUP4 MSTORE SWAP2 PUSH1 0x20 ADD SWAP2 PUSH2 0x639 JUMP JUMPDEST DUP3 ADD SWAP2 SWAP1 PUSH0 MSTORE PUSH1 0x20 PUSH0 KECCAK256 SWAP1 JUMPDEST DUP2 SLOAD DUP2 MSTORE SWAP1 PUSH1 0x1 ADD SWAP1 PUSH1 0x20 ADD DUP1 DUP4 GT PUSH2 0x61C JUMPI DUP3 SWAP1 SUB PUSH1 0x1F AND DUP3 ADD SWAP2 JUMPDEST POP POP POP POP POP SWAP1 DUP1 PUSH1 0x1 ADD SLOAD SWAP1 DUP1 PUSH1 0x2 ADD PUSH0 SWAP1 SLOAD SWAP1 PUSH2 0x100 EXP SWAP1 DIV PUSH20 0xFFFFFFFFFFFFFFFFFFFFFFFFFFFFFFFFFFFFFFFF AND SWAP1 DUP1 PUSH1 0x2 ADD PUSH1 0x14 SWAP1 SLOAD SWAP1 PUSH2 0x100 EXP SWAP1 DIV PUSH1 0xFF AND SWAP1 DUP1 PUSH1 0x3 ADD SLOAD SWAP1 POP DUP6 JUMP JUMPDEST PUSH1 0x5 SLOAD DUP2 JUMP JUMPDEST PUSH1 0x1 PUSH0 SWAP1 SLOAD SWAP1 PUSH2 0x100 EXP SWAP1 DIV PUSH20 0xFFFFFFFFFFFFFFFFFFFFFFFFFFFFFFFFFFFFFFFF AND PUSH20 0xFFFFFFFFFFFFFFFFFFFFFFFFFFFFFFFFFFFFFFFF AND CALLER PUSH20 0xFFFFFFFFFFFFFFFFFFFFFFFFFFFFFFFFFFFFFFFF AND EQ PUSH2 0x6E5 JUMPI PUSH0 DUP1 REVERT JUMPDEST PUSH0 DUP1 PUSH1 0x1 DUP2 PUSH1 0x1 DUP2 SLOAD ADD DUP1 DUP3 SSTORE DUP1 SWAP2 POP POP SUB SWAP1 PUSH0 MSTORE PUSH1 0x20 PUSH0 KECCAK256 SWAP1 PUSH1 0x5 MUL ADD SWAP1 POP DUP4 DUP2 PUSH0 ADD SWAP1 DUP2 PUSH2 0x715 SWAP2 SWAP1 PUSH2 0x1072 JUMP JUMPDEST POP DUP3 DUP2 PUSH1 0x1 ADD DUP2 SWAP1 SSTORE POP DUP2 DUP2 PUSH1 0x2 ADD PUSH0 PUSH2 0x100 EXP DUP2 SLOAD DUP2 PUSH20 0xFFFFFFFFFFFFFFFFFFFFFFFFFFFFFFFFFFFFFFFF MUL NOT AND SWAP1 DUP4 PUSH20 0xFFFFFFFFFFFFFFFFFFFFFFFFFFFFFFFFFFFFFFFF AND MUL OR SWAP1 SSTORE POP PUSH0 DUP2 PUSH1 0x2 ADD PUSH1 0x14 PUSH2 0x100 EXP DUP2 SLOAD DUP2 PUSH1 0xFF MUL NOT AND SWAP1 DUP4 ISZERO ISZERO MUL OR SWAP1 SSTORE POP PUSH0 DUP2 PUSH1 0x3 ADD DUP2 SWAP1 SSTORE POP POP POP POP POP JUMP JUMPDEST PUSH1 0x2 SLOAD DUP2 JUMP JUMPDEST PUSH1 0x2 SLOAD CALLVALUE GT PUSH2 0x79F JUMPI PUSH0 DUP1 REVERT JUMPDEST PUSH1 0x1 PUSH1 0x4 PUSH0 CALLER PUSH20 0xFFFFFFFFFFFFFFFFFFFFFFFFFFFFFFFFFFFFFFFF AND PUSH20 0xFFFFFFFFFFFFFFFFFFFFFFFFFFFFFFFFFFFFFFFF AND DUP2 MSTORE PUSH1 0x20 ADD SWAP1 DUP2 MSTORE PUSH1 0x20 ADD PUSH0 KECCAK256 PUSH0 PUSH2 0x100 EXP DUP2 SLOAD DUP2 PUSH1 0xFF MUL NOT AND SWAP1 DUP4 ISZERO ISZERO MUL OR SWAP1 SSTORE POP PUSH1 0x5 PUSH0 DUP2 SLOAD DUP1 SWAP3 SWAP2 SWAP1 PUSH2 0x806 SWAP1 PUSH2 0x1141 JUMP JUMPDEST SWAP2 SWAP1 POP SSTORE POP JUMP JUMPDEST PUSH0 DUP1 DUP3 DUP2 SLOAD DUP2 LT PUSH2 0x821 JUMPI PUSH2 0x820 PUSH2 0xDC1 JUMP JUMPDEST JUMPDEST SWAP1 PUSH0 MSTORE PUSH1 0x20 PUSH0 KECCAK256 SWAP1 PUSH1 0x5 MUL ADD SWAP1 POP PUSH1 0x4 PUSH0 CALLER PUSH20 0xFFFFFFFFFFFFFFFFFFFFFFFFFFFFFFFFFFFFFFFF AND PUSH20 0xFFFFFFFFFFFFFFFFFFFFFFFFFFFFFFFFFFFFFFFF AND DUP2 MSTORE PUSH1 0x20 ADD SWAP1 DUP2 MSTORE PUSH1 0x20 ADD PUSH0 KECCAK256 PUSH0 SWAP1 SLOAD SWAP1 PUSH2 0x100 EXP SWAP1 DIV PUSH1 0xFF AND PUSH2 0x881 JUMPI PUSH0 DUP1 REVERT JUMPDEST DUP1 PUSH1 0x4 ADD PUSH0 CALLER PUSH20 0xFFFFFFFFFFFFFFFFFFFFFFFFFFFFFFFFFFFFFFFF AND PUSH20 0xFFFFFFFFFFFFFFFFFFFFFFFFFFFFFFFFFFFFFFFF AND DUP2 MSTORE PUSH1 0x20 ADD SWAP1 DUP2 MSTORE PUSH1 0x20 ADD PUSH0 KECCAK256 PUSH0 SWAP1 SLOAD SWAP1 PUSH2 0x100 EXP SWAP1 DIV PUSH1 0xFF AND ISZERO PUSH2 0x8D6 JUMPI PUSH0 DUP1 REVERT JUMPDEST PUSH1 0x1 DUP2 PUSH1 0x4 ADD PUSH0 CALLER PUSH20 0xFFFFFFFFFFFFFFFFFFFFFFFFFFFFFFFFFFFFFFFF AND PUSH20 0xFFFFFFFFFFFFFFFFFFFFFFFFFFFFFFFFFFFFFFFF AND DUP2 MSTORE PUSH1 0x20 ADD SWAP1 DUP2 MSTORE PUSH1 0x20 ADD PUSH0 KECCAK256 PUSH0 PUSH2 0x100 EXP DUP2 SLOAD DUP2 PUSH1 0xFF MUL NOT AND SWAP1 DUP4 ISZERO ISZERO MUL OR SWAP1 SSTORE POP DUP1 PUSH1 0x3 ADD PUSH0 DUP2 SLOAD DUP1 SWAP3 SWAP2 SWAP1 PUSH2 0x941 SWAP1 PUSH2 0x1141 JUMP JUMPDEST SWAP2 SWAP1 POP SSTORE POP POP POP JUMP JUMPDEST PUSH0 PUSH1 0x40 MLOAD SWAP1 POP SWAP1 JUMP JUMPDEST PUSH0 DUP1 REVERT JUMPDEST PUSH0 DUP1 REVERT JUMPDEST PUSH0 DUP2 SWAP1 POP SWAP2 SWAP1 POP JUMP JUMPDEST PUSH2 0x96D DUP2 PUSH2 0x95B JUMP JUMPDEST DUP2 EQ PUSH2 0x977 JUMPI PUSH0 DUP1 REVERT JUMPDEST POP JUMP JUMPDEST PUSH0 DUP2 CALLDATALOAD SWAP1 POP PUSH2 0x988 DUP2 PUSH2 0x964 JUMP JUMPDEST SWAP3 SWAP2 POP POP JUMP JUMPDEST PUSH0 PUSH1 0x20 DUP3 DUP5 SUB SLT ISZERO PUSH2 0x9A3 JUMPI PUSH2 0x9A2 PUSH2 0x953 JUMP JUMPDEST JUMPDEST PUSH0 PUSH2 0x9B0 DUP5 DUP3 DUP6 ADD PUSH2 0x97A JUMP JUMPDEST SWAP2 POP POP SWAP3 SWAP2 POP POP JUMP JUMPDEST PUSH0 DUP2 MLOAD SWAP1 POP SWAP2 SWAP1 POP JUMP JUMPDEST PUSH0 DUP3 DUP3 MSTORE PUSH1 0x20 DUP3 ADD SWAP1 POP SWAP3 SWAP2 POP POP JUMP JUMPDEST PUSH0 JUMPDEST DUP4 DUP2 LT ISZERO PUSH2 0x9F0 JUMPI DUP1 DUP3 ADD MLOAD DUP2 DUP5 ADD MSTORE PUSH1 0x20 DUP2 ADD SWAP1 POP PUSH2 0x9D5 JUMP JUMPDEST PUSH0 DUP5 DUP5 ADD MSTORE POP POP POP POP JUMP JUMPDEST PUSH0 PUSH1 0x1F NOT PUSH1 0x1F DUP4 ADD AND SWAP1 POP SWAP2 SWAP1 POP JUMP JUMPDEST PUSH0 PUSH2 0xA15 DUP3 PUSH2 0x9B9 JUMP JUMPDEST PUSH2 0xA1F DUP2 DUP6 PUSH2 0x9C3 JUMP JUMPDEST SWAP4 POP PUSH2 0xA2F DUP2 DUP6 PUSH1 0x20 DUP7 ADD PUSH2 0x9D3 JUMP JUMPDEST PUSH2 0xA38 DUP2 PUSH2 0x9FB JUMP JUMPDEST DUP5 ADD SWAP2 POP POP SWAP3 SWAP2 POP POP JUMP JUMPDEST PUSH0 PUSH1 0x20 DUP3 ADD SWAP1 POP DUP2 DUP2 SUB PUSH0 DUP4 ADD MSTORE PUSH2 0xA5B DUP2 DUP5 PUSH2 0xA0B JUMP JUMPDEST SWAP1 POP SWAP3 SWAP2 POP POP JUMP JUMPDEST PUSH0 PUSH20 0xFFFFFFFFFFFFFFFFFFFFFFFFFFFFFFFFFFFFFFFF DUP3 AND SWAP1 POP SWAP2 SWAP1 POP JUMP JUMPDEST PUSH0 PUSH2 0xA8C DUP3 PUSH2 0xA63 JUMP JUMPDEST SWAP1 POP SWAP2 SWAP1 POP JUMP JUMPDEST PUSH2 0xA9C DUP2 PUSH2 0xA82 JUMP JUMPDEST DUP2 EQ PUSH2 0xAA6 JUMPI PUSH0 DUP1 REVERT JUMPDEST POP JUMP JUMPDEST PUSH0 DUP2 CALLDATALOAD SWAP1 POP PUSH2 0xAB7 DUP2 PUSH2 0xA93 JUMP JUMPDEST SWAP3 SWAP2 POP POP JUMP JUMPDEST PUSH0 PUSH1 0x20 DUP3 DUP5 SUB SLT ISZERO PUSH2 0xAD2 JUMPI PUSH2 0xAD1 PUSH2 0x953 JUMP JUMPDEST JUMPDEST PUSH0 PUSH2 0xADF DUP5 DUP3 DUP6 ADD PUSH2 0xAA9 JUMP JUMPDEST SWAP2 POP POP SWAP3 SWAP2 POP POP JUMP JUMPDEST PUSH0 DUP2 ISZERO ISZERO SWAP1 POP SWAP2 SWAP1 POP JUMP JUMPDEST PUSH2 0xAFC DUP2 PUSH2 0xAE8 JUMP JUMPDEST DUP3 MSTORE POP POP JUMP JUMPDEST PUSH0 PUSH1 0x20 DUP3 ADD SWAP1 POP PUSH2 0xB15 PUSH0 DUP4 ADD DUP5 PUSH2 0xAF3 JUMP JUMPDEST SWAP3 SWAP2 POP POP JUMP JUMPDEST PUSH2 0xB24 DUP2 PUSH2 0x95B JUMP JUMPDEST DUP3 MSTORE POP POP JUMP JUMPDEST PUSH0 PUSH1 0x20 DUP3 ADD SWAP1 POP PUSH2 0xB3D PUSH0 DUP4 ADD DUP5 PUSH2 0xB1B JUMP JUMPDEST SWAP3 SWAP2 POP POP JUMP JUMPDEST PUSH2 0xB4C DUP2 PUSH2 0xA82 JUMP JUMPDEST DUP3 MSTORE POP POP JUMP JUMPDEST PUSH0 PUSH1 0xC0 DUP3 ADD SWAP1 POP PUSH2 0xB65 PUSH0 DUP4 ADD DUP10 PUSH2 0xB1B JUMP JUMPDEST PUSH2 0xB72 PUSH1 0x20 DUP4 ADD DUP9 PUSH2 0xB1B JUMP JUMPDEST PUSH2 0xB7F PUSH1 0x40 DUP4 ADD DUP8 PUSH2 0xB1B JUMP JUMPDEST PUSH2 0xB8C PUSH1 0x60 DUP4 ADD DUP7 PUSH2 0xB1B JUMP JUMPDEST PUSH2 0xB99 PUSH1 0x80 DUP4 ADD DUP6 PUSH2 0xB43 JUMP JUMPDEST DUP2 DUP2 SUB PUSH1 0xA0 DUP4 ADD MSTORE PUSH2 0xBAB DUP2 DUP5 PUSH2 0xA0B JUMP JUMPDEST SWAP1 POP SWAP8 SWAP7 POP POP POP POP POP POP POP JUMP JUMPDEST PUSH0 PUSH1 0x20 DUP3 ADD SWAP1 POP PUSH2 0xBCB PUSH0 DUP4 ADD DUP5 PUSH2 0xB43 JUMP JUMPDEST SWAP3 SWAP2 POP POP JUMP JUMPDEST PUSH0 PUSH1 0xA0 DUP3 ADD SWAP1 POP DUP2 DUP2 SUB PUSH0 DUP4 ADD MSTORE PUSH2 0xBE9 DUP2 DUP9 PUSH2 0xA0B JUMP JUMPDEST SWAP1 POP PUSH2 0xBF8 PUSH1 0x20 DUP4 ADD DUP8 PUSH2 0xB1B JUMP JUMPDEST PUSH2 0xC05 PUSH1 0x40 DUP4 ADD DUP7 PUSH2 0xB43 JUMP JUMPDEST PUSH2 0xC12 PUSH1 0x60 DUP4 ADD DUP6 PUSH2 0xAF3 JUMP JUMPDEST PUSH2 0xC1F PUSH1 0x80 DUP4 ADD DUP5 PUSH2 0xB1B JUMP JUMPDEST SWAP7 SWAP6 POP POP POP POP POP POP JUMP JUMPDEST PUSH0 DUP1 REVERT JUMPDEST PUSH0 DUP1 REVERT JUMPDEST PUSH32 0x4E487B7100000000000000000000000000000000000000000000000000000000 PUSH0 MSTORE PUSH1 0x41 PUSH1 0x4 MSTORE PUSH1 0x24 PUSH0 REVERT JUMPDEST PUSH2 0xC67 DUP3 PUSH2 0x9FB JUMP JUMPDEST DUP2 ADD DUP2 DUP2 LT PUSH8 0xFFFFFFFFFFFFFFFF DUP3 GT OR ISZERO PUSH2 0xC86 JUMPI PUSH2 0xC85 PUSH2 0xC31 JUMP JUMPDEST JUMPDEST DUP1 PUSH1 0x40 MSTORE POP POP POP JUMP JUMPDEST PUSH0 PUSH2 0xC98 PUSH2 0x94A JUMP JUMPDEST SWAP1 POP PUSH2 0xCA4 DUP3 DUP3 PUSH2 0xC5E JUMP JUMPDEST SWAP2 SWAP1 POP JUMP JUMPDEST PUSH0 PUSH8 0xFFFFFFFFFFFFFFFF DUP3 GT ISZERO PUSH2 0xCC3 JUMPI PUSH2 0xCC2 PUSH2 0xC31 JUMP JUMPDEST JUMPDEST PUSH2 0xCCC DUP3 PUSH2 0x9FB JUMP JUMPDEST SWAP1 POP PUSH1 0x20 DUP2 ADD SWAP1 POP SWAP2 SWAP1 POP JUMP JUMPDEST DUP3 DUP2 DUP4 CALLDATACOPY PUSH0 DUP4 DUP4 ADD MSTORE POP POP POP JUMP JUMPDEST PUSH0 PUSH2 0xCF9 PUSH2 0xCF4 DUP5 PUSH2 0xCA9 JUMP JUMPDEST PUSH2 0xC8F JUMP JUMPDEST SWAP1 POP DUP3 DUP2 MSTORE PUSH1 0x20 DUP2 ADD DUP5 DUP5 DUP5 ADD GT ISZERO PUSH2 0xD15 JUMPI PUSH2 0xD14 PUSH2 0xC2D JUMP JUMPDEST JUMPDEST PUSH2 0xD20 DUP5 DUP3 DUP6 PUSH2 0xCD9 JUMP JUMPDEST POP SWAP4 SWAP3 POP POP POP JUMP JUMPDEST PUSH0 DUP3 PUSH1 0x1F DUP4 ADD SLT PUSH2 0xD3C JUMPI PUSH2 0xD3B PUSH2 0xC29 JUMP JUMPDEST JUMPDEST DUP2 CALLDATALOAD PUSH2 0xD4C DUP5 DUP3 PUSH1 0x20 DUP7 ADD PUSH2 0xCE7 JUMP JUMPDEST SWAP2 POP POP SWAP3 SWAP2 POP POP JUMP JUMPDEST PUSH0 DUP1 PUSH0 PUSH1 0x60 DUP5 DUP7 SUB SLT ISZERO PUSH2 0xD6C JUMPI PUSH2 0xD6B PUSH2 0x953 JUMP JUMPDEST JUMPDEST PUSH0 DUP5 ADD CALLDATALOAD PUSH8 0xFFFFFFFFFFFFFFFF DUP2 GT ISZERO PUSH2 0xD89 JUMPI PUSH2 0xD88 PUSH2 0x957 JUMP JUMPDEST JUMPDEST PUSH2 0xD95 DUP7 DUP3 DUP8 ADD PUSH2 0xD28 JUMP JUMPDEST SWAP4 POP POP PUSH1 0x20 PUSH2 0xDA6 DUP7 DUP3 DUP8 ADD PUSH2 0x97A JUMP JUMPDEST SWAP3 POP POP PUSH1 0x40 PUSH2 0xDB7 DUP7 DUP3 DUP8 ADD PUSH2 0xAA9 JUMP JUMPDEST SWAP2 POP POP SWAP3 POP SWAP3 POP SWAP3 JUMP JUMPDEST PUSH32 0x4E487B7100000000000000000000000000000000000000000000000000000000 PUSH0 MSTORE PUSH1 0x32 PUSH1 0x4 MSTORE PUSH1 0x24 PUSH0 REVERT JUMPDEST PUSH32 0x4E487B7100000000000000000000000000000000000000000000000000000000 PUSH0 MSTORE PUSH1 0x12 PUSH1 0x4 MSTORE PUSH1 0x24 PUSH0 REVERT JUMPDEST PUSH32 0x4E487B7100000000000000000000000000000000000000000000000000000000 PUSH0 MSTORE PUSH1 0x11 PUSH1 0x4 MSTORE PUSH1 0x24 PUSH0 REVERT JUMPDEST PUSH0 PUSH2 0xE52 DUP3 PUSH2 0x95B JUMP JUMPDEST SWAP2 POP PUSH2 0xE5D DUP4 PUSH2 0x95B JUMP JUMPDEST SWAP3 POP DUP3 PUSH2 0xE6D JUMPI PUSH2 0xE6C PUSH2 0xDEE JUMP JUMPDEST JUMPDEST DUP3 DUP3 DIV SWAP1 POP SWAP3 SWAP2 POP POP JUMP JUMPDEST PUSH32 0x4E487B7100000000000000000000000000000000000000000000000000000000 PUSH0 MSTORE PUSH1 0x22 PUSH1 0x4 MSTORE PUSH1 0x24 PUSH0 REVERT JUMPDEST PUSH0 PUSH1 0x2 DUP3 DIV SWAP1 POP PUSH1 0x1 DUP3 AND DUP1 PUSH2 0xEBC JUMPI PUSH1 0x7F DUP3 AND SWAP2 POP JUMPDEST PUSH1 0x20 DUP3 LT DUP2 SUB PUSH2 0xECF JUMPI PUSH2 0xECE PUSH2 0xE78 JUMP JUMPDEST JUMPDEST POP SWAP2 SWAP1 POP JUMP JUMPDEST PUSH0 DUP2 SWAP1 POP DUP2 PUSH0 MSTORE PUSH1 0x20 PUSH0 KECCAK256 SWAP1 POP SWAP2 SWAP1 POP JUMP JUMPDEST PUSH0 PUSH1 0x20 PUSH1 0x1F DUP4 ADD DIV SWAP1 POP SWAP2 SWAP1 POP JUMP JUMPDEST PUSH0 DUP3 DUP3 SHL SWAP1 POP SWAP3 SWAP2 POP POP JUMP JUMPDEST PUSH0 PUSH1 0x8 DUP4 MUL PUSH2 0xF31 PUSH32 0xFFFFFFFFFFFFFFFFFFFFFFFFFFFFFFFFFFFFFFFFFFFFFFFFFFFFFFFFFFFFFFFF DUP3 PUSH2 0xEF6 JUMP JUMPDEST PUSH2 0xF3B DUP7 DUP4 PUSH2 0xEF6 JUMP JUMPDEST SWAP6 POP DUP1 NOT DUP5 AND SWAP4 POP DUP1 DUP7 AND DUP5 OR SWAP3 POP POP POP SWAP4 SWAP3 POP POP POP JUMP JUMPDEST PUSH0 DUP2 SWAP1 POP SWAP2 SWAP1 POP JUMP JUMPDEST PUSH0 PUSH2 0xF76 PUSH2 0xF71 PUSH2 0xF6C DUP5 PUSH2 0x95B JUMP JUMPDEST PUSH2 0xF53 JUMP JUMPDEST PUSH2 0x95B JUMP JUMPDEST SWAP1 POP SWAP2 SWAP1 POP JUMP JUMPDEST PUSH0 DUP2 SWAP1 POP SWAP2 SWAP1 POP JUMP JUMPDEST PUSH2 0xF8F DUP4 PUSH2 0xF5C JUMP JUMPDEST PUSH2 0xFA3 PUSH2 0xF9B DUP3 PUSH2 0xF7D JUMP JUMPDEST DUP5 DUP5 SLOAD PUSH2 0xF02 JUMP JUMPDEST DUP3 SSTORE POP POP POP POP JUMP JUMPDEST PUSH0 SWAP1 JUMP JUMPDEST PUSH2 0xFB7 PUSH2 0xFAB JUMP JUMPDEST PUSH2 0xFC2 DUP2 DUP5 DUP5 PUSH2 0xF86 JUMP JUMPDEST POP POP POP JUMP JUMPDEST JUMPDEST DUP2 DUP2 LT ISZERO PUSH2 0xFE5 JUMPI PUSH2 0xFDA PUSH0 DUP3 PUSH2 0xFAF JUMP JUMPDEST PUSH1 0x1 DUP2 ADD SWAP1 POP PUSH2 0xFC8 JUMP JUMPDEST POP POP JUMP JUMPDEST PUSH1 0x1F DUP3 GT ISZERO PUSH2 0x102A JUMPI PUSH2 0xFFB DUP2 PUSH2 0xED5 JUMP JUMPDEST PUSH2 0x1004 DUP5 PUSH2 0xEE7 JUMP JUMPDEST DUP2 ADD PUSH1 0x20 DUP6 LT ISZERO PUSH2 0x1013 JUMPI DUP2 SWAP1 POP JUMPDEST PUSH2 0x1027 PUSH2 0x101F DUP6 PUSH2 0xEE7 JUMP JUMPDEST DUP4 ADD DUP3 PUSH2 0xFC7 JUMP JUMPDEST POP POP JUMPDEST POP POP POP JUMP JUMPDEST PUSH0 DUP3 DUP3 SHR SWAP1 POP SWAP3 SWAP2 POP POP JUMP JUMPDEST PUSH0 PUSH2 0x104A PUSH0 NOT DUP5 PUSH1 0x8 MUL PUSH2 0x102F JUMP JUMPDEST NOT DUP1 DUP4 AND SWAP2 POP POP SWAP3 SWAP2 POP POP JUMP JUMPDEST PUSH0 PUSH2 0x1062 DUP4 DUP4 PUSH2 0x103B JUMP JUMPDEST SWAP2 POP DUP3 PUSH1 0x2 MUL DUP3 OR SWAP1 POP SWAP3 SWAP2 POP POP JUMP JUMPDEST PUSH2 0x107B DUP3 PUSH2 0x9B9 JUMP JUMPDEST PUSH8 0xFFFFFFFFFFFFFFFF DUP2 GT ISZERO PUSH2 0x1094 JUMPI PUSH2 0x1093 PUSH2 0xC31 JUMP JUMPDEST JUMPDEST PUSH2 0x109E DUP3 SLOAD PUSH2 0xEA5 JUMP JUMPDEST PUSH2 0x10A9 DUP3 DUP3 DUP6 PUSH2 0xFE9 JUMP JUMPDEST PUSH0 PUSH1 0x20 SWAP1 POP PUSH1 0x1F DUP4 GT PUSH1 0x1 DUP2 EQ PUSH2 0x10DA JUMPI PUSH0 DUP5 ISZERO PUSH2 0x10C8 JUMPI DUP3 DUP8 ADD MLOAD SWAP1 POP JUMPDEST PUSH2 0x10D2 DUP6 DUP3 PUSH2 0x1057 JUMP JUMPDEST DUP7 SSTORE POP PUSH2 0x1139 JUMP JUMPDEST PUSH1 0x1F NOT DUP5 AND PUSH2 0x10E8 DUP7 PUSH2 0xED5 JUMP JUMPDEST PUSH0 JUMPDEST DUP3 DUP2 LT ISZERO PUSH2 0x110F JUMPI DUP5 DUP10 ADD MLOAD DUP3 SSTORE PUSH1 0x1 DUP3 ADD SWAP2 POP PUSH1 0x20 DUP6 ADD SWAP5 POP PUSH1 0x20 DUP2 ADD SWAP1 POP PUSH2 0x10EA JUMP JUMPDEST DUP7 DUP4 LT ISZERO PUSH2 0x112C JUMPI DUP5 DUP10 ADD MLOAD PUSH2 0x1128 PUSH1 0x1F DUP10 AND DUP3 PUSH2 0x103B JUMP JUMPDEST DUP4 SSTORE POP JUMPDEST PUSH1 0x1 PUSH1 0x2 DUP9 MUL ADD DUP9 SSTORE POP POP POP JUMPDEST POP POP POP POP POP POP JUMP JUMPDEST PUSH0 PUSH2 0x114B DUP3 PUSH2 0x95B JUMP JUMPDEST SWAP2 POP PUSH32 0xFFFFFFFFFFFFFFFFFFFFFFFFFFFFFFFFFFFFFFFFFFFFFFFFFFFFFFFFFFFFFFFF DUP3 SUB PUSH2 0x117D JUMPI PUSH2 0x117C PUSH2 0xE1B JUMP JUMPDEST JUMPDEST PUSH1 0x1 DUP3 ADD SWAP1 POP SWAP2 SWAP1 POP JUMP INVALID LOG2 PUSH5 0x6970667358 0x22 SLT KECCAK256 0xA5 0x4B PUSH26 0xD39313440ABC9D0ED244D264A3123803268D577F8D4EDD17A749 0xEE DUP6 TIMESTAMP PUSH5 0x736F6C6343 STOP ADDMOD EQ STOP CALLER "},"gasEstimates":{"creation":{"codeDepositCost":"908400","executionCost":"infinite","totalCost":"infinite"},"external":{"approveRequest(uint256)":"infinite","approvers(address)":"2878","approversCount()":"2447","contribute()":"51036","createRequest(string,uint256,address)":"infinite","finalizeRequest(uint256)":"infinite","getRequestsCount()":"2507","getSummary()":"infinite","manager()":"2619","minimumContribution()":"2491","name()":"infinite","requests(uint256)":"infinite"}},"methodIdentifiers":{"approveRequest(uint256)":"d7d1bbdb","approvers(address)":"0a144391","approversCount()":"82fde093","contribute()":"d7bb99ba","createRequest(string,uint256,address)":"8a9cfd55","finalizeRequest(uint256)":"03441006","getRequestsCount()":"3410452a","getSummary()":"4051ddac","manager()":"481c6a75","minimumContribution()":"937e09b1","name()":"06fdde03","requests(uint256)":"81d12c58"}},"storageLayout":{"storage":[{"astId":64,"contract":"Crowdfunding.sol:Crowdfunding","label":"requests","offset":0,"slot":"0","type":"t_array(t_struct(Request)60_storage)dyn_storage"},{"astId":66,"contract":"Crowdfunding.sol:Crowdfunding","label":"manager","offset":0,"slot":"1","type":"t_address"},{"astId":68,"contract":"Crowdfunding.sol:Crowdfunding","label":"minimumContribution","offset":0,"slot":"2","type":"t_uint256"},{"astId":70,"contract":"Crowdfunding.sol:Crowdfunding","label":"name","offset":0,"slot":"3","type":"t_string_storage"},{"astId":74,"contract":"Crowdfunding.sol:Crowdfunding","label":"approvers","offset":0,"slot":"4","type":"t_mapping(t_address,t_bool)"},{"astId":76,"contract":"Crowdfunding.sol:Crowdfunding","label":"approversCount","offset":0,"slot":"5","type":"t_uint256"}],"types":{"t_address":{"encoding":"inplace","label":"address","numberOfBytes":"20"},"t_array(t_struct(Request)60_storage)dyn_storage":{"base":"t_struct(Request)60_storage","encoding":"dynamic_array","label":"struct Crowdfunding.Request[]","numberOfBytes":"32"},"t_bool":{"encoding":"inplace","label":"bool","numberOfBytes":"1"},"t_mapping(t_address,t_bool)":{"encoding":"mapping","key":"t_address","label":"mapping(address => bool)","numberOfBytes":"32","value":"t_bool"},"t_string_storage":{"encoding":"bytes","label":"string","numberOfBytes":"32"},"t_struct(Request)60_storage":{"encoding":"inplace","label":"struct Crowdfunding.Request","members":[{"astId":47,"contract":"Crowdfunding.sol:Crowdfunding","label":"description","offset":0,"slot":"0","type":"t_string_storage"},{"astId":49,"contract":"Crowdfunding.sol:Crowdfunding","label":"value","offset":0,"slot":"1","type":"t_uint256"},{"astId":51,"contract":"Crowdfunding.sol:Crowdfunding","label":"recipient","offset":0,"slot":"2","type":"t_address"},{"astId":53,"contract":"Crowdfunding.sol:Crowdfunding","label":"complete","offset":20,"slot":"2","type":"t_bool"},{"astId":55,"contract":"Crowdfunding.sol:Crowdfunding","label":"approvalCount","offset":0,"slot":"3","type":"t_uint256"},{"astId":59,"contract":"Crowdfunding.sol:Crowdfunding","label":"approvals","offset":0,"slot":"4","type":"t_mapping(t_address,t_bool)"}],"numberOfBytes":"160"},"t_uint256":{"encoding":"inplace","label":"uint256","numberOfBytes":"32"}}},"userdoc":{"kind":"user","methods":{},"version":1}}